{
  "abi": [
    {
      "inputs": [
        {
          "internalType": "address",
          "name": "_registryAddress",
          "type": "address"
        }
      ],
      "stateMutability": "nonpayable",
      "type": "constructor"
    },
    {
      "anonymous": false,
      "inputs": [
        {
          "indexed": true,
          "internalType": "bytes32",
          "name": "ownerKey",
          "type": "bytes32"
        },
        {
          "indexed": false,
          "internalType": "uint256",
          "name": "index",
          "type": "uint256"
        },
        {
          "indexed": false,
          "internalType": "string",
          "name": "dataType",
          "type": "string"
        },
        {
          "indexed": false,
          "internalType": "string",
          "name": "HI",
          "type": "string"
        }
      ],
      "name": "EHRDataAdded",
      "type": "event"
    },
    {
      "inputs": [
        {
          "internalType": "bytes32",
          "name": "",
          "type": "bytes32"
        },
        {
          "internalType": "uint256",
          "name": "",
          "type": "uint256"
        }
      ],
      "name": "Data",
      "outputs": [
        {
          "internalType": "string",
          "name": "dataType",
          "type": "string"
        },
        {
          "internalType": "string",
          "name": "HI",
          "type": "string"
        },
        {
          "internalType": "bytes",
          "name": "encKey",
          "type": "bytes"
        }
      ],
      "stateMutability": "view",
      "type": "function"
    },
    {
      "inputs": [
        {
          "internalType": "bytes32",
          "name": "ownerKey",
          "type": "bytes32"
        },
        {
          "internalType": "string",
          "name": "dataType",
          "type": "string"
        },
        {
          "internalType": "string",
          "name": "HI",
          "type": "string"
        },
        {
          "internalType": "bytes",
          "name": "encKey",
          "type": "bytes"
        }
      ],
      "name": "addEHRdata",
      "outputs": [],
      "stateMutability": "nonpayable",
      "type": "function"
    },
    {
      "inputs": [],
      "name": "registry",
      "outputs": [
        {
          "internalType": "contract Registry",
          "name": "",
          "type": "address"
        }
      ],
      "stateMutability": "view",
      "type": "function"
    },
    {
      "inputs": [
        {
          "internalType": "bytes32",
          "name": "userKey",
          "type": "bytes32"
        }
      ],
      "name": "searchData",
      "outputs": [
        {
          "internalType": "string[]",
          "name": "",
          "type": "string[]"
        },
        {
          "internalType": "string[]",
          "name": "",
          "type": "string[]"
        },
        {
          "internalType": "bytes[]",
          "name": "",
          "type": "bytes[]"
        }
      ],
      "stateMutability": "view",
      "type": "function"
    }
  ],
  "devdoc": {
    "kind": "dev",
    "methods": {},
    "version": 1
  },
  "evm": {
    "assembly": "    /* \"metadata.sol\":160:1902  contract Metadata {... */\n  mstore(0x40, 0x80)\n    /* \"metadata.sol\":596:690  constructor(address _registryAddress) {... */\n  callvalue\n  dup1\n  iszero\n  tag_1\n  jumpi\n  0x00\n  dup1\n  revert\ntag_1:\n  pop\n  mload(0x40)\n  sub(codesize, bytecodeSize)\n  dup1\n  bytecodeSize\n  dup4\n  codecopy\n  dup2\n  dup2\n  add\n  0x40\n  mstore\n  dup2\n  add\n  swap1\n  tag_2\n  swap2\n  swap1\n  tag_3\n  jump\t// in\ntag_2:\n    /* \"metadata.sol\":665:681  _registryAddress */\n  dup1\n    /* \"metadata.sol\":645:653  registry */\n  0x00\n  dup1\n    /* \"metadata.sol\":645:682  registry = Registry(_registryAddress) */\n  0x0100\n  exp\n  dup2\n  sload\n  dup2\n  0xffffffffffffffffffffffffffffffffffffffff\n  mul\n  not\n  and\n  swap1\n  dup4\n  0xffffffffffffffffffffffffffffffffffffffff\n  and\n  mul\n  or\n  swap1\n  sstore\n  pop\n    /* \"metadata.sol\":596:690  constructor(address _registryAddress) {... */\n  pop\n    /* \"metadata.sol\":160:1902  contract Metadata {... */\n  jump(tag_6)\n    /* \"#utility.yul\":88:205   */\ntag_8:\n    /* \"#utility.yul\":197:198   */\n  0x00\n    /* \"#utility.yul\":194:195   */\n  dup1\n    /* \"#utility.yul\":187:199   */\n  revert\n    /* \"#utility.yul\":334:460   */\ntag_10:\n    /* \"#utility.yul\":371:378   */\n  0x00\n    /* \"#utility.yul\":411:453   */\n  0xffffffffffffffffffffffffffffffffffffffff\n    /* \"#utility.yul\":404:409   */\n  dup3\n    /* \"#utility.yul\":400:454   */\n  and\n    /* \"#utility.yul\":389:454   */\n  swap1\n  pop\n    /* \"#utility.yul\":334:460   */\n  swap2\n  swap1\n  pop\n  jump\t// out\n    /* \"#utility.yul\":466:562   */\ntag_11:\n    /* \"#utility.yul\":503:510   */\n  0x00\n    /* \"#utility.yul\":532:556   */\n  tag_20\n    /* \"#utility.yul\":550:555   */\n  dup3\n    /* \"#utility.yul\":532:556   */\n  tag_10\n  jump\t// in\ntag_20:\n    /* \"#utility.yul\":521:556   */\n  swap1\n  pop\n    /* \"#utility.yul\":466:562   */\n  swap2\n  swap1\n  pop\n  jump\t// out\n    /* \"#utility.yul\":568:690   */\ntag_12:\n    /* \"#utility.yul\":641:665   */\n  tag_22\n    /* \"#utility.yul\":659:664   */\n  dup2\n    /* \"#utility.yul\":641:665   */\n  tag_11\n  jump\t// in\ntag_22:\n    /* \"#utility.yul\":634:639   */\n  dup2\n    /* \"#utility.yul\":631:666   */\n  eq\n    /* \"#utility.yul\":621:684   */\n  tag_23\n  jumpi\n    /* \"#utility.yul\":680:681   */\n  0x00\n    /* \"#utility.yul\":677:678   */\n  dup1\n    /* \"#utility.yul\":670:682   */\n  revert\n    /* \"#utility.yul\":621:684   */\ntag_23:\n    /* \"#utility.yul\":568:690   */\n  pop\n  jump\t// out\n    /* \"#utility.yul\":696:839   */\ntag_13:\n    /* \"#utility.yul\":753:758   */\n  0x00\n    /* \"#utility.yul\":784:790   */\n  dup2\n    /* \"#utility.yul\":778:791   */\n  mload\n    /* \"#utility.yul\":769:791   */\n  swap1\n  pop\n    /* \"#utility.yul\":800:833   */\n  tag_25\n    /* \"#utility.yul\":827:832   */\n  dup2\n    /* \"#utility.yul\":800:833   */\n  tag_12\n  jump\t// in\ntag_25:\n    /* \"#utility.yul\":696:839   */\n  swap3\n  swap2\n  pop\n  pop\n  jump\t// out\n    /* \"#utility.yul\":845:1196   */\ntag_3:\n    /* \"#utility.yul\":915:921   */\n  0x00\n    /* \"#utility.yul\":964:966   */\n  0x20\n    /* \"#utility.yul\":952:961   */\n  dup3\n    /* \"#utility.yul\":943:950   */\n  dup5\n    /* \"#utility.yul\":939:962   */\n  sub\n    /* \"#utility.yul\":935:967   */\n  slt\n    /* \"#utility.yul\":932:1051   */\n  iszero\n  tag_27\n  jumpi\n    /* \"#utility.yul\":970:1049   */\n  tag_28\n  tag_8\n  jump\t// in\ntag_28:\n    /* \"#utility.yul\":932:1051   */\ntag_27:\n    /* \"#utility.yul\":1090:1091   */\n  0x00\n    /* \"#utility.yul\":1115:1179   */\n  tag_29\n    /* \"#utility.yul\":1171:1178   */\n  dup5\n    /* \"#utility.yul\":1162:1168   */\n  dup3\n    /* \"#utility.yul\":1151:1160   */\n  dup6\n    /* \"#utility.yul\":1147:1169   */\n  add\n    /* \"#utility.yul\":1115:1179   */\n  tag_13\n  jump\t// in\ntag_29:\n    /* \"#utility.yul\":1105:1179   */\n  swap2\n  pop\n    /* \"#utility.yul\":1061:1189   */\n  pop\n    /* \"#utility.yul\":845:1196   */\n  swap3\n  swap2\n  pop\n  pop\n  jump\t// out\n    /* \"metadata.sol\":160:1902  contract Metadata {... */\ntag_6:\n  dataSize(sub_0)\n  dup1\n  dataOffset(sub_0)\n  0x00\n  codecopy\n  0x00\n  return\nstop\n\nsub_0: assembly {\n        /* \"metadata.sol\":160:1902  contract Metadata {... */\n      mstore(0x40, 0x80)\n      callvalue\n      dup1\n      iszero\n      tag_1\n      jumpi\n      0x00\n      dup1\n      revert\n    tag_1:\n      pop\n      jumpi(tag_2, lt(calldatasize, 0x04))\n      shr(0xe0, calldataload(0x00))\n      dup1\n      0x2cb73406\n      eq\n      tag_3\n      jumpi\n      dup1\n      0x65375a04\n      eq\n      tag_4\n      jumpi\n      dup1\n      0x7b103999\n      eq\n      tag_5\n      jumpi\n      dup1\n      0xba0c93cb\n      eq\n      tag_6\n      jumpi\n    tag_2:\n      0x00\n      dup1\n      revert\n        /* \"metadata.sol\":450:491  mapping(bytes32 => EHRData[]) public Data */\n    tag_3:\n      tag_7\n      0x04\n      dup1\n      calldatasize\n      sub\n      dup2\n      add\n      swap1\n      tag_8\n      swap2\n      swap1\n      tag_9\n      jump\t// in\n    tag_8:\n      tag_10\n      jump\t// in\n    tag_7:\n      mload(0x40)\n      tag_11\n      swap4\n      swap3\n      swap2\n      swap1\n      tag_12\n      jump\t// in\n    tag_11:\n      mload(0x40)\n      dup1\n      swap2\n      sub\n      swap1\n      return\n        /* \"metadata.sol\":1221:1899  function searchData(bytes32 userKey) public view returns (string[] memory, string[] memory, bytes[] memory) {... */\n    tag_4:\n      tag_13\n      0x04\n      dup1\n      calldatasize\n      sub\n      dup2\n      add\n      swap1\n      tag_14\n      swap2\n      swap1\n      tag_15\n      jump\t// in\n    tag_14:\n      tag_16\n      jump\t// in\n    tag_13:\n      mload(0x40)\n      tag_17\n      swap4\n      swap3\n      swap2\n      swap1\n      tag_18\n      jump\t// in\n    tag_17:\n      mload(0x40)\n      dup1\n      swap2\n      sub\n      swap1\n      return\n        /* \"metadata.sol\":185:209  Registry public registry */\n    tag_5:\n      tag_19\n      tag_20\n      jump\t// in\n    tag_19:\n      mload(0x40)\n      tag_21\n      swap2\n      swap1\n      tag_22\n      jump\t// in\n    tag_21:\n      mload(0x40)\n      dup1\n      swap2\n      sub\n      swap1\n      return\n        /* \"metadata.sol\":698:1213  function addEHRdata(... */\n    tag_6:\n      tag_23\n      0x04\n      dup1\n      calldatasize\n      sub\n      dup2\n      add\n      swap1\n      tag_24\n      swap2\n      swap1\n      tag_25\n      jump\t// in\n    tag_24:\n      tag_26\n      jump\t// in\n    tag_23:\n      stop\n        /* \"metadata.sol\":450:491  mapping(bytes32 => EHRData[]) public Data */\n    tag_10:\n      mstore(0x20, 0x01)\n      dup2\n      0x00\n      mstore\n      keccak256(0x00, 0x40)\n      dup2\n      dup2\n      sload\n      dup2\n      lt\n      tag_27\n      jumpi\n      0x00\n      dup1\n      revert\n    tag_27:\n      swap1\n      0x00\n      mstore\n      keccak256(0x00, 0x20)\n      swap1\n      0x03\n      mul\n      add\n      0x00\n      swap2\n      pop\n      swap2\n      pop\n      pop\n      dup1\n      0x00\n      add\n      dup1\n      sload\n      tag_29\n      swap1\n      tag_30\n      jump\t// in\n    tag_29:\n      dup1\n      0x1f\n      add\n      0x20\n      dup1\n      swap2\n      div\n      mul\n      0x20\n      add\n      mload(0x40)\n      swap1\n      dup2\n      add\n      0x40\n      mstore\n      dup1\n      swap3\n      swap2\n      swap1\n      dup2\n      dup2\n      mstore\n      0x20\n      add\n      dup3\n      dup1\n      sload\n      tag_31\n      swap1\n      tag_30\n      jump\t// in\n    tag_31:\n      dup1\n      iszero\n      tag_32\n      jumpi\n      dup1\n      0x1f\n      lt\n      tag_33\n      jumpi\n      0x0100\n      dup1\n      dup4\n      sload\n      div\n      mul\n      dup4\n      mstore\n      swap2\n      0x20\n      add\n      swap2\n      jump(tag_32)\n    tag_33:\n      dup3\n      add\n      swap2\n      swap1\n      0x00\n      mstore\n      keccak256(0x00, 0x20)\n      swap1\n    tag_34:\n      dup2\n      sload\n      dup2\n      mstore\n      swap1\n      0x01\n      add\n      swap1\n      0x20\n      add\n      dup1\n      dup4\n      gt\n      tag_34\n      jumpi\n      dup3\n      swap1\n      sub\n      0x1f\n      and\n      dup3\n      add\n      swap2\n    tag_32:\n      pop\n      pop\n      pop\n      pop\n      pop\n      swap1\n      dup1\n      0x01\n      add\n      dup1\n      sload\n      tag_35\n      swap1\n      tag_30\n      jump\t// in\n    tag_35:\n      dup1\n      0x1f\n      add\n      0x20\n      dup1\n      swap2\n      div\n      mul\n      0x20\n      add\n      mload(0x40)\n      swap1\n      dup2\n      add\n      0x40\n      mstore\n      dup1\n      swap3\n      swap2\n      swap1\n      dup2\n      dup2\n      mstore\n      0x20\n      add\n      dup3\n      dup1\n      sload\n      tag_36\n      swap1\n      tag_30\n      jump\t// in\n    tag_36:\n      dup1\n      iszero\n      tag_37\n      jumpi\n      dup1\n      0x1f\n      lt\n      tag_38\n      jumpi\n      0x0100\n      dup1\n      dup4\n      sload\n      div\n      mul\n      dup4\n      mstore\n      swap2\n      0x20\n      add\n      swap2\n      jump(tag_37)\n    tag_38:\n      dup3\n      add\n      swap2\n      swap1\n      0x00\n      mstore\n      keccak256(0x00, 0x20)\n      swap1\n    tag_39:\n      dup2\n      sload\n      dup2\n      mstore\n      swap1\n      0x01\n      add\n      swap1\n      0x20\n      add\n      dup1\n      dup4\n      gt\n      tag_39\n      jumpi\n      dup3\n      swap1\n      sub\n      0x1f\n      and\n      dup3\n      add\n      swap2\n    tag_37:\n      pop\n      pop\n      pop\n      pop\n      pop\n      swap1\n      dup1\n      0x02\n      add\n      dup1\n      sload\n      tag_40\n      swap1\n      tag_30\n      jump\t// in\n    tag_40:\n      dup1\n      0x1f\n      add\n      0x20\n      dup1\n      swap2\n      div\n      mul\n      0x20\n      add\n      mload(0x40)\n      swap1\n      dup2\n      add\n      0x40\n      mstore\n      dup1\n      swap3\n      swap2\n      swap1\n      dup2\n      dup2\n      mstore\n      0x20\n      add\n      dup3\n      dup1\n      sload\n      tag_41\n      swap1\n      tag_30\n      jump\t// in\n    tag_41:\n      dup1\n      iszero\n      tag_42\n      jumpi\n      dup1\n      0x1f\n      lt\n      tag_43\n      jumpi\n      0x0100\n      dup1\n      dup4\n      sload\n      div\n      mul\n      dup4\n      mstore\n      swap2\n      0x20\n      add\n      swap2\n      jump(tag_42)\n    tag_43:\n      dup3\n      add\n      swap2\n      swap1\n      0x00\n      mstore\n      keccak256(0x00, 0x20)\n      swap1\n    tag_44:\n      dup2\n      sload\n      dup2\n      mstore\n      swap1\n      0x01\n      add\n      swap1\n      0x20\n      add\n      dup1\n      dup4\n      gt\n      tag_44\n      jumpi\n      dup3\n      swap1\n      sub\n      0x1f\n      and\n      dup3\n      add\n      swap2\n    tag_42:\n      pop\n      pop\n      pop\n      pop\n      pop\n      swap1\n      pop\n      dup4\n      jump\t// out\n        /* \"metadata.sol\":1221:1899  function searchData(bytes32 userKey) public view returns (string[] memory, string[] memory, bytes[] memory) {... */\n    tag_16:\n        /* \"metadata.sol\":1279:1294  string[] memory */\n      0x60\n        /* \"metadata.sol\":1296:1311  string[] memory */\n      dup1\n        /* \"metadata.sol\":1313:1327  bytes[] memory */\n      0x60\n        /* \"metadata.sol\":1348:1356  registry */\n      0x00\n      dup1\n      sload\n      swap1\n      0x0100\n      exp\n      swap1\n      div\n      0xffffffffffffffffffffffffffffffffffffffff\n      and\n        /* \"metadata.sol\":1348:1366  registry.checkUser */\n      0xffffffffffffffffffffffffffffffffffffffff\n      and\n      0x0b2551c2\n        /* \"metadata.sol\":1367:1374  userKey */\n      dup6\n        /* \"metadata.sol\":1348:1375  registry.checkUser(userKey) */\n      mload(0x40)\n      dup3\n      0xffffffff\n      and\n      0xe0\n      shl\n      dup2\n      mstore\n      0x04\n      add\n      tag_46\n      swap2\n      swap1\n      tag_47\n      jump\t// in\n    tag_46:\n      0x20\n      mload(0x40)\n      dup1\n      dup4\n      sub\n      dup2\n      dup7\n      gas\n      staticcall\n      iszero\n      dup1\n      iszero\n      tag_49\n      jumpi\n      returndatasize\n      0x00\n      dup1\n      returndatacopy\n      revert(0x00, returndatasize)\n    tag_49:\n      pop\n      pop\n      pop\n      pop\n      mload(0x40)\n      returndatasize\n      not(0x1f)\n      0x1f\n      dup3\n      add\n      and\n      dup3\n      add\n      dup1\n      0x40\n      mstore\n      pop\n      dup2\n      add\n      swap1\n      tag_50\n      swap2\n      swap1\n      tag_51\n      jump\t// in\n    tag_50:\n        /* \"metadata.sol\":1340:1410  require(registry.checkUser(userKey), \"User not registered to system!\") */\n      tag_52\n      jumpi\n      mload(0x40)\n      0x08c379a000000000000000000000000000000000000000000000000000000000\n      dup2\n      mstore\n      0x04\n      add\n      tag_53\n      swap1\n      tag_54\n      jump\t// in\n    tag_53:\n      mload(0x40)\n      dup1\n      swap2\n      sub\n      swap1\n      revert\n    tag_52:\n        /* \"metadata.sol\":1423:1437  uint256 length */\n      0x00\n        /* \"metadata.sol\":1440:1444  Data */\n      0x01\n        /* \"metadata.sol\":1440:1453  Data[userKey] */\n      0x00\n        /* \"metadata.sol\":1445:1452  userKey */\n      dup7\n        /* \"metadata.sol\":1440:1453  Data[userKey] */\n      dup2\n      mstore\n      0x20\n      add\n      swap1\n      dup2\n      mstore\n      0x20\n      add\n      0x00\n      keccak256\n        /* \"metadata.sol\":1440:1460  Data[userKey].length */\n      dup1\n      sload\n      swap1\n      pop\n        /* \"metadata.sol\":1423:1460  uint256 length = Data[userKey].length */\n      swap1\n      pop\n        /* \"metadata.sol\":1471:1496  string[] memory dataTypes */\n      0x00\n        /* \"metadata.sol\":1512:1518  length */\n      dup2\n        /* \"metadata.sol\":1499:1519  new string[](length) */\n      0xffffffffffffffff\n      dup2\n      gt\n      iszero\n      tag_55\n      jumpi\n      tag_56\n      tag_57\n      jump\t// in\n    tag_56:\n    tag_55:\n      mload(0x40)\n      swap1\n      dup1\n      dup3\n      mstore\n      dup1\n      0x20\n      mul\n      0x20\n      add\n      dup3\n      add\n      0x40\n      mstore\n      dup1\n      iszero\n      tag_58\n      jumpi\n      dup2\n      0x20\n      add\n    tag_59:\n      0x60\n      dup2\n      mstore\n      0x20\n      add\n      swap1\n      0x01\n      swap1\n      sub\n      swap1\n      dup2\n      tag_59\n      jumpi\n      swap1\n      pop\n    tag_58:\n      pop\n        /* \"metadata.sol\":1471:1519  string[] memory dataTypes = new string[](length) */\n      swap1\n      pop\n        /* \"metadata.sol\":1530:1552  string[] memory HIList */\n      0x00\n        /* \"metadata.sol\":1568:1574  length */\n      dup3\n        /* \"metadata.sol\":1555:1575  new string[](length) */\n      0xffffffffffffffff\n      dup2\n      gt\n      iszero\n      tag_60\n      jumpi\n      tag_61\n      tag_57\n      jump\t// in\n    tag_61:\n    tag_60:\n      mload(0x40)\n      swap1\n      dup1\n      dup3\n      mstore\n      dup1\n      0x20\n      mul\n      0x20\n      add\n      dup3\n      add\n      0x40\n      mstore\n      dup1\n      iszero\n      tag_62\n      jumpi\n      dup2\n      0x20\n      add\n    tag_63:\n      0x60\n      dup2\n      mstore\n      0x20\n      add\n      swap1\n      0x01\n      swap1\n      sub\n      swap1\n      dup2\n      tag_63\n      jumpi\n      swap1\n      pop\n    tag_62:\n      pop\n        /* \"metadata.sol\":1530:1575  string[] memory HIList = new string[](length) */\n      swap1\n      pop\n        /* \"metadata.sol\":1586:1608  bytes[] memory encKeys */\n      0x00\n        /* \"metadata.sol\":1623:1629  length */\n      dup4\n        /* \"metadata.sol\":1611:1630  new bytes[](length) */\n      0xffffffffffffffff\n      dup2\n      gt\n      iszero\n      tag_64\n      jumpi\n      tag_65\n      tag_57\n      jump\t// in\n    tag_65:\n    tag_64:\n      mload(0x40)\n      swap1\n      dup1\n      dup3\n      mstore\n      dup1\n      0x20\n      mul\n      0x20\n      add\n      dup3\n      add\n      0x40\n      mstore\n      dup1\n      iszero\n      tag_66\n      jumpi\n      dup2\n      0x20\n      add\n    tag_67:\n      0x60\n      dup2\n      mstore\n      0x20\n      add\n      swap1\n      0x01\n      swap1\n      sub\n      swap1\n      dup2\n      tag_67\n      jumpi\n      swap1\n      pop\n    tag_66:\n      pop\n        /* \"metadata.sol\":1586:1630  bytes[] memory encKeys = new bytes[](length) */\n      swap1\n      pop\n        /* \"metadata.sol\":1648:1657  uint256 i */\n      0x00\n        /* \"metadata.sol\":1643:1844  for (uint256 i = 0; i < length; i++) {... */\n    tag_68:\n        /* \"metadata.sol\":1667:1673  length */\n      dup5\n        /* \"metadata.sol\":1663:1664  i */\n      dup2\n        /* \"metadata.sol\":1663:1673  i < length */\n      lt\n        /* \"metadata.sol\":1643:1844  for (uint256 i = 0; i < length; i++) {... */\n      iszero\n      tag_69\n      jumpi\n        /* \"metadata.sol\":1710:1714  Data */\n      0x01\n        /* \"metadata.sol\":1710:1723  Data[userKey] */\n      0x00\n        /* \"metadata.sol\":1715:1722  userKey */\n      dup11\n        /* \"metadata.sol\":1710:1723  Data[userKey] */\n      dup2\n      mstore\n      0x20\n      add\n      swap1\n      dup2\n      mstore\n      0x20\n      add\n      0x00\n      keccak256\n        /* \"metadata.sol\":1724:1725  i */\n      dup2\n        /* \"metadata.sol\":1710:1726  Data[userKey][i] */\n      dup2\n      sload\n      dup2\n      lt\n      tag_71\n      jumpi\n      tag_72\n      tag_73\n      jump\t// in\n    tag_72:\n    tag_71:\n      swap1\n      0x00\n      mstore\n      keccak256(0x00, 0x20)\n      swap1\n      0x03\n      mul\n      add\n        /* \"metadata.sol\":1710:1735  Data[userKey][i].dataType */\n      0x00\n      add\n        /* \"metadata.sol\":1695:1735  dataTypes[i] = Data[userKey][i].dataType */\n      dup1\n      sload\n      tag_75\n      swap1\n      tag_30\n      jump\t// in\n    tag_75:\n      dup1\n      0x1f\n      add\n      0x20\n      dup1\n      swap2\n      div\n      mul\n      0x20\n      add\n      mload(0x40)\n      swap1\n      dup2\n      add\n      0x40\n      mstore\n      dup1\n      swap3\n      swap2\n      swap1\n      dup2\n      dup2\n      mstore\n      0x20\n      add\n      dup3\n      dup1\n      sload\n      tag_76\n      swap1\n      tag_30\n      jump\t// in\n    tag_76:\n      dup1\n      iszero\n      tag_77\n      jumpi\n      dup1\n      0x1f\n      lt\n      tag_78\n      jumpi\n      0x0100\n      dup1\n      dup4\n      sload\n      div\n      mul\n      dup4\n      mstore\n      swap2\n      0x20\n      add\n      swap2\n      jump(tag_77)\n    tag_78:\n      dup3\n      add\n      swap2\n      swap1\n      0x00\n      mstore\n      keccak256(0x00, 0x20)\n      swap1\n    tag_79:\n      dup2\n      sload\n      dup2\n      mstore\n      swap1\n      0x01\n      add\n      swap1\n      0x20\n      add\n      dup1\n      dup4\n      gt\n      tag_79\n      jumpi\n      dup3\n      swap1\n      sub\n      0x1f\n      and\n      dup3\n      add\n      swap2\n    tag_77:\n      pop\n      pop\n      pop\n      pop\n      pop\n        /* \"metadata.sol\":1695:1704  dataTypes */\n      dup5\n        /* \"metadata.sol\":1705:1706  i */\n      dup3\n        /* \"metadata.sol\":1695:1707  dataTypes[i] */\n      dup2\n      mload\n      dup2\n      lt\n      tag_80\n      jumpi\n      tag_81\n      tag_73\n      jump\t// in\n    tag_81:\n    tag_80:\n      0x20\n      mul\n      0x20\n      add\n      add\n        /* \"metadata.sol\":1695:1735  dataTypes[i] = Data[userKey][i].dataType */\n      dup2\n      swap1\n      mstore\n      pop\n        /* \"metadata.sol\":1762:1766  Data */\n      0x01\n        /* \"metadata.sol\":1762:1775  Data[userKey] */\n      0x00\n        /* \"metadata.sol\":1767:1774  userKey */\n      dup11\n        /* \"metadata.sol\":1762:1775  Data[userKey] */\n      dup2\n      mstore\n      0x20\n      add\n      swap1\n      dup2\n      mstore\n      0x20\n      add\n      0x00\n      keccak256\n        /* \"metadata.sol\":1776:1777  i */\n      dup2\n        /* \"metadata.sol\":1762:1778  Data[userKey][i] */\n      dup2\n      sload\n      dup2\n      lt\n      tag_82\n      jumpi\n      tag_83\n      tag_73\n      jump\t// in\n    tag_83:\n    tag_82:\n      swap1\n      0x00\n      mstore\n      keccak256(0x00, 0x20)\n      swap1\n      0x03\n      mul\n      add\n        /* \"metadata.sol\":1762:1781  Data[userKey][i].HI */\n      0x01\n      add\n        /* \"metadata.sol\":1750:1781  HIList[i] = Data[userKey][i].HI */\n      dup1\n      sload\n      tag_85\n      swap1\n      tag_30\n      jump\t// in\n    tag_85:\n      dup1\n      0x1f\n      add\n      0x20\n      dup1\n      swap2\n      div\n      mul\n      0x20\n      add\n      mload(0x40)\n      swap1\n      dup2\n      add\n      0x40\n      mstore\n      dup1\n      swap3\n      swap2\n      swap1\n      dup2\n      dup2\n      mstore\n      0x20\n      add\n      dup3\n      dup1\n      sload\n      tag_86\n      swap1\n      tag_30\n      jump\t// in\n    tag_86:\n      dup1\n      iszero\n      tag_87\n      jumpi\n      dup1\n      0x1f\n      lt\n      tag_88\n      jumpi\n      0x0100\n      dup1\n      dup4\n      sload\n      div\n      mul\n      dup4\n      mstore\n      swap2\n      0x20\n      add\n      swap2\n      jump(tag_87)\n    tag_88:\n      dup3\n      add\n      swap2\n      swap1\n      0x00\n      mstore\n      keccak256(0x00, 0x20)\n      swap1\n    tag_89:\n      dup2\n      sload\n      dup2\n      mstore\n      swap1\n      0x01\n      add\n      swap1\n      0x20\n      add\n      dup1\n      dup4\n      gt\n      tag_89\n      jumpi\n      dup3\n      swap1\n      sub\n      0x1f\n      and\n      dup3\n      add\n      swap2\n    tag_87:\n      pop\n      pop\n      pop\n      pop\n      pop\n        /* \"metadata.sol\":1750:1756  HIList */\n      dup4\n        /* \"metadata.sol\":1757:1758  i */\n      dup3\n        /* \"metadata.sol\":1750:1759  HIList[i] */\n      dup2\n      mload\n      dup2\n      lt\n      tag_90\n      jumpi\n      tag_91\n      tag_73\n      jump\t// in\n    tag_91:\n    tag_90:\n      0x20\n      mul\n      0x20\n      add\n      add\n        /* \"metadata.sol\":1750:1781  HIList[i] = Data[userKey][i].HI */\n      dup2\n      swap1\n      mstore\n      pop\n        /* \"metadata.sol\":1809:1813  Data */\n      0x01\n        /* \"metadata.sol\":1809:1822  Data[userKey] */\n      0x00\n        /* \"metadata.sol\":1814:1821  userKey */\n      dup11\n        /* \"metadata.sol\":1809:1822  Data[userKey] */\n      dup2\n      mstore\n      0x20\n      add\n      swap1\n      dup2\n      mstore\n      0x20\n      add\n      0x00\n      keccak256\n        /* \"metadata.sol\":1823:1824  i */\n      dup2\n        /* \"metadata.sol\":1809:1825  Data[userKey][i] */\n      dup2\n      sload\n      dup2\n      lt\n      tag_92\n      jumpi\n      tag_93\n      tag_73\n      jump\t// in\n    tag_93:\n    tag_92:\n      swap1\n      0x00\n      mstore\n      keccak256(0x00, 0x20)\n      swap1\n      0x03\n      mul\n      add\n        /* \"metadata.sol\":1809:1832  Data[userKey][i].encKey */\n      0x02\n      add\n        /* \"metadata.sol\":1796:1832  encKeys[i] = Data[userKey][i].encKey */\n      dup1\n      sload\n      tag_95\n      swap1\n      tag_30\n      jump\t// in\n    tag_95:\n      dup1\n      0x1f\n      add\n      0x20\n      dup1\n      swap2\n      div\n      mul\n      0x20\n      add\n      mload(0x40)\n      swap1\n      dup2\n      add\n      0x40\n      mstore\n      dup1\n      swap3\n      swap2\n      swap1\n      dup2\n      dup2\n      mstore\n      0x20\n      add\n      dup3\n      dup1\n      sload\n      tag_96\n      swap1\n      tag_30\n      jump\t// in\n    tag_96:\n      dup1\n      iszero\n      tag_97\n      jumpi\n      dup1\n      0x1f\n      lt\n      tag_98\n      jumpi\n      0x0100\n      dup1\n      dup4\n      sload\n      div\n      mul\n      dup4\n      mstore\n      swap2\n      0x20\n      add\n      swap2\n      jump(tag_97)\n    tag_98:\n      dup3\n      add\n      swap2\n      swap1\n      0x00\n      mstore\n      keccak256(0x00, 0x20)\n      swap1\n    tag_99:\n      dup2\n      sload\n      dup2\n      mstore\n      swap1\n      0x01\n      add\n      swap1\n      0x20\n      add\n      dup1\n      dup4\n      gt\n      tag_99\n      jumpi\n      dup3\n      swap1\n      sub\n      0x1f\n      and\n      dup3\n      add\n      swap2\n    tag_97:\n      pop\n      pop\n      pop\n      pop\n      pop\n        /* \"metadata.sol\":1796:1803  encKeys */\n      dup3\n        /* \"metadata.sol\":1804:1805  i */\n      dup3\n        /* \"metadata.sol\":1796:1806  encKeys[i] */\n      dup2\n      mload\n      dup2\n      lt\n      tag_100\n      jumpi\n      tag_101\n      tag_73\n      jump\t// in\n    tag_101:\n    tag_100:\n      0x20\n      mul\n      0x20\n      add\n      add\n        /* \"metadata.sol\":1796:1832  encKeys[i] = Data[userKey][i].encKey */\n      dup2\n      swap1\n      mstore\n      pop\n        /* \"metadata.sol\":1675:1678  i++ */\n      dup1\n      dup1\n      tag_102\n      swap1\n      tag_103\n      jump\t// in\n    tag_102:\n      swap2\n      pop\n      pop\n        /* \"metadata.sol\":1643:1844  for (uint256 i = 0; i < length; i++) {... */\n      jump(tag_68)\n    tag_69:\n      pop\n        /* \"metadata.sol\":1864:1873  dataTypes */\n      dup3\n        /* \"metadata.sol\":1875:1881  HIList */\n      dup3\n        /* \"metadata.sol\":1883:1890  encKeys */\n      dup3\n        /* \"metadata.sol\":1856:1891  return (dataTypes, HIList, encKeys) */\n      swap7\n      pop\n      swap7\n      pop\n      swap7\n      pop\n      pop\n      pop\n      pop\n      pop\n        /* \"metadata.sol\":1221:1899  function searchData(bytes32 userKey) public view returns (string[] memory, string[] memory, bytes[] memory) {... */\n      swap2\n      swap4\n      swap1\n      swap3\n      pop\n      jump\t// out\n        /* \"metadata.sol\":185:209  Registry public registry */\n    tag_20:\n      0x00\n      dup1\n      sload\n      swap1\n      0x0100\n      exp\n      swap1\n      div\n      0xffffffffffffffffffffffffffffffffffffffff\n      and\n      dup2\n      jump\t// out\n        /* \"metadata.sol\":698:1213  function addEHRdata(... */\n    tag_26:\n        /* \"metadata.sol\":868:876  registry */\n      0x00\n      dup1\n      sload\n      swap1\n      0x0100\n      exp\n      swap1\n      div\n      0xffffffffffffffffffffffffffffffffffffffff\n      and\n        /* \"metadata.sol\":868:886  registry.checkUser */\n      0xffffffffffffffffffffffffffffffffffffffff\n      and\n      0x0b2551c2\n        /* \"metadata.sol\":887:895  ownerKey */\n      dup6\n        /* \"metadata.sol\":868:896  registry.checkUser(ownerKey) */\n      mload(0x40)\n      dup3\n      0xffffffff\n      and\n      0xe0\n      shl\n      dup2\n      mstore\n      0x04\n      add\n      tag_105\n      swap2\n      swap1\n      tag_47\n      jump\t// in\n    tag_105:\n      0x20\n      mload(0x40)\n      dup1\n      dup4\n      sub\n      dup2\n      dup7\n      gas\n      staticcall\n      iszero\n      dup1\n      iszero\n      tag_107\n      jumpi\n      returndatasize\n      0x00\n      dup1\n      returndatacopy\n      revert(0x00, returndatasize)\n    tag_107:\n      pop\n      pop\n      pop\n      pop\n      mload(0x40)\n      returndatasize\n      not(0x1f)\n      0x1f\n      dup3\n      add\n      and\n      dup3\n      add\n      dup1\n      0x40\n      mstore\n      pop\n      dup2\n      add\n      swap1\n      tag_108\n      swap2\n      swap1\n      tag_51\n      jump\t// in\n    tag_108:\n        /* \"metadata.sol\":860:944  require(registry.checkUser(ownerKey), \"Patient/new-owner not registered to system!\") */\n      tag_109\n      jumpi\n      mload(0x40)\n      0x08c379a000000000000000000000000000000000000000000000000000000000\n      dup2\n      mstore\n      0x04\n      add\n      tag_110\n      swap1\n      tag_111\n      jump\t// in\n    tag_110:\n      mload(0x40)\n      dup1\n      swap2\n      sub\n      swap1\n      revert\n    tag_109:\n        /* \"metadata.sol\":994:1004  msg.sender */\n      caller\n        /* \"metadata.sol\":963:1004  registry.getOwner(ownerKey) == msg.sender */\n      0xffffffffffffffffffffffffffffffffffffffff\n      and\n        /* \"metadata.sol\":963:971  registry */\n      0x00\n      dup1\n      sload\n      swap1\n      0x0100\n      exp\n      swap1\n      div\n      0xffffffffffffffffffffffffffffffffffffffff\n      and\n        /* \"metadata.sol\":963:980  registry.getOwner */\n      0xffffffffffffffffffffffffffffffffffffffff\n      and\n      0xdeb931a2\n        /* \"metadata.sol\":981:989  ownerKey */\n      dup7\n        /* \"metadata.sol\":963:990  registry.getOwner(ownerKey) */\n      mload(0x40)\n      dup3\n      0xffffffff\n      and\n      0xe0\n      shl\n      dup2\n      mstore\n      0x04\n      add\n      tag_112\n      swap2\n      swap1\n      tag_47\n      jump\t// in\n    tag_112:\n      0x20\n      mload(0x40)\n      dup1\n      dup4\n      sub\n      dup2\n      dup7\n      gas\n      staticcall\n      iszero\n      dup1\n      iszero\n      tag_114\n      jumpi\n      returndatasize\n      0x00\n      dup1\n      returndatacopy\n      revert(0x00, returndatasize)\n    tag_114:\n      pop\n      pop\n      pop\n      pop\n      mload(0x40)\n      returndatasize\n      not(0x1f)\n      0x1f\n      dup3\n      add\n      and\n      dup3\n      add\n      dup1\n      0x40\n      mstore\n      pop\n      dup2\n      add\n      swap1\n      tag_115\n      swap2\n      swap1\n      tag_116\n      jump\t// in\n    tag_115:\n        /* \"metadata.sol\":963:1004  registry.getOwner(ownerKey) == msg.sender */\n      0xffffffffffffffffffffffffffffffffffffffff\n      and\n      eq\n        /* \"metadata.sol\":955:1031  require(registry.getOwner(ownerKey) == msg.sender, \"Not owner/unauthorized\") */\n      tag_117\n      jumpi\n      mload(0x40)\n      0x08c379a000000000000000000000000000000000000000000000000000000000\n      dup2\n      mstore\n      0x04\n      add\n      tag_118\n      swap1\n      tag_119\n      jump\t// in\n    tag_118:\n      mload(0x40)\n      dup1\n      swap2\n      sub\n      swap1\n      revert\n    tag_117:\n        /* \"metadata.sol\":1044:1048  Data */\n      0x01\n        /* \"metadata.sol\":1044:1058  Data[ownerKey] */\n      0x00\n        /* \"metadata.sol\":1049:1057  ownerKey */\n      dup6\n        /* \"metadata.sol\":1044:1058  Data[ownerKey] */\n      dup2\n      mstore\n      0x20\n      add\n      swap1\n      dup2\n      mstore\n      0x20\n      add\n      0x00\n      keccak256\n        /* \"metadata.sol\":1064:1093  EHRData(dataType, HI, encKey) */\n      mload(0x40)\n      dup1\n      0x60\n      add\n      0x40\n      mstore\n      dup1\n        /* \"metadata.sol\":1072:1080  dataType */\n      dup6\n        /* \"metadata.sol\":1064:1093  EHRData(dataType, HI, encKey) */\n      dup2\n      mstore\n      0x20\n      add\n        /* \"metadata.sol\":1082:1084  HI */\n      dup5\n        /* \"metadata.sol\":1064:1093  EHRData(dataType, HI, encKey) */\n      dup2\n      mstore\n      0x20\n      add\n        /* \"metadata.sol\":1086:1092  encKey */\n      dup4\n        /* \"metadata.sol\":1064:1093  EHRData(dataType, HI, encKey) */\n      dup2\n      mstore\n      pop\n        /* \"metadata.sol\":1044:1094  Data[ownerKey].push(EHRData(dataType, HI, encKey)) */\n      swap1\n      dup1\n      0x01\n      dup2\n      sload\n      add\n      dup1\n      dup3\n      sstore\n      dup1\n      swap2\n      pop\n      pop\n      0x01\n      swap1\n      sub\n      swap1\n      0x00\n      mstore\n      keccak256(0x00, 0x20)\n      swap1\n      0x03\n      mul\n      add\n      0x00\n      swap1\n      swap2\n      swap1\n      swap2\n      swap1\n      swap2\n      pop\n      0x00\n      dup3\n      add\n      mload\n      dup2\n      0x00\n      add\n      swap1\n      dup1\n      mload\n      swap1\n      0x20\n      add\n      swap1\n      tag_121\n      swap3\n      swap2\n      swap1\n      tag_122\n      jump\t// in\n    tag_121:\n      pop\n      0x20\n      dup3\n      add\n      mload\n      dup2\n      0x01\n      add\n      swap1\n      dup1\n      mload\n      swap1\n      0x20\n      add\n      swap1\n      tag_123\n      swap3\n      swap2\n      swap1\n      tag_122\n      jump\t// in\n    tag_123:\n      pop\n      0x40\n      dup3\n      add\n      mload\n      dup2\n      0x02\n      add\n      swap1\n      dup1\n      mload\n      swap1\n      0x20\n      add\n      swap1\n      tag_124\n      swap3\n      swap2\n      swap1\n      tag_125\n      jump\t// in\n    tag_124:\n      pop\n      pop\n      pop\n        /* \"metadata.sol\":1105:1118  uint256 index */\n      0x00\n        /* \"metadata.sol\":1145:1146  1 */\n      0x01\n        /* \"metadata.sol\":1121:1125  Data */\n      dup1\n        /* \"metadata.sol\":1121:1135  Data[ownerKey] */\n      0x00\n        /* \"metadata.sol\":1126:1134  ownerKey */\n      dup8\n        /* \"metadata.sol\":1121:1135  Data[ownerKey] */\n      dup2\n      mstore\n      0x20\n      add\n      swap1\n      dup2\n      mstore\n      0x20\n      add\n      0x00\n      keccak256\n        /* \"metadata.sol\":1121:1142  Data[ownerKey].length */\n      dup1\n      sload\n      swap1\n      pop\n        /* \"metadata.sol\":1121:1146  Data[ownerKey].length - 1 */\n      tag_126\n      swap2\n      swap1\n      tag_127\n      jump\t// in\n    tag_126:\n        /* \"metadata.sol\":1105:1146  uint256 index = Data[ownerKey].length - 1 */\n      swap1\n      pop\n        /* \"metadata.sol\":1175:1183  ownerKey */\n      dup5\n        /* \"metadata.sol\":1162:1205  EHRDataAdded(ownerKey, index, dataType, HI) */\n      0x2ebea29a0e55553a239d0a1c2ffef2a43e19afde91fc375df47b698e5ceef391\n        /* \"metadata.sol\":1185:1190  index */\n      dup3\n        /* \"metadata.sol\":1192:1200  dataType */\n      dup7\n        /* \"metadata.sol\":1202:1204  HI */\n      dup7\n        /* \"metadata.sol\":1162:1205  EHRDataAdded(ownerKey, index, dataType, HI) */\n      mload(0x40)\n      tag_128\n      swap4\n      swap3\n      swap2\n      swap1\n      tag_129\n      jump\t// in\n    tag_128:\n      mload(0x40)\n      dup1\n      swap2\n      sub\n      swap1\n      log2\n        /* \"metadata.sol\":849:1213  {... */\n      pop\n        /* \"metadata.sol\":698:1213  function addEHRdata(... */\n      pop\n      pop\n      pop\n      pop\n      jump\t// out\n    tag_122:\n      dup3\n      dup1\n      sload\n      tag_130\n      swap1\n      tag_30\n      jump\t// in\n    tag_130:\n      swap1\n      0x00\n      mstore\n      keccak256(0x00, 0x20)\n      swap1\n      0x1f\n      add\n      0x20\n      swap1\n      div\n      dup2\n      add\n      swap3\n      dup3\n      tag_132\n      jumpi\n      0x00\n      dup6\n      sstore\n      jump(tag_131)\n    tag_132:\n      dup3\n      0x1f\n      lt\n      tag_133\n      jumpi\n      dup1\n      mload\n      not(0xff)\n      and\n      dup4\n      dup1\n      add\n      or\n      dup6\n      sstore\n      jump(tag_131)\n    tag_133:\n      dup3\n      dup1\n      add\n      0x01\n      add\n      dup6\n      sstore\n      dup3\n      iszero\n      tag_131\n      jumpi\n      swap2\n      dup3\n      add\n    tag_134:\n      dup3\n      dup2\n      gt\n      iszero\n      tag_135\n      jumpi\n      dup3\n      mload\n      dup3\n      sstore\n      swap2\n      0x20\n      add\n      swap2\n      swap1\n      0x01\n      add\n      swap1\n      jump(tag_134)\n    tag_135:\n    tag_131:\n      pop\n      swap1\n      pop\n      tag_136\n      swap2\n      swap1\n      tag_137\n      jump\t// in\n    tag_136:\n      pop\n      swap1\n      jump\t// out\n    tag_125:\n      dup3\n      dup1\n      sload\n      tag_138\n      swap1\n      tag_30\n      jump\t// in\n    tag_138:\n      swap1\n      0x00\n      mstore\n      keccak256(0x00, 0x20)\n      swap1\n      0x1f\n      add\n      0x20\n      swap1\n      div\n      dup2\n      add\n      swap3\n      dup3\n      tag_140\n      jumpi\n      0x00\n      dup6\n      sstore\n      jump(tag_139)\n    tag_140:\n      dup3\n      0x1f\n      lt\n      tag_141\n      jumpi\n      dup1\n      mload\n      not(0xff)\n      and\n      dup4\n      dup1\n      add\n      or\n      dup6\n      sstore\n      jump(tag_139)\n    tag_141:\n      dup3\n      dup1\n      add\n      0x01\n      add\n      dup6\n      sstore\n      dup3\n      iszero\n      tag_139\n      jumpi\n      swap2\n      dup3\n      add\n    tag_142:\n      dup3\n      dup2\n      gt\n      iszero\n      tag_143\n      jumpi\n      dup3\n      mload\n      dup3\n      sstore\n      swap2\n      0x20\n      add\n      swap2\n      swap1\n      0x01\n      add\n      swap1\n      jump(tag_142)\n    tag_143:\n    tag_139:\n      pop\n      swap1\n      pop\n      tag_144\n      swap2\n      swap1\n      tag_137\n      jump\t// in\n    tag_144:\n      pop\n      swap1\n      jump\t// out\n    tag_137:\n    tag_145:\n      dup1\n      dup3\n      gt\n      iszero\n      tag_146\n      jumpi\n      0x00\n      dup2\n      0x00\n      swap1\n      sstore\n      pop\n      0x01\n      add\n      jump(tag_145)\n    tag_146:\n      pop\n      swap1\n      jump\t// out\n        /* \"#utility.yul\":7:82   */\n    tag_147:\n        /* \"#utility.yul\":40:46   */\n      0x00\n        /* \"#utility.yul\":73:75   */\n      0x40\n        /* \"#utility.yul\":67:76   */\n      mload\n        /* \"#utility.yul\":57:76   */\n      swap1\n      pop\n        /* \"#utility.yul\":7:82   */\n      swap1\n      jump\t// out\n        /* \"#utility.yul\":88:205   */\n    tag_148:\n        /* \"#utility.yul\":197:198   */\n      0x00\n        /* \"#utility.yul\":194:195   */\n      dup1\n        /* \"#utility.yul\":187:199   */\n      revert\n        /* \"#utility.yul\":211:328   */\n    tag_149:\n        /* \"#utility.yul\":320:321   */\n      0x00\n        /* \"#utility.yul\":317:318   */\n      dup1\n        /* \"#utility.yul\":310:322   */\n      revert\n        /* \"#utility.yul\":334:411   */\n    tag_150:\n        /* \"#utility.yul\":371:378   */\n      0x00\n        /* \"#utility.yul\":400:405   */\n      dup2\n        /* \"#utility.yul\":389:405   */\n      swap1\n      pop\n        /* \"#utility.yul\":334:411   */\n      swap2\n      swap1\n      pop\n      jump\t// out\n        /* \"#utility.yul\":417:539   */\n    tag_151:\n        /* \"#utility.yul\":490:514   */\n      tag_219\n        /* \"#utility.yul\":508:513   */\n      dup2\n        /* \"#utility.yul\":490:514   */\n      tag_150\n      jump\t// in\n    tag_219:\n        /* \"#utility.yul\":483:488   */\n      dup2\n        /* \"#utility.yul\":480:515   */\n      eq\n        /* \"#utility.yul\":470:533   */\n      tag_220\n      jumpi\n        /* \"#utility.yul\":529:530   */\n      0x00\n        /* \"#utility.yul\":526:527   */\n      dup1\n        /* \"#utility.yul\":519:531   */\n      revert\n        /* \"#utility.yul\":470:533   */\n    tag_220:\n        /* \"#utility.yul\":417:539   */\n      pop\n      jump\t// out\n        /* \"#utility.yul\":545:684   */\n    tag_152:\n        /* \"#utility.yul\":591:596   */\n      0x00\n        /* \"#utility.yul\":629:635   */\n      dup2\n        /* \"#utility.yul\":616:636   */\n      calldataload\n        /* \"#utility.yul\":607:636   */\n      swap1\n      pop\n        /* \"#utility.yul\":645:678   */\n      tag_222\n        /* \"#utility.yul\":672:677   */\n      dup2\n        /* \"#utility.yul\":645:678   */\n      tag_151\n      jump\t// in\n    tag_222:\n        /* \"#utility.yul\":545:684   */\n      swap3\n      swap2\n      pop\n      pop\n      jump\t// out\n        /* \"#utility.yul\":690:767   */\n    tag_153:\n        /* \"#utility.yul\":727:734   */\n      0x00\n        /* \"#utility.yul\":756:761   */\n      dup2\n        /* \"#utility.yul\":745:761   */\n      swap1\n      pop\n        /* \"#utility.yul\":690:767   */\n      swap2\n      swap1\n      pop\n      jump\t// out\n        /* \"#utility.yul\":773:895   */\n    tag_154:\n        /* \"#utility.yul\":846:870   */\n      tag_225\n        /* \"#utility.yul\":864:869   */\n      dup2\n        /* \"#utility.yul\":846:870   */\n      tag_153\n      jump\t// in\n    tag_225:\n        /* \"#utility.yul\":839:844   */\n      dup2\n        /* \"#utility.yul\":836:871   */\n      eq\n        /* \"#utility.yul\":826:889   */\n      tag_226\n      jumpi\n        /* \"#utility.yul\":885:886   */\n      0x00\n        /* \"#utility.yul\":882:883   */\n      dup1\n        /* \"#utility.yul\":875:887   */\n      revert\n        /* \"#utility.yul\":826:889   */\n    tag_226:\n        /* \"#utility.yul\":773:895   */\n      pop\n      jump\t// out\n        /* \"#utility.yul\":901:1040   */\n    tag_155:\n        /* \"#utility.yul\":947:952   */\n      0x00\n        /* \"#utility.yul\":985:991   */\n      dup2\n        /* \"#utility.yul\":972:992   */\n      calldataload\n        /* \"#utility.yul\":963:992   */\n      swap1\n      pop\n        /* \"#utility.yul\":1001:1034   */\n      tag_228\n        /* \"#utility.yul\":1028:1033   */\n      dup2\n        /* \"#utility.yul\":1001:1034   */\n      tag_154\n      jump\t// in\n    tag_228:\n        /* \"#utility.yul\":901:1040   */\n      swap3\n      swap2\n      pop\n      pop\n      jump\t// out\n        /* \"#utility.yul\":1046:1520   */\n    tag_9:\n        /* \"#utility.yul\":1114:1120   */\n      0x00\n        /* \"#utility.yul\":1122:1128   */\n      dup1\n        /* \"#utility.yul\":1171:1173   */\n      0x40\n        /* \"#utility.yul\":1159:1168   */\n      dup4\n        /* \"#utility.yul\":1150:1157   */\n      dup6\n        /* \"#utility.yul\":1146:1169   */\n      sub\n        /* \"#utility.yul\":1142:1174   */\n      slt\n        /* \"#utility.yul\":1139:1258   */\n      iszero\n      tag_230\n      jumpi\n        /* \"#utility.yul\":1177:1256   */\n      tag_231\n      tag_148\n      jump\t// in\n    tag_231:\n        /* \"#utility.yul\":1139:1258   */\n    tag_230:\n        /* \"#utility.yul\":1297:1298   */\n      0x00\n        /* \"#utility.yul\":1322:1375   */\n      tag_232\n        /* \"#utility.yul\":1367:1374   */\n      dup6\n        /* \"#utility.yul\":1358:1364   */\n      dup3\n        /* \"#utility.yul\":1347:1356   */\n      dup7\n        /* \"#utility.yul\":1343:1365   */\n      add\n        /* \"#utility.yul\":1322:1375   */\n      tag_152\n      jump\t// in\n    tag_232:\n        /* \"#utility.yul\":1312:1375   */\n      swap3\n      pop\n        /* \"#utility.yul\":1268:1385   */\n      pop\n        /* \"#utility.yul\":1424:1426   */\n      0x20\n        /* \"#utility.yul\":1450:1503   */\n      tag_233\n        /* \"#utility.yul\":1495:1502   */\n      dup6\n        /* \"#utility.yul\":1486:1492   */\n      dup3\n        /* \"#utility.yul\":1475:1484   */\n      dup7\n        /* \"#utility.yul\":1471:1493   */\n      add\n        /* \"#utility.yul\":1450:1503   */\n      tag_155\n      jump\t// in\n    tag_233:\n        /* \"#utility.yul\":1440:1503   */\n      swap2\n      pop\n        /* \"#utility.yul\":1395:1513   */\n      pop\n        /* \"#utility.yul\":1046:1520   */\n      swap3\n      pop\n      swap3\n      swap1\n      pop\n      jump\t// out\n        /* \"#utility.yul\":1526:1625   */\n    tag_156:\n        /* \"#utility.yul\":1578:1584   */\n      0x00\n        /* \"#utility.yul\":1612:1617   */\n      dup2\n        /* \"#utility.yul\":1606:1618   */\n      mload\n        /* \"#utility.yul\":1596:1618   */\n      swap1\n      pop\n        /* \"#utility.yul\":1526:1625   */\n      swap2\n      swap1\n      pop\n      jump\t// out\n        /* \"#utility.yul\":1631:1800   */\n    tag_157:\n        /* \"#utility.yul\":1715:1726   */\n      0x00\n        /* \"#utility.yul\":1749:1755   */\n      dup3\n        /* \"#utility.yul\":1744:1747   */\n      dup3\n        /* \"#utility.yul\":1737:1756   */\n      mstore\n        /* \"#utility.yul\":1789:1793   */\n      0x20\n        /* \"#utility.yul\":1784:1787   */\n      dup3\n        /* \"#utility.yul\":1780:1794   */\n      add\n        /* \"#utility.yul\":1765:1794   */\n      swap1\n      pop\n        /* \"#utility.yul\":1631:1800   */\n      swap3\n      swap2\n      pop\n      pop\n      jump\t// out\n        /* \"#utility.yul\":1806:2113   */\n    tag_158:\n        /* \"#utility.yul\":1874:1875   */\n      0x00\n        /* \"#utility.yul\":1884:1997   */\n    tag_237:\n        /* \"#utility.yul\":1898:1904   */\n      dup4\n        /* \"#utility.yul\":1895:1896   */\n      dup2\n        /* \"#utility.yul\":1892:1905   */\n      lt\n        /* \"#utility.yul\":1884:1997   */\n      iszero\n      tag_239\n      jumpi\n        /* \"#utility.yul\":1983:1984   */\n      dup1\n        /* \"#utility.yul\":1978:1981   */\n      dup3\n        /* \"#utility.yul\":1974:1985   */\n      add\n        /* \"#utility.yul\":1968:1986   */\n      mload\n        /* \"#utility.yul\":1964:1965   */\n      dup2\n        /* \"#utility.yul\":1959:1962   */\n      dup5\n        /* \"#utility.yul\":1955:1966   */\n      add\n        /* \"#utility.yul\":1948:1987   */\n      mstore\n        /* \"#utility.yul\":1920:1922   */\n      0x20\n        /* \"#utility.yul\":1917:1918   */\n      dup2\n        /* \"#utility.yul\":1913:1923   */\n      add\n        /* \"#utility.yul\":1908:1923   */\n      swap1\n      pop\n        /* \"#utility.yul\":1884:1997   */\n      jump(tag_237)\n    tag_239:\n        /* \"#utility.yul\":2015:2021   */\n      dup4\n        /* \"#utility.yul\":2012:2013   */\n      dup2\n        /* \"#utility.yul\":2009:2022   */\n      gt\n        /* \"#utility.yul\":2006:2107   */\n      iszero\n      tag_240\n      jumpi\n        /* \"#utility.yul\":2095:2096   */\n      0x00\n        /* \"#utility.yul\":2086:2092   */\n      dup5\n        /* \"#utility.yul\":2081:2084   */\n      dup5\n        /* \"#utility.yul\":2077:2093   */\n      add\n        /* \"#utility.yul\":2070:2097   */\n      mstore\n        /* \"#utility.yul\":2006:2107   */\n    tag_240:\n        /* \"#utility.yul\":1855:2113   */\n      pop\n        /* \"#utility.yul\":1806:2113   */\n      pop\n      pop\n      pop\n      jump\t// out\n        /* \"#utility.yul\":2119:2221   */\n    tag_159:\n        /* \"#utility.yul\":2160:2166   */\n      0x00\n        /* \"#utility.yul\":2211:2213   */\n      0x1f\n        /* \"#utility.yul\":2207:2214   */\n      not\n        /* \"#utility.yul\":2202:2204   */\n      0x1f\n        /* \"#utility.yul\":2195:2200   */\n      dup4\n        /* \"#utility.yul\":2191:2205   */\n      add\n        /* \"#utility.yul\":2187:2215   */\n      and\n        /* \"#utility.yul\":2177:2215   */\n      swap1\n      pop\n        /* \"#utility.yul\":2119:2221   */\n      swap2\n      swap1\n      pop\n      jump\t// out\n        /* \"#utility.yul\":2227:2591   */\n    tag_160:\n        /* \"#utility.yul\":2315:2318   */\n      0x00\n        /* \"#utility.yul\":2343:2382   */\n      tag_243\n        /* \"#utility.yul\":2376:2381   */\n      dup3\n        /* \"#utility.yul\":2343:2382   */\n      tag_156\n      jump\t// in\n    tag_243:\n        /* \"#utility.yul\":2398:2469   */\n      tag_244\n        /* \"#utility.yul\":2462:2468   */\n      dup2\n        /* \"#utility.yul\":2457:2460   */\n      dup6\n        /* \"#utility.yul\":2398:2469   */\n      tag_157\n      jump\t// in\n    tag_244:\n        /* \"#utility.yul\":2391:2469   */\n      swap4\n      pop\n        /* \"#utility.yul\":2478:2530   */\n      tag_245\n        /* \"#utility.yul\":2523:2529   */\n      dup2\n        /* \"#utility.yul\":2518:2521   */\n      dup6\n        /* \"#utility.yul\":2511:2515   */\n      0x20\n        /* \"#utility.yul\":2504:2509   */\n      dup7\n        /* \"#utility.yul\":2500:2516   */\n      add\n        /* \"#utility.yul\":2478:2530   */\n      tag_158\n      jump\t// in\n    tag_245:\n        /* \"#utility.yul\":2555:2584   */\n      tag_246\n        /* \"#utility.yul\":2577:2583   */\n      dup2\n        /* \"#utility.yul\":2555:2584   */\n      tag_159\n      jump\t// in\n    tag_246:\n        /* \"#utility.yul\":2550:2553   */\n      dup5\n        /* \"#utility.yul\":2546:2585   */\n      add\n        /* \"#utility.yul\":2539:2585   */\n      swap2\n      pop\n        /* \"#utility.yul\":2319:2591   */\n      pop\n        /* \"#utility.yul\":2227:2591   */\n      swap3\n      swap2\n      pop\n      pop\n      jump\t// out\n        /* \"#utility.yul\":2597:2695   */\n    tag_161:\n        /* \"#utility.yul\":2648:2654   */\n      0x00\n        /* \"#utility.yul\":2682:2687   */\n      dup2\n        /* \"#utility.yul\":2676:2688   */\n      mload\n        /* \"#utility.yul\":2666:2688   */\n      swap1\n      pop\n        /* \"#utility.yul\":2597:2695   */\n      swap2\n      swap1\n      pop\n      jump\t// out\n        /* \"#utility.yul\":2701:2869   */\n    tag_162:\n        /* \"#utility.yul\":2784:2795   */\n      0x00\n        /* \"#utility.yul\":2818:2824   */\n      dup3\n        /* \"#utility.yul\":2813:2816   */\n      dup3\n        /* \"#utility.yul\":2806:2825   */\n      mstore\n        /* \"#utility.yul\":2858:2862   */\n      0x20\n        /* \"#utility.yul\":2853:2856   */\n      dup3\n        /* \"#utility.yul\":2849:2863   */\n      add\n        /* \"#utility.yul\":2834:2863   */\n      swap1\n      pop\n        /* \"#utility.yul\":2701:2869   */\n      swap3\n      swap2\n      pop\n      pop\n      jump\t// out\n        /* \"#utility.yul\":2875:3235   */\n    tag_163:\n        /* \"#utility.yul\":2961:2964   */\n      0x00\n        /* \"#utility.yul\":2989:3027   */\n      tag_250\n        /* \"#utility.yul\":3021:3026   */\n      dup3\n        /* \"#utility.yul\":2989:3027   */\n      tag_161\n      jump\t// in\n    tag_250:\n        /* \"#utility.yul\":3043:3113   */\n      tag_251\n        /* \"#utility.yul\":3106:3112   */\n      dup2\n        /* \"#utility.yul\":3101:3104   */\n      dup6\n        /* \"#utility.yul\":3043:3113   */\n      tag_162\n      jump\t// in\n    tag_251:\n        /* \"#utility.yul\":3036:3113   */\n      swap4\n      pop\n        /* \"#utility.yul\":3122:3174   */\n      tag_252\n        /* \"#utility.yul\":3167:3173   */\n      dup2\n        /* \"#utility.yul\":3162:3165   */\n      dup6\n        /* \"#utility.yul\":3155:3159   */\n      0x20\n        /* \"#utility.yul\":3148:3153   */\n      dup7\n        /* \"#utility.yul\":3144:3160   */\n      add\n        /* \"#utility.yul\":3122:3174   */\n      tag_158\n      jump\t// in\n    tag_252:\n        /* \"#utility.yul\":3199:3228   */\n      tag_253\n        /* \"#utility.yul\":3221:3227   */\n      dup2\n        /* \"#utility.yul\":3199:3228   */\n      tag_159\n      jump\t// in\n    tag_253:\n        /* \"#utility.yul\":3194:3197   */\n      dup5\n        /* \"#utility.yul\":3190:3229   */\n      add\n        /* \"#utility.yul\":3183:3229   */\n      swap2\n      pop\n        /* \"#utility.yul\":2965:3235   */\n      pop\n        /* \"#utility.yul\":2875:3235   */\n      swap3\n      swap2\n      pop\n      pop\n      jump\t// out\n        /* \"#utility.yul\":3241:3952   */\n    tag_12:\n        /* \"#utility.yul\":3448:3452   */\n      0x00\n        /* \"#utility.yul\":3486:3488   */\n      0x60\n        /* \"#utility.yul\":3475:3484   */\n      dup3\n        /* \"#utility.yul\":3471:3489   */\n      add\n        /* \"#utility.yul\":3463:3489   */\n      swap1\n      pop\n        /* \"#utility.yul\":3535:3544   */\n      dup2\n        /* \"#utility.yul\":3529:3533   */\n      dup2\n        /* \"#utility.yul\":3525:3545   */\n      sub\n        /* \"#utility.yul\":3521:3522   */\n      0x00\n        /* \"#utility.yul\":3510:3519   */\n      dup4\n        /* \"#utility.yul\":3506:3523   */\n      add\n        /* \"#utility.yul\":3499:3546   */\n      mstore\n        /* \"#utility.yul\":3563:3641   */\n      tag_255\n        /* \"#utility.yul\":3636:3640   */\n      dup2\n        /* \"#utility.yul\":3627:3633   */\n      dup7\n        /* \"#utility.yul\":3563:3641   */\n      tag_160\n      jump\t// in\n    tag_255:\n        /* \"#utility.yul\":3555:3641   */\n      swap1\n      pop\n        /* \"#utility.yul\":3688:3697   */\n      dup2\n        /* \"#utility.yul\":3682:3686   */\n      dup2\n        /* \"#utility.yul\":3678:3698   */\n      sub\n        /* \"#utility.yul\":3673:3675   */\n      0x20\n        /* \"#utility.yul\":3662:3671   */\n      dup4\n        /* \"#utility.yul\":3658:3676   */\n      add\n        /* \"#utility.yul\":3651:3699   */\n      mstore\n        /* \"#utility.yul\":3716:3794   */\n      tag_256\n        /* \"#utility.yul\":3789:3793   */\n      dup2\n        /* \"#utility.yul\":3780:3786   */\n      dup6\n        /* \"#utility.yul\":3716:3794   */\n      tag_160\n      jump\t// in\n    tag_256:\n        /* \"#utility.yul\":3708:3794   */\n      swap1\n      pop\n        /* \"#utility.yul\":3841:3850   */\n      dup2\n        /* \"#utility.yul\":3835:3839   */\n      dup2\n        /* \"#utility.yul\":3831:3851   */\n      sub\n        /* \"#utility.yul\":3826:3828   */\n      0x40\n        /* \"#utility.yul\":3815:3824   */\n      dup4\n        /* \"#utility.yul\":3811:3829   */\n      add\n        /* \"#utility.yul\":3804:3852   */\n      mstore\n        /* \"#utility.yul\":3869:3945   */\n      tag_257\n        /* \"#utility.yul\":3940:3944   */\n      dup2\n        /* \"#utility.yul\":3931:3937   */\n      dup5\n        /* \"#utility.yul\":3869:3945   */\n      tag_163\n      jump\t// in\n    tag_257:\n        /* \"#utility.yul\":3861:3945   */\n      swap1\n      pop\n        /* \"#utility.yul\":3241:3952   */\n      swap5\n      swap4\n      pop\n      pop\n      pop\n      pop\n      jump\t// out\n        /* \"#utility.yul\":3958:4287   */\n    tag_15:\n        /* \"#utility.yul\":4017:4023   */\n      0x00\n        /* \"#utility.yul\":4066:4068   */\n      0x20\n        /* \"#utility.yul\":4054:4063   */\n      dup3\n        /* \"#utility.yul\":4045:4052   */\n      dup5\n        /* \"#utility.yul\":4041:4064   */\n      sub\n        /* \"#utility.yul\":4037:4069   */\n      slt\n        /* \"#utility.yul\":4034:4153   */\n      iszero\n      tag_259\n      jumpi\n        /* \"#utility.yul\":4072:4151   */\n      tag_260\n      tag_148\n      jump\t// in\n    tag_260:\n        /* \"#utility.yul\":4034:4153   */\n    tag_259:\n        /* \"#utility.yul\":4192:4193   */\n      0x00\n        /* \"#utility.yul\":4217:4270   */\n      tag_261\n        /* \"#utility.yul\":4262:4269   */\n      dup5\n        /* \"#utility.yul\":4253:4259   */\n      dup3\n        /* \"#utility.yul\":4242:4251   */\n      dup6\n        /* \"#utility.yul\":4238:4260   */\n      add\n        /* \"#utility.yul\":4217:4270   */\n      tag_152\n      jump\t// in\n    tag_261:\n        /* \"#utility.yul\":4207:4270   */\n      swap2\n      pop\n        /* \"#utility.yul\":4163:4280   */\n      pop\n        /* \"#utility.yul\":3958:4287   */\n      swap3\n      swap2\n      pop\n      pop\n      jump\t// out\n        /* \"#utility.yul\":4293:4417   */\n    tag_164:\n        /* \"#utility.yul\":4370:4376   */\n      0x00\n        /* \"#utility.yul\":4404:4409   */\n      dup2\n        /* \"#utility.yul\":4398:4410   */\n      mload\n        /* \"#utility.yul\":4388:4410   */\n      swap1\n      pop\n        /* \"#utility.yul\":4293:4417   */\n      swap2\n      swap1\n      pop\n      jump\t// out\n        /* \"#utility.yul\":4423:4617   */\n    tag_165:\n        /* \"#utility.yul\":4532:4543   */\n      0x00\n        /* \"#utility.yul\":4566:4572   */\n      dup3\n        /* \"#utility.yul\":4561:4564   */\n      dup3\n        /* \"#utility.yul\":4554:4573   */\n      mstore\n        /* \"#utility.yul\":4606:4610   */\n      0x20\n        /* \"#utility.yul\":4601:4604   */\n      dup3\n        /* \"#utility.yul\":4597:4611   */\n      add\n        /* \"#utility.yul\":4582:4611   */\n      swap1\n      pop\n        /* \"#utility.yul\":4423:4617   */\n      swap3\n      swap2\n      pop\n      pop\n      jump\t// out\n        /* \"#utility.yul\":4623:4765   */\n    tag_166:\n        /* \"#utility.yul\":4700:4704   */\n      0x00\n        /* \"#utility.yul\":4723:4726   */\n      dup2\n        /* \"#utility.yul\":4715:4726   */\n      swap1\n      pop\n        /* \"#utility.yul\":4753:4757   */\n      0x20\n        /* \"#utility.yul\":4748:4751   */\n      dup3\n        /* \"#utility.yul\":4744:4758   */\n      add\n        /* \"#utility.yul\":4736:4758   */\n      swap1\n      pop\n        /* \"#utility.yul\":4623:4765   */\n      swap2\n      swap1\n      pop\n      jump\t// out\n        /* \"#utility.yul\":4771:4930   */\n    tag_167:\n        /* \"#utility.yul\":4845:4856   */\n      0x00\n        /* \"#utility.yul\":4879:4885   */\n      dup3\n        /* \"#utility.yul\":4874:4877   */\n      dup3\n        /* \"#utility.yul\":4867:4886   */\n      mstore\n        /* \"#utility.yul\":4919:4923   */\n      0x20\n        /* \"#utility.yul\":4914:4917   */\n      dup3\n        /* \"#utility.yul\":4910:4924   */\n      add\n        /* \"#utility.yul\":4895:4924   */\n      swap1\n      pop\n        /* \"#utility.yul\":4771:4930   */\n      swap3\n      swap2\n      pop\n      pop\n      jump\t// out\n        /* \"#utility.yul\":4936:5280   */\n    tag_168:\n        /* \"#utility.yul\":5014:5017   */\n      0x00\n        /* \"#utility.yul\":5042:5081   */\n      tag_267\n        /* \"#utility.yul\":5075:5080   */\n      dup3\n        /* \"#utility.yul\":5042:5081   */\n      tag_156\n      jump\t// in\n    tag_267:\n        /* \"#utility.yul\":5097:5158   */\n      tag_268\n        /* \"#utility.yul\":5151:5157   */\n      dup2\n        /* \"#utility.yul\":5146:5149   */\n      dup6\n        /* \"#utility.yul\":5097:5158   */\n      tag_167\n      jump\t// in\n    tag_268:\n        /* \"#utility.yul\":5090:5158   */\n      swap4\n      pop\n        /* \"#utility.yul\":5167:5219   */\n      tag_269\n        /* \"#utility.yul\":5212:5218   */\n      dup2\n        /* \"#utility.yul\":5207:5210   */\n      dup6\n        /* \"#utility.yul\":5200:5204   */\n      0x20\n        /* \"#utility.yul\":5193:5198   */\n      dup7\n        /* \"#utility.yul\":5189:5205   */\n      add\n        /* \"#utility.yul\":5167:5219   */\n      tag_158\n      jump\t// in\n    tag_269:\n        /* \"#utility.yul\":5244:5273   */\n      tag_270\n        /* \"#utility.yul\":5266:5272   */\n      dup2\n        /* \"#utility.yul\":5244:5273   */\n      tag_159\n      jump\t// in\n    tag_270:\n        /* \"#utility.yul\":5239:5242   */\n      dup5\n        /* \"#utility.yul\":5235:5274   */\n      add\n        /* \"#utility.yul\":5228:5274   */\n      swap2\n      pop\n        /* \"#utility.yul\":5018:5280   */\n      pop\n        /* \"#utility.yul\":4936:5280   */\n      swap3\n      swap2\n      pop\n      pop\n      jump\t// out\n        /* \"#utility.yul\":5286:5482   */\n    tag_169:\n        /* \"#utility.yul\":5375:5385   */\n      0x00\n        /* \"#utility.yul\":5410:5476   */\n      tag_272\n        /* \"#utility.yul\":5472:5475   */\n      dup4\n        /* \"#utility.yul\":5464:5470   */\n      dup4\n        /* \"#utility.yul\":5410:5476   */\n      tag_168\n      jump\t// in\n    tag_272:\n        /* \"#utility.yul\":5396:5476   */\n      swap1\n      pop\n        /* \"#utility.yul\":5286:5482   */\n      swap3\n      swap2\n      pop\n      pop\n      jump\t// out\n        /* \"#utility.yul\":5488:5611   */\n    tag_170:\n        /* \"#utility.yul\":5568:5572   */\n      0x00\n        /* \"#utility.yul\":5600:5604   */\n      0x20\n        /* \"#utility.yul\":5595:5598   */\n      dup3\n        /* \"#utility.yul\":5591:5605   */\n      add\n        /* \"#utility.yul\":5583:5605   */\n      swap1\n      pop\n        /* \"#utility.yul\":5488:5611   */\n      swap2\n      swap1\n      pop\n      jump\t// out\n        /* \"#utility.yul\":5645:6636   */\n    tag_171:\n        /* \"#utility.yul\":5784:5787   */\n      0x00\n        /* \"#utility.yul\":5813:5877   */\n      tag_275\n        /* \"#utility.yul\":5871:5876   */\n      dup3\n        /* \"#utility.yul\":5813:5877   */\n      tag_164\n      jump\t// in\n    tag_275:\n        /* \"#utility.yul\":5893:5989   */\n      tag_276\n        /* \"#utility.yul\":5982:5988   */\n      dup2\n        /* \"#utility.yul\":5977:5980   */\n      dup6\n        /* \"#utility.yul\":5893:5989   */\n      tag_165\n      jump\t// in\n    tag_276:\n        /* \"#utility.yul\":5886:5989   */\n      swap4\n      pop\n        /* \"#utility.yul\":6015:6018   */\n      dup4\n        /* \"#utility.yul\":6060:6064   */\n      0x20\n        /* \"#utility.yul\":6052:6058   */\n      dup3\n        /* \"#utility.yul\":6048:6065   */\n      mul\n        /* \"#utility.yul\":6043:6046   */\n      dup6\n        /* \"#utility.yul\":6039:6066   */\n      add\n        /* \"#utility.yul\":6090:6156   */\n      tag_277\n        /* \"#utility.yul\":6150:6155   */\n      dup6\n        /* \"#utility.yul\":6090:6156   */\n      tag_166\n      jump\t// in\n    tag_277:\n        /* \"#utility.yul\":6179:6186   */\n      dup1\n        /* \"#utility.yul\":6210:6211   */\n      0x00\n        /* \"#utility.yul\":6195:6591   */\n    tag_278:\n        /* \"#utility.yul\":6220:6226   */\n      dup6\n        /* \"#utility.yul\":6217:6218   */\n      dup2\n        /* \"#utility.yul\":6214:6227   */\n      lt\n        /* \"#utility.yul\":6195:6591   */\n      iszero\n      tag_280\n      jumpi\n        /* \"#utility.yul\":6291:6300   */\n      dup5\n        /* \"#utility.yul\":6285:6289   */\n      dup5\n        /* \"#utility.yul\":6281:6301   */\n      sub\n        /* \"#utility.yul\":6276:6279   */\n      dup10\n        /* \"#utility.yul\":6269:6302   */\n      mstore\n        /* \"#utility.yul\":6342:6348   */\n      dup2\n        /* \"#utility.yul\":6336:6349   */\n      mload\n        /* \"#utility.yul\":6370:6454   */\n      tag_281\n        /* \"#utility.yul\":6449:6453   */\n      dup6\n        /* \"#utility.yul\":6434:6447   */\n      dup3\n        /* \"#utility.yul\":6370:6454   */\n      tag_169\n      jump\t// in\n    tag_281:\n        /* \"#utility.yul\":6362:6454   */\n      swap5\n      pop\n        /* \"#utility.yul\":6477:6547   */\n      tag_282\n        /* \"#utility.yul\":6540:6546   */\n      dup4\n        /* \"#utility.yul\":6477:6547   */\n      tag_170\n      jump\t// in\n    tag_282:\n        /* \"#utility.yul\":6467:6547   */\n      swap3\n      pop\n        /* \"#utility.yul\":6576:6580   */\n      0x20\n        /* \"#utility.yul\":6571:6574   */\n      dup11\n        /* \"#utility.yul\":6567:6581   */\n      add\n        /* \"#utility.yul\":6560:6581   */\n      swap10\n      pop\n        /* \"#utility.yul\":6255:6591   */\n      pop\n        /* \"#utility.yul\":6242:6243   */\n      0x01\n        /* \"#utility.yul\":6239:6240   */\n      dup2\n        /* \"#utility.yul\":6235:6244   */\n      add\n        /* \"#utility.yul\":6230:6244   */\n      swap1\n      pop\n        /* \"#utility.yul\":6195:6591   */\n      jump(tag_278)\n    tag_280:\n        /* \"#utility.yul\":6199:6213   */\n      pop\n        /* \"#utility.yul\":6607:6611   */\n      dup3\n        /* \"#utility.yul\":6600:6611   */\n      swap8\n      pop\n        /* \"#utility.yul\":6627:6630   */\n      dup8\n        /* \"#utility.yul\":6620:6630   */\n      swap6\n      pop\n        /* \"#utility.yul\":5789:6636   */\n      pop\n      pop\n      pop\n      pop\n      pop\n        /* \"#utility.yul\":5645:6636   */\n      swap3\n      swap2\n      pop\n      pop\n      jump\t// out\n        /* \"#utility.yul\":6642:6765   */\n    tag_172:\n        /* \"#utility.yul\":6718:6724   */\n      0x00\n        /* \"#utility.yul\":6752:6757   */\n      dup2\n        /* \"#utility.yul\":6746:6758   */\n      mload\n        /* \"#utility.yul\":6736:6758   */\n      swap1\n      pop\n        /* \"#utility.yul\":6642:6765   */\n      swap2\n      swap1\n      pop\n      jump\t// out\n        /* \"#utility.yul\":6771:6964   */\n    tag_173:\n        /* \"#utility.yul\":6879:6890   */\n      0x00\n        /* \"#utility.yul\":6913:6919   */\n      dup3\n        /* \"#utility.yul\":6908:6911   */\n      dup3\n        /* \"#utility.yul\":6901:6920   */\n      mstore\n        /* \"#utility.yul\":6953:6957   */\n      0x20\n        /* \"#utility.yul\":6948:6951   */\n      dup3\n        /* \"#utility.yul\":6944:6958   */\n      add\n        /* \"#utility.yul\":6929:6958   */\n      swap1\n      pop\n        /* \"#utility.yul\":6771:6964   */\n      swap3\n      swap2\n      pop\n      pop\n      jump\t// out\n        /* \"#utility.yul\":6970:7111   */\n    tag_174:\n        /* \"#utility.yul\":7046:7050   */\n      0x00\n        /* \"#utility.yul\":7069:7072   */\n      dup2\n        /* \"#utility.yul\":7061:7072   */\n      swap1\n      pop\n        /* \"#utility.yul\":7099:7103   */\n      0x20\n        /* \"#utility.yul\":7094:7097   */\n      dup3\n        /* \"#utility.yul\":7090:7104   */\n      add\n        /* \"#utility.yul\":7082:7104   */\n      swap1\n      pop\n        /* \"#utility.yul\":6970:7111   */\n      swap2\n      swap1\n      pop\n      jump\t// out\n        /* \"#utility.yul\":7117:7275   */\n    tag_175:\n        /* \"#utility.yul\":7190:7201   */\n      0x00\n        /* \"#utility.yul\":7224:7230   */\n      dup3\n        /* \"#utility.yul\":7219:7222   */\n      dup3\n        /* \"#utility.yul\":7212:7231   */\n      mstore\n        /* \"#utility.yul\":7264:7268   */\n      0x20\n        /* \"#utility.yul\":7259:7262   */\n      dup3\n        /* \"#utility.yul\":7255:7269   */\n      add\n        /* \"#utility.yul\":7240:7269   */\n      swap1\n      pop\n        /* \"#utility.yul\":7117:7275   */\n      swap3\n      swap2\n      pop\n      pop\n      jump\t// out\n        /* \"#utility.yul\":7281:7621   */\n    tag_176:\n        /* \"#utility.yul\":7357:7360   */\n      0x00\n        /* \"#utility.yul\":7385:7423   */\n      tag_288\n        /* \"#utility.yul\":7417:7422   */\n      dup3\n        /* \"#utility.yul\":7385:7423   */\n      tag_161\n      jump\t// in\n    tag_288:\n        /* \"#utility.yul\":7439:7499   */\n      tag_289\n        /* \"#utility.yul\":7492:7498   */\n      dup2\n        /* \"#utility.yul\":7487:7490   */\n      dup6\n        /* \"#utility.yul\":7439:7499   */\n      tag_175\n      jump\t// in\n    tag_289:\n        /* \"#utility.yul\":7432:7499   */\n      swap4\n      pop\n        /* \"#utility.yul\":7508:7560   */\n      tag_290\n        /* \"#utility.yul\":7553:7559   */\n      dup2\n        /* \"#utility.yul\":7548:7551   */\n      dup6\n        /* \"#utility.yul\":7541:7545   */\n      0x20\n        /* \"#utility.yul\":7534:7539   */\n      dup7\n        /* \"#utility.yul\":7530:7546   */\n      add\n        /* \"#utility.yul\":7508:7560   */\n      tag_158\n      jump\t// in\n    tag_290:\n        /* \"#utility.yul\":7585:7614   */\n      tag_291\n        /* \"#utility.yul\":7607:7613   */\n      dup2\n        /* \"#utility.yul\":7585:7614   */\n      tag_159\n      jump\t// in\n    tag_291:\n        /* \"#utility.yul\":7580:7583   */\n      dup5\n        /* \"#utility.yul\":7576:7615   */\n      add\n        /* \"#utility.yul\":7569:7615   */\n      swap2\n      pop\n        /* \"#utility.yul\":7361:7621   */\n      pop\n        /* \"#utility.yul\":7281:7621   */\n      swap3\n      swap2\n      pop\n      pop\n      jump\t// out\n        /* \"#utility.yul\":7627:7819   */\n    tag_177:\n        /* \"#utility.yul\":7714:7724   */\n      0x00\n        /* \"#utility.yul\":7749:7813   */\n      tag_293\n        /* \"#utility.yul\":7809:7812   */\n      dup4\n        /* \"#utility.yul\":7801:7807   */\n      dup4\n        /* \"#utility.yul\":7749:7813   */\n      tag_176\n      jump\t// in\n    tag_293:\n        /* \"#utility.yul\":7735:7813   */\n      swap1\n      pop\n        /* \"#utility.yul\":7627:7819   */\n      swap3\n      swap2\n      pop\n      pop\n      jump\t// out\n        /* \"#utility.yul\":7825:7947   */\n    tag_178:\n        /* \"#utility.yul\":7904:7908   */\n      0x00\n        /* \"#utility.yul\":7936:7940   */\n      0x20\n        /* \"#utility.yul\":7931:7934   */\n      dup3\n        /* \"#utility.yul\":7927:7941   */\n      add\n        /* \"#utility.yul\":7919:7941   */\n      swap1\n      pop\n        /* \"#utility.yul\":7825:7947   */\n      swap2\n      swap1\n      pop\n      jump\t// out\n        /* \"#utility.yul\":7979:8962   */\n    tag_179:\n        /* \"#utility.yul\":8116:8119   */\n      0x00\n        /* \"#utility.yul\":8145:8208   */\n      tag_296\n        /* \"#utility.yul\":8202:8207   */\n      dup3\n        /* \"#utility.yul\":8145:8208   */\n      tag_172\n      jump\t// in\n    tag_296:\n        /* \"#utility.yul\":8224:8319   */\n      tag_297\n        /* \"#utility.yul\":8312:8318   */\n      dup2\n        /* \"#utility.yul\":8307:8310   */\n      dup6\n        /* \"#utility.yul\":8224:8319   */\n      tag_173\n      jump\t// in\n    tag_297:\n        /* \"#utility.yul\":8217:8319   */\n      swap4\n      pop\n        /* \"#utility.yul\":8345:8348   */\n      dup4\n        /* \"#utility.yul\":8390:8394   */\n      0x20\n        /* \"#utility.yul\":8382:8388   */\n      dup3\n        /* \"#utility.yul\":8378:8395   */\n      mul\n        /* \"#utility.yul\":8373:8376   */\n      dup6\n        /* \"#utility.yul\":8369:8396   */\n      add\n        /* \"#utility.yul\":8420:8485   */\n      tag_298\n        /* \"#utility.yul\":8479:8484   */\n      dup6\n        /* \"#utility.yul\":8420:8485   */\n      tag_174\n      jump\t// in\n    tag_298:\n        /* \"#utility.yul\":8508:8515   */\n      dup1\n        /* \"#utility.yul\":8539:8540   */\n      0x00\n        /* \"#utility.yul\":8524:8917   */\n    tag_299:\n        /* \"#utility.yul\":8549:8555   */\n      dup6\n        /* \"#utility.yul\":8546:8547   */\n      dup2\n        /* \"#utility.yul\":8543:8556   */\n      lt\n        /* \"#utility.yul\":8524:8917   */\n      iszero\n      tag_301\n      jumpi\n        /* \"#utility.yul\":8620:8629   */\n      dup5\n        /* \"#utility.yul\":8614:8618   */\n      dup5\n        /* \"#utility.yul\":8610:8630   */\n      sub\n        /* \"#utility.yul\":8605:8608   */\n      dup10\n        /* \"#utility.yul\":8598:8631   */\n      mstore\n        /* \"#utility.yul\":8671:8677   */\n      dup2\n        /* \"#utility.yul\":8665:8678   */\n      mload\n        /* \"#utility.yul\":8699:8781   */\n      tag_302\n        /* \"#utility.yul\":8776:8780   */\n      dup6\n        /* \"#utility.yul\":8761:8774   */\n      dup3\n        /* \"#utility.yul\":8699:8781   */\n      tag_177\n      jump\t// in\n    tag_302:\n        /* \"#utility.yul\":8691:8781   */\n      swap5\n      pop\n        /* \"#utility.yul\":8804:8873   */\n      tag_303\n        /* \"#utility.yul\":8866:8872   */\n      dup4\n        /* \"#utility.yul\":8804:8873   */\n      tag_178\n      jump\t// in\n    tag_303:\n        /* \"#utility.yul\":8794:8873   */\n      swap3\n      pop\n        /* \"#utility.yul\":8902:8906   */\n      0x20\n        /* \"#utility.yul\":8897:8900   */\n      dup11\n        /* \"#utility.yul\":8893:8907   */\n      add\n        /* \"#utility.yul\":8886:8907   */\n      swap10\n      pop\n        /* \"#utility.yul\":8584:8917   */\n      pop\n        /* \"#utility.yul\":8571:8572   */\n      0x01\n        /* \"#utility.yul\":8568:8569   */\n      dup2\n        /* \"#utility.yul\":8564:8573   */\n      add\n        /* \"#utility.yul\":8559:8573   */\n      swap1\n      pop\n        /* \"#utility.yul\":8524:8917   */\n      jump(tag_299)\n    tag_301:\n        /* \"#utility.yul\":8528:8542   */\n      pop\n        /* \"#utility.yul\":8933:8937   */\n      dup3\n        /* \"#utility.yul\":8926:8937   */\n      swap8\n      pop\n        /* \"#utility.yul\":8953:8956   */\n      dup8\n        /* \"#utility.yul\":8946:8956   */\n      swap6\n      pop\n        /* \"#utility.yul\":8121:8962   */\n      pop\n      pop\n      pop\n      pop\n      pop\n        /* \"#utility.yul\":7979:8962   */\n      swap3\n      swap2\n      pop\n      pop\n      jump\t// out\n        /* \"#utility.yul\":8968:9979   */\n    tag_18:\n        /* \"#utility.yul\":9325:9329   */\n      0x00\n        /* \"#utility.yul\":9363:9365   */\n      0x60\n        /* \"#utility.yul\":9352:9361   */\n      dup3\n        /* \"#utility.yul\":9348:9366   */\n      add\n        /* \"#utility.yul\":9340:9366   */\n      swap1\n      pop\n        /* \"#utility.yul\":9412:9421   */\n      dup2\n        /* \"#utility.yul\":9406:9410   */\n      dup2\n        /* \"#utility.yul\":9402:9422   */\n      sub\n        /* \"#utility.yul\":9398:9399   */\n      0x00\n        /* \"#utility.yul\":9387:9396   */\n      dup4\n        /* \"#utility.yul\":9383:9400   */\n      add\n        /* \"#utility.yul\":9376:9423   */\n      mstore\n        /* \"#utility.yul\":9440:9568   */\n      tag_305\n        /* \"#utility.yul\":9563:9567   */\n      dup2\n        /* \"#utility.yul\":9554:9560   */\n      dup7\n        /* \"#utility.yul\":9440:9568   */\n      tag_171\n      jump\t// in\n    tag_305:\n        /* \"#utility.yul\":9432:9568   */\n      swap1\n      pop\n        /* \"#utility.yul\":9615:9624   */\n      dup2\n        /* \"#utility.yul\":9609:9613   */\n      dup2\n        /* \"#utility.yul\":9605:9625   */\n      sub\n        /* \"#utility.yul\":9600:9602   */\n      0x20\n        /* \"#utility.yul\":9589:9598   */\n      dup4\n        /* \"#utility.yul\":9585:9603   */\n      add\n        /* \"#utility.yul\":9578:9626   */\n      mstore\n        /* \"#utility.yul\":9643:9771   */\n      tag_306\n        /* \"#utility.yul\":9766:9770   */\n      dup2\n        /* \"#utility.yul\":9757:9763   */\n      dup6\n        /* \"#utility.yul\":9643:9771   */\n      tag_171\n      jump\t// in\n    tag_306:\n        /* \"#utility.yul\":9635:9771   */\n      swap1\n      pop\n        /* \"#utility.yul\":9818:9827   */\n      dup2\n        /* \"#utility.yul\":9812:9816   */\n      dup2\n        /* \"#utility.yul\":9808:9828   */\n      sub\n        /* \"#utility.yul\":9803:9805   */\n      0x40\n        /* \"#utility.yul\":9792:9801   */\n      dup4\n        /* \"#utility.yul\":9788:9806   */\n      add\n        /* \"#utility.yul\":9781:9829   */\n      mstore\n        /* \"#utility.yul\":9846:9972   */\n      tag_307\n        /* \"#utility.yul\":9967:9971   */\n      dup2\n        /* \"#utility.yul\":9958:9964   */\n      dup5\n        /* \"#utility.yul\":9846:9972   */\n      tag_179\n      jump\t// in\n    tag_307:\n        /* \"#utility.yul\":9838:9972   */\n      swap1\n      pop\n        /* \"#utility.yul\":8968:9979   */\n      swap5\n      swap4\n      pop\n      pop\n      pop\n      pop\n      jump\t// out\n        /* \"#utility.yul\":9985:10111   */\n    tag_180:\n        /* \"#utility.yul\":10022:10029   */\n      0x00\n        /* \"#utility.yul\":10062:10104   */\n      0xffffffffffffffffffffffffffffffffffffffff\n        /* \"#utility.yul\":10055:10060   */\n      dup3\n        /* \"#utility.yul\":10051:10105   */\n      and\n        /* \"#utility.yul\":10040:10105   */\n      swap1\n      pop\n        /* \"#utility.yul\":9985:10111   */\n      swap2\n      swap1\n      pop\n      jump\t// out\n        /* \"#utility.yul\":10117:10177   */\n    tag_181:\n        /* \"#utility.yul\":10145:10148   */\n      0x00\n        /* \"#utility.yul\":10166:10171   */\n      dup2\n        /* \"#utility.yul\":10159:10171   */\n      swap1\n      pop\n        /* \"#utility.yul\":10117:10177   */\n      swap2\n      swap1\n      pop\n      jump\t// out\n        /* \"#utility.yul\":10183:10325   */\n    tag_182:\n        /* \"#utility.yul\":10233:10242   */\n      0x00\n        /* \"#utility.yul\":10266:10319   */\n      tag_311\n        /* \"#utility.yul\":10284:10318   */\n      tag_312\n        /* \"#utility.yul\":10293:10317   */\n      tag_313\n        /* \"#utility.yul\":10311:10316   */\n      dup5\n        /* \"#utility.yul\":10293:10317   */\n      tag_180\n      jump\t// in\n    tag_313:\n        /* \"#utility.yul\":10284:10318   */\n      tag_181\n      jump\t// in\n    tag_312:\n        /* \"#utility.yul\":10266:10319   */\n      tag_180\n      jump\t// in\n    tag_311:\n        /* \"#utility.yul\":10253:10319   */\n      swap1\n      pop\n        /* \"#utility.yul\":10183:10325   */\n      swap2\n      swap1\n      pop\n      jump\t// out\n        /* \"#utility.yul\":10331:10457   */\n    tag_183:\n        /* \"#utility.yul\":10381:10390   */\n      0x00\n        /* \"#utility.yul\":10414:10451   */\n      tag_315\n        /* \"#utility.yul\":10445:10450   */\n      dup3\n        /* \"#utility.yul\":10414:10451   */\n      tag_182\n      jump\t// in\n    tag_315:\n        /* \"#utility.yul\":10401:10451   */\n      swap1\n      pop\n        /* \"#utility.yul\":10331:10457   */\n      swap2\n      swap1\n      pop\n      jump\t// out\n        /* \"#utility.yul\":10463:10605   */\n    tag_184:\n        /* \"#utility.yul\":10529:10538   */\n      0x00\n        /* \"#utility.yul\":10562:10599   */\n      tag_317\n        /* \"#utility.yul\":10593:10598   */\n      dup3\n        /* \"#utility.yul\":10562:10599   */\n      tag_183\n      jump\t// in\n    tag_317:\n        /* \"#utility.yul\":10549:10599   */\n      swap1\n      pop\n        /* \"#utility.yul\":10463:10605   */\n      swap2\n      swap1\n      pop\n      jump\t// out\n        /* \"#utility.yul\":10611:10774   */\n    tag_185:\n        /* \"#utility.yul\":10714:10767   */\n      tag_319\n        /* \"#utility.yul\":10761:10766   */\n      dup2\n        /* \"#utility.yul\":10714:10767   */\n      tag_184\n      jump\t// in\n    tag_319:\n        /* \"#utility.yul\":10709:10712   */\n      dup3\n        /* \"#utility.yul\":10702:10768   */\n      mstore\n        /* \"#utility.yul\":10611:10774   */\n      pop\n      pop\n      jump\t// out\n        /* \"#utility.yul\":10780:11034   */\n    tag_22:\n        /* \"#utility.yul\":10889:10893   */\n      0x00\n        /* \"#utility.yul\":10927:10929   */\n      0x20\n        /* \"#utility.yul\":10916:10925   */\n      dup3\n        /* \"#utility.yul\":10912:10930   */\n      add\n        /* \"#utility.yul\":10904:10930   */\n      swap1\n      pop\n        /* \"#utility.yul\":10940:11027   */\n      tag_321\n        /* \"#utility.yul\":11024:11025   */\n      0x00\n        /* \"#utility.yul\":11013:11022   */\n      dup4\n        /* \"#utility.yul\":11009:11026   */\n      add\n        /* \"#utility.yul\":11000:11006   */\n      dup5\n        /* \"#utility.yul\":10940:11027   */\n      tag_185\n      jump\t// in\n    tag_321:\n        /* \"#utility.yul\":10780:11034   */\n      swap3\n      swap2\n      pop\n      pop\n      jump\t// out\n        /* \"#utility.yul\":11040:11157   */\n    tag_186:\n        /* \"#utility.yul\":11149:11150   */\n      0x00\n        /* \"#utility.yul\":11146:11147   */\n      dup1\n        /* \"#utility.yul\":11139:11151   */\n      revert\n        /* \"#utility.yul\":11163:11280   */\n    tag_187:\n        /* \"#utility.yul\":11272:11273   */\n      0x00\n        /* \"#utility.yul\":11269:11270   */\n      dup1\n        /* \"#utility.yul\":11262:11274   */\n      revert\n        /* \"#utility.yul\":11286:11466   */\n    tag_57:\n        /* \"#utility.yul\":11334:11411   */\n      0x4e487b7100000000000000000000000000000000000000000000000000000000\n        /* \"#utility.yul\":11331:11332   */\n      0x00\n        /* \"#utility.yul\":11324:11412   */\n      mstore\n        /* \"#utility.yul\":11431:11435   */\n      0x41\n        /* \"#utility.yul\":11428:11429   */\n      0x04\n        /* \"#utility.yul\":11421:11436   */\n      mstore\n        /* \"#utility.yul\":11455:11459   */\n      0x24\n        /* \"#utility.yul\":11452:11453   */\n      0x00\n        /* \"#utility.yul\":11445:11460   */\n      revert\n        /* \"#utility.yul\":11472:11753   */\n    tag_188:\n        /* \"#utility.yul\":11555:11582   */\n      tag_326\n        /* \"#utility.yul\":11577:11581   */\n      dup3\n        /* \"#utility.yul\":11555:11582   */\n      tag_159\n      jump\t// in\n    tag_326:\n        /* \"#utility.yul\":11547:11553   */\n      dup2\n        /* \"#utility.yul\":11543:11583   */\n      add\n        /* \"#utility.yul\":11685:11691   */\n      dup2\n        /* \"#utility.yul\":11673:11683   */\n      dup2\n        /* \"#utility.yul\":11670:11692   */\n      lt\n        /* \"#utility.yul\":11649:11667   */\n      0xffffffffffffffff\n        /* \"#utility.yul\":11637:11647   */\n      dup3\n        /* \"#utility.yul\":11634:11668   */\n      gt\n        /* \"#utility.yul\":11631:11693   */\n      or\n        /* \"#utility.yul\":11628:11716   */\n      iszero\n      tag_327\n      jumpi\n        /* \"#utility.yul\":11696:11714   */\n      tag_328\n      tag_57\n      jump\t// in\n    tag_328:\n        /* \"#utility.yul\":11628:11716   */\n    tag_327:\n        /* \"#utility.yul\":11736:11746   */\n      dup1\n        /* \"#utility.yul\":11732:11734   */\n      0x40\n        /* \"#utility.yul\":11725:11747   */\n      mstore\n        /* \"#utility.yul\":11515:11753   */\n      pop\n        /* \"#utility.yul\":11472:11753   */\n      pop\n      pop\n      jump\t// out\n        /* \"#utility.yul\":11759:11888   */\n    tag_189:\n        /* \"#utility.yul\":11793:11799   */\n      0x00\n        /* \"#utility.yul\":11820:11840   */\n      tag_330\n      tag_147\n      jump\t// in\n    tag_330:\n        /* \"#utility.yul\":11810:11840   */\n      swap1\n      pop\n        /* \"#utility.yul\":11849:11882   */\n      tag_331\n        /* \"#utility.yul\":11877:11881   */\n      dup3\n        /* \"#utility.yul\":11869:11875   */\n      dup3\n        /* \"#utility.yul\":11849:11882   */\n      tag_188\n      jump\t// in\n    tag_331:\n        /* \"#utility.yul\":11759:11888   */\n      swap2\n      swap1\n      pop\n      jump\t// out\n        /* \"#utility.yul\":11894:12202   */\n    tag_190:\n        /* \"#utility.yul\":11956:11960   */\n      0x00\n        /* \"#utility.yul\":12046:12064   */\n      0xffffffffffffffff\n        /* \"#utility.yul\":12038:12044   */\n      dup3\n        /* \"#utility.yul\":12035:12065   */\n      gt\n        /* \"#utility.yul\":12032:12088   */\n      iszero\n      tag_333\n      jumpi\n        /* \"#utility.yul\":12068:12086   */\n      tag_334\n      tag_57\n      jump\t// in\n    tag_334:\n        /* \"#utility.yul\":12032:12088   */\n    tag_333:\n        /* \"#utility.yul\":12106:12135   */\n      tag_335\n        /* \"#utility.yul\":12128:12134   */\n      dup3\n        /* \"#utility.yul\":12106:12135   */\n      tag_159\n      jump\t// in\n    tag_335:\n        /* \"#utility.yul\":12098:12135   */\n      swap1\n      pop\n        /* \"#utility.yul\":12190:12194   */\n      0x20\n        /* \"#utility.yul\":12184:12188   */\n      dup2\n        /* \"#utility.yul\":12180:12195   */\n      add\n        /* \"#utility.yul\":12172:12195   */\n      swap1\n      pop\n        /* \"#utility.yul\":11894:12202   */\n      swap2\n      swap1\n      pop\n      jump\t// out\n        /* \"#utility.yul\":12208:12362   */\n    tag_191:\n        /* \"#utility.yul\":12292:12298   */\n      dup3\n        /* \"#utility.yul\":12287:12290   */\n      dup2\n        /* \"#utility.yul\":12282:12285   */\n      dup4\n        /* \"#utility.yul\":12269:12299   */\n      calldatacopy\n        /* \"#utility.yul\":12354:12355   */\n      0x00\n        /* \"#utility.yul\":12345:12351   */\n      dup4\n        /* \"#utility.yul\":12340:12343   */\n      dup4\n        /* \"#utility.yul\":12336:12352   */\n      add\n        /* \"#utility.yul\":12329:12356   */\n      mstore\n        /* \"#utility.yul\":12208:12362   */\n      pop\n      pop\n      pop\n      jump\t// out\n        /* \"#utility.yul\":12368:12780   */\n    tag_192:\n        /* \"#utility.yul\":12446:12451   */\n      0x00\n        /* \"#utility.yul\":12471:12537   */\n      tag_338\n        /* \"#utility.yul\":12487:12536   */\n      tag_339\n        /* \"#utility.yul\":12529:12535   */\n      dup5\n        /* \"#utility.yul\":12487:12536   */\n      tag_190\n      jump\t// in\n    tag_339:\n        /* \"#utility.yul\":12471:12537   */\n      tag_189\n      jump\t// in\n    tag_338:\n        /* \"#utility.yul\":12462:12537   */\n      swap1\n      pop\n        /* \"#utility.yul\":12560:12566   */\n      dup3\n        /* \"#utility.yul\":12553:12558   */\n      dup2\n        /* \"#utility.yul\":12546:12567   */\n      mstore\n        /* \"#utility.yul\":12598:12602   */\n      0x20\n        /* \"#utility.yul\":12591:12596   */\n      dup2\n        /* \"#utility.yul\":12587:12603   */\n      add\n        /* \"#utility.yul\":12636:12639   */\n      dup5\n        /* \"#utility.yul\":12627:12633   */\n      dup5\n        /* \"#utility.yul\":12622:12625   */\n      dup5\n        /* \"#utility.yul\":12618:12634   */\n      add\n        /* \"#utility.yul\":12615:12640   */\n      gt\n        /* \"#utility.yul\":12612:12724   */\n      iszero\n      tag_340\n      jumpi\n        /* \"#utility.yul\":12643:12722   */\n      tag_341\n      tag_187\n      jump\t// in\n    tag_341:\n        /* \"#utility.yul\":12612:12724   */\n    tag_340:\n        /* \"#utility.yul\":12733:12774   */\n      tag_342\n        /* \"#utility.yul\":12767:12773   */\n      dup5\n        /* \"#utility.yul\":12762:12765   */\n      dup3\n        /* \"#utility.yul\":12757:12760   */\n      dup6\n        /* \"#utility.yul\":12733:12774   */\n      tag_191\n      jump\t// in\n    tag_342:\n        /* \"#utility.yul\":12452:12780   */\n      pop\n        /* \"#utility.yul\":12368:12780   */\n      swap4\n      swap3\n      pop\n      pop\n      pop\n      jump\t// out\n        /* \"#utility.yul\":12800:13140   */\n    tag_193:\n        /* \"#utility.yul\":12856:12861   */\n      0x00\n        /* \"#utility.yul\":12905:12908   */\n      dup3\n        /* \"#utility.yul\":12898:12902   */\n      0x1f\n        /* \"#utility.yul\":12890:12896   */\n      dup4\n        /* \"#utility.yul\":12886:12903   */\n      add\n        /* \"#utility.yul\":12882:12909   */\n      slt\n        /* \"#utility.yul\":12872:12994   */\n      tag_344\n      jumpi\n        /* \"#utility.yul\":12913:12992   */\n      tag_345\n      tag_186\n      jump\t// in\n    tag_345:\n        /* \"#utility.yul\":12872:12994   */\n    tag_344:\n        /* \"#utility.yul\":13030:13036   */\n      dup2\n        /* \"#utility.yul\":13017:13037   */\n      calldataload\n        /* \"#utility.yul\":13055:13134   */\n      tag_346\n        /* \"#utility.yul\":13130:13133   */\n      dup5\n        /* \"#utility.yul\":13122:13128   */\n      dup3\n        /* \"#utility.yul\":13115:13119   */\n      0x20\n        /* \"#utility.yul\":13107:13113   */\n      dup7\n        /* \"#utility.yul\":13103:13120   */\n      add\n        /* \"#utility.yul\":13055:13134   */\n      tag_192\n      jump\t// in\n    tag_346:\n        /* \"#utility.yul\":13046:13134   */\n      swap2\n      pop\n        /* \"#utility.yul\":12862:13140   */\n      pop\n        /* \"#utility.yul\":12800:13140   */\n      swap3\n      swap2\n      pop\n      pop\n      jump\t// out\n        /* \"#utility.yul\":13146:13453   */\n    tag_194:\n        /* \"#utility.yul\":13207:13211   */\n      0x00\n        /* \"#utility.yul\":13297:13315   */\n      0xffffffffffffffff\n        /* \"#utility.yul\":13289:13295   */\n      dup3\n        /* \"#utility.yul\":13286:13316   */\n      gt\n        /* \"#utility.yul\":13283:13339   */\n      iszero\n      tag_348\n      jumpi\n        /* \"#utility.yul\":13319:13337   */\n      tag_349\n      tag_57\n      jump\t// in\n    tag_349:\n        /* \"#utility.yul\":13283:13339   */\n    tag_348:\n        /* \"#utility.yul\":13357:13386   */\n      tag_350\n        /* \"#utility.yul\":13379:13385   */\n      dup3\n        /* \"#utility.yul\":13357:13386   */\n      tag_159\n      jump\t// in\n    tag_350:\n        /* \"#utility.yul\":13349:13386   */\n      swap1\n      pop\n        /* \"#utility.yul\":13441:13445   */\n      0x20\n        /* \"#utility.yul\":13435:13439   */\n      dup2\n        /* \"#utility.yul\":13431:13446   */\n      add\n        /* \"#utility.yul\":13423:13446   */\n      swap1\n      pop\n        /* \"#utility.yul\":13146:13453   */\n      swap2\n      swap1\n      pop\n      jump\t// out\n        /* \"#utility.yul\":13459:13869   */\n    tag_195:\n        /* \"#utility.yul\":13536:13541   */\n      0x00\n        /* \"#utility.yul\":13561:13626   */\n      tag_352\n        /* \"#utility.yul\":13577:13625   */\n      tag_353\n        /* \"#utility.yul\":13618:13624   */\n      dup5\n        /* \"#utility.yul\":13577:13625   */\n      tag_194\n      jump\t// in\n    tag_353:\n        /* \"#utility.yul\":13561:13626   */\n      tag_189\n      jump\t// in\n    tag_352:\n        /* \"#utility.yul\":13552:13626   */\n      swap1\n      pop\n        /* \"#utility.yul\":13649:13655   */\n      dup3\n        /* \"#utility.yul\":13642:13647   */\n      dup2\n        /* \"#utility.yul\":13635:13656   */\n      mstore\n        /* \"#utility.yul\":13687:13691   */\n      0x20\n        /* \"#utility.yul\":13680:13685   */\n      dup2\n        /* \"#utility.yul\":13676:13692   */\n      add\n        /* \"#utility.yul\":13725:13728   */\n      dup5\n        /* \"#utility.yul\":13716:13722   */\n      dup5\n        /* \"#utility.yul\":13711:13714   */\n      dup5\n        /* \"#utility.yul\":13707:13723   */\n      add\n        /* \"#utility.yul\":13704:13729   */\n      gt\n        /* \"#utility.yul\":13701:13813   */\n      iszero\n      tag_354\n      jumpi\n        /* \"#utility.yul\":13732:13811   */\n      tag_355\n      tag_187\n      jump\t// in\n    tag_355:\n        /* \"#utility.yul\":13701:13813   */\n    tag_354:\n        /* \"#utility.yul\":13822:13863   */\n      tag_356\n        /* \"#utility.yul\":13856:13862   */\n      dup5\n        /* \"#utility.yul\":13851:13854   */\n      dup3\n        /* \"#utility.yul\":13846:13849   */\n      dup6\n        /* \"#utility.yul\":13822:13863   */\n      tag_191\n      jump\t// in\n    tag_356:\n        /* \"#utility.yul\":13542:13869   */\n      pop\n        /* \"#utility.yul\":13459:13869   */\n      swap4\n      swap3\n      pop\n      pop\n      pop\n      jump\t// out\n        /* \"#utility.yul\":13888:14226   */\n    tag_196:\n        /* \"#utility.yul\":13943:13948   */\n      0x00\n        /* \"#utility.yul\":13992:13995   */\n      dup3\n        /* \"#utility.yul\":13985:13989   */\n      0x1f\n        /* \"#utility.yul\":13977:13983   */\n      dup4\n        /* \"#utility.yul\":13973:13990   */\n      add\n        /* \"#utility.yul\":13969:13996   */\n      slt\n        /* \"#utility.yul\":13959:14081   */\n      tag_358\n      jumpi\n        /* \"#utility.yul\":14000:14079   */\n      tag_359\n      tag_186\n      jump\t// in\n    tag_359:\n        /* \"#utility.yul\":13959:14081   */\n    tag_358:\n        /* \"#utility.yul\":14117:14123   */\n      dup2\n        /* \"#utility.yul\":14104:14124   */\n      calldataload\n        /* \"#utility.yul\":14142:14220   */\n      tag_360\n        /* \"#utility.yul\":14216:14219   */\n      dup5\n        /* \"#utility.yul\":14208:14214   */\n      dup3\n        /* \"#utility.yul\":14201:14205   */\n      0x20\n        /* \"#utility.yul\":14193:14199   */\n      dup7\n        /* \"#utility.yul\":14189:14206   */\n      add\n        /* \"#utility.yul\":14142:14220   */\n      tag_195\n      jump\t// in\n    tag_360:\n        /* \"#utility.yul\":14133:14220   */\n      swap2\n      pop\n        /* \"#utility.yul\":13949:14226   */\n      pop\n        /* \"#utility.yul\":13888:14226   */\n      swap3\n      swap2\n      pop\n      pop\n      jump\t// out\n        /* \"#utility.yul\":14232:15535   */\n    tag_25:\n        /* \"#utility.yul\":14347:14353   */\n      0x00\n        /* \"#utility.yul\":14355:14361   */\n      dup1\n        /* \"#utility.yul\":14363:14369   */\n      0x00\n        /* \"#utility.yul\":14371:14377   */\n      dup1\n        /* \"#utility.yul\":14420:14423   */\n      0x80\n        /* \"#utility.yul\":14408:14417   */\n      dup6\n        /* \"#utility.yul\":14399:14406   */\n      dup8\n        /* \"#utility.yul\":14395:14418   */\n      sub\n        /* \"#utility.yul\":14391:14424   */\n      slt\n        /* \"#utility.yul\":14388:14508   */\n      iszero\n      tag_362\n      jumpi\n        /* \"#utility.yul\":14427:14506   */\n      tag_363\n      tag_148\n      jump\t// in\n    tag_363:\n        /* \"#utility.yul\":14388:14508   */\n    tag_362:\n        /* \"#utility.yul\":14547:14548   */\n      0x00\n        /* \"#utility.yul\":14572:14625   */\n      tag_364\n        /* \"#utility.yul\":14617:14624   */\n      dup8\n        /* \"#utility.yul\":14608:14614   */\n      dup3\n        /* \"#utility.yul\":14597:14606   */\n      dup9\n        /* \"#utility.yul\":14593:14615   */\n      add\n        /* \"#utility.yul\":14572:14625   */\n      tag_152\n      jump\t// in\n    tag_364:\n        /* \"#utility.yul\":14562:14625   */\n      swap5\n      pop\n        /* \"#utility.yul\":14518:14635   */\n      pop\n        /* \"#utility.yul\":14702:14704   */\n      0x20\n        /* \"#utility.yul\":14691:14700   */\n      dup6\n        /* \"#utility.yul\":14687:14705   */\n      add\n        /* \"#utility.yul\":14674:14706   */\n      calldataload\n        /* \"#utility.yul\":14733:14751   */\n      0xffffffffffffffff\n        /* \"#utility.yul\":14725:14731   */\n      dup2\n        /* \"#utility.yul\":14722:14752   */\n      gt\n        /* \"#utility.yul\":14719:14836   */\n      iszero\n      tag_365\n      jumpi\n        /* \"#utility.yul\":14755:14834   */\n      tag_366\n      tag_149\n      jump\t// in\n    tag_366:\n        /* \"#utility.yul\":14719:14836   */\n    tag_365:\n        /* \"#utility.yul\":14860:14923   */\n      tag_367\n        /* \"#utility.yul\":14915:14922   */\n      dup8\n        /* \"#utility.yul\":14906:14912   */\n      dup3\n        /* \"#utility.yul\":14895:14904   */\n      dup9\n        /* \"#utility.yul\":14891:14913   */\n      add\n        /* \"#utility.yul\":14860:14923   */\n      tag_193\n      jump\t// in\n    tag_367:\n        /* \"#utility.yul\":14850:14923   */\n      swap4\n      pop\n        /* \"#utility.yul\":14645:14933   */\n      pop\n        /* \"#utility.yul\":15000:15002   */\n      0x40\n        /* \"#utility.yul\":14989:14998   */\n      dup6\n        /* \"#utility.yul\":14985:15003   */\n      add\n        /* \"#utility.yul\":14972:15004   */\n      calldataload\n        /* \"#utility.yul\":15031:15049   */\n      0xffffffffffffffff\n        /* \"#utility.yul\":15023:15029   */\n      dup2\n        /* \"#utility.yul\":15020:15050   */\n      gt\n        /* \"#utility.yul\":15017:15134   */\n      iszero\n      tag_368\n      jumpi\n        /* \"#utility.yul\":15053:15132   */\n      tag_369\n      tag_149\n      jump\t// in\n    tag_369:\n        /* \"#utility.yul\":15017:15134   */\n    tag_368:\n        /* \"#utility.yul\":15158:15221   */\n      tag_370\n        /* \"#utility.yul\":15213:15220   */\n      dup8\n        /* \"#utility.yul\":15204:15210   */\n      dup3\n        /* \"#utility.yul\":15193:15202   */\n      dup9\n        /* \"#utility.yul\":15189:15211   */\n      add\n        /* \"#utility.yul\":15158:15221   */\n      tag_193\n      jump\t// in\n    tag_370:\n        /* \"#utility.yul\":15148:15221   */\n      swap3\n      pop\n        /* \"#utility.yul\":14943:15231   */\n      pop\n        /* \"#utility.yul\":15298:15300   */\n      0x60\n        /* \"#utility.yul\":15287:15296   */\n      dup6\n        /* \"#utility.yul\":15283:15301   */\n      add\n        /* \"#utility.yul\":15270:15302   */\n      calldataload\n        /* \"#utility.yul\":15329:15347   */\n      0xffffffffffffffff\n        /* \"#utility.yul\":15321:15327   */\n      dup2\n        /* \"#utility.yul\":15318:15348   */\n      gt\n        /* \"#utility.yul\":15315:15432   */\n      iszero\n      tag_371\n      jumpi\n        /* \"#utility.yul\":15351:15430   */\n      tag_372\n      tag_149\n      jump\t// in\n    tag_372:\n        /* \"#utility.yul\":15315:15432   */\n    tag_371:\n        /* \"#utility.yul\":15456:15518   */\n      tag_373\n        /* \"#utility.yul\":15510:15517   */\n      dup8\n        /* \"#utility.yul\":15501:15507   */\n      dup3\n        /* \"#utility.yul\":15490:15499   */\n      dup9\n        /* \"#utility.yul\":15486:15508   */\n      add\n        /* \"#utility.yul\":15456:15518   */\n      tag_196\n      jump\t// in\n    tag_373:\n        /* \"#utility.yul\":15446:15518   */\n      swap2\n      pop\n        /* \"#utility.yul\":15241:15528   */\n      pop\n        /* \"#utility.yul\":14232:15535   */\n      swap3\n      swap6\n      swap2\n      swap5\n      pop\n      swap3\n      pop\n      jump\t// out\n        /* \"#utility.yul\":15541:15721   */\n    tag_197:\n        /* \"#utility.yul\":15589:15666   */\n      0x4e487b7100000000000000000000000000000000000000000000000000000000\n        /* \"#utility.yul\":15586:15587   */\n      0x00\n        /* \"#utility.yul\":15579:15667   */\n      mstore\n        /* \"#utility.yul\":15686:15690   */\n      0x22\n        /* \"#utility.yul\":15683:15684   */\n      0x04\n        /* \"#utility.yul\":15676:15691   */\n      mstore\n        /* \"#utility.yul\":15710:15714   */\n      0x24\n        /* \"#utility.yul\":15707:15708   */\n      0x00\n        /* \"#utility.yul\":15700:15715   */\n      revert\n        /* \"#utility.yul\":15727:16047   */\n    tag_30:\n        /* \"#utility.yul\":15771:15777   */\n      0x00\n        /* \"#utility.yul\":15808:15809   */\n      0x02\n        /* \"#utility.yul\":15802:15806   */\n      dup3\n        /* \"#utility.yul\":15798:15810   */\n      div\n        /* \"#utility.yul\":15788:15810   */\n      swap1\n      pop\n        /* \"#utility.yul\":15855:15856   */\n      0x01\n        /* \"#utility.yul\":15849:15853   */\n      dup3\n        /* \"#utility.yul\":15845:15857   */\n      and\n        /* \"#utility.yul\":15876:15894   */\n      dup1\n        /* \"#utility.yul\":15866:15947   */\n      tag_376\n      jumpi\n        /* \"#utility.yul\":15932:15936   */\n      0x7f\n        /* \"#utility.yul\":15924:15930   */\n      dup3\n        /* \"#utility.yul\":15920:15937   */\n      and\n        /* \"#utility.yul\":15910:15937   */\n      swap2\n      pop\n        /* \"#utility.yul\":15866:15947   */\n    tag_376:\n        /* \"#utility.yul\":15994:15996   */\n      0x20\n        /* \"#utility.yul\":15986:15992   */\n      dup3\n        /* \"#utility.yul\":15983:15997   */\n      lt\n        /* \"#utility.yul\":15963:15981   */\n      dup2\n        /* \"#utility.yul\":15960:15998   */\n      eq\n        /* \"#utility.yul\":15957:16041   */\n      iszero\n      tag_377\n      jumpi\n        /* \"#utility.yul\":16013:16031   */\n      tag_378\n      tag_197\n      jump\t// in\n    tag_378:\n        /* \"#utility.yul\":15957:16041   */\n    tag_377:\n        /* \"#utility.yul\":15778:16047   */\n      pop\n        /* \"#utility.yul\":15727:16047   */\n      swap2\n      swap1\n      pop\n      jump\t// out\n        /* \"#utility.yul\":16053:16171   */\n    tag_198:\n        /* \"#utility.yul\":16140:16164   */\n      tag_380\n        /* \"#utility.yul\":16158:16163   */\n      dup2\n        /* \"#utility.yul\":16140:16164   */\n      tag_150\n      jump\t// in\n    tag_380:\n        /* \"#utility.yul\":16135:16138   */\n      dup3\n        /* \"#utility.yul\":16128:16165   */\n      mstore\n        /* \"#utility.yul\":16053:16171   */\n      pop\n      pop\n      jump\t// out\n        /* \"#utility.yul\":16177:16399   */\n    tag_47:\n        /* \"#utility.yul\":16270:16274   */\n      0x00\n        /* \"#utility.yul\":16308:16310   */\n      0x20\n        /* \"#utility.yul\":16297:16306   */\n      dup3\n        /* \"#utility.yul\":16293:16311   */\n      add\n        /* \"#utility.yul\":16285:16311   */\n      swap1\n      pop\n        /* \"#utility.yul\":16321:16392   */\n      tag_382\n        /* \"#utility.yul\":16389:16390   */\n      0x00\n        /* \"#utility.yul\":16378:16387   */\n      dup4\n        /* \"#utility.yul\":16374:16391   */\n      add\n        /* \"#utility.yul\":16365:16371   */\n      dup5\n        /* \"#utility.yul\":16321:16392   */\n      tag_198\n      jump\t// in\n    tag_382:\n        /* \"#utility.yul\":16177:16399   */\n      swap3\n      swap2\n      pop\n      pop\n      jump\t// out\n        /* \"#utility.yul\":16405:16495   */\n    tag_199:\n        /* \"#utility.yul\":16439:16446   */\n      0x00\n        /* \"#utility.yul\":16482:16487   */\n      dup2\n        /* \"#utility.yul\":16475:16488   */\n      iszero\n        /* \"#utility.yul\":16468:16489   */\n      iszero\n        /* \"#utility.yul\":16457:16489   */\n      swap1\n      pop\n        /* \"#utility.yul\":16405:16495   */\n      swap2\n      swap1\n      pop\n      jump\t// out\n        /* \"#utility.yul\":16501:16617   */\n    tag_200:\n        /* \"#utility.yul\":16571:16592   */\n      tag_385\n        /* \"#utility.yul\":16586:16591   */\n      dup2\n        /* \"#utility.yul\":16571:16592   */\n      tag_199\n      jump\t// in\n    tag_385:\n        /* \"#utility.yul\":16564:16569   */\n      dup2\n        /* \"#utility.yul\":16561:16593   */\n      eq\n        /* \"#utility.yul\":16551:16611   */\n      tag_386\n      jumpi\n        /* \"#utility.yul\":16607:16608   */\n      0x00\n        /* \"#utility.yul\":16604:16605   */\n      dup1\n        /* \"#utility.yul\":16597:16609   */\n      revert\n        /* \"#utility.yul\":16551:16611   */\n    tag_386:\n        /* \"#utility.yul\":16501:16617   */\n      pop\n      jump\t// out\n        /* \"#utility.yul\":16623:16760   */\n    tag_201:\n        /* \"#utility.yul\":16677:16682   */\n      0x00\n        /* \"#utility.yul\":16708:16714   */\n      dup2\n        /* \"#utility.yul\":16702:16715   */\n      mload\n        /* \"#utility.yul\":16693:16715   */\n      swap1\n      pop\n        /* \"#utility.yul\":16724:16754   */\n      tag_388\n        /* \"#utility.yul\":16748:16753   */\n      dup2\n        /* \"#utility.yul\":16724:16754   */\n      tag_200\n      jump\t// in\n    tag_388:\n        /* \"#utility.yul\":16623:16760   */\n      swap3\n      swap2\n      pop\n      pop\n      jump\t// out\n        /* \"#utility.yul\":16766:17111   */\n    tag_51:\n        /* \"#utility.yul\":16833:16839   */\n      0x00\n        /* \"#utility.yul\":16882:16884   */\n      0x20\n        /* \"#utility.yul\":16870:16879   */\n      dup3\n        /* \"#utility.yul\":16861:16868   */\n      dup5\n        /* \"#utility.yul\":16857:16880   */\n      sub\n        /* \"#utility.yul\":16853:16885   */\n      slt\n        /* \"#utility.yul\":16850:16969   */\n      iszero\n      tag_390\n      jumpi\n        /* \"#utility.yul\":16888:16967   */\n      tag_391\n      tag_148\n      jump\t// in\n    tag_391:\n        /* \"#utility.yul\":16850:16969   */\n    tag_390:\n        /* \"#utility.yul\":17008:17009   */\n      0x00\n        /* \"#utility.yul\":17033:17094   */\n      tag_392\n        /* \"#utility.yul\":17086:17093   */\n      dup5\n        /* \"#utility.yul\":17077:17083   */\n      dup3\n        /* \"#utility.yul\":17066:17075   */\n      dup6\n        /* \"#utility.yul\":17062:17084   */\n      add\n        /* \"#utility.yul\":17033:17094   */\n      tag_201\n      jump\t// in\n    tag_392:\n        /* \"#utility.yul\":17023:17094   */\n      swap2\n      pop\n        /* \"#utility.yul\":16979:17104   */\n      pop\n        /* \"#utility.yul\":16766:17111   */\n      swap3\n      swap2\n      pop\n      pop\n      jump\t// out\n        /* \"#utility.yul\":17117:17297   */\n    tag_202:\n        /* \"#utility.yul\":17257:17289   */\n      0x55736572206e6f74207265676973746572656420746f2073797374656d210000\n        /* \"#utility.yul\":17253:17254   */\n      0x00\n        /* \"#utility.yul\":17245:17251   */\n      dup3\n        /* \"#utility.yul\":17241:17255   */\n      add\n        /* \"#utility.yul\":17234:17290   */\n      mstore\n        /* \"#utility.yul\":17117:17297   */\n      pop\n      jump\t// out\n        /* \"#utility.yul\":17303:17669   */\n    tag_203:\n        /* \"#utility.yul\":17445:17448   */\n      0x00\n        /* \"#utility.yul\":17466:17533   */\n      tag_395\n        /* \"#utility.yul\":17530:17532   */\n      0x1e\n        /* \"#utility.yul\":17525:17528   */\n      dup4\n        /* \"#utility.yul\":17466:17533   */\n      tag_157\n      jump\t// in\n    tag_395:\n        /* \"#utility.yul\":17459:17533   */\n      swap2\n      pop\n        /* \"#utility.yul\":17542:17635   */\n      tag_396\n        /* \"#utility.yul\":17631:17634   */\n      dup3\n        /* \"#utility.yul\":17542:17635   */\n      tag_202\n      jump\t// in\n    tag_396:\n        /* \"#utility.yul\":17660:17662   */\n      0x20\n        /* \"#utility.yul\":17655:17658   */\n      dup3\n        /* \"#utility.yul\":17651:17663   */\n      add\n        /* \"#utility.yul\":17644:17663   */\n      swap1\n      pop\n        /* \"#utility.yul\":17303:17669   */\n      swap2\n      swap1\n      pop\n      jump\t// out\n        /* \"#utility.yul\":17675:18094   */\n    tag_54:\n        /* \"#utility.yul\":17841:17845   */\n      0x00\n        /* \"#utility.yul\":17879:17881   */\n      0x20\n        /* \"#utility.yul\":17868:17877   */\n      dup3\n        /* \"#utility.yul\":17864:17882   */\n      add\n        /* \"#utility.yul\":17856:17882   */\n      swap1\n      pop\n        /* \"#utility.yul\":17928:17937   */\n      dup2\n        /* \"#utility.yul\":17922:17926   */\n      dup2\n        /* \"#utility.yul\":17918:17938   */\n      sub\n        /* \"#utility.yul\":17914:17915   */\n      0x00\n        /* \"#utility.yul\":17903:17912   */\n      dup4\n        /* \"#utility.yul\":17899:17916   */\n      add\n        /* \"#utility.yul\":17892:17939   */\n      mstore\n        /* \"#utility.yul\":17956:18087   */\n      tag_398\n        /* \"#utility.yul\":18082:18086   */\n      dup2\n        /* \"#utility.yul\":17956:18087   */\n      tag_203\n      jump\t// in\n    tag_398:\n        /* \"#utility.yul\":17948:18087   */\n      swap1\n      pop\n        /* \"#utility.yul\":17675:18094   */\n      swap2\n      swap1\n      pop\n      jump\t// out\n        /* \"#utility.yul\":18100:18280   */\n    tag_73:\n        /* \"#utility.yul\":18148:18225   */\n      0x4e487b7100000000000000000000000000000000000000000000000000000000\n        /* \"#utility.yul\":18145:18146   */\n      0x00\n        /* \"#utility.yul\":18138:18226   */\n      mstore\n        /* \"#utility.yul\":18245:18249   */\n      0x32\n        /* \"#utility.yul\":18242:18243   */\n      0x04\n        /* \"#utility.yul\":18235:18250   */\n      mstore\n        /* \"#utility.yul\":18269:18273   */\n      0x24\n        /* \"#utility.yul\":18266:18267   */\n      0x00\n        /* \"#utility.yul\":18259:18274   */\n      revert\n        /* \"#utility.yul\":18286:18466   */\n    tag_204:\n        /* \"#utility.yul\":18334:18411   */\n      0x4e487b7100000000000000000000000000000000000000000000000000000000\n        /* \"#utility.yul\":18331:18332   */\n      0x00\n        /* \"#utility.yul\":18324:18412   */\n      mstore\n        /* \"#utility.yul\":18431:18435   */\n      0x11\n        /* \"#utility.yul\":18428:18429   */\n      0x04\n        /* \"#utility.yul\":18421:18436   */\n      mstore\n        /* \"#utility.yul\":18455:18459   */\n      0x24\n        /* \"#utility.yul\":18452:18453   */\n      0x00\n        /* \"#utility.yul\":18445:18460   */\n      revert\n        /* \"#utility.yul\":18472:18705   */\n    tag_103:\n        /* \"#utility.yul\":18511:18514   */\n      0x00\n        /* \"#utility.yul\":18534:18558   */\n      tag_402\n        /* \"#utility.yul\":18552:18557   */\n      dup3\n        /* \"#utility.yul\":18534:18558   */\n      tag_153\n      jump\t// in\n    tag_402:\n        /* \"#utility.yul\":18525:18558   */\n      swap2\n      pop\n        /* \"#utility.yul\":18580:18646   */\n      0xffffffffffffffffffffffffffffffffffffffffffffffffffffffffffffffff\n        /* \"#utility.yul\":18573:18578   */\n      dup3\n        /* \"#utility.yul\":18570:18647   */\n      eq\n        /* \"#utility.yul\":18567:18670   */\n      iszero\n      tag_403\n      jumpi\n        /* \"#utility.yul\":18650:18668   */\n      tag_404\n      tag_204\n      jump\t// in\n    tag_404:\n        /* \"#utility.yul\":18567:18670   */\n    tag_403:\n        /* \"#utility.yul\":18697:18698   */\n      0x01\n        /* \"#utility.yul\":18690:18695   */\n      dup3\n        /* \"#utility.yul\":18686:18699   */\n      add\n        /* \"#utility.yul\":18679:18699   */\n      swap1\n      pop\n        /* \"#utility.yul\":18472:18705   */\n      swap2\n      swap1\n      pop\n      jump\t// out\n        /* \"#utility.yul\":18711:18941   */\n    tag_205:\n        /* \"#utility.yul\":18851:18885   */\n      0x50617469656e742f6e65772d6f776e6572206e6f742072656769737465726564\n        /* \"#utility.yul\":18847:18848   */\n      0x00\n        /* \"#utility.yul\":18839:18845   */\n      dup3\n        /* \"#utility.yul\":18835:18849   */\n      add\n        /* \"#utility.yul\":18828:18886   */\n      mstore\n        /* \"#utility.yul\":18920:18933   */\n      0x20746f2073797374656d21000000000000000000000000000000000000000000\n        /* \"#utility.yul\":18915:18917   */\n      0x20\n        /* \"#utility.yul\":18907:18913   */\n      dup3\n        /* \"#utility.yul\":18903:18918   */\n      add\n        /* \"#utility.yul\":18896:18934   */\n      mstore\n        /* \"#utility.yul\":18711:18941   */\n      pop\n      jump\t// out\n        /* \"#utility.yul\":18947:19313   */\n    tag_206:\n        /* \"#utility.yul\":19089:19092   */\n      0x00\n        /* \"#utility.yul\":19110:19177   */\n      tag_407\n        /* \"#utility.yul\":19174:19176   */\n      0x2b\n        /* \"#utility.yul\":19169:19172   */\n      dup4\n        /* \"#utility.yul\":19110:19177   */\n      tag_157\n      jump\t// in\n    tag_407:\n        /* \"#utility.yul\":19103:19177   */\n      swap2\n      pop\n        /* \"#utility.yul\":19186:19279   */\n      tag_408\n        /* \"#utility.yul\":19275:19278   */\n      dup3\n        /* \"#utility.yul\":19186:19279   */\n      tag_205\n      jump\t// in\n    tag_408:\n        /* \"#utility.yul\":19304:19306   */\n      0x40\n        /* \"#utility.yul\":19299:19302   */\n      dup3\n        /* \"#utility.yul\":19295:19307   */\n      add\n        /* \"#utility.yul\":19288:19307   */\n      swap1\n      pop\n        /* \"#utility.yul\":18947:19313   */\n      swap2\n      swap1\n      pop\n      jump\t// out\n        /* \"#utility.yul\":19319:19738   */\n    tag_111:\n        /* \"#utility.yul\":19485:19489   */\n      0x00\n        /* \"#utility.yul\":19523:19525   */\n      0x20\n        /* \"#utility.yul\":19512:19521   */\n      dup3\n        /* \"#utility.yul\":19508:19526   */\n      add\n        /* \"#utility.yul\":19500:19526   */\n      swap1\n      pop\n        /* \"#utility.yul\":19572:19581   */\n      dup2\n        /* \"#utility.yul\":19566:19570   */\n      dup2\n        /* \"#utility.yul\":19562:19582   */\n      sub\n        /* \"#utility.yul\":19558:19559   */\n      0x00\n        /* \"#utility.yul\":19547:19556   */\n      dup4\n        /* \"#utility.yul\":19543:19560   */\n      add\n        /* \"#utility.yul\":19536:19583   */\n      mstore\n        /* \"#utility.yul\":19600:19731   */\n      tag_410\n        /* \"#utility.yul\":19726:19730   */\n      dup2\n        /* \"#utility.yul\":19600:19731   */\n      tag_206\n      jump\t// in\n    tag_410:\n        /* \"#utility.yul\":19592:19731   */\n      swap1\n      pop\n        /* \"#utility.yul\":19319:19738   */\n      swap2\n      swap1\n      pop\n      jump\t// out\n        /* \"#utility.yul\":19744:19840   */\n    tag_207:\n        /* \"#utility.yul\":19781:19788   */\n      0x00\n        /* \"#utility.yul\":19810:19834   */\n      tag_412\n        /* \"#utility.yul\":19828:19833   */\n      dup3\n        /* \"#utility.yul\":19810:19834   */\n      tag_180\n      jump\t// in\n    tag_412:\n        /* \"#utility.yul\":19799:19834   */\n      swap1\n      pop\n        /* \"#utility.yul\":19744:19840   */\n      swap2\n      swap1\n      pop\n      jump\t// out\n        /* \"#utility.yul\":19846:19968   */\n    tag_208:\n        /* \"#utility.yul\":19919:19943   */\n      tag_414\n        /* \"#utility.yul\":19937:19942   */\n      dup2\n        /* \"#utility.yul\":19919:19943   */\n      tag_207\n      jump\t// in\n    tag_414:\n        /* \"#utility.yul\":19912:19917   */\n      dup2\n        /* \"#utility.yul\":19909:19944   */\n      eq\n        /* \"#utility.yul\":19899:19962   */\n      tag_415\n      jumpi\n        /* \"#utility.yul\":19958:19959   */\n      0x00\n        /* \"#utility.yul\":19955:19956   */\n      dup1\n        /* \"#utility.yul\":19948:19960   */\n      revert\n        /* \"#utility.yul\":19899:19962   */\n    tag_415:\n        /* \"#utility.yul\":19846:19968   */\n      pop\n      jump\t// out\n        /* \"#utility.yul\":19974:20117   */\n    tag_209:\n        /* \"#utility.yul\":20031:20036   */\n      0x00\n        /* \"#utility.yul\":20062:20068   */\n      dup2\n        /* \"#utility.yul\":20056:20069   */\n      mload\n        /* \"#utility.yul\":20047:20069   */\n      swap1\n      pop\n        /* \"#utility.yul\":20078:20111   */\n      tag_417\n        /* \"#utility.yul\":20105:20110   */\n      dup2\n        /* \"#utility.yul\":20078:20111   */\n      tag_208\n      jump\t// in\n    tag_417:\n        /* \"#utility.yul\":19974:20117   */\n      swap3\n      swap2\n      pop\n      pop\n      jump\t// out\n        /* \"#utility.yul\":20123:20474   */\n    tag_116:\n        /* \"#utility.yul\":20193:20199   */\n      0x00\n        /* \"#utility.yul\":20242:20244   */\n      0x20\n        /* \"#utility.yul\":20230:20239   */\n      dup3\n        /* \"#utility.yul\":20221:20228   */\n      dup5\n        /* \"#utility.yul\":20217:20240   */\n      sub\n        /* \"#utility.yul\":20213:20245   */\n      slt\n        /* \"#utility.yul\":20210:20329   */\n      iszero\n      tag_419\n      jumpi\n        /* \"#utility.yul\":20248:20327   */\n      tag_420\n      tag_148\n      jump\t// in\n    tag_420:\n        /* \"#utility.yul\":20210:20329   */\n    tag_419:\n        /* \"#utility.yul\":20368:20369   */\n      0x00\n        /* \"#utility.yul\":20393:20457   */\n      tag_421\n        /* \"#utility.yul\":20449:20456   */\n      dup5\n        /* \"#utility.yul\":20440:20446   */\n      dup3\n        /* \"#utility.yul\":20429:20438   */\n      dup6\n        /* \"#utility.yul\":20425:20447   */\n      add\n        /* \"#utility.yul\":20393:20457   */\n      tag_209\n      jump\t// in\n    tag_421:\n        /* \"#utility.yul\":20383:20457   */\n      swap2\n      pop\n        /* \"#utility.yul\":20339:20467   */\n      pop\n        /* \"#utility.yul\":20123:20474   */\n      swap3\n      swap2\n      pop\n      pop\n      jump\t// out\n        /* \"#utility.yul\":20480:20652   */\n    tag_210:\n        /* \"#utility.yul\":20620:20644   */\n      0x4e6f74206f776e65722f756e617574686f72697a656400000000000000000000\n        /* \"#utility.yul\":20616:20617   */\n      0x00\n        /* \"#utility.yul\":20608:20614   */\n      dup3\n        /* \"#utility.yul\":20604:20618   */\n      add\n        /* \"#utility.yul\":20597:20645   */\n      mstore\n        /* \"#utility.yul\":20480:20652   */\n      pop\n      jump\t// out\n        /* \"#utility.yul\":20658:21024   */\n    tag_211:\n        /* \"#utility.yul\":20800:20803   */\n      0x00\n        /* \"#utility.yul\":20821:20888   */\n      tag_424\n        /* \"#utility.yul\":20885:20887   */\n      0x16\n        /* \"#utility.yul\":20880:20883   */\n      dup4\n        /* \"#utility.yul\":20821:20888   */\n      tag_157\n      jump\t// in\n    tag_424:\n        /* \"#utility.yul\":20814:20888   */\n      swap2\n      pop\n        /* \"#utility.yul\":20897:20990   */\n      tag_425\n        /* \"#utility.yul\":20986:20989   */\n      dup3\n        /* \"#utility.yul\":20897:20990   */\n      tag_210\n      jump\t// in\n    tag_425:\n        /* \"#utility.yul\":21015:21017   */\n      0x20\n        /* \"#utility.yul\":21010:21013   */\n      dup3\n        /* \"#utility.yul\":21006:21018   */\n      add\n        /* \"#utility.yul\":20999:21018   */\n      swap1\n      pop\n        /* \"#utility.yul\":20658:21024   */\n      swap2\n      swap1\n      pop\n      jump\t// out\n        /* \"#utility.yul\":21030:21449   */\n    tag_119:\n        /* \"#utility.yul\":21196:21200   */\n      0x00\n        /* \"#utility.yul\":21234:21236   */\n      0x20\n        /* \"#utility.yul\":21223:21232   */\n      dup3\n        /* \"#utility.yul\":21219:21237   */\n      add\n        /* \"#utility.yul\":21211:21237   */\n      swap1\n      pop\n        /* \"#utility.yul\":21283:21292   */\n      dup2\n        /* \"#utility.yul\":21277:21281   */\n      dup2\n        /* \"#utility.yul\":21273:21293   */\n      sub\n        /* \"#utility.yul\":21269:21270   */\n      0x00\n        /* \"#utility.yul\":21258:21267   */\n      dup4\n        /* \"#utility.yul\":21254:21271   */\n      add\n        /* \"#utility.yul\":21247:21294   */\n      mstore\n        /* \"#utility.yul\":21311:21442   */\n      tag_427\n        /* \"#utility.yul\":21437:21441   */\n      dup2\n        /* \"#utility.yul\":21311:21442   */\n      tag_211\n      jump\t// in\n    tag_427:\n        /* \"#utility.yul\":21303:21442   */\n      swap1\n      pop\n        /* \"#utility.yul\":21030:21449   */\n      swap2\n      swap1\n      pop\n      jump\t// out\n        /* \"#utility.yul\":21455:21646   */\n    tag_127:\n        /* \"#utility.yul\":21495:21499   */\n      0x00\n        /* \"#utility.yul\":21515:21535   */\n      tag_429\n        /* \"#utility.yul\":21533:21534   */\n      dup3\n        /* \"#utility.yul\":21515:21535   */\n      tag_153\n      jump\t// in\n    tag_429:\n        /* \"#utility.yul\":21510:21535   */\n      swap2\n      pop\n        /* \"#utility.yul\":21549:21569   */\n      tag_430\n        /* \"#utility.yul\":21567:21568   */\n      dup4\n        /* \"#utility.yul\":21549:21569   */\n      tag_153\n      jump\t// in\n    tag_430:\n        /* \"#utility.yul\":21544:21569   */\n      swap3\n      pop\n        /* \"#utility.yul\":21588:21589   */\n      dup3\n        /* \"#utility.yul\":21585:21586   */\n      dup3\n        /* \"#utility.yul\":21582:21590   */\n      lt\n        /* \"#utility.yul\":21579:21613   */\n      iszero\n      tag_431\n      jumpi\n        /* \"#utility.yul\":21593:21611   */\n      tag_432\n      tag_204\n      jump\t// in\n    tag_432:\n        /* \"#utility.yul\":21579:21613   */\n    tag_431:\n        /* \"#utility.yul\":21638:21639   */\n      dup3\n        /* \"#utility.yul\":21635:21636   */\n      dup3\n        /* \"#utility.yul\":21631:21640   */\n      sub\n        /* \"#utility.yul\":21623:21640   */\n      swap1\n      pop\n        /* \"#utility.yul\":21455:21646   */\n      swap3\n      swap2\n      pop\n      pop\n      jump\t// out\n        /* \"#utility.yul\":21652:21770   */\n    tag_212:\n        /* \"#utility.yul\":21739:21763   */\n      tag_434\n        /* \"#utility.yul\":21757:21762   */\n      dup2\n        /* \"#utility.yul\":21739:21763   */\n      tag_153\n      jump\t// in\n    tag_434:\n        /* \"#utility.yul\":21734:21737   */\n      dup3\n        /* \"#utility.yul\":21727:21764   */\n      mstore\n        /* \"#utility.yul\":21652:21770   */\n      pop\n      pop\n      jump\t// out\n        /* \"#utility.yul\":21776:22400   */\n    tag_129:\n        /* \"#utility.yul\":21965:21969   */\n      0x00\n        /* \"#utility.yul\":22003:22005   */\n      0x60\n        /* \"#utility.yul\":21992:22001   */\n      dup3\n        /* \"#utility.yul\":21988:22006   */\n      add\n        /* \"#utility.yul\":21980:22006   */\n      swap1\n      pop\n        /* \"#utility.yul\":22016:22087   */\n      tag_436\n        /* \"#utility.yul\":22084:22085   */\n      0x00\n        /* \"#utility.yul\":22073:22082   */\n      dup4\n        /* \"#utility.yul\":22069:22086   */\n      add\n        /* \"#utility.yul\":22060:22066   */\n      dup7\n        /* \"#utility.yul\":22016:22087   */\n      tag_212\n      jump\t// in\n    tag_436:\n        /* \"#utility.yul\":22134:22143   */\n      dup2\n        /* \"#utility.yul\":22128:22132   */\n      dup2\n        /* \"#utility.yul\":22124:22144   */\n      sub\n        /* \"#utility.yul\":22119:22121   */\n      0x20\n        /* \"#utility.yul\":22108:22117   */\n      dup4\n        /* \"#utility.yul\":22104:22122   */\n      add\n        /* \"#utility.yul\":22097:22145   */\n      mstore\n        /* \"#utility.yul\":22162:22240   */\n      tag_437\n        /* \"#utility.yul\":22235:22239   */\n      dup2\n        /* \"#utility.yul\":22226:22232   */\n      dup6\n        /* \"#utility.yul\":22162:22240   */\n      tag_160\n      jump\t// in\n    tag_437:\n        /* \"#utility.yul\":22154:22240   */\n      swap1\n      pop\n        /* \"#utility.yul\":22287:22296   */\n      dup2\n        /* \"#utility.yul\":22281:22285   */\n      dup2\n        /* \"#utility.yul\":22277:22297   */\n      sub\n        /* \"#utility.yul\":22272:22274   */\n      0x40\n        /* \"#utility.yul\":22261:22270   */\n      dup4\n        /* \"#utility.yul\":22257:22275   */\n      add\n        /* \"#utility.yul\":22250:22298   */\n      mstore\n        /* \"#utility.yul\":22315:22393   */\n      tag_438\n        /* \"#utility.yul\":22388:22392   */\n      dup2\n        /* \"#utility.yul\":22379:22385   */\n      dup5\n        /* \"#utility.yul\":22315:22393   */\n      tag_160\n      jump\t// in\n    tag_438:\n        /* \"#utility.yul\":22307:22393   */\n      swap1\n      pop\n        /* \"#utility.yul\":21776:22400   */\n      swap5\n      swap4\n      pop\n      pop\n      pop\n      pop\n      jump\t// out\n\n    auxdata: 0xa26469706673582212205ec1035ee5c1c23d079f42cd6fbf25d9c4ec35019cc9a8ce4e60fb8e684c949064736f6c634300080a0033\n}\n",
    "bytecode": {
      "linkReferences": {},
      "object": "60806040523480156200001157600080fd5b50604051620018d7380380620018d78339818101604052810190620000379190620000e8565b806000806101000a81548173ffffffffffffffffffffffffffffffffffffffff021916908373ffffffffffffffffffffffffffffffffffffffff160217905550506200011a565b600080fd5b600073ffffffffffffffffffffffffffffffffffffffff82169050919050565b6000620000b08262000083565b9050919050565b620000c281620000a3565b8114620000ce57600080fd5b50565b600081519050620000e281620000b7565b92915050565b6000602082840312156200010157620001006200007e565b5b60006200011184828501620000d1565b91505092915050565b6117ad806200012a6000396000f3fe608060405234801561001057600080fd5b506004361061004c5760003560e01c80632cb734061461005157806365375a04146100835780637b103999146100b5578063ba0c93cb146100d3575b600080fd5b61006b60048036038101906100669190610c4d565b6100ef565b60405161007a93929190610d7b565b60405180910390f35b61009d60048036038101906100989190610dc7565b6102ce565b6040516100ac9392919061100c565b60405180910390f35b6100bd610787565b6040516100ca91906110d7565b60405180910390f35b6100ed60048036038101906100e891906112c8565b6107ab565b005b6001602052816000526040600020818154811061010b57600080fd5b90600052602060002090600302016000915091505080600001805461012f906113b2565b80601f016020809104026020016040519081016040528092919081815260200182805461015b906113b2565b80156101a85780601f1061017d576101008083540402835291602001916101a8565b820191906000526020600020905b81548152906001019060200180831161018b57829003601f168201915b5050505050908060010180546101bd906113b2565b80601f01602080910402602001604051908101604052809291908181526020018280546101e9906113b2565b80156102365780601f1061020b57610100808354040283529160200191610236565b820191906000526020600020905b81548152906001019060200180831161021957829003601f168201915b50505050509080600201805461024b906113b2565b80601f0160208091040260200160405190810160405280929190818152602001828054610277906113b2565b80156102c45780601f10610299576101008083540402835291602001916102c4565b820191906000526020600020905b8154815290600101906020018083116102a757829003601f168201915b5050505050905083565b606080606060008054906101000a900473ffffffffffffffffffffffffffffffffffffffff1673ffffffffffffffffffffffffffffffffffffffff16630b2551c2856040518263ffffffff1660e01b815260040161032c91906113f3565b602060405180830381865afa158015610349573d6000803e3d6000fd5b505050506040513d601f19601f8201168201806040525081019061036d9190611446565b6103ac576040517f08c379a00000000000000000000000000000000000000000000000000000000081526004016103a3906114bf565b60405180910390fd5b60006001600086815260200190815260200160002080549050905060008167ffffffffffffffff8111156103e3576103e26110fc565b5b60405190808252806020026020018201604052801561041657816020015b60608152602001906001900390816104015790505b50905060008267ffffffffffffffff811115610435576104346110fc565b5b60405190808252806020026020018201604052801561046857816020015b60608152602001906001900390816104535790505b50905060008367ffffffffffffffff811115610487576104866110fc565b5b6040519080825280602002602001820160405280156104ba57816020015b60608152602001906001900390816104a55790505b50905060005b8481101561077257600160008a815260200190815260200160002081815481106104ed576104ec6114df565b5b90600052602060002090600302016000018054610509906113b2565b80601f0160208091040260200160405190810160405280929190818152602001828054610535906113b2565b80156105825780601f1061055757610100808354040283529160200191610582565b820191906000526020600020905b81548152906001019060200180831161056557829003601f168201915b505050505084828151811061059a576105996114df565b5b6020026020010181905250600160008a815260200190815260200160002081815481106105ca576105c96114df565b5b906000526020600020906003020160010180546105e6906113b2565b80601f0160208091040260200160405190810160405280929190818152602001828054610612906113b2565b801561065f5780601f106106345761010080835404028352916020019161065f565b820191906000526020600020905b81548152906001019060200180831161064257829003601f168201915b5050505050838281518110610677576106766114df565b5b6020026020010181905250600160008a815260200190815260200160002081815481106106a7576106a66114df565b5b906000526020600020906003020160020180546106c3906113b2565b80601f01602080910402602001604051908101604052809291908181526020018280546106ef906113b2565b801561073c5780601f106107115761010080835404028352916020019161073c565b820191906000526020600020905b81548152906001019060200180831161071f57829003601f168201915b5050505050828281518110610754576107536114df565b5b6020026020010181905250808061076a9061153d565b9150506104c0565b50828282965096509650505050509193909250565b60008054906101000a900473ffffffffffffffffffffffffffffffffffffffff1681565b60008054906101000a900473ffffffffffffffffffffffffffffffffffffffff1673ffffffffffffffffffffffffffffffffffffffff16630b2551c2856040518263ffffffff1660e01b815260040161080491906113f3565b602060405180830381865afa158015610821573d6000803e3d6000fd5b505050506040513d601f19601f820116820180604052508101906108459190611446565b610884576040517f08c379a000000000000000000000000000000000000000000000000000000000815260040161087b906115f8565b60405180910390fd5b3373ffffffffffffffffffffffffffffffffffffffff1660008054906101000a900473ffffffffffffffffffffffffffffffffffffffff1673ffffffffffffffffffffffffffffffffffffffff1663deb931a2866040518263ffffffff1660e01b81526004016108f491906113f3565b602060405180830381865afa158015610911573d6000803e3d6000fd5b505050506040513d601f19601f820116820180604052508101906109359190611656565b73ffffffffffffffffffffffffffffffffffffffff161461098b576040517f08c379a0000000000000000000000000000000000000000000000000000000008152600401610982906116cf565b60405180910390fd5b60016000858152602001908152602001600020604051806060016040528085815260200184815260200183815250908060018154018082558091505060019003906000526020600020906003020160009091909190915060008201518160000190805190602001906109fe929190610aa4565b506020820151816001019080519060200190610a1b929190610aa4565b506040820151816002019080519060200190610a38929190610b2a565b5050506000600180600087815260200190815260200160002080549050610a5f91906116ef565b9050847f2ebea29a0e55553a239d0a1c2ffef2a43e19afde91fc375df47b698e5ceef391828686604051610a9593929190611732565b60405180910390a25050505050565b828054610ab0906113b2565b90600052602060002090601f016020900481019282610ad25760008555610b19565b82601f10610aeb57805160ff1916838001178555610b19565b82800160010185558215610b19579182015b82811115610b18578251825591602001919060010190610afd565b5b509050610b269190610bb0565b5090565b828054610b36906113b2565b90600052602060002090601f016020900481019282610b585760008555610b9f565b82601f10610b7157805160ff1916838001178555610b9f565b82800160010185558215610b9f579182015b82811115610b9e578251825591602001919060010190610b83565b5b509050610bac9190610bb0565b5090565b5b80821115610bc9576000816000905550600101610bb1565b5090565b6000604051905090565b600080fd5b600080fd5b6000819050919050565b610bf481610be1565b8114610bff57600080fd5b50565b600081359050610c1181610beb565b92915050565b6000819050919050565b610c2a81610c17565b8114610c3557600080fd5b50565b600081359050610c4781610c21565b92915050565b60008060408385031215610c6457610c63610bd7565b5b6000610c7285828601610c02565b9250506020610c8385828601610c38565b9150509250929050565b600081519050919050565b600082825260208201905092915050565b60005b83811015610cc7578082015181840152602081019050610cac565b83811115610cd6576000848401525b50505050565b6000601f19601f8301169050919050565b6000610cf882610c8d565b610d028185610c98565b9350610d12818560208601610ca9565b610d1b81610cdc565b840191505092915050565b600081519050919050565b600082825260208201905092915050565b6000610d4d82610d26565b610d578185610d31565b9350610d67818560208601610ca9565b610d7081610cdc565b840191505092915050565b60006060820190508181036000830152610d958186610ced565b90508181036020830152610da98185610ced565b90508181036040830152610dbd8184610d42565b9050949350505050565b600060208284031215610ddd57610ddc610bd7565b5b6000610deb84828501610c02565b91505092915050565b600081519050919050565b600082825260208201905092915050565b6000819050602082019050919050565b600082825260208201905092915050565b6000610e3c82610c8d565b610e468185610e20565b9350610e56818560208601610ca9565b610e5f81610cdc565b840191505092915050565b6000610e768383610e31565b905092915050565b6000602082019050919050565b6000610e9682610df4565b610ea08185610dff565b935083602082028501610eb285610e10565b8060005b85811015610eee5784840389528151610ecf8582610e6a565b9450610eda83610e7e565b925060208a01995050600181019050610eb6565b50829750879550505050505092915050565b600081519050919050565b600082825260208201905092915050565b6000819050602082019050919050565b600082825260208201905092915050565b6000610f4882610d26565b610f528185610f2c565b9350610f62818560208601610ca9565b610f6b81610cdc565b840191505092915050565b6000610f828383610f3d565b905092915050565b6000602082019050919050565b6000610fa282610f00565b610fac8185610f0b565b935083602082028501610fbe85610f1c565b8060005b85811015610ffa5784840389528151610fdb8582610f76565b9450610fe683610f8a565b925060208a01995050600181019050610fc2565b50829750879550505050505092915050565b600060608201905081810360008301526110268186610e8b565b9050818103602083015261103a8185610e8b565b9050818103604083015261104e8184610f97565b9050949350505050565b600073ffffffffffffffffffffffffffffffffffffffff82169050919050565b6000819050919050565b600061109d61109861109384611058565b611078565b611058565b9050919050565b60006110af82611082565b9050919050565b60006110c1826110a4565b9050919050565b6110d1816110b6565b82525050565b60006020820190506110ec60008301846110c8565b92915050565b600080fd5b600080fd5b7f4e487b7100000000000000000000000000000000000000000000000000000000600052604160045260246000fd5b61113482610cdc565b810181811067ffffffffffffffff82111715611153576111526110fc565b5b80604052505050565b6000611166610bcd565b9050611172828261112b565b919050565b600067ffffffffffffffff821115611192576111916110fc565b5b61119b82610cdc565b9050602081019050919050565b82818337600083830152505050565b60006111ca6111c584611177565b61115c565b9050828152602081018484840111156111e6576111e56110f7565b5b6111f18482856111a8565b509392505050565b600082601f83011261120e5761120d6110f2565b5b813561121e8482602086016111b7565b91505092915050565b600067ffffffffffffffff821115611242576112416110fc565b5b61124b82610cdc565b9050602081019050919050565b600061126b61126684611227565b61115c565b905082815260208101848484011115611287576112866110f7565b5b6112928482856111a8565b509392505050565b600082601f8301126112af576112ae6110f2565b5b81356112bf848260208601611258565b91505092915050565b600080600080608085870312156112e2576112e1610bd7565b5b60006112f087828801610c02565b945050602085013567ffffffffffffffff81111561131157611310610bdc565b5b61131d878288016111f9565b935050604085013567ffffffffffffffff81111561133e5761133d610bdc565b5b61134a878288016111f9565b925050606085013567ffffffffffffffff81111561136b5761136a610bdc565b5b6113778782880161129a565b91505092959194509250565b7f4e487b7100000000000000000000000000000000000000000000000000000000600052602260045260246000fd5b600060028204905060018216806113ca57607f821691505b602082108114156113de576113dd611383565b5b50919050565b6113ed81610be1565b82525050565b600060208201905061140860008301846113e4565b92915050565b60008115159050919050565b6114238161140e565b811461142e57600080fd5b50565b6000815190506114408161141a565b92915050565b60006020828403121561145c5761145b610bd7565b5b600061146a84828501611431565b91505092915050565b7f55736572206e6f74207265676973746572656420746f2073797374656d210000600082015250565b60006114a9601e83610c98565b91506114b482611473565b602082019050919050565b600060208201905081810360008301526114d88161149c565b9050919050565b7f4e487b7100000000000000000000000000000000000000000000000000000000600052603260045260246000fd5b7f4e487b7100000000000000000000000000000000000000000000000000000000600052601160045260246000fd5b600061154882610c17565b91507fffffffffffffffffffffffffffffffffffffffffffffffffffffffffffffffff82141561157b5761157a61150e565b5b600182019050919050565b7f50617469656e742f6e65772d6f776e6572206e6f74207265676973746572656460008201527f20746f2073797374656d21000000000000000000000000000000000000000000602082015250565b60006115e2602b83610c98565b91506115ed82611586565b604082019050919050565b60006020820190508181036000830152611611816115d5565b9050919050565b600061162382611058565b9050919050565b61163381611618565b811461163e57600080fd5b50565b6000815190506116508161162a565b92915050565b60006020828403121561166c5761166b610bd7565b5b600061167a84828501611641565b91505092915050565b7f4e6f74206f776e65722f756e617574686f72697a656400000000000000000000600082015250565b60006116b9601683610c98565b91506116c482611683565b602082019050919050565b600060208201905081810360008301526116e8816116ac565b9050919050565b60006116fa82610c17565b915061170583610c17565b9250828210156117185761171761150e565b5b828203905092915050565b61172c81610c17565b82525050565b60006060820190506117476000830186611723565b81810360208301526117598185610ced565b9050818103604083015261176d8184610ced565b905094935050505056fea26469706673582212205ec1035ee5c1c23d079f42cd6fbf25d9c4ec35019cc9a8ce4e60fb8e684c949064736f6c634300080a0033",
      "opcodes": "PUSH1 0x80 PUSH1 0x40 MSTORE CALLVALUE DUP1 ISZERO PUSH3 0x11 JUMPI PUSH1 0x0 DUP1 REVERT JUMPDEST POP PUSH1 0x40 MLOAD PUSH3 0x18D7 CODESIZE SUB DUP1 PUSH3 0x18D7 DUP4 CODECOPY DUP2 DUP2 ADD PUSH1 0x40 MSTORE DUP2 ADD SWAP1 PUSH3 0x37 SWAP2 SWAP1 PUSH3 0xE8 JUMP JUMPDEST DUP1 PUSH1 0x0 DUP1 PUSH2 0x100 EXP DUP2 SLOAD DUP2 PUSH20 0xFFFFFFFFFFFFFFFFFFFFFFFFFFFFFFFFFFFFFFFF MUL NOT AND SWAP1 DUP4 PUSH20 0xFFFFFFFFFFFFFFFFFFFFFFFFFFFFFFFFFFFFFFFF AND MUL OR SWAP1 SSTORE POP POP PUSH3 0x11A JUMP JUMPDEST PUSH1 0x0 DUP1 REVERT JUMPDEST PUSH1 0x0 PUSH20 0xFFFFFFFFFFFFFFFFFFFFFFFFFFFFFFFFFFFFFFFF DUP3 AND SWAP1 POP SWAP2 SWAP1 POP JUMP JUMPDEST PUSH1 0x0 PUSH3 0xB0 DUP3 PUSH3 0x83 JUMP JUMPDEST SWAP1 POP SWAP2 SWAP1 POP JUMP JUMPDEST PUSH3 0xC2 DUP2 PUSH3 0xA3 JUMP JUMPDEST DUP2 EQ PUSH3 0xCE JUMPI PUSH1 0x0 DUP1 REVERT JUMPDEST POP JUMP JUMPDEST PUSH1 0x0 DUP2 MLOAD SWAP1 POP PUSH3 0xE2 DUP2 PUSH3 0xB7 JUMP JUMPDEST SWAP3 SWAP2 POP POP JUMP JUMPDEST PUSH1 0x0 PUSH1 0x20 DUP3 DUP5 SUB SLT ISZERO PUSH3 0x101 JUMPI PUSH3 0x100 PUSH3 0x7E JUMP JUMPDEST JUMPDEST PUSH1 0x0 PUSH3 0x111 DUP5 DUP3 DUP6 ADD PUSH3 0xD1 JUMP JUMPDEST SWAP2 POP POP SWAP3 SWAP2 POP POP JUMP JUMPDEST PUSH2 0x17AD DUP1 PUSH3 0x12A PUSH1 0x0 CODECOPY PUSH1 0x0 RETURN INVALID PUSH1 0x80 PUSH1 0x40 MSTORE CALLVALUE DUP1 ISZERO PUSH2 0x10 JUMPI PUSH1 0x0 DUP1 REVERT JUMPDEST POP PUSH1 0x4 CALLDATASIZE LT PUSH2 0x4C JUMPI PUSH1 0x0 CALLDATALOAD PUSH1 0xE0 SHR DUP1 PUSH4 0x2CB73406 EQ PUSH2 0x51 JUMPI DUP1 PUSH4 0x65375A04 EQ PUSH2 0x83 JUMPI DUP1 PUSH4 0x7B103999 EQ PUSH2 0xB5 JUMPI DUP1 PUSH4 0xBA0C93CB EQ PUSH2 0xD3 JUMPI JUMPDEST PUSH1 0x0 DUP1 REVERT JUMPDEST PUSH2 0x6B PUSH1 0x4 DUP1 CALLDATASIZE SUB DUP2 ADD SWAP1 PUSH2 0x66 SWAP2 SWAP1 PUSH2 0xC4D JUMP JUMPDEST PUSH2 0xEF JUMP JUMPDEST PUSH1 0x40 MLOAD PUSH2 0x7A SWAP4 SWAP3 SWAP2 SWAP1 PUSH2 0xD7B JUMP JUMPDEST PUSH1 0x40 MLOAD DUP1 SWAP2 SUB SWAP1 RETURN JUMPDEST PUSH2 0x9D PUSH1 0x4 DUP1 CALLDATASIZE SUB DUP2 ADD SWAP1 PUSH2 0x98 SWAP2 SWAP1 PUSH2 0xDC7 JUMP JUMPDEST PUSH2 0x2CE JUMP JUMPDEST PUSH1 0x40 MLOAD PUSH2 0xAC SWAP4 SWAP3 SWAP2 SWAP1 PUSH2 0x100C JUMP JUMPDEST PUSH1 0x40 MLOAD DUP1 SWAP2 SUB SWAP1 RETURN JUMPDEST PUSH2 0xBD PUSH2 0x787 JUMP JUMPDEST PUSH1 0x40 MLOAD PUSH2 0xCA SWAP2 SWAP1 PUSH2 0x10D7 JUMP JUMPDEST PUSH1 0x40 MLOAD DUP1 SWAP2 SUB SWAP1 RETURN JUMPDEST PUSH2 0xED PUSH1 0x4 DUP1 CALLDATASIZE SUB DUP2 ADD SWAP1 PUSH2 0xE8 SWAP2 SWAP1 PUSH2 0x12C8 JUMP JUMPDEST PUSH2 0x7AB JUMP JUMPDEST STOP JUMPDEST PUSH1 0x1 PUSH1 0x20 MSTORE DUP2 PUSH1 0x0 MSTORE PUSH1 0x40 PUSH1 0x0 KECCAK256 DUP2 DUP2 SLOAD DUP2 LT PUSH2 0x10B JUMPI PUSH1 0x0 DUP1 REVERT JUMPDEST SWAP1 PUSH1 0x0 MSTORE PUSH1 0x20 PUSH1 0x0 KECCAK256 SWAP1 PUSH1 0x3 MUL ADD PUSH1 0x0 SWAP2 POP SWAP2 POP POP DUP1 PUSH1 0x0 ADD DUP1 SLOAD PUSH2 0x12F SWAP1 PUSH2 0x13B2 JUMP JUMPDEST DUP1 PUSH1 0x1F ADD PUSH1 0x20 DUP1 SWAP2 DIV MUL PUSH1 0x20 ADD PUSH1 0x40 MLOAD SWAP1 DUP2 ADD PUSH1 0x40 MSTORE DUP1 SWAP3 SWAP2 SWAP1 DUP2 DUP2 MSTORE PUSH1 0x20 ADD DUP3 DUP1 SLOAD PUSH2 0x15B SWAP1 PUSH2 0x13B2 JUMP JUMPDEST DUP1 ISZERO PUSH2 0x1A8 JUMPI DUP1 PUSH1 0x1F LT PUSH2 0x17D JUMPI PUSH2 0x100 DUP1 DUP4 SLOAD DIV MUL DUP4 MSTORE SWAP2 PUSH1 0x20 ADD SWAP2 PUSH2 0x1A8 JUMP JUMPDEST DUP3 ADD SWAP2 SWAP1 PUSH1 0x0 MSTORE PUSH1 0x20 PUSH1 0x0 KECCAK256 SWAP1 JUMPDEST DUP2 SLOAD DUP2 MSTORE SWAP1 PUSH1 0x1 ADD SWAP1 PUSH1 0x20 ADD DUP1 DUP4 GT PUSH2 0x18B JUMPI DUP3 SWAP1 SUB PUSH1 0x1F AND DUP3 ADD SWAP2 JUMPDEST POP POP POP POP POP SWAP1 DUP1 PUSH1 0x1 ADD DUP1 SLOAD PUSH2 0x1BD SWAP1 PUSH2 0x13B2 JUMP JUMPDEST DUP1 PUSH1 0x1F ADD PUSH1 0x20 DUP1 SWAP2 DIV MUL PUSH1 0x20 ADD PUSH1 0x40 MLOAD SWAP1 DUP2 ADD PUSH1 0x40 MSTORE DUP1 SWAP3 SWAP2 SWAP1 DUP2 DUP2 MSTORE PUSH1 0x20 ADD DUP3 DUP1 SLOAD PUSH2 0x1E9 SWAP1 PUSH2 0x13B2 JUMP JUMPDEST DUP1 ISZERO PUSH2 0x236 JUMPI DUP1 PUSH1 0x1F LT PUSH2 0x20B JUMPI PUSH2 0x100 DUP1 DUP4 SLOAD DIV MUL DUP4 MSTORE SWAP2 PUSH1 0x20 ADD SWAP2 PUSH2 0x236 JUMP JUMPDEST DUP3 ADD SWAP2 SWAP1 PUSH1 0x0 MSTORE PUSH1 0x20 PUSH1 0x0 KECCAK256 SWAP1 JUMPDEST DUP2 SLOAD DUP2 MSTORE SWAP1 PUSH1 0x1 ADD SWAP1 PUSH1 0x20 ADD DUP1 DUP4 GT PUSH2 0x219 JUMPI DUP3 SWAP1 SUB PUSH1 0x1F AND DUP3 ADD SWAP2 JUMPDEST POP POP POP POP POP SWAP1 DUP1 PUSH1 0x2 ADD DUP1 SLOAD PUSH2 0x24B SWAP1 PUSH2 0x13B2 JUMP JUMPDEST DUP1 PUSH1 0x1F ADD PUSH1 0x20 DUP1 SWAP2 DIV MUL PUSH1 0x20 ADD PUSH1 0x40 MLOAD SWAP1 DUP2 ADD PUSH1 0x40 MSTORE DUP1 SWAP3 SWAP2 SWAP1 DUP2 DUP2 MSTORE PUSH1 0x20 ADD DUP3 DUP1 SLOAD PUSH2 0x277 SWAP1 PUSH2 0x13B2 JUMP JUMPDEST DUP1 ISZERO PUSH2 0x2C4 JUMPI DUP1 PUSH1 0x1F LT PUSH2 0x299 JUMPI PUSH2 0x100 DUP1 DUP4 SLOAD DIV MUL DUP4 MSTORE SWAP2 PUSH1 0x20 ADD SWAP2 PUSH2 0x2C4 JUMP JUMPDEST DUP3 ADD SWAP2 SWAP1 PUSH1 0x0 MSTORE PUSH1 0x20 PUSH1 0x0 KECCAK256 SWAP1 JUMPDEST DUP2 SLOAD DUP2 MSTORE SWAP1 PUSH1 0x1 ADD SWAP1 PUSH1 0x20 ADD DUP1 DUP4 GT PUSH2 0x2A7 JUMPI DUP3 SWAP1 SUB PUSH1 0x1F AND DUP3 ADD SWAP2 JUMPDEST POP POP POP POP POP SWAP1 POP DUP4 JUMP JUMPDEST PUSH1 0x60 DUP1 PUSH1 0x60 PUSH1 0x0 DUP1 SLOAD SWAP1 PUSH2 0x100 EXP SWAP1 DIV PUSH20 0xFFFFFFFFFFFFFFFFFFFFFFFFFFFFFFFFFFFFFFFF AND PUSH20 0xFFFFFFFFFFFFFFFFFFFFFFFFFFFFFFFFFFFFFFFF AND PUSH4 0xB2551C2 DUP6 PUSH1 0x40 MLOAD DUP3 PUSH4 0xFFFFFFFF AND PUSH1 0xE0 SHL DUP2 MSTORE PUSH1 0x4 ADD PUSH2 0x32C SWAP2 SWAP1 PUSH2 0x13F3 JUMP JUMPDEST PUSH1 0x20 PUSH1 0x40 MLOAD DUP1 DUP4 SUB DUP2 DUP7 GAS STATICCALL ISZERO DUP1 ISZERO PUSH2 0x349 JUMPI RETURNDATASIZE PUSH1 0x0 DUP1 RETURNDATACOPY RETURNDATASIZE PUSH1 0x0 REVERT JUMPDEST POP POP POP POP PUSH1 0x40 MLOAD RETURNDATASIZE PUSH1 0x1F NOT PUSH1 0x1F DUP3 ADD AND DUP3 ADD DUP1 PUSH1 0x40 MSTORE POP DUP2 ADD SWAP1 PUSH2 0x36D SWAP2 SWAP1 PUSH2 0x1446 JUMP JUMPDEST PUSH2 0x3AC JUMPI PUSH1 0x40 MLOAD PUSH32 0x8C379A000000000000000000000000000000000000000000000000000000000 DUP2 MSTORE PUSH1 0x4 ADD PUSH2 0x3A3 SWAP1 PUSH2 0x14BF JUMP JUMPDEST PUSH1 0x40 MLOAD DUP1 SWAP2 SUB SWAP1 REVERT JUMPDEST PUSH1 0x0 PUSH1 0x1 PUSH1 0x0 DUP7 DUP2 MSTORE PUSH1 0x20 ADD SWAP1 DUP2 MSTORE PUSH1 0x20 ADD PUSH1 0x0 KECCAK256 DUP1 SLOAD SWAP1 POP SWAP1 POP PUSH1 0x0 DUP2 PUSH8 0xFFFFFFFFFFFFFFFF DUP2 GT ISZERO PUSH2 0x3E3 JUMPI PUSH2 0x3E2 PUSH2 0x10FC JUMP JUMPDEST JUMPDEST PUSH1 0x40 MLOAD SWAP1 DUP1 DUP3 MSTORE DUP1 PUSH1 0x20 MUL PUSH1 0x20 ADD DUP3 ADD PUSH1 0x40 MSTORE DUP1 ISZERO PUSH2 0x416 JUMPI DUP2 PUSH1 0x20 ADD JUMPDEST PUSH1 0x60 DUP2 MSTORE PUSH1 0x20 ADD SWAP1 PUSH1 0x1 SWAP1 SUB SWAP1 DUP2 PUSH2 0x401 JUMPI SWAP1 POP JUMPDEST POP SWAP1 POP PUSH1 0x0 DUP3 PUSH8 0xFFFFFFFFFFFFFFFF DUP2 GT ISZERO PUSH2 0x435 JUMPI PUSH2 0x434 PUSH2 0x10FC JUMP JUMPDEST JUMPDEST PUSH1 0x40 MLOAD SWAP1 DUP1 DUP3 MSTORE DUP1 PUSH1 0x20 MUL PUSH1 0x20 ADD DUP3 ADD PUSH1 0x40 MSTORE DUP1 ISZERO PUSH2 0x468 JUMPI DUP2 PUSH1 0x20 ADD JUMPDEST PUSH1 0x60 DUP2 MSTORE PUSH1 0x20 ADD SWAP1 PUSH1 0x1 SWAP1 SUB SWAP1 DUP2 PUSH2 0x453 JUMPI SWAP1 POP JUMPDEST POP SWAP1 POP PUSH1 0x0 DUP4 PUSH8 0xFFFFFFFFFFFFFFFF DUP2 GT ISZERO PUSH2 0x487 JUMPI PUSH2 0x486 PUSH2 0x10FC JUMP JUMPDEST JUMPDEST PUSH1 0x40 MLOAD SWAP1 DUP1 DUP3 MSTORE DUP1 PUSH1 0x20 MUL PUSH1 0x20 ADD DUP3 ADD PUSH1 0x40 MSTORE DUP1 ISZERO PUSH2 0x4BA JUMPI DUP2 PUSH1 0x20 ADD JUMPDEST PUSH1 0x60 DUP2 MSTORE PUSH1 0x20 ADD SWAP1 PUSH1 0x1 SWAP1 SUB SWAP1 DUP2 PUSH2 0x4A5 JUMPI SWAP1 POP JUMPDEST POP SWAP1 POP PUSH1 0x0 JUMPDEST DUP5 DUP2 LT ISZERO PUSH2 0x772 JUMPI PUSH1 0x1 PUSH1 0x0 DUP11 DUP2 MSTORE PUSH1 0x20 ADD SWAP1 DUP2 MSTORE PUSH1 0x20 ADD PUSH1 0x0 KECCAK256 DUP2 DUP2 SLOAD DUP2 LT PUSH2 0x4ED JUMPI PUSH2 0x4EC PUSH2 0x14DF JUMP JUMPDEST JUMPDEST SWAP1 PUSH1 0x0 MSTORE PUSH1 0x20 PUSH1 0x0 KECCAK256 SWAP1 PUSH1 0x3 MUL ADD PUSH1 0x0 ADD DUP1 SLOAD PUSH2 0x509 SWAP1 PUSH2 0x13B2 JUMP JUMPDEST DUP1 PUSH1 0x1F ADD PUSH1 0x20 DUP1 SWAP2 DIV MUL PUSH1 0x20 ADD PUSH1 0x40 MLOAD SWAP1 DUP2 ADD PUSH1 0x40 MSTORE DUP1 SWAP3 SWAP2 SWAP1 DUP2 DUP2 MSTORE PUSH1 0x20 ADD DUP3 DUP1 SLOAD PUSH2 0x535 SWAP1 PUSH2 0x13B2 JUMP JUMPDEST DUP1 ISZERO PUSH2 0x582 JUMPI DUP1 PUSH1 0x1F LT PUSH2 0x557 JUMPI PUSH2 0x100 DUP1 DUP4 SLOAD DIV MUL DUP4 MSTORE SWAP2 PUSH1 0x20 ADD SWAP2 PUSH2 0x582 JUMP JUMPDEST DUP3 ADD SWAP2 SWAP1 PUSH1 0x0 MSTORE PUSH1 0x20 PUSH1 0x0 KECCAK256 SWAP1 JUMPDEST DUP2 SLOAD DUP2 MSTORE SWAP1 PUSH1 0x1 ADD SWAP1 PUSH1 0x20 ADD DUP1 DUP4 GT PUSH2 0x565 JUMPI DUP3 SWAP1 SUB PUSH1 0x1F AND DUP3 ADD SWAP2 JUMPDEST POP POP POP POP POP DUP5 DUP3 DUP2 MLOAD DUP2 LT PUSH2 0x59A JUMPI PUSH2 0x599 PUSH2 0x14DF JUMP JUMPDEST JUMPDEST PUSH1 0x20 MUL PUSH1 0x20 ADD ADD DUP2 SWAP1 MSTORE POP PUSH1 0x1 PUSH1 0x0 DUP11 DUP2 MSTORE PUSH1 0x20 ADD SWAP1 DUP2 MSTORE PUSH1 0x20 ADD PUSH1 0x0 KECCAK256 DUP2 DUP2 SLOAD DUP2 LT PUSH2 0x5CA JUMPI PUSH2 0x5C9 PUSH2 0x14DF JUMP JUMPDEST JUMPDEST SWAP1 PUSH1 0x0 MSTORE PUSH1 0x20 PUSH1 0x0 KECCAK256 SWAP1 PUSH1 0x3 MUL ADD PUSH1 0x1 ADD DUP1 SLOAD PUSH2 0x5E6 SWAP1 PUSH2 0x13B2 JUMP JUMPDEST DUP1 PUSH1 0x1F ADD PUSH1 0x20 DUP1 SWAP2 DIV MUL PUSH1 0x20 ADD PUSH1 0x40 MLOAD SWAP1 DUP2 ADD PUSH1 0x40 MSTORE DUP1 SWAP3 SWAP2 SWAP1 DUP2 DUP2 MSTORE PUSH1 0x20 ADD DUP3 DUP1 SLOAD PUSH2 0x612 SWAP1 PUSH2 0x13B2 JUMP JUMPDEST DUP1 ISZERO PUSH2 0x65F JUMPI DUP1 PUSH1 0x1F LT PUSH2 0x634 JUMPI PUSH2 0x100 DUP1 DUP4 SLOAD DIV MUL DUP4 MSTORE SWAP2 PUSH1 0x20 ADD SWAP2 PUSH2 0x65F JUMP JUMPDEST DUP3 ADD SWAP2 SWAP1 PUSH1 0x0 MSTORE PUSH1 0x20 PUSH1 0x0 KECCAK256 SWAP1 JUMPDEST DUP2 SLOAD DUP2 MSTORE SWAP1 PUSH1 0x1 ADD SWAP1 PUSH1 0x20 ADD DUP1 DUP4 GT PUSH2 0x642 JUMPI DUP3 SWAP1 SUB PUSH1 0x1F AND DUP3 ADD SWAP2 JUMPDEST POP POP POP POP POP DUP4 DUP3 DUP2 MLOAD DUP2 LT PUSH2 0x677 JUMPI PUSH2 0x676 PUSH2 0x14DF JUMP JUMPDEST JUMPDEST PUSH1 0x20 MUL PUSH1 0x20 ADD ADD DUP2 SWAP1 MSTORE POP PUSH1 0x1 PUSH1 0x0 DUP11 DUP2 MSTORE PUSH1 0x20 ADD SWAP1 DUP2 MSTORE PUSH1 0x20 ADD PUSH1 0x0 KECCAK256 DUP2 DUP2 SLOAD DUP2 LT PUSH2 0x6A7 JUMPI PUSH2 0x6A6 PUSH2 0x14DF JUMP JUMPDEST JUMPDEST SWAP1 PUSH1 0x0 MSTORE PUSH1 0x20 PUSH1 0x0 KECCAK256 SWAP1 PUSH1 0x3 MUL ADD PUSH1 0x2 ADD DUP1 SLOAD PUSH2 0x6C3 SWAP1 PUSH2 0x13B2 JUMP JUMPDEST DUP1 PUSH1 0x1F ADD PUSH1 0x20 DUP1 SWAP2 DIV MUL PUSH1 0x20 ADD PUSH1 0x40 MLOAD SWAP1 DUP2 ADD PUSH1 0x40 MSTORE DUP1 SWAP3 SWAP2 SWAP1 DUP2 DUP2 MSTORE PUSH1 0x20 ADD DUP3 DUP1 SLOAD PUSH2 0x6EF SWAP1 PUSH2 0x13B2 JUMP JUMPDEST DUP1 ISZERO PUSH2 0x73C JUMPI DUP1 PUSH1 0x1F LT PUSH2 0x711 JUMPI PUSH2 0x100 DUP1 DUP4 SLOAD DIV MUL DUP4 MSTORE SWAP2 PUSH1 0x20 ADD SWAP2 PUSH2 0x73C JUMP JUMPDEST DUP3 ADD SWAP2 SWAP1 PUSH1 0x0 MSTORE PUSH1 0x20 PUSH1 0x0 KECCAK256 SWAP1 JUMPDEST DUP2 SLOAD DUP2 MSTORE SWAP1 PUSH1 0x1 ADD SWAP1 PUSH1 0x20 ADD DUP1 DUP4 GT PUSH2 0x71F JUMPI DUP3 SWAP1 SUB PUSH1 0x1F AND DUP3 ADD SWAP2 JUMPDEST POP POP POP POP POP DUP3 DUP3 DUP2 MLOAD DUP2 LT PUSH2 0x754 JUMPI PUSH2 0x753 PUSH2 0x14DF JUMP JUMPDEST JUMPDEST PUSH1 0x20 MUL PUSH1 0x20 ADD ADD DUP2 SWAP1 MSTORE POP DUP1 DUP1 PUSH2 0x76A SWAP1 PUSH2 0x153D JUMP JUMPDEST SWAP2 POP POP PUSH2 0x4C0 JUMP JUMPDEST POP DUP3 DUP3 DUP3 SWAP7 POP SWAP7 POP SWAP7 POP POP POP POP POP SWAP2 SWAP4 SWAP1 SWAP3 POP JUMP JUMPDEST PUSH1 0x0 DUP1 SLOAD SWAP1 PUSH2 0x100 EXP SWAP1 DIV PUSH20 0xFFFFFFFFFFFFFFFFFFFFFFFFFFFFFFFFFFFFFFFF AND DUP2 JUMP JUMPDEST PUSH1 0x0 DUP1 SLOAD SWAP1 PUSH2 0x100 EXP SWAP1 DIV PUSH20 0xFFFFFFFFFFFFFFFFFFFFFFFFFFFFFFFFFFFFFFFF AND PUSH20 0xFFFFFFFFFFFFFFFFFFFFFFFFFFFFFFFFFFFFFFFF AND PUSH4 0xB2551C2 DUP6 PUSH1 0x40 MLOAD DUP3 PUSH4 0xFFFFFFFF AND PUSH1 0xE0 SHL DUP2 MSTORE PUSH1 0x4 ADD PUSH2 0x804 SWAP2 SWAP1 PUSH2 0x13F3 JUMP JUMPDEST PUSH1 0x20 PUSH1 0x40 MLOAD DUP1 DUP4 SUB DUP2 DUP7 GAS STATICCALL ISZERO DUP1 ISZERO PUSH2 0x821 JUMPI RETURNDATASIZE PUSH1 0x0 DUP1 RETURNDATACOPY RETURNDATASIZE PUSH1 0x0 REVERT JUMPDEST POP POP POP POP PUSH1 0x40 MLOAD RETURNDATASIZE PUSH1 0x1F NOT PUSH1 0x1F DUP3 ADD AND DUP3 ADD DUP1 PUSH1 0x40 MSTORE POP DUP2 ADD SWAP1 PUSH2 0x845 SWAP2 SWAP1 PUSH2 0x1446 JUMP JUMPDEST PUSH2 0x884 JUMPI PUSH1 0x40 MLOAD PUSH32 0x8C379A000000000000000000000000000000000000000000000000000000000 DUP2 MSTORE PUSH1 0x4 ADD PUSH2 0x87B SWAP1 PUSH2 0x15F8 JUMP JUMPDEST PUSH1 0x40 MLOAD DUP1 SWAP2 SUB SWAP1 REVERT JUMPDEST CALLER PUSH20 0xFFFFFFFFFFFFFFFFFFFFFFFFFFFFFFFFFFFFFFFF AND PUSH1 0x0 DUP1 SLOAD SWAP1 PUSH2 0x100 EXP SWAP1 DIV PUSH20 0xFFFFFFFFFFFFFFFFFFFFFFFFFFFFFFFFFFFFFFFF AND PUSH20 0xFFFFFFFFFFFFFFFFFFFFFFFFFFFFFFFFFFFFFFFF AND PUSH4 0xDEB931A2 DUP7 PUSH1 0x40 MLOAD DUP3 PUSH4 0xFFFFFFFF AND PUSH1 0xE0 SHL DUP2 MSTORE PUSH1 0x4 ADD PUSH2 0x8F4 SWAP2 SWAP1 PUSH2 0x13F3 JUMP JUMPDEST PUSH1 0x20 PUSH1 0x40 MLOAD DUP1 DUP4 SUB DUP2 DUP7 GAS STATICCALL ISZERO DUP1 ISZERO PUSH2 0x911 JUMPI RETURNDATASIZE PUSH1 0x0 DUP1 RETURNDATACOPY RETURNDATASIZE PUSH1 0x0 REVERT JUMPDEST POP POP POP POP PUSH1 0x40 MLOAD RETURNDATASIZE PUSH1 0x1F NOT PUSH1 0x1F DUP3 ADD AND DUP3 ADD DUP1 PUSH1 0x40 MSTORE POP DUP2 ADD SWAP1 PUSH2 0x935 SWAP2 SWAP1 PUSH2 0x1656 JUMP JUMPDEST PUSH20 0xFFFFFFFFFFFFFFFFFFFFFFFFFFFFFFFFFFFFFFFF AND EQ PUSH2 0x98B JUMPI PUSH1 0x40 MLOAD PUSH32 0x8C379A000000000000000000000000000000000000000000000000000000000 DUP2 MSTORE PUSH1 0x4 ADD PUSH2 0x982 SWAP1 PUSH2 0x16CF JUMP JUMPDEST PUSH1 0x40 MLOAD DUP1 SWAP2 SUB SWAP1 REVERT JUMPDEST PUSH1 0x1 PUSH1 0x0 DUP6 DUP2 MSTORE PUSH1 0x20 ADD SWAP1 DUP2 MSTORE PUSH1 0x20 ADD PUSH1 0x0 KECCAK256 PUSH1 0x40 MLOAD DUP1 PUSH1 0x60 ADD PUSH1 0x40 MSTORE DUP1 DUP6 DUP2 MSTORE PUSH1 0x20 ADD DUP5 DUP2 MSTORE PUSH1 0x20 ADD DUP4 DUP2 MSTORE POP SWAP1 DUP1 PUSH1 0x1 DUP2 SLOAD ADD DUP1 DUP3 SSTORE DUP1 SWAP2 POP POP PUSH1 0x1 SWAP1 SUB SWAP1 PUSH1 0x0 MSTORE PUSH1 0x20 PUSH1 0x0 KECCAK256 SWAP1 PUSH1 0x3 MUL ADD PUSH1 0x0 SWAP1 SWAP2 SWAP1 SWAP2 SWAP1 SWAP2 POP PUSH1 0x0 DUP3 ADD MLOAD DUP2 PUSH1 0x0 ADD SWAP1 DUP1 MLOAD SWAP1 PUSH1 0x20 ADD SWAP1 PUSH2 0x9FE SWAP3 SWAP2 SWAP1 PUSH2 0xAA4 JUMP JUMPDEST POP PUSH1 0x20 DUP3 ADD MLOAD DUP2 PUSH1 0x1 ADD SWAP1 DUP1 MLOAD SWAP1 PUSH1 0x20 ADD SWAP1 PUSH2 0xA1B SWAP3 SWAP2 SWAP1 PUSH2 0xAA4 JUMP JUMPDEST POP PUSH1 0x40 DUP3 ADD MLOAD DUP2 PUSH1 0x2 ADD SWAP1 DUP1 MLOAD SWAP1 PUSH1 0x20 ADD SWAP1 PUSH2 0xA38 SWAP3 SWAP2 SWAP1 PUSH2 0xB2A JUMP JUMPDEST POP POP POP PUSH1 0x0 PUSH1 0x1 DUP1 PUSH1 0x0 DUP8 DUP2 MSTORE PUSH1 0x20 ADD SWAP1 DUP2 MSTORE PUSH1 0x20 ADD PUSH1 0x0 KECCAK256 DUP1 SLOAD SWAP1 POP PUSH2 0xA5F SWAP2 SWAP1 PUSH2 0x16EF JUMP JUMPDEST SWAP1 POP DUP5 PUSH32 0x2EBEA29A0E55553A239D0A1C2FFEF2A43E19AFDE91FC375DF47B698E5CEEF391 DUP3 DUP7 DUP7 PUSH1 0x40 MLOAD PUSH2 0xA95 SWAP4 SWAP3 SWAP2 SWAP1 PUSH2 0x1732 JUMP JUMPDEST PUSH1 0x40 MLOAD DUP1 SWAP2 SUB SWAP1 LOG2 POP POP POP POP POP JUMP JUMPDEST DUP3 DUP1 SLOAD PUSH2 0xAB0 SWAP1 PUSH2 0x13B2 JUMP JUMPDEST SWAP1 PUSH1 0x0 MSTORE PUSH1 0x20 PUSH1 0x0 KECCAK256 SWAP1 PUSH1 0x1F ADD PUSH1 0x20 SWAP1 DIV DUP2 ADD SWAP3 DUP3 PUSH2 0xAD2 JUMPI PUSH1 0x0 DUP6 SSTORE PUSH2 0xB19 JUMP JUMPDEST DUP3 PUSH1 0x1F LT PUSH2 0xAEB JUMPI DUP1 MLOAD PUSH1 0xFF NOT AND DUP4 DUP1 ADD OR DUP6 SSTORE PUSH2 0xB19 JUMP JUMPDEST DUP3 DUP1 ADD PUSH1 0x1 ADD DUP6 SSTORE DUP3 ISZERO PUSH2 0xB19 JUMPI SWAP2 DUP3 ADD JUMPDEST DUP3 DUP2 GT ISZERO PUSH2 0xB18 JUMPI DUP3 MLOAD DUP3 SSTORE SWAP2 PUSH1 0x20 ADD SWAP2 SWAP1 PUSH1 0x1 ADD SWAP1 PUSH2 0xAFD JUMP JUMPDEST JUMPDEST POP SWAP1 POP PUSH2 0xB26 SWAP2 SWAP1 PUSH2 0xBB0 JUMP JUMPDEST POP SWAP1 JUMP JUMPDEST DUP3 DUP1 SLOAD PUSH2 0xB36 SWAP1 PUSH2 0x13B2 JUMP JUMPDEST SWAP1 PUSH1 0x0 MSTORE PUSH1 0x20 PUSH1 0x0 KECCAK256 SWAP1 PUSH1 0x1F ADD PUSH1 0x20 SWAP1 DIV DUP2 ADD SWAP3 DUP3 PUSH2 0xB58 JUMPI PUSH1 0x0 DUP6 SSTORE PUSH2 0xB9F JUMP JUMPDEST DUP3 PUSH1 0x1F LT PUSH2 0xB71 JUMPI DUP1 MLOAD PUSH1 0xFF NOT AND DUP4 DUP1 ADD OR DUP6 SSTORE PUSH2 0xB9F JUMP JUMPDEST DUP3 DUP1 ADD PUSH1 0x1 ADD DUP6 SSTORE DUP3 ISZERO PUSH2 0xB9F JUMPI SWAP2 DUP3 ADD JUMPDEST DUP3 DUP2 GT ISZERO PUSH2 0xB9E JUMPI DUP3 MLOAD DUP3 SSTORE SWAP2 PUSH1 0x20 ADD SWAP2 SWAP1 PUSH1 0x1 ADD SWAP1 PUSH2 0xB83 JUMP JUMPDEST JUMPDEST POP SWAP1 POP PUSH2 0xBAC SWAP2 SWAP1 PUSH2 0xBB0 JUMP JUMPDEST POP SWAP1 JUMP JUMPDEST JUMPDEST DUP1 DUP3 GT ISZERO PUSH2 0xBC9 JUMPI PUSH1 0x0 DUP2 PUSH1 0x0 SWAP1 SSTORE POP PUSH1 0x1 ADD PUSH2 0xBB1 JUMP JUMPDEST POP SWAP1 JUMP JUMPDEST PUSH1 0x0 PUSH1 0x40 MLOAD SWAP1 POP SWAP1 JUMP JUMPDEST PUSH1 0x0 DUP1 REVERT JUMPDEST PUSH1 0x0 DUP1 REVERT JUMPDEST PUSH1 0x0 DUP2 SWAP1 POP SWAP2 SWAP1 POP JUMP JUMPDEST PUSH2 0xBF4 DUP2 PUSH2 0xBE1 JUMP JUMPDEST DUP2 EQ PUSH2 0xBFF JUMPI PUSH1 0x0 DUP1 REVERT JUMPDEST POP JUMP JUMPDEST PUSH1 0x0 DUP2 CALLDATALOAD SWAP1 POP PUSH2 0xC11 DUP2 PUSH2 0xBEB JUMP JUMPDEST SWAP3 SWAP2 POP POP JUMP JUMPDEST PUSH1 0x0 DUP2 SWAP1 POP SWAP2 SWAP1 POP JUMP JUMPDEST PUSH2 0xC2A DUP2 PUSH2 0xC17 JUMP JUMPDEST DUP2 EQ PUSH2 0xC35 JUMPI PUSH1 0x0 DUP1 REVERT JUMPDEST POP JUMP JUMPDEST PUSH1 0x0 DUP2 CALLDATALOAD SWAP1 POP PUSH2 0xC47 DUP2 PUSH2 0xC21 JUMP JUMPDEST SWAP3 SWAP2 POP POP JUMP JUMPDEST PUSH1 0x0 DUP1 PUSH1 0x40 DUP4 DUP6 SUB SLT ISZERO PUSH2 0xC64 JUMPI PUSH2 0xC63 PUSH2 0xBD7 JUMP JUMPDEST JUMPDEST PUSH1 0x0 PUSH2 0xC72 DUP6 DUP3 DUP7 ADD PUSH2 0xC02 JUMP JUMPDEST SWAP3 POP POP PUSH1 0x20 PUSH2 0xC83 DUP6 DUP3 DUP7 ADD PUSH2 0xC38 JUMP JUMPDEST SWAP2 POP POP SWAP3 POP SWAP3 SWAP1 POP JUMP JUMPDEST PUSH1 0x0 DUP2 MLOAD SWAP1 POP SWAP2 SWAP1 POP JUMP JUMPDEST PUSH1 0x0 DUP3 DUP3 MSTORE PUSH1 0x20 DUP3 ADD SWAP1 POP SWAP3 SWAP2 POP POP JUMP JUMPDEST PUSH1 0x0 JUMPDEST DUP4 DUP2 LT ISZERO PUSH2 0xCC7 JUMPI DUP1 DUP3 ADD MLOAD DUP2 DUP5 ADD MSTORE PUSH1 0x20 DUP2 ADD SWAP1 POP PUSH2 0xCAC JUMP JUMPDEST DUP4 DUP2 GT ISZERO PUSH2 0xCD6 JUMPI PUSH1 0x0 DUP5 DUP5 ADD MSTORE JUMPDEST POP POP POP POP JUMP JUMPDEST PUSH1 0x0 PUSH1 0x1F NOT PUSH1 0x1F DUP4 ADD AND SWAP1 POP SWAP2 SWAP1 POP JUMP JUMPDEST PUSH1 0x0 PUSH2 0xCF8 DUP3 PUSH2 0xC8D JUMP JUMPDEST PUSH2 0xD02 DUP2 DUP6 PUSH2 0xC98 JUMP JUMPDEST SWAP4 POP PUSH2 0xD12 DUP2 DUP6 PUSH1 0x20 DUP7 ADD PUSH2 0xCA9 JUMP JUMPDEST PUSH2 0xD1B DUP2 PUSH2 0xCDC JUMP JUMPDEST DUP5 ADD SWAP2 POP POP SWAP3 SWAP2 POP POP JUMP JUMPDEST PUSH1 0x0 DUP2 MLOAD SWAP1 POP SWAP2 SWAP1 POP JUMP JUMPDEST PUSH1 0x0 DUP3 DUP3 MSTORE PUSH1 0x20 DUP3 ADD SWAP1 POP SWAP3 SWAP2 POP POP JUMP JUMPDEST PUSH1 0x0 PUSH2 0xD4D DUP3 PUSH2 0xD26 JUMP JUMPDEST PUSH2 0xD57 DUP2 DUP6 PUSH2 0xD31 JUMP JUMPDEST SWAP4 POP PUSH2 0xD67 DUP2 DUP6 PUSH1 0x20 DUP7 ADD PUSH2 0xCA9 JUMP JUMPDEST PUSH2 0xD70 DUP2 PUSH2 0xCDC JUMP JUMPDEST DUP5 ADD SWAP2 POP POP SWAP3 SWAP2 POP POP JUMP JUMPDEST PUSH1 0x0 PUSH1 0x60 DUP3 ADD SWAP1 POP DUP2 DUP2 SUB PUSH1 0x0 DUP4 ADD MSTORE PUSH2 0xD95 DUP2 DUP7 PUSH2 0xCED JUMP JUMPDEST SWAP1 POP DUP2 DUP2 SUB PUSH1 0x20 DUP4 ADD MSTORE PUSH2 0xDA9 DUP2 DUP6 PUSH2 0xCED JUMP JUMPDEST SWAP1 POP DUP2 DUP2 SUB PUSH1 0x40 DUP4 ADD MSTORE PUSH2 0xDBD DUP2 DUP5 PUSH2 0xD42 JUMP JUMPDEST SWAP1 POP SWAP5 SWAP4 POP POP POP POP JUMP JUMPDEST PUSH1 0x0 PUSH1 0x20 DUP3 DUP5 SUB SLT ISZERO PUSH2 0xDDD JUMPI PUSH2 0xDDC PUSH2 0xBD7 JUMP JUMPDEST JUMPDEST PUSH1 0x0 PUSH2 0xDEB DUP5 DUP3 DUP6 ADD PUSH2 0xC02 JUMP JUMPDEST SWAP2 POP POP SWAP3 SWAP2 POP POP JUMP JUMPDEST PUSH1 0x0 DUP2 MLOAD SWAP1 POP SWAP2 SWAP1 POP JUMP JUMPDEST PUSH1 0x0 DUP3 DUP3 MSTORE PUSH1 0x20 DUP3 ADD SWAP1 POP SWAP3 SWAP2 POP POP JUMP JUMPDEST PUSH1 0x0 DUP2 SWAP1 POP PUSH1 0x20 DUP3 ADD SWAP1 POP SWAP2 SWAP1 POP JUMP JUMPDEST PUSH1 0x0 DUP3 DUP3 MSTORE PUSH1 0x20 DUP3 ADD SWAP1 POP SWAP3 SWAP2 POP POP JUMP JUMPDEST PUSH1 0x0 PUSH2 0xE3C DUP3 PUSH2 0xC8D JUMP JUMPDEST PUSH2 0xE46 DUP2 DUP6 PUSH2 0xE20 JUMP JUMPDEST SWAP4 POP PUSH2 0xE56 DUP2 DUP6 PUSH1 0x20 DUP7 ADD PUSH2 0xCA9 JUMP JUMPDEST PUSH2 0xE5F DUP2 PUSH2 0xCDC JUMP JUMPDEST DUP5 ADD SWAP2 POP POP SWAP3 SWAP2 POP POP JUMP JUMPDEST PUSH1 0x0 PUSH2 0xE76 DUP4 DUP4 PUSH2 0xE31 JUMP JUMPDEST SWAP1 POP SWAP3 SWAP2 POP POP JUMP JUMPDEST PUSH1 0x0 PUSH1 0x20 DUP3 ADD SWAP1 POP SWAP2 SWAP1 POP JUMP JUMPDEST PUSH1 0x0 PUSH2 0xE96 DUP3 PUSH2 0xDF4 JUMP JUMPDEST PUSH2 0xEA0 DUP2 DUP6 PUSH2 0xDFF JUMP JUMPDEST SWAP4 POP DUP4 PUSH1 0x20 DUP3 MUL DUP6 ADD PUSH2 0xEB2 DUP6 PUSH2 0xE10 JUMP JUMPDEST DUP1 PUSH1 0x0 JUMPDEST DUP6 DUP2 LT ISZERO PUSH2 0xEEE JUMPI DUP5 DUP5 SUB DUP10 MSTORE DUP2 MLOAD PUSH2 0xECF DUP6 DUP3 PUSH2 0xE6A JUMP JUMPDEST SWAP5 POP PUSH2 0xEDA DUP4 PUSH2 0xE7E JUMP JUMPDEST SWAP3 POP PUSH1 0x20 DUP11 ADD SWAP10 POP POP PUSH1 0x1 DUP2 ADD SWAP1 POP PUSH2 0xEB6 JUMP JUMPDEST POP DUP3 SWAP8 POP DUP8 SWAP6 POP POP POP POP POP POP SWAP3 SWAP2 POP POP JUMP JUMPDEST PUSH1 0x0 DUP2 MLOAD SWAP1 POP SWAP2 SWAP1 POP JUMP JUMPDEST PUSH1 0x0 DUP3 DUP3 MSTORE PUSH1 0x20 DUP3 ADD SWAP1 POP SWAP3 SWAP2 POP POP JUMP JUMPDEST PUSH1 0x0 DUP2 SWAP1 POP PUSH1 0x20 DUP3 ADD SWAP1 POP SWAP2 SWAP1 POP JUMP JUMPDEST PUSH1 0x0 DUP3 DUP3 MSTORE PUSH1 0x20 DUP3 ADD SWAP1 POP SWAP3 SWAP2 POP POP JUMP JUMPDEST PUSH1 0x0 PUSH2 0xF48 DUP3 PUSH2 0xD26 JUMP JUMPDEST PUSH2 0xF52 DUP2 DUP6 PUSH2 0xF2C JUMP JUMPDEST SWAP4 POP PUSH2 0xF62 DUP2 DUP6 PUSH1 0x20 DUP7 ADD PUSH2 0xCA9 JUMP JUMPDEST PUSH2 0xF6B DUP2 PUSH2 0xCDC JUMP JUMPDEST DUP5 ADD SWAP2 POP POP SWAP3 SWAP2 POP POP JUMP JUMPDEST PUSH1 0x0 PUSH2 0xF82 DUP4 DUP4 PUSH2 0xF3D JUMP JUMPDEST SWAP1 POP SWAP3 SWAP2 POP POP JUMP JUMPDEST PUSH1 0x0 PUSH1 0x20 DUP3 ADD SWAP1 POP SWAP2 SWAP1 POP JUMP JUMPDEST PUSH1 0x0 PUSH2 0xFA2 DUP3 PUSH2 0xF00 JUMP JUMPDEST PUSH2 0xFAC DUP2 DUP6 PUSH2 0xF0B JUMP JUMPDEST SWAP4 POP DUP4 PUSH1 0x20 DUP3 MUL DUP6 ADD PUSH2 0xFBE DUP6 PUSH2 0xF1C JUMP JUMPDEST DUP1 PUSH1 0x0 JUMPDEST DUP6 DUP2 LT ISZERO PUSH2 0xFFA JUMPI DUP5 DUP5 SUB DUP10 MSTORE DUP2 MLOAD PUSH2 0xFDB DUP6 DUP3 PUSH2 0xF76 JUMP JUMPDEST SWAP5 POP PUSH2 0xFE6 DUP4 PUSH2 0xF8A JUMP JUMPDEST SWAP3 POP PUSH1 0x20 DUP11 ADD SWAP10 POP POP PUSH1 0x1 DUP2 ADD SWAP1 POP PUSH2 0xFC2 JUMP JUMPDEST POP DUP3 SWAP8 POP DUP8 SWAP6 POP POP POP POP POP POP SWAP3 SWAP2 POP POP JUMP JUMPDEST PUSH1 0x0 PUSH1 0x60 DUP3 ADD SWAP1 POP DUP2 DUP2 SUB PUSH1 0x0 DUP4 ADD MSTORE PUSH2 0x1026 DUP2 DUP7 PUSH2 0xE8B JUMP JUMPDEST SWAP1 POP DUP2 DUP2 SUB PUSH1 0x20 DUP4 ADD MSTORE PUSH2 0x103A DUP2 DUP6 PUSH2 0xE8B JUMP JUMPDEST SWAP1 POP DUP2 DUP2 SUB PUSH1 0x40 DUP4 ADD MSTORE PUSH2 0x104E DUP2 DUP5 PUSH2 0xF97 JUMP JUMPDEST SWAP1 POP SWAP5 SWAP4 POP POP POP POP JUMP JUMPDEST PUSH1 0x0 PUSH20 0xFFFFFFFFFFFFFFFFFFFFFFFFFFFFFFFFFFFFFFFF DUP3 AND SWAP1 POP SWAP2 SWAP1 POP JUMP JUMPDEST PUSH1 0x0 DUP2 SWAP1 POP SWAP2 SWAP1 POP JUMP JUMPDEST PUSH1 0x0 PUSH2 0x109D PUSH2 0x1098 PUSH2 0x1093 DUP5 PUSH2 0x1058 JUMP JUMPDEST PUSH2 0x1078 JUMP JUMPDEST PUSH2 0x1058 JUMP JUMPDEST SWAP1 POP SWAP2 SWAP1 POP JUMP JUMPDEST PUSH1 0x0 PUSH2 0x10AF DUP3 PUSH2 0x1082 JUMP JUMPDEST SWAP1 POP SWAP2 SWAP1 POP JUMP JUMPDEST PUSH1 0x0 PUSH2 0x10C1 DUP3 PUSH2 0x10A4 JUMP JUMPDEST SWAP1 POP SWAP2 SWAP1 POP JUMP JUMPDEST PUSH2 0x10D1 DUP2 PUSH2 0x10B6 JUMP JUMPDEST DUP3 MSTORE POP POP JUMP JUMPDEST PUSH1 0x0 PUSH1 0x20 DUP3 ADD SWAP1 POP PUSH2 0x10EC PUSH1 0x0 DUP4 ADD DUP5 PUSH2 0x10C8 JUMP JUMPDEST SWAP3 SWAP2 POP POP JUMP JUMPDEST PUSH1 0x0 DUP1 REVERT JUMPDEST PUSH1 0x0 DUP1 REVERT JUMPDEST PUSH32 0x4E487B7100000000000000000000000000000000000000000000000000000000 PUSH1 0x0 MSTORE PUSH1 0x41 PUSH1 0x4 MSTORE PUSH1 0x24 PUSH1 0x0 REVERT JUMPDEST PUSH2 0x1134 DUP3 PUSH2 0xCDC JUMP JUMPDEST DUP2 ADD DUP2 DUP2 LT PUSH8 0xFFFFFFFFFFFFFFFF DUP3 GT OR ISZERO PUSH2 0x1153 JUMPI PUSH2 0x1152 PUSH2 0x10FC JUMP JUMPDEST JUMPDEST DUP1 PUSH1 0x40 MSTORE POP POP POP JUMP JUMPDEST PUSH1 0x0 PUSH2 0x1166 PUSH2 0xBCD JUMP JUMPDEST SWAP1 POP PUSH2 0x1172 DUP3 DUP3 PUSH2 0x112B JUMP JUMPDEST SWAP2 SWAP1 POP JUMP JUMPDEST PUSH1 0x0 PUSH8 0xFFFFFFFFFFFFFFFF DUP3 GT ISZERO PUSH2 0x1192 JUMPI PUSH2 0x1191 PUSH2 0x10FC JUMP JUMPDEST JUMPDEST PUSH2 0x119B DUP3 PUSH2 0xCDC JUMP JUMPDEST SWAP1 POP PUSH1 0x20 DUP2 ADD SWAP1 POP SWAP2 SWAP1 POP JUMP JUMPDEST DUP3 DUP2 DUP4 CALLDATACOPY PUSH1 0x0 DUP4 DUP4 ADD MSTORE POP POP POP JUMP JUMPDEST PUSH1 0x0 PUSH2 0x11CA PUSH2 0x11C5 DUP5 PUSH2 0x1177 JUMP JUMPDEST PUSH2 0x115C JUMP JUMPDEST SWAP1 POP DUP3 DUP2 MSTORE PUSH1 0x20 DUP2 ADD DUP5 DUP5 DUP5 ADD GT ISZERO PUSH2 0x11E6 JUMPI PUSH2 0x11E5 PUSH2 0x10F7 JUMP JUMPDEST JUMPDEST PUSH2 0x11F1 DUP5 DUP3 DUP6 PUSH2 0x11A8 JUMP JUMPDEST POP SWAP4 SWAP3 POP POP POP JUMP JUMPDEST PUSH1 0x0 DUP3 PUSH1 0x1F DUP4 ADD SLT PUSH2 0x120E JUMPI PUSH2 0x120D PUSH2 0x10F2 JUMP JUMPDEST JUMPDEST DUP2 CALLDATALOAD PUSH2 0x121E DUP5 DUP3 PUSH1 0x20 DUP7 ADD PUSH2 0x11B7 JUMP JUMPDEST SWAP2 POP POP SWAP3 SWAP2 POP POP JUMP JUMPDEST PUSH1 0x0 PUSH8 0xFFFFFFFFFFFFFFFF DUP3 GT ISZERO PUSH2 0x1242 JUMPI PUSH2 0x1241 PUSH2 0x10FC JUMP JUMPDEST JUMPDEST PUSH2 0x124B DUP3 PUSH2 0xCDC JUMP JUMPDEST SWAP1 POP PUSH1 0x20 DUP2 ADD SWAP1 POP SWAP2 SWAP1 POP JUMP JUMPDEST PUSH1 0x0 PUSH2 0x126B PUSH2 0x1266 DUP5 PUSH2 0x1227 JUMP JUMPDEST PUSH2 0x115C JUMP JUMPDEST SWAP1 POP DUP3 DUP2 MSTORE PUSH1 0x20 DUP2 ADD DUP5 DUP5 DUP5 ADD GT ISZERO PUSH2 0x1287 JUMPI PUSH2 0x1286 PUSH2 0x10F7 JUMP JUMPDEST JUMPDEST PUSH2 0x1292 DUP5 DUP3 DUP6 PUSH2 0x11A8 JUMP JUMPDEST POP SWAP4 SWAP3 POP POP POP JUMP JUMPDEST PUSH1 0x0 DUP3 PUSH1 0x1F DUP4 ADD SLT PUSH2 0x12AF JUMPI PUSH2 0x12AE PUSH2 0x10F2 JUMP JUMPDEST JUMPDEST DUP2 CALLDATALOAD PUSH2 0x12BF DUP5 DUP3 PUSH1 0x20 DUP7 ADD PUSH2 0x1258 JUMP JUMPDEST SWAP2 POP POP SWAP3 SWAP2 POP POP JUMP JUMPDEST PUSH1 0x0 DUP1 PUSH1 0x0 DUP1 PUSH1 0x80 DUP6 DUP8 SUB SLT ISZERO PUSH2 0x12E2 JUMPI PUSH2 0x12E1 PUSH2 0xBD7 JUMP JUMPDEST JUMPDEST PUSH1 0x0 PUSH2 0x12F0 DUP8 DUP3 DUP9 ADD PUSH2 0xC02 JUMP JUMPDEST SWAP5 POP POP PUSH1 0x20 DUP6 ADD CALLDATALOAD PUSH8 0xFFFFFFFFFFFFFFFF DUP2 GT ISZERO PUSH2 0x1311 JUMPI PUSH2 0x1310 PUSH2 0xBDC JUMP JUMPDEST JUMPDEST PUSH2 0x131D DUP8 DUP3 DUP9 ADD PUSH2 0x11F9 JUMP JUMPDEST SWAP4 POP POP PUSH1 0x40 DUP6 ADD CALLDATALOAD PUSH8 0xFFFFFFFFFFFFFFFF DUP2 GT ISZERO PUSH2 0x133E JUMPI PUSH2 0x133D PUSH2 0xBDC JUMP JUMPDEST JUMPDEST PUSH2 0x134A DUP8 DUP3 DUP9 ADD PUSH2 0x11F9 JUMP JUMPDEST SWAP3 POP POP PUSH1 0x60 DUP6 ADD CALLDATALOAD PUSH8 0xFFFFFFFFFFFFFFFF DUP2 GT ISZERO PUSH2 0x136B JUMPI PUSH2 0x136A PUSH2 0xBDC JUMP JUMPDEST JUMPDEST PUSH2 0x1377 DUP8 DUP3 DUP9 ADD PUSH2 0x129A JUMP JUMPDEST SWAP2 POP POP SWAP3 SWAP6 SWAP2 SWAP5 POP SWAP3 POP JUMP JUMPDEST PUSH32 0x4E487B7100000000000000000000000000000000000000000000000000000000 PUSH1 0x0 MSTORE PUSH1 0x22 PUSH1 0x4 MSTORE PUSH1 0x24 PUSH1 0x0 REVERT JUMPDEST PUSH1 0x0 PUSH1 0x2 DUP3 DIV SWAP1 POP PUSH1 0x1 DUP3 AND DUP1 PUSH2 0x13CA JUMPI PUSH1 0x7F DUP3 AND SWAP2 POP JUMPDEST PUSH1 0x20 DUP3 LT DUP2 EQ ISZERO PUSH2 0x13DE JUMPI PUSH2 0x13DD PUSH2 0x1383 JUMP JUMPDEST JUMPDEST POP SWAP2 SWAP1 POP JUMP JUMPDEST PUSH2 0x13ED DUP2 PUSH2 0xBE1 JUMP JUMPDEST DUP3 MSTORE POP POP JUMP JUMPDEST PUSH1 0x0 PUSH1 0x20 DUP3 ADD SWAP1 POP PUSH2 0x1408 PUSH1 0x0 DUP4 ADD DUP5 PUSH2 0x13E4 JUMP JUMPDEST SWAP3 SWAP2 POP POP JUMP JUMPDEST PUSH1 0x0 DUP2 ISZERO ISZERO SWAP1 POP SWAP2 SWAP1 POP JUMP JUMPDEST PUSH2 0x1423 DUP2 PUSH2 0x140E JUMP JUMPDEST DUP2 EQ PUSH2 0x142E JUMPI PUSH1 0x0 DUP1 REVERT JUMPDEST POP JUMP JUMPDEST PUSH1 0x0 DUP2 MLOAD SWAP1 POP PUSH2 0x1440 DUP2 PUSH2 0x141A JUMP JUMPDEST SWAP3 SWAP2 POP POP JUMP JUMPDEST PUSH1 0x0 PUSH1 0x20 DUP3 DUP5 SUB SLT ISZERO PUSH2 0x145C JUMPI PUSH2 0x145B PUSH2 0xBD7 JUMP JUMPDEST JUMPDEST PUSH1 0x0 PUSH2 0x146A DUP5 DUP3 DUP6 ADD PUSH2 0x1431 JUMP JUMPDEST SWAP2 POP POP SWAP3 SWAP2 POP POP JUMP JUMPDEST PUSH32 0x55736572206E6F74207265676973746572656420746F2073797374656D210000 PUSH1 0x0 DUP3 ADD MSTORE POP JUMP JUMPDEST PUSH1 0x0 PUSH2 0x14A9 PUSH1 0x1E DUP4 PUSH2 0xC98 JUMP JUMPDEST SWAP2 POP PUSH2 0x14B4 DUP3 PUSH2 0x1473 JUMP JUMPDEST PUSH1 0x20 DUP3 ADD SWAP1 POP SWAP2 SWAP1 POP JUMP JUMPDEST PUSH1 0x0 PUSH1 0x20 DUP3 ADD SWAP1 POP DUP2 DUP2 SUB PUSH1 0x0 DUP4 ADD MSTORE PUSH2 0x14D8 DUP2 PUSH2 0x149C JUMP JUMPDEST SWAP1 POP SWAP2 SWAP1 POP JUMP JUMPDEST PUSH32 0x4E487B7100000000000000000000000000000000000000000000000000000000 PUSH1 0x0 MSTORE PUSH1 0x32 PUSH1 0x4 MSTORE PUSH1 0x24 PUSH1 0x0 REVERT JUMPDEST PUSH32 0x4E487B7100000000000000000000000000000000000000000000000000000000 PUSH1 0x0 MSTORE PUSH1 0x11 PUSH1 0x4 MSTORE PUSH1 0x24 PUSH1 0x0 REVERT JUMPDEST PUSH1 0x0 PUSH2 0x1548 DUP3 PUSH2 0xC17 JUMP JUMPDEST SWAP2 POP PUSH32 0xFFFFFFFFFFFFFFFFFFFFFFFFFFFFFFFFFFFFFFFFFFFFFFFFFFFFFFFFFFFFFFFF DUP3 EQ ISZERO PUSH2 0x157B JUMPI PUSH2 0x157A PUSH2 0x150E JUMP JUMPDEST JUMPDEST PUSH1 0x1 DUP3 ADD SWAP1 POP SWAP2 SWAP1 POP JUMP JUMPDEST PUSH32 0x50617469656E742F6E65772D6F776E6572206E6F742072656769737465726564 PUSH1 0x0 DUP3 ADD MSTORE PUSH32 0x20746F2073797374656D21000000000000000000000000000000000000000000 PUSH1 0x20 DUP3 ADD MSTORE POP JUMP JUMPDEST PUSH1 0x0 PUSH2 0x15E2 PUSH1 0x2B DUP4 PUSH2 0xC98 JUMP JUMPDEST SWAP2 POP PUSH2 0x15ED DUP3 PUSH2 0x1586 JUMP JUMPDEST PUSH1 0x40 DUP3 ADD SWAP1 POP SWAP2 SWAP1 POP JUMP JUMPDEST PUSH1 0x0 PUSH1 0x20 DUP3 ADD SWAP1 POP DUP2 DUP2 SUB PUSH1 0x0 DUP4 ADD MSTORE PUSH2 0x1611 DUP2 PUSH2 0x15D5 JUMP JUMPDEST SWAP1 POP SWAP2 SWAP1 POP JUMP JUMPDEST PUSH1 0x0 PUSH2 0x1623 DUP3 PUSH2 0x1058 JUMP JUMPDEST SWAP1 POP SWAP2 SWAP1 POP JUMP JUMPDEST PUSH2 0x1633 DUP2 PUSH2 0x1618 JUMP JUMPDEST DUP2 EQ PUSH2 0x163E JUMPI PUSH1 0x0 DUP1 REVERT JUMPDEST POP JUMP JUMPDEST PUSH1 0x0 DUP2 MLOAD SWAP1 POP PUSH2 0x1650 DUP2 PUSH2 0x162A JUMP JUMPDEST SWAP3 SWAP2 POP POP JUMP JUMPDEST PUSH1 0x0 PUSH1 0x20 DUP3 DUP5 SUB SLT ISZERO PUSH2 0x166C JUMPI PUSH2 0x166B PUSH2 0xBD7 JUMP JUMPDEST JUMPDEST PUSH1 0x0 PUSH2 0x167A DUP5 DUP3 DUP6 ADD PUSH2 0x1641 JUMP JUMPDEST SWAP2 POP POP SWAP3 SWAP2 POP POP JUMP JUMPDEST PUSH32 0x4E6F74206F776E65722F756E617574686F72697A656400000000000000000000 PUSH1 0x0 DUP3 ADD MSTORE POP JUMP JUMPDEST PUSH1 0x0 PUSH2 0x16B9 PUSH1 0x16 DUP4 PUSH2 0xC98 JUMP JUMPDEST SWAP2 POP PUSH2 0x16C4 DUP3 PUSH2 0x1683 JUMP JUMPDEST PUSH1 0x20 DUP3 ADD SWAP1 POP SWAP2 SWAP1 POP JUMP JUMPDEST PUSH1 0x0 PUSH1 0x20 DUP3 ADD SWAP1 POP DUP2 DUP2 SUB PUSH1 0x0 DUP4 ADD MSTORE PUSH2 0x16E8 DUP2 PUSH2 0x16AC JUMP JUMPDEST SWAP1 POP SWAP2 SWAP1 POP JUMP JUMPDEST PUSH1 0x0 PUSH2 0x16FA DUP3 PUSH2 0xC17 JUMP JUMPDEST SWAP2 POP PUSH2 0x1705 DUP4 PUSH2 0xC17 JUMP JUMPDEST SWAP3 POP DUP3 DUP3 LT ISZERO PUSH2 0x1718 JUMPI PUSH2 0x1717 PUSH2 0x150E JUMP JUMPDEST JUMPDEST DUP3 DUP3 SUB SWAP1 POP SWAP3 SWAP2 POP POP JUMP JUMPDEST PUSH2 0x172C DUP2 PUSH2 0xC17 JUMP JUMPDEST DUP3 MSTORE POP POP JUMP JUMPDEST PUSH1 0x0 PUSH1 0x60 DUP3 ADD SWAP1 POP PUSH2 0x1747 PUSH1 0x0 DUP4 ADD DUP7 PUSH2 0x1723 JUMP JUMPDEST DUP2 DUP2 SUB PUSH1 0x20 DUP4 ADD MSTORE PUSH2 0x1759 DUP2 DUP6 PUSH2 0xCED JUMP JUMPDEST SWAP1 POP DUP2 DUP2 SUB PUSH1 0x40 DUP4 ADD MSTORE PUSH2 0x176D DUP2 DUP5 PUSH2 0xCED JUMP JUMPDEST SWAP1 POP SWAP5 SWAP4 POP POP POP POP JUMP INVALID LOG2 PUSH5 0x6970667358 0x22 SLT KECCAK256 0x5E 0xC1 SUB 0x5E 0xE5 0xC1 0xC2 RETURNDATASIZE SMOD SWAP16 TIMESTAMP 0xCD PUSH16 0xBF25D9C4EC35019CC9A8CE4E60FB8E68 0x4C SWAP5 SWAP1 PUSH5 0x736F6C6343 STOP ADDMOD EXP STOP CALLER "
    },
    "gasEstimates": {
      "creation": {
        "codeDepositCost": "1212200",
        "executionCost": "infinite",
        "totalCost": "infinite"
      },
      "external": {
        "Data(bytes32,uint256)": "infinite",
        "addEHRdata(bytes32,string,string,bytes)": "infinite",
        "registry()": "infinite",
        "searchData(bytes32)": "infinite"
      }
    },
    "methodIdentifiers": {
      "Data(bytes32,uint256)": "2cb73406",
      "addEHRdata(bytes32,string,string,bytes)": "ba0c93cb",
      "registry()": "7b103999",
      "searchData(bytes32)": "65375a04"
    }
  },
  "storageLayout": {
    "storage": [
      {
        "astId": 5,
        "contract": "metadata.sol:Metadata",
        "label": "registry",
        "offset": 0,
        "slot": "0",
        "type": "t_contract(Registry)408"
      },
      {
        "astId": 18,
        "contract": "metadata.sol:Metadata",
        "label": "Data",
        "offset": 0,
        "slot": "1",
        "type": "t_mapping(t_bytes32,t_array(t_struct(EHRData)12_storage)dyn_storage)"
      }
    ],
    "types": {
      "t_array(t_struct(EHRData)12_storage)dyn_storage": {
        "base": "t_struct(EHRData)12_storage",
        "encoding": "dynamic_array",
        "label": "struct Metadata.EHRData[]",
        "numberOfBytes": "32"
      },
      "t_bytes32": {
        "encoding": "inplace",
        "label": "bytes32",
        "numberOfBytes": "32"
      },
      "t_bytes_storage": {
        "encoding": "bytes",
        "label": "bytes",
        "numberOfBytes": "32"
      },
      "t_contract(Registry)408": {
        "encoding": "inplace",
        "label": "contract Registry",
        "numberOfBytes": "20"
      },
      "t_mapping(t_bytes32,t_array(t_struct(EHRData)12_storage)dyn_storage)": {
        "encoding": "mapping",
        "key": "t_bytes32",
        "label": "mapping(bytes32 => struct Metadata.EHRData[])",
        "numberOfBytes": "32",
        "value": "t_array(t_struct(EHRData)12_storage)dyn_storage"
      },
      "t_string_storage": {
        "encoding": "bytes",
        "label": "string",
        "numberOfBytes": "32"
      },
      "t_struct(EHRData)12_storage": {
        "encoding": "inplace",
        "label": "struct Metadata.EHRData",
        "members": [
          {
            "astId": 7,
            "contract": "metadata.sol:Metadata",
            "label": "dataType",
            "offset": 0,
            "slot": "0",
            "type": "t_string_storage"
          },
          {
            "astId": 9,
            "contract": "metadata.sol:Metadata",
            "label": "HI",
            "offset": 0,
            "slot": "1",
            "type": "t_string_storage"
          },
          {
            "astId": 11,
            "contract": "metadata.sol:Metadata",
            "label": "encKey",
            "offset": 0,
            "slot": "2",
            "type": "t_bytes_storage"
          }
        ],
        "numberOfBytes": "96"
      }
    }
  },
  "userdoc": {
    "kind": "user",
    "methods": {},
    "version": 1
  }
}