{
  "abi": [
    {
      "inputs": [
        {
          "internalType": "address",
          "name": "_registryAddress",
          "type": "address"
        },
        {
          "internalType": "address",
          "name": "_notificationManagerAddress",
          "type": "address"
        }
      ],
      "stateMutability": "nonpayable",
      "type": "constructor"
    },
    {
      "inputs": [
        {
          "internalType": "bytes32",
          "name": "",
          "type": "bytes32"
        },
        {
          "internalType": "uint256",
          "name": "",
          "type": "uint256"
        }
      ],
      "name": "Data",
      "outputs": [
        {
          "internalType": "enum Metadata.DataType",
          "name": "dataType",
          "type": "uint8"
        },
        {
          "internalType": "bytes32",
          "name": "HI",
          "type": "bytes32"
        },
        {
          "internalType": "bytes32",
          "name": "encKey",
          "type": "bytes32"
        }
      ],
      "stateMutability": "view",
      "type": "function"
    },
    {
      "inputs": [
        {
          "internalType": "bytes32",
          "name": "ownerKey",
          "type": "bytes32"
        },
        {
          "internalType": "enum Metadata.DataType",
          "name": "dataType",
          "type": "uint8"
        },
        {
          "internalType": "bytes32",
          "name": "HI",
          "type": "bytes32"
        },
        {
          "internalType": "bytes32",
          "name": "encKey",
          "type": "bytes32"
        }
      ],
      "name": "addEHRdata",
      "outputs": [],
      "stateMutability": "nonpayable",
      "type": "function"
    },
    {
      "inputs": [],
      "name": "notificationManager",
      "outputs": [
        {
          "internalType": "contract NotificationManager",
          "name": "",
          "type": "address"
        }
      ],
      "stateMutability": "view",
      "type": "function"
    },
    {
      "inputs": [],
      "name": "registry",
      "outputs": [
        {
          "internalType": "contract Registry",
          "name": "",
          "type": "address"
        }
      ],
      "stateMutability": "view",
      "type": "function"
    },
    {
      "inputs": [
        {
          "internalType": "bytes32",
          "name": "userKey",
          "type": "bytes32"
        }
      ],
      "name": "searchData",
      "outputs": [
        {
          "components": [
            {
              "internalType": "enum Metadata.DataType",
              "name": "dataType",
              "type": "uint8"
            },
            {
              "internalType": "bytes32",
              "name": "HI",
              "type": "bytes32"
            },
            {
              "internalType": "bytes32",
              "name": "encKey",
              "type": "bytes32"
            }
          ],
          "internalType": "struct Metadata.EHRData[]",
          "name": "",
          "type": "tuple[]"
        }
      ],
      "stateMutability": "view",
      "type": "function"
    }
  ],
  "devdoc": {
    "kind": "dev",
    "methods": {},
    "version": 1
  },
  "evm": {
    "assembly": "    /* \"metadata.sol\":125:1330  contract Metadata {... */\n  mstore(0x40, 0x80)\n    /* \"metadata.sol\":504:741  constructor(... */\n  callvalue\n  dup1\n  iszero\n  tag_1\n  jumpi\n  0x00\n  dup1\n  revert\ntag_1:\n  pop\n  mload(0x40)\n  sub(codesize, bytecodeSize)\n  dup1\n  bytecodeSize\n  dup4\n  codecopy\n  dup2\n  dup2\n  add\n  0x40\n  mstore\n  dup2\n  add\n  swap1\n  tag_2\n  swap2\n  swap1\n  tag_3\n  jump\t// in\ntag_2:\n    /* \"metadata.sol\":635:651  _registryAddress */\n  dup2\n    /* \"metadata.sol\":615:623  registry */\n  0x00\n  dup1\n    /* \"metadata.sol\":615:652  registry = Registry(_registryAddress) */\n  0x0100\n  exp\n  dup2\n  sload\n  dup2\n  0xffffffffffffffffffffffffffffffffffffffff\n  mul\n  not\n  and\n  swap1\n  dup4\n  0xffffffffffffffffffffffffffffffffffffffff\n  and\n  mul\n  or\n  swap1\n  sstore\n  pop\n    /* \"metadata.sol\":705:732  _notificationManagerAddress */\n  dup1\n    /* \"metadata.sol\":663:682  notificationManager */\n  0x01\n  0x00\n    /* \"metadata.sol\":663:733  notificationManager = NotificationManager(_notificationManagerAddress) */\n  0x0100\n  exp\n  dup2\n  sload\n  dup2\n  0xffffffffffffffffffffffffffffffffffffffff\n  mul\n  not\n  and\n  swap1\n  dup4\n  0xffffffffffffffffffffffffffffffffffffffff\n  and\n  mul\n  or\n  swap1\n  sstore\n  pop\n    /* \"metadata.sol\":504:741  constructor(... */\n  pop\n  pop\n    /* \"metadata.sol\":125:1330  contract Metadata {... */\n  jump(tag_6)\n    /* \"#utility.yul\":88:205   */\ntag_8:\n    /* \"#utility.yul\":197:198   */\n  0x00\n    /* \"#utility.yul\":194:195   */\n  dup1\n    /* \"#utility.yul\":187:199   */\n  revert\n    /* \"#utility.yul\":334:460   */\ntag_10:\n    /* \"#utility.yul\":371:378   */\n  0x00\n    /* \"#utility.yul\":411:453   */\n  0xffffffffffffffffffffffffffffffffffffffff\n    /* \"#utility.yul\":404:409   */\n  dup3\n    /* \"#utility.yul\":400:454   */\n  and\n    /* \"#utility.yul\":389:454   */\n  swap1\n  pop\n    /* \"#utility.yul\":334:460   */\n  swap2\n  swap1\n  pop\n  jump\t// out\n    /* \"#utility.yul\":466:562   */\ntag_11:\n    /* \"#utility.yul\":503:510   */\n  0x00\n    /* \"#utility.yul\":532:556   */\n  tag_20\n    /* \"#utility.yul\":550:555   */\n  dup3\n    /* \"#utility.yul\":532:556   */\n  tag_10\n  jump\t// in\ntag_20:\n    /* \"#utility.yul\":521:556   */\n  swap1\n  pop\n    /* \"#utility.yul\":466:562   */\n  swap2\n  swap1\n  pop\n  jump\t// out\n    /* \"#utility.yul\":568:690   */\ntag_12:\n    /* \"#utility.yul\":641:665   */\n  tag_22\n    /* \"#utility.yul\":659:664   */\n  dup2\n    /* \"#utility.yul\":641:665   */\n  tag_11\n  jump\t// in\ntag_22:\n    /* \"#utility.yul\":634:639   */\n  dup2\n    /* \"#utility.yul\":631:666   */\n  eq\n    /* \"#utility.yul\":621:684   */\n  tag_23\n  jumpi\n    /* \"#utility.yul\":680:681   */\n  0x00\n    /* \"#utility.yul\":677:678   */\n  dup1\n    /* \"#utility.yul\":670:682   */\n  revert\n    /* \"#utility.yul\":621:684   */\ntag_23:\n    /* \"#utility.yul\":568:690   */\n  pop\n  jump\t// out\n    /* \"#utility.yul\":696:839   */\ntag_13:\n    /* \"#utility.yul\":753:758   */\n  0x00\n    /* \"#utility.yul\":784:790   */\n  dup2\n    /* \"#utility.yul\":778:791   */\n  mload\n    /* \"#utility.yul\":769:791   */\n  swap1\n  pop\n    /* \"#utility.yul\":800:833   */\n  tag_25\n    /* \"#utility.yul\":827:832   */\n  dup2\n    /* \"#utility.yul\":800:833   */\n  tag_12\n  jump\t// in\ntag_25:\n    /* \"#utility.yul\":696:839   */\n  swap3\n  swap2\n  pop\n  pop\n  jump\t// out\n    /* \"#utility.yul\":845:1352   */\ntag_3:\n    /* \"#utility.yul\":924:930   */\n  0x00\n    /* \"#utility.yul\":932:938   */\n  dup1\n    /* \"#utility.yul\":981:983   */\n  0x40\n    /* \"#utility.yul\":969:978   */\n  dup4\n    /* \"#utility.yul\":960:967   */\n  dup6\n    /* \"#utility.yul\":956:979   */\n  sub\n    /* \"#utility.yul\":952:984   */\n  slt\n    /* \"#utility.yul\":949:1068   */\n  iszero\n  tag_27\n  jumpi\n    /* \"#utility.yul\":987:1066   */\n  tag_28\n  tag_8\n  jump\t// in\ntag_28:\n    /* \"#utility.yul\":949:1068   */\ntag_27:\n    /* \"#utility.yul\":1107:1108   */\n  0x00\n    /* \"#utility.yul\":1132:1196   */\n  tag_29\n    /* \"#utility.yul\":1188:1195   */\n  dup6\n    /* \"#utility.yul\":1179:1185   */\n  dup3\n    /* \"#utility.yul\":1168:1177   */\n  dup7\n    /* \"#utility.yul\":1164:1186   */\n  add\n    /* \"#utility.yul\":1132:1196   */\n  tag_13\n  jump\t// in\ntag_29:\n    /* \"#utility.yul\":1122:1196   */\n  swap3\n  pop\n    /* \"#utility.yul\":1078:1206   */\n  pop\n    /* \"#utility.yul\":1245:1247   */\n  0x20\n    /* \"#utility.yul\":1271:1335   */\n  tag_30\n    /* \"#utility.yul\":1327:1334   */\n  dup6\n    /* \"#utility.yul\":1318:1324   */\n  dup3\n    /* \"#utility.yul\":1307:1316   */\n  dup7\n    /* \"#utility.yul\":1303:1325   */\n  add\n    /* \"#utility.yul\":1271:1335   */\n  tag_13\n  jump\t// in\ntag_30:\n    /* \"#utility.yul\":1261:1335   */\n  swap2\n  pop\n    /* \"#utility.yul\":1216:1345   */\n  pop\n    /* \"#utility.yul\":845:1352   */\n  swap3\n  pop\n  swap3\n  swap1\n  pop\n  jump\t// out\n    /* \"metadata.sol\":125:1330  contract Metadata {... */\ntag_6:\n  dataSize(sub_0)\n  dup1\n  dataOffset(sub_0)\n  0x00\n  codecopy\n  0x00\n  return\nstop\n\nsub_0: assembly {\n        /* \"metadata.sol\":125:1330  contract Metadata {... */\n      mstore(0x40, 0x80)\n      callvalue\n      dup1\n      iszero\n      tag_1\n      jumpi\n      0x00\n      dup1\n      revert\n    tag_1:\n      pop\n      jumpi(tag_2, lt(calldatasize, 0x04))\n      shr(0xe0, calldataload(0x00))\n      dup1\n      0x1d755579\n      eq\n      tag_3\n      jumpi\n      dup1\n      0x2cb73406\n      eq\n      tag_4\n      jumpi\n      dup1\n      0x65375a04\n      eq\n      tag_5\n      jumpi\n      dup1\n      0x7b103999\n      eq\n      tag_6\n      jumpi\n      dup1\n      0xd18f403d\n      eq\n      tag_7\n      jumpi\n    tag_2:\n      0x00\n      dup1\n      revert\n        /* \"metadata.sol\":181:227  NotificationManager public notificationManager */\n    tag_3:\n      tag_8\n      tag_9\n      jump\t// in\n    tag_8:\n      mload(0x40)\n      tag_10\n      swap2\n      swap1\n      tag_11\n      jump\t// in\n    tag_10:\n      mload(0x40)\n      dup1\n      swap2\n      sub\n      swap1\n      return\n        /* \"metadata.sol\":454:495  mapping(bytes32 => EHRData[]) public Data */\n    tag_4:\n      tag_12\n      0x04\n      dup1\n      calldatasize\n      sub\n      dup2\n      add\n      swap1\n      tag_13\n      swap2\n      swap1\n      tag_14\n      jump\t// in\n    tag_13:\n      tag_15\n      jump\t// in\n    tag_12:\n      mload(0x40)\n      tag_16\n      swap4\n      swap3\n      swap2\n      swap1\n      tag_17\n      jump\t// in\n    tag_16:\n      mload(0x40)\n      dup1\n      swap2\n      sub\n      swap1\n      return\n        /* \"metadata.sol\":1131:1327  function searchData(bytes32 userKey) public view returns (EHRData[] memory) {... */\n    tag_5:\n      tag_18\n      0x04\n      dup1\n      calldatasize\n      sub\n      dup2\n      add\n      swap1\n      tag_19\n      swap2\n      swap1\n      tag_20\n      jump\t// in\n    tag_19:\n      tag_21\n      jump\t// in\n    tag_18:\n      mload(0x40)\n      tag_22\n      swap2\n      swap1\n      tag_23\n      jump\t// in\n    tag_22:\n      mload(0x40)\n      dup1\n      swap2\n      sub\n      swap1\n      return\n        /* \"metadata.sol\":150:174  Registry public registry */\n    tag_6:\n      tag_24\n      tag_25\n      jump\t// in\n    tag_24:\n      mload(0x40)\n      tag_26\n      swap2\n      swap1\n      tag_27\n      jump\t// in\n    tag_26:\n      mload(0x40)\n      dup1\n      swap2\n      sub\n      swap1\n      return\n        /* \"metadata.sol\":749:1123  function addEHRdata(... */\n    tag_7:\n      tag_28\n      0x04\n      dup1\n      calldatasize\n      sub\n      dup2\n      add\n      swap1\n      tag_29\n      swap2\n      swap1\n      tag_30\n      jump\t// in\n    tag_29:\n      tag_31\n      jump\t// in\n    tag_28:\n      stop\n        /* \"metadata.sol\":181:227  NotificationManager public notificationManager */\n    tag_9:\n      0x01\n      0x00\n      swap1\n      sload\n      swap1\n      0x0100\n      exp\n      swap1\n      div\n      0xffffffffffffffffffffffffffffffffffffffff\n      and\n      dup2\n      jump\t// out\n        /* \"metadata.sol\":454:495  mapping(bytes32 => EHRData[]) public Data */\n    tag_15:\n      mstore(0x20, 0x02)\n      dup2\n      0x00\n      mstore\n      keccak256(0x00, 0x40)\n      dup2\n      dup2\n      sload\n      dup2\n      lt\n      tag_32\n      jumpi\n      0x00\n      dup1\n      revert\n    tag_32:\n      swap1\n      0x00\n      mstore\n      keccak256(0x00, 0x20)\n      swap1\n      0x03\n      mul\n      add\n      0x00\n      swap2\n      pop\n      swap2\n      pop\n      pop\n      dup1\n      0x00\n      add\n      0x00\n      swap1\n      sload\n      swap1\n      0x0100\n      exp\n      swap1\n      div\n      0xff\n      and\n      swap1\n      dup1\n      0x01\n      add\n      sload\n      swap1\n      dup1\n      0x02\n      add\n      sload\n      swap1\n      pop\n      dup4\n      jump\t// out\n        /* \"metadata.sol\":1131:1327  function searchData(bytes32 userKey) public view returns (EHRData[] memory) {... */\n    tag_21:\n        /* \"metadata.sol\":1189:1205  EHRData[] memory */\n      0x60\n        /* \"metadata.sol\":1226:1234  registry */\n      0x00\n      dup1\n      sload\n      swap1\n      0x0100\n      exp\n      swap1\n      div\n      0xffffffffffffffffffffffffffffffffffffffff\n      and\n        /* \"metadata.sol\":1226:1244  registry.checkUser */\n      0xffffffffffffffffffffffffffffffffffffffff\n      and\n      0x0b2551c2\n        /* \"metadata.sol\":1245:1252  userKey */\n      dup4\n        /* \"metadata.sol\":1226:1253  registry.checkUser(userKey) */\n      mload(0x40)\n      dup3\n      0xffffffff\n      and\n      0xe0\n      shl\n      dup2\n      mstore\n      0x04\n      add\n      tag_35\n      swap2\n      swap1\n      tag_36\n      jump\t// in\n    tag_35:\n      0x20\n      mload(0x40)\n      dup1\n      dup4\n      sub\n      dup2\n      dup7\n      gas\n      staticcall\n      iszero\n      dup1\n      iszero\n      tag_38\n      jumpi\n      returndatasize\n      0x00\n      dup1\n      returndatacopy\n      revert(0x00, returndatasize)\n    tag_38:\n      pop\n      pop\n      pop\n      pop\n      mload(0x40)\n      returndatasize\n      not(0x1f)\n      0x1f\n      dup3\n      add\n      and\n      dup3\n      add\n      dup1\n      0x40\n      mstore\n      pop\n      dup2\n      add\n      swap1\n      tag_39\n      swap2\n      swap1\n      tag_40\n      jump\t// in\n    tag_39:\n        /* \"metadata.sol\":1218:1288  require(registry.checkUser(userKey), \"User not registered to system!\") */\n      tag_41\n      jumpi\n      mload(0x40)\n      0x08c379a000000000000000000000000000000000000000000000000000000000\n      dup2\n      mstore\n      0x04\n      add\n      tag_42\n      swap1\n      tag_43\n      jump\t// in\n    tag_42:\n      mload(0x40)\n      dup1\n      swap2\n      sub\n      swap1\n      revert\n    tag_41:\n        /* \"metadata.sol\":1306:1310  Data */\n      0x02\n        /* \"metadata.sol\":1306:1319  Data[userKey] */\n      0x00\n        /* \"metadata.sol\":1311:1318  userKey */\n      dup4\n        /* \"metadata.sol\":1306:1319  Data[userKey] */\n      dup2\n      mstore\n      0x20\n      add\n      swap1\n      dup2\n      mstore\n      0x20\n      add\n      0x00\n      keccak256\n        /* \"metadata.sol\":1299:1319  return Data[userKey] */\n      dup1\n      sload\n      dup1\n      0x20\n      mul\n      0x20\n      add\n      mload(0x40)\n      swap1\n      dup2\n      add\n      0x40\n      mstore\n      dup1\n      swap3\n      swap2\n      swap1\n      dup2\n      dup2\n      mstore\n      0x20\n      add\n      0x00\n      swap1\n    tag_44:\n      dup3\n      dup3\n      lt\n      iszero\n      tag_45\n      jumpi\n      dup4\n      dup3\n      swap1\n      0x00\n      mstore\n      keccak256(0x00, 0x20)\n      swap1\n      0x03\n      mul\n      add\n      mload(0x40)\n      dup1\n      0x60\n      add\n      0x40\n      mstore\n      swap1\n      dup2\n      0x00\n      dup3\n      add\n      0x00\n      swap1\n      sload\n      swap1\n      0x0100\n      exp\n      swap1\n      div\n      0xff\n      and\n      0x05\n      dup2\n      gt\n      iszero\n      tag_47\n      jumpi\n      tag_48\n      tag_49\n      jump\t// in\n    tag_48:\n    tag_47:\n      0x05\n      dup2\n      gt\n      iszero\n      tag_50\n      jumpi\n      tag_51\n      tag_49\n      jump\t// in\n    tag_51:\n    tag_50:\n      dup2\n      mstore\n      0x20\n      add\n      0x01\n      dup3\n      add\n      sload\n      dup2\n      mstore\n      0x20\n      add\n      0x02\n      dup3\n      add\n      sload\n      dup2\n      mstore\n      pop\n      pop\n      dup2\n      mstore\n      0x20\n      add\n      swap1\n      0x01\n      add\n      swap1\n      jump(tag_44)\n    tag_45:\n      pop\n      pop\n      pop\n      pop\n      swap1\n      pop\n        /* \"metadata.sol\":1131:1327  function searchData(bytes32 userKey) public view returns (EHRData[] memory) {... */\n      swap2\n      swap1\n      pop\n      jump\t// out\n        /* \"metadata.sol\":150:174  Registry public registry */\n    tag_25:\n      0x00\n      dup1\n      sload\n      swap1\n      0x0100\n      exp\n      swap1\n      div\n      0xffffffffffffffffffffffffffffffffffffffff\n      and\n      dup2\n      jump\t// out\n        /* \"metadata.sol\":749:1123  function addEHRdata(... */\n    tag_31:\n        /* \"metadata.sol\":903:911  registry */\n      0x00\n      dup1\n      sload\n      swap1\n      0x0100\n      exp\n      swap1\n      div\n      0xffffffffffffffffffffffffffffffffffffffff\n      and\n        /* \"metadata.sol\":903:921  registry.checkUser */\n      0xffffffffffffffffffffffffffffffffffffffff\n      and\n      0x0b2551c2\n        /* \"metadata.sol\":922:930  ownerKey */\n      dup6\n        /* \"metadata.sol\":903:931  registry.checkUser(ownerKey) */\n      mload(0x40)\n      dup3\n      0xffffffff\n      and\n      0xe0\n      shl\n      dup2\n      mstore\n      0x04\n      add\n      tag_53\n      swap2\n      swap1\n      tag_36\n      jump\t// in\n    tag_53:\n      0x20\n      mload(0x40)\n      dup1\n      dup4\n      sub\n      dup2\n      dup7\n      gas\n      staticcall\n      iszero\n      dup1\n      iszero\n      tag_55\n      jumpi\n      returndatasize\n      0x00\n      dup1\n      returndatacopy\n      revert(0x00, returndatasize)\n    tag_55:\n      pop\n      pop\n      pop\n      pop\n      mload(0x40)\n      returndatasize\n      not(0x1f)\n      0x1f\n      dup3\n      add\n      and\n      dup3\n      add\n      dup1\n      0x40\n      mstore\n      pop\n      dup2\n      add\n      swap1\n      tag_56\n      swap2\n      swap1\n      tag_40\n      jump\t// in\n    tag_56:\n        /* \"metadata.sol\":895:979  require(registry.checkUser(ownerKey), \"Patient/new-owner not registered to system!\") */\n      tag_57\n      jumpi\n      mload(0x40)\n      0x08c379a000000000000000000000000000000000000000000000000000000000\n      dup2\n      mstore\n      0x04\n      add\n      tag_58\n      swap1\n      tag_59\n      jump\t// in\n    tag_58:\n      mload(0x40)\n      dup1\n      swap2\n      sub\n      swap1\n      revert\n    tag_57:\n        /* \"metadata.sol\":990:994  Data */\n      0x02\n        /* \"metadata.sol\":990:1004  Data[ownerKey] */\n      0x00\n        /* \"metadata.sol\":995:1003  ownerKey */\n      dup6\n        /* \"metadata.sol\":990:1004  Data[ownerKey] */\n      dup2\n      mstore\n      0x20\n      add\n      swap1\n      dup2\n      mstore\n      0x20\n      add\n      0x00\n      keccak256\n        /* \"metadata.sol\":1010:1039  EHRData(dataType, HI, encKey) */\n      mload(0x40)\n      dup1\n      0x60\n      add\n      0x40\n      mstore\n      dup1\n        /* \"metadata.sol\":1018:1026  dataType */\n      dup6\n        /* \"metadata.sol\":1010:1039  EHRData(dataType, HI, encKey) */\n      0x05\n      dup2\n      gt\n      iszero\n      tag_60\n      jumpi\n      tag_61\n      tag_49\n      jump\t// in\n    tag_61:\n    tag_60:\n      dup2\n      mstore\n      0x20\n      add\n        /* \"metadata.sol\":1028:1030  HI */\n      dup5\n        /* \"metadata.sol\":1010:1039  EHRData(dataType, HI, encKey) */\n      dup2\n      mstore\n      0x20\n      add\n        /* \"metadata.sol\":1032:1038  encKey */\n      dup4\n        /* \"metadata.sol\":1010:1039  EHRData(dataType, HI, encKey) */\n      dup2\n      mstore\n      pop\n        /* \"metadata.sol\":990:1040  Data[ownerKey].push(EHRData(dataType, HI, encKey)) */\n      swap1\n      dup1\n      0x01\n      dup2\n      sload\n      add\n      dup1\n      dup3\n      sstore\n      dup1\n      swap2\n      pop\n      pop\n      0x01\n      swap1\n      sub\n      swap1\n      0x00\n      mstore\n      keccak256(0x00, 0x20)\n      swap1\n      0x03\n      mul\n      add\n      0x00\n      swap1\n      swap2\n      swap1\n      swap2\n      swap1\n      swap2\n      pop\n      0x00\n      dup3\n      add\n      mload\n      dup2\n      0x00\n      add\n      exp(0x0100, 0x00)\n      dup2\n      sload\n      dup2\n      0xff\n      mul\n      not\n      and\n      swap1\n      dup4\n      0x05\n      dup2\n      gt\n      iszero\n      tag_63\n      jumpi\n      tag_64\n      tag_49\n      jump\t// in\n    tag_64:\n    tag_63:\n      mul\n      or\n      swap1\n      sstore\n      pop\n      0x20\n      dup3\n      add\n      mload\n      dup2\n      0x01\n      add\n      sstore\n      0x40\n      dup3\n      add\n      mload\n      dup2\n      0x02\n      add\n      sstore\n      pop\n      pop\n        /* \"metadata.sol\":1051:1070  notificationManager */\n      0x01\n      0x00\n      swap1\n      sload\n      swap1\n      0x0100\n      exp\n      swap1\n      div\n      0xffffffffffffffffffffffffffffffffffffffff\n      and\n        /* \"metadata.sol\":1051:1086  notificationManager.addNotification */\n      0xffffffffffffffffffffffffffffffffffffffff\n      and\n      0xa2cf0c56\n        /* \"metadata.sol\":1087:1095  ownerKey */\n      dup6\n        /* \"metadata.sol\":1051:1115  notificationManager.addNotification(ownerKey, \"New data added.\") */\n      mload(0x40)\n      dup3\n      0xffffffff\n      and\n      0xe0\n      shl\n      dup2\n      mstore\n      0x04\n      add\n      tag_65\n      swap2\n      swap1\n      tag_66\n      jump\t// in\n    tag_65:\n      0x00\n      mload(0x40)\n      dup1\n      dup4\n      sub\n      dup2\n      0x00\n      dup8\n      dup1\n      extcodesize\n      iszero\n      dup1\n      iszero\n      tag_67\n      jumpi\n      0x00\n      dup1\n      revert\n    tag_67:\n      pop\n      gas\n      call\n      iszero\n      dup1\n      iszero\n      tag_69\n      jumpi\n      returndatasize\n      0x00\n      dup1\n      returndatacopy\n      revert(0x00, returndatasize)\n    tag_69:\n      pop\n      pop\n      pop\n      pop\n        /* \"metadata.sol\":749:1123  function addEHRdata(... */\n      pop\n      pop\n      pop\n      pop\n      jump\t// out\n        /* \"#utility.yul\":7:133   */\n    tag_70:\n        /* \"#utility.yul\":44:51   */\n      0x00\n        /* \"#utility.yul\":84:126   */\n      0xffffffffffffffffffffffffffffffffffffffff\n        /* \"#utility.yul\":77:82   */\n      dup3\n        /* \"#utility.yul\":73:127   */\n      and\n        /* \"#utility.yul\":62:127   */\n      swap1\n      pop\n        /* \"#utility.yul\":7:133   */\n      swap2\n      swap1\n      pop\n      jump\t// out\n        /* \"#utility.yul\":139:199   */\n    tag_71:\n        /* \"#utility.yul\":167:170   */\n      0x00\n        /* \"#utility.yul\":188:193   */\n      dup2\n        /* \"#utility.yul\":181:193   */\n      swap1\n      pop\n        /* \"#utility.yul\":139:199   */\n      swap2\n      swap1\n      pop\n      jump\t// out\n        /* \"#utility.yul\":205:347   */\n    tag_72:\n        /* \"#utility.yul\":255:264   */\n      0x00\n        /* \"#utility.yul\":288:341   */\n      tag_117\n        /* \"#utility.yul\":306:340   */\n      tag_118\n        /* \"#utility.yul\":315:339   */\n      tag_119\n        /* \"#utility.yul\":333:338   */\n      dup5\n        /* \"#utility.yul\":315:339   */\n      tag_70\n      jump\t// in\n    tag_119:\n        /* \"#utility.yul\":306:340   */\n      tag_71\n      jump\t// in\n    tag_118:\n        /* \"#utility.yul\":288:341   */\n      tag_70\n      jump\t// in\n    tag_117:\n        /* \"#utility.yul\":275:341   */\n      swap1\n      pop\n        /* \"#utility.yul\":205:347   */\n      swap2\n      swap1\n      pop\n      jump\t// out\n        /* \"#utility.yul\":353:479   */\n    tag_73:\n        /* \"#utility.yul\":403:412   */\n      0x00\n        /* \"#utility.yul\":436:473   */\n      tag_121\n        /* \"#utility.yul\":467:472   */\n      dup3\n        /* \"#utility.yul\":436:473   */\n      tag_72\n      jump\t// in\n    tag_121:\n        /* \"#utility.yul\":423:473   */\n      swap1\n      pop\n        /* \"#utility.yul\":353:479   */\n      swap2\n      swap1\n      pop\n      jump\t// out\n        /* \"#utility.yul\":485:637   */\n    tag_74:\n        /* \"#utility.yul\":561:570   */\n      0x00\n        /* \"#utility.yul\":594:631   */\n      tag_123\n        /* \"#utility.yul\":625:630   */\n      dup3\n        /* \"#utility.yul\":594:631   */\n      tag_73\n      jump\t// in\n    tag_123:\n        /* \"#utility.yul\":581:631   */\n      swap1\n      pop\n        /* \"#utility.yul\":485:637   */\n      swap2\n      swap1\n      pop\n      jump\t// out\n        /* \"#utility.yul\":643:826   */\n    tag_75:\n        /* \"#utility.yul\":756:819   */\n      tag_125\n        /* \"#utility.yul\":813:818   */\n      dup2\n        /* \"#utility.yul\":756:819   */\n      tag_74\n      jump\t// in\n    tag_125:\n        /* \"#utility.yul\":751:754   */\n      dup3\n        /* \"#utility.yul\":744:820   */\n      mstore\n        /* \"#utility.yul\":643:826   */\n      pop\n      pop\n      jump\t// out\n        /* \"#utility.yul\":832:1106   */\n    tag_11:\n        /* \"#utility.yul\":951:955   */\n      0x00\n        /* \"#utility.yul\":989:991   */\n      0x20\n        /* \"#utility.yul\":978:987   */\n      dup3\n        /* \"#utility.yul\":974:992   */\n      add\n        /* \"#utility.yul\":966:992   */\n      swap1\n      pop\n        /* \"#utility.yul\":1002:1099   */\n      tag_127\n        /* \"#utility.yul\":1096:1097   */\n      0x00\n        /* \"#utility.yul\":1085:1094   */\n      dup4\n        /* \"#utility.yul\":1081:1098   */\n      add\n        /* \"#utility.yul\":1072:1078   */\n      dup5\n        /* \"#utility.yul\":1002:1099   */\n      tag_75\n      jump\t// in\n    tag_127:\n        /* \"#utility.yul\":832:1106   */\n      swap3\n      swap2\n      pop\n      pop\n      jump\t// out\n        /* \"#utility.yul\":1193:1310   */\n    tag_77:\n        /* \"#utility.yul\":1302:1303   */\n      0x00\n        /* \"#utility.yul\":1299:1300   */\n      dup1\n        /* \"#utility.yul\":1292:1304   */\n      revert\n        /* \"#utility.yul\":1439:1516   */\n    tag_79:\n        /* \"#utility.yul\":1476:1483   */\n      0x00\n        /* \"#utility.yul\":1505:1510   */\n      dup2\n        /* \"#utility.yul\":1494:1510   */\n      swap1\n      pop\n        /* \"#utility.yul\":1439:1516   */\n      swap2\n      swap1\n      pop\n      jump\t// out\n        /* \"#utility.yul\":1522:1644   */\n    tag_80:\n        /* \"#utility.yul\":1595:1619   */\n      tag_133\n        /* \"#utility.yul\":1613:1618   */\n      dup2\n        /* \"#utility.yul\":1595:1619   */\n      tag_79\n      jump\t// in\n    tag_133:\n        /* \"#utility.yul\":1588:1593   */\n      dup2\n        /* \"#utility.yul\":1585:1620   */\n      eq\n        /* \"#utility.yul\":1575:1638   */\n      tag_134\n      jumpi\n        /* \"#utility.yul\":1634:1635   */\n      0x00\n        /* \"#utility.yul\":1631:1632   */\n      dup1\n        /* \"#utility.yul\":1624:1636   */\n      revert\n        /* \"#utility.yul\":1575:1638   */\n    tag_134:\n        /* \"#utility.yul\":1522:1644   */\n      pop\n      jump\t// out\n        /* \"#utility.yul\":1650:1789   */\n    tag_81:\n        /* \"#utility.yul\":1696:1701   */\n      0x00\n        /* \"#utility.yul\":1734:1740   */\n      dup2\n        /* \"#utility.yul\":1721:1741   */\n      calldataload\n        /* \"#utility.yul\":1712:1741   */\n      swap1\n      pop\n        /* \"#utility.yul\":1750:1783   */\n      tag_136\n        /* \"#utility.yul\":1777:1782   */\n      dup2\n        /* \"#utility.yul\":1750:1783   */\n      tag_80\n      jump\t// in\n    tag_136:\n        /* \"#utility.yul\":1650:1789   */\n      swap3\n      swap2\n      pop\n      pop\n      jump\t// out\n        /* \"#utility.yul\":1795:1872   */\n    tag_82:\n        /* \"#utility.yul\":1832:1839   */\n      0x00\n        /* \"#utility.yul\":1861:1866   */\n      dup2\n        /* \"#utility.yul\":1850:1866   */\n      swap1\n      pop\n        /* \"#utility.yul\":1795:1872   */\n      swap2\n      swap1\n      pop\n      jump\t// out\n        /* \"#utility.yul\":1878:2000   */\n    tag_83:\n        /* \"#utility.yul\":1951:1975   */\n      tag_139\n        /* \"#utility.yul\":1969:1974   */\n      dup2\n        /* \"#utility.yul\":1951:1975   */\n      tag_82\n      jump\t// in\n    tag_139:\n        /* \"#utility.yul\":1944:1949   */\n      dup2\n        /* \"#utility.yul\":1941:1976   */\n      eq\n        /* \"#utility.yul\":1931:1994   */\n      tag_140\n      jumpi\n        /* \"#utility.yul\":1990:1991   */\n      0x00\n        /* \"#utility.yul\":1987:1988   */\n      dup1\n        /* \"#utility.yul\":1980:1992   */\n      revert\n        /* \"#utility.yul\":1931:1994   */\n    tag_140:\n        /* \"#utility.yul\":1878:2000   */\n      pop\n      jump\t// out\n        /* \"#utility.yul\":2006:2145   */\n    tag_84:\n        /* \"#utility.yul\":2052:2057   */\n      0x00\n        /* \"#utility.yul\":2090:2096   */\n      dup2\n        /* \"#utility.yul\":2077:2097   */\n      calldataload\n        /* \"#utility.yul\":2068:2097   */\n      swap1\n      pop\n        /* \"#utility.yul\":2106:2139   */\n      tag_142\n        /* \"#utility.yul\":2133:2138   */\n      dup2\n        /* \"#utility.yul\":2106:2139   */\n      tag_83\n      jump\t// in\n    tag_142:\n        /* \"#utility.yul\":2006:2145   */\n      swap3\n      swap2\n      pop\n      pop\n      jump\t// out\n        /* \"#utility.yul\":2151:2625   */\n    tag_14:\n        /* \"#utility.yul\":2219:2225   */\n      0x00\n        /* \"#utility.yul\":2227:2233   */\n      dup1\n        /* \"#utility.yul\":2276:2278   */\n      0x40\n        /* \"#utility.yul\":2264:2273   */\n      dup4\n        /* \"#utility.yul\":2255:2262   */\n      dup6\n        /* \"#utility.yul\":2251:2274   */\n      sub\n        /* \"#utility.yul\":2247:2279   */\n      slt\n        /* \"#utility.yul\":2244:2363   */\n      iszero\n      tag_144\n      jumpi\n        /* \"#utility.yul\":2282:2361   */\n      tag_145\n      tag_77\n      jump\t// in\n    tag_145:\n        /* \"#utility.yul\":2244:2363   */\n    tag_144:\n        /* \"#utility.yul\":2402:2403   */\n      0x00\n        /* \"#utility.yul\":2427:2480   */\n      tag_146\n        /* \"#utility.yul\":2472:2479   */\n      dup6\n        /* \"#utility.yul\":2463:2469   */\n      dup3\n        /* \"#utility.yul\":2452:2461   */\n      dup7\n        /* \"#utility.yul\":2448:2470   */\n      add\n        /* \"#utility.yul\":2427:2480   */\n      tag_81\n      jump\t// in\n    tag_146:\n        /* \"#utility.yul\":2417:2480   */\n      swap3\n      pop\n        /* \"#utility.yul\":2373:2490   */\n      pop\n        /* \"#utility.yul\":2529:2531   */\n      0x20\n        /* \"#utility.yul\":2555:2608   */\n      tag_147\n        /* \"#utility.yul\":2600:2607   */\n      dup6\n        /* \"#utility.yul\":2591:2597   */\n      dup3\n        /* \"#utility.yul\":2580:2589   */\n      dup7\n        /* \"#utility.yul\":2576:2598   */\n      add\n        /* \"#utility.yul\":2555:2608   */\n      tag_84\n      jump\t// in\n    tag_147:\n        /* \"#utility.yul\":2545:2608   */\n      swap2\n      pop\n        /* \"#utility.yul\":2500:2618   */\n      pop\n        /* \"#utility.yul\":2151:2625   */\n      swap3\n      pop\n      swap3\n      swap1\n      pop\n      jump\t// out\n        /* \"#utility.yul\":2631:2811   */\n    tag_49:\n        /* \"#utility.yul\":2679:2756   */\n      0x4e487b7100000000000000000000000000000000000000000000000000000000\n        /* \"#utility.yul\":2676:2677   */\n      0x00\n        /* \"#utility.yul\":2669:2757   */\n      mstore\n        /* \"#utility.yul\":2776:2780   */\n      0x21\n        /* \"#utility.yul\":2773:2774   */\n      0x04\n        /* \"#utility.yul\":2766:2781   */\n      mstore\n        /* \"#utility.yul\":2800:2804   */\n      0x24\n        /* \"#utility.yul\":2797:2798   */\n      0x00\n        /* \"#utility.yul\":2790:2805   */\n      revert\n        /* \"#utility.yul\":2817:2933   */\n    tag_85:\n        /* \"#utility.yul\":2901:2902   */\n      0x06\n        /* \"#utility.yul\":2894:2899   */\n      dup2\n        /* \"#utility.yul\":2891:2903   */\n      lt\n        /* \"#utility.yul\":2881:2927   */\n      tag_150\n      jumpi\n        /* \"#utility.yul\":2907:2925   */\n      tag_151\n      tag_49\n      jump\t// in\n    tag_151:\n        /* \"#utility.yul\":2881:2927   */\n    tag_150:\n        /* \"#utility.yul\":2817:2933   */\n      pop\n      jump\t// out\n        /* \"#utility.yul\":2939:3072   */\n    tag_86:\n        /* \"#utility.yul\":2987:2994   */\n      0x00\n        /* \"#utility.yul\":3016:3021   */\n      dup2\n        /* \"#utility.yul\":3005:3021   */\n      swap1\n      pop\n        /* \"#utility.yul\":3022:3066   */\n      tag_153\n        /* \"#utility.yul\":3060:3065   */\n      dup3\n        /* \"#utility.yul\":3022:3066   */\n      tag_85\n      jump\t// in\n    tag_153:\n        /* \"#utility.yul\":2939:3072   */\n      swap2\n      swap1\n      pop\n      jump\t// out\n        /* \"#utility.yul\":3078:3211   */\n    tag_87:\n        /* \"#utility.yul\":3137:3146   */\n      0x00\n        /* \"#utility.yul\":3170:3205   */\n      tag_155\n        /* \"#utility.yul\":3199:3204   */\n      dup3\n        /* \"#utility.yul\":3170:3205   */\n      tag_86\n      jump\t// in\n    tag_155:\n        /* \"#utility.yul\":3157:3205   */\n      swap1\n      pop\n        /* \"#utility.yul\":3078:3211   */\n      swap2\n      swap1\n      pop\n      jump\t// out\n        /* \"#utility.yul\":3217:3366   */\n    tag_88:\n        /* \"#utility.yul\":3313:3359   */\n      tag_157\n        /* \"#utility.yul\":3353:3358   */\n      dup2\n        /* \"#utility.yul\":3313:3359   */\n      tag_87\n      jump\t// in\n    tag_157:\n        /* \"#utility.yul\":3308:3311   */\n      dup3\n        /* \"#utility.yul\":3301:3360   */\n      mstore\n        /* \"#utility.yul\":3217:3366   */\n      pop\n      pop\n      jump\t// out\n        /* \"#utility.yul\":3372:3490   */\n    tag_89:\n        /* \"#utility.yul\":3459:3483   */\n      tag_159\n        /* \"#utility.yul\":3477:3482   */\n      dup2\n        /* \"#utility.yul\":3459:3483   */\n      tag_79\n      jump\t// in\n    tag_159:\n        /* \"#utility.yul\":3454:3457   */\n      dup3\n        /* \"#utility.yul\":3447:3484   */\n      mstore\n        /* \"#utility.yul\":3372:3490   */\n      pop\n      pop\n      jump\t// out\n        /* \"#utility.yul\":3496:3956   */\n    tag_17:\n        /* \"#utility.yul\":3654:3658   */\n      0x00\n        /* \"#utility.yul\":3692:3694   */\n      0x60\n        /* \"#utility.yul\":3681:3690   */\n      dup3\n        /* \"#utility.yul\":3677:3695   */\n      add\n        /* \"#utility.yul\":3669:3695   */\n      swap1\n      pop\n        /* \"#utility.yul\":3705:3785   */\n      tag_161\n        /* \"#utility.yul\":3782:3783   */\n      0x00\n        /* \"#utility.yul\":3771:3780   */\n      dup4\n        /* \"#utility.yul\":3767:3784   */\n      add\n        /* \"#utility.yul\":3758:3764   */\n      dup7\n        /* \"#utility.yul\":3705:3785   */\n      tag_88\n      jump\t// in\n    tag_161:\n        /* \"#utility.yul\":3795:3867   */\n      tag_162\n        /* \"#utility.yul\":3863:3865   */\n      0x20\n        /* \"#utility.yul\":3852:3861   */\n      dup4\n        /* \"#utility.yul\":3848:3866   */\n      add\n        /* \"#utility.yul\":3839:3845   */\n      dup6\n        /* \"#utility.yul\":3795:3867   */\n      tag_89\n      jump\t// in\n    tag_162:\n        /* \"#utility.yul\":3877:3949   */\n      tag_163\n        /* \"#utility.yul\":3945:3947   */\n      0x40\n        /* \"#utility.yul\":3934:3943   */\n      dup4\n        /* \"#utility.yul\":3930:3948   */\n      add\n        /* \"#utility.yul\":3921:3927   */\n      dup5\n        /* \"#utility.yul\":3877:3949   */\n      tag_89\n      jump\t// in\n    tag_163:\n        /* \"#utility.yul\":3496:3956   */\n      swap5\n      swap4\n      pop\n      pop\n      pop\n      pop\n      jump\t// out\n        /* \"#utility.yul\":3962:4291   */\n    tag_20:\n        /* \"#utility.yul\":4021:4027   */\n      0x00\n        /* \"#utility.yul\":4070:4072   */\n      0x20\n        /* \"#utility.yul\":4058:4067   */\n      dup3\n        /* \"#utility.yul\":4049:4056   */\n      dup5\n        /* \"#utility.yul\":4045:4068   */\n      sub\n        /* \"#utility.yul\":4041:4073   */\n      slt\n        /* \"#utility.yul\":4038:4157   */\n      iszero\n      tag_165\n      jumpi\n        /* \"#utility.yul\":4076:4155   */\n      tag_166\n      tag_77\n      jump\t// in\n    tag_166:\n        /* \"#utility.yul\":4038:4157   */\n    tag_165:\n        /* \"#utility.yul\":4196:4197   */\n      0x00\n        /* \"#utility.yul\":4221:4274   */\n      tag_167\n        /* \"#utility.yul\":4266:4273   */\n      dup5\n        /* \"#utility.yul\":4257:4263   */\n      dup3\n        /* \"#utility.yul\":4246:4255   */\n      dup6\n        /* \"#utility.yul\":4242:4264   */\n      add\n        /* \"#utility.yul\":4221:4274   */\n      tag_81\n      jump\t// in\n    tag_167:\n        /* \"#utility.yul\":4211:4274   */\n      swap2\n      pop\n        /* \"#utility.yul\":4167:4284   */\n      pop\n        /* \"#utility.yul\":3962:4291   */\n      swap3\n      swap2\n      pop\n      pop\n      jump\t// out\n        /* \"#utility.yul\":4297:4434   */\n    tag_90:\n        /* \"#utility.yul\":4387:4393   */\n      0x00\n        /* \"#utility.yul\":4421:4426   */\n      dup2\n        /* \"#utility.yul\":4415:4427   */\n      mload\n        /* \"#utility.yul\":4405:4427   */\n      swap1\n      pop\n        /* \"#utility.yul\":4297:4434   */\n      swap2\n      swap1\n      pop\n      jump\t// out\n        /* \"#utility.yul\":4440:4647   */\n    tag_91:\n        /* \"#utility.yul\":4562:4573   */\n      0x00\n        /* \"#utility.yul\":4596:4602   */\n      dup3\n        /* \"#utility.yul\":4591:4594   */\n      dup3\n        /* \"#utility.yul\":4584:4603   */\n      mstore\n        /* \"#utility.yul\":4636:4640   */\n      0x20\n        /* \"#utility.yul\":4631:4634   */\n      dup3\n        /* \"#utility.yul\":4627:4641   */\n      add\n        /* \"#utility.yul\":4612:4641   */\n      swap1\n      pop\n        /* \"#utility.yul\":4440:4647   */\n      swap3\n      swap2\n      pop\n      pop\n      jump\t// out\n        /* \"#utility.yul\":4653:4808   */\n    tag_92:\n        /* \"#utility.yul\":4743:4747   */\n      0x00\n        /* \"#utility.yul\":4766:4769   */\n      dup2\n        /* \"#utility.yul\":4758:4769   */\n      swap1\n      pop\n        /* \"#utility.yul\":4796:4800   */\n      0x20\n        /* \"#utility.yul\":4791:4794   */\n      dup3\n        /* \"#utility.yul\":4787:4801   */\n      add\n        /* \"#utility.yul\":4779:4801   */\n      swap1\n      pop\n        /* \"#utility.yul\":4653:4808   */\n      swap2\n      swap1\n      pop\n      jump\t// out\n        /* \"#utility.yul\":4814:4953   */\n    tag_93:\n        /* \"#utility.yul\":4900:4946   */\n      tag_172\n        /* \"#utility.yul\":4940:4945   */\n      dup2\n        /* \"#utility.yul\":4900:4946   */\n      tag_87\n      jump\t// in\n    tag_172:\n        /* \"#utility.yul\":4895:4898   */\n      dup3\n        /* \"#utility.yul\":4888:4947   */\n      mstore\n        /* \"#utility.yul\":4814:4953   */\n      pop\n      pop\n      jump\t// out\n        /* \"#utility.yul\":4959:5067   */\n    tag_94:\n        /* \"#utility.yul\":5036:5060   */\n      tag_174\n        /* \"#utility.yul\":5054:5059   */\n      dup2\n        /* \"#utility.yul\":5036:5060   */\n      tag_79\n      jump\t// in\n    tag_174:\n        /* \"#utility.yul\":5031:5034   */\n      dup3\n        /* \"#utility.yul\":5024:5061   */\n      mstore\n        /* \"#utility.yul\":4959:5067   */\n      pop\n      pop\n      jump\t// out\n        /* \"#utility.yul\":5131:5811   */\n    tag_95:\n        /* \"#utility.yul\":5264:5268   */\n      0x60\n        /* \"#utility.yul\":5259:5262   */\n      dup3\n        /* \"#utility.yul\":5255:5269   */\n      add\n        /* \"#utility.yul\":5355:5359   */\n      0x00\n        /* \"#utility.yul\":5348:5353   */\n      dup3\n        /* \"#utility.yul\":5344:5360   */\n      add\n        /* \"#utility.yul\":5338:5361   */\n      mload\n        /* \"#utility.yul\":5374:5446   */\n      tag_176\n        /* \"#utility.yul\":5440:5444   */\n      0x00\n        /* \"#utility.yul\":5435:5438   */\n      dup6\n        /* \"#utility.yul\":5431:5445   */\n      add\n        /* \"#utility.yul\":5417:5429   */\n      dup3\n        /* \"#utility.yul\":5374:5446   */\n      tag_93\n      jump\t// in\n    tag_176:\n        /* \"#utility.yul\":5279:5456   */\n      pop\n        /* \"#utility.yul\":5536:5540   */\n      0x20\n        /* \"#utility.yul\":5529:5534   */\n      dup3\n        /* \"#utility.yul\":5525:5541   */\n      add\n        /* \"#utility.yul\":5519:5542   */\n      mload\n        /* \"#utility.yul\":5555:5618   */\n      tag_177\n        /* \"#utility.yul\":5612:5616   */\n      0x20\n        /* \"#utility.yul\":5607:5610   */\n      dup6\n        /* \"#utility.yul\":5603:5617   */\n      add\n        /* \"#utility.yul\":5589:5601   */\n      dup3\n        /* \"#utility.yul\":5555:5618   */\n      tag_94\n      jump\t// in\n    tag_177:\n        /* \"#utility.yul\":5466:5628   */\n      pop\n        /* \"#utility.yul\":5712:5716   */\n      0x40\n        /* \"#utility.yul\":5705:5710   */\n      dup3\n        /* \"#utility.yul\":5701:5717   */\n      add\n        /* \"#utility.yul\":5695:5718   */\n      mload\n        /* \"#utility.yul\":5731:5794   */\n      tag_178\n        /* \"#utility.yul\":5788:5792   */\n      0x40\n        /* \"#utility.yul\":5783:5786   */\n      dup6\n        /* \"#utility.yul\":5779:5793   */\n      add\n        /* \"#utility.yul\":5765:5777   */\n      dup3\n        /* \"#utility.yul\":5731:5794   */\n      tag_94\n      jump\t// in\n    tag_178:\n        /* \"#utility.yul\":5638:5804   */\n      pop\n        /* \"#utility.yul\":5233:5811   */\n      pop\n        /* \"#utility.yul\":5131:5811   */\n      pop\n      pop\n      jump\t// out\n        /* \"#utility.yul\":5817:6088   */\n    tag_96:\n        /* \"#utility.yul\":5932:5942   */\n      0x00\n        /* \"#utility.yul\":5953:6045   */\n      tag_180\n        /* \"#utility.yul\":6041:6044   */\n      dup4\n        /* \"#utility.yul\":6033:6039   */\n      dup4\n        /* \"#utility.yul\":5953:6045   */\n      tag_95\n      jump\t// in\n    tag_180:\n        /* \"#utility.yul\":6077:6081   */\n      0x60\n        /* \"#utility.yul\":6072:6075   */\n      dup4\n        /* \"#utility.yul\":6068:6082   */\n      add\n        /* \"#utility.yul\":6054:6082   */\n      swap1\n      pop\n        /* \"#utility.yul\":5817:6088   */\n      swap3\n      swap2\n      pop\n      pop\n      jump\t// out\n        /* \"#utility.yul\":6094:6230   */\n    tag_97:\n        /* \"#utility.yul\":6187:6191   */\n      0x00\n        /* \"#utility.yul\":6219:6223   */\n      0x20\n        /* \"#utility.yul\":6214:6217   */\n      dup3\n        /* \"#utility.yul\":6210:6224   */\n      add\n        /* \"#utility.yul\":6202:6224   */\n      swap1\n      pop\n        /* \"#utility.yul\":6094:6230   */\n      swap2\n      swap1\n      pop\n      jump\t// out\n        /* \"#utility.yul\":6298:7214   */\n    tag_98:\n        /* \"#utility.yul\":6463:6466   */\n      0x00\n        /* \"#utility.yul\":6492:6569   */\n      tag_183\n        /* \"#utility.yul\":6563:6568   */\n      dup3\n        /* \"#utility.yul\":6492:6569   */\n      tag_90\n      jump\t// in\n    tag_183:\n        /* \"#utility.yul\":6585:6694   */\n      tag_184\n        /* \"#utility.yul\":6687:6693   */\n      dup2\n        /* \"#utility.yul\":6682:6685   */\n      dup6\n        /* \"#utility.yul\":6585:6694   */\n      tag_91\n      jump\t// in\n    tag_184:\n        /* \"#utility.yul\":6578:6694   */\n      swap4\n      pop\n        /* \"#utility.yul\":6718:6797   */\n      tag_185\n        /* \"#utility.yul\":6791:6796   */\n      dup4\n        /* \"#utility.yul\":6718:6797   */\n      tag_92\n      jump\t// in\n    tag_185:\n        /* \"#utility.yul\":6820:6827   */\n      dup1\n        /* \"#utility.yul\":6851:6852   */\n      0x00\n        /* \"#utility.yul\":6836:7189   */\n    tag_186:\n        /* \"#utility.yul\":6861:6867   */\n      dup4\n        /* \"#utility.yul\":6858:6859   */\n      dup2\n        /* \"#utility.yul\":6855:6868   */\n      lt\n        /* \"#utility.yul\":6836:7189   */\n      iszero\n      tag_188\n      jumpi\n        /* \"#utility.yul\":6937:6943   */\n      dup2\n        /* \"#utility.yul\":6931:6944   */\n      mload\n        /* \"#utility.yul\":6964:7073   */\n      tag_189\n        /* \"#utility.yul\":7069:7072   */\n      dup9\n        /* \"#utility.yul\":7054:7067   */\n      dup3\n        /* \"#utility.yul\":6964:7073   */\n      tag_96\n      jump\t// in\n    tag_189:\n        /* \"#utility.yul\":6957:7073   */\n      swap8\n      pop\n        /* \"#utility.yul\":7096:7179   */\n      tag_190\n        /* \"#utility.yul\":7172:7178   */\n      dup4\n        /* \"#utility.yul\":7096:7179   */\n      tag_97\n      jump\t// in\n    tag_190:\n        /* \"#utility.yul\":7086:7179   */\n      swap3\n      pop\n        /* \"#utility.yul\":6896:7189   */\n      pop\n        /* \"#utility.yul\":6883:6884   */\n      0x01\n        /* \"#utility.yul\":6880:6881   */\n      dup2\n        /* \"#utility.yul\":6876:6885   */\n      add\n        /* \"#utility.yul\":6871:6885   */\n      swap1\n      pop\n        /* \"#utility.yul\":6836:7189   */\n      jump(tag_186)\n    tag_188:\n        /* \"#utility.yul\":6840:6854   */\n      pop\n        /* \"#utility.yul\":7205:7208   */\n      dup6\n        /* \"#utility.yul\":7198:7208   */\n      swap4\n      pop\n        /* \"#utility.yul\":6468:7214   */\n      pop\n      pop\n      pop\n        /* \"#utility.yul\":6298:7214   */\n      swap3\n      swap2\n      pop\n      pop\n      jump\t// out\n        /* \"#utility.yul\":7220:7685   */\n    tag_23:\n        /* \"#utility.yul\":7409:7413   */\n      0x00\n        /* \"#utility.yul\":7447:7449   */\n      0x20\n        /* \"#utility.yul\":7436:7445   */\n      dup3\n        /* \"#utility.yul\":7432:7450   */\n      add\n        /* \"#utility.yul\":7424:7450   */\n      swap1\n      pop\n        /* \"#utility.yul\":7496:7505   */\n      dup2\n        /* \"#utility.yul\":7490:7494   */\n      dup2\n        /* \"#utility.yul\":7486:7506   */\n      sub\n        /* \"#utility.yul\":7482:7483   */\n      0x00\n        /* \"#utility.yul\":7471:7480   */\n      dup4\n        /* \"#utility.yul\":7467:7484   */\n      add\n        /* \"#utility.yul\":7460:7507   */\n      mstore\n        /* \"#utility.yul\":7524:7678   */\n      tag_192\n        /* \"#utility.yul\":7673:7677   */\n      dup2\n        /* \"#utility.yul\":7664:7670   */\n      dup5\n        /* \"#utility.yul\":7524:7678   */\n      tag_98\n      jump\t// in\n    tag_192:\n        /* \"#utility.yul\":7516:7678   */\n      swap1\n      pop\n        /* \"#utility.yul\":7220:7685   */\n      swap3\n      swap2\n      pop\n      pop\n      jump\t// out\n        /* \"#utility.yul\":7691:7833   */\n    tag_99:\n        /* \"#utility.yul\":7757:7766   */\n      0x00\n        /* \"#utility.yul\":7790:7827   */\n      tag_194\n        /* \"#utility.yul\":7821:7826   */\n      dup3\n        /* \"#utility.yul\":7790:7827   */\n      tag_73\n      jump\t// in\n    tag_194:\n        /* \"#utility.yul\":7777:7827   */\n      swap1\n      pop\n        /* \"#utility.yul\":7691:7833   */\n      swap2\n      swap1\n      pop\n      jump\t// out\n        /* \"#utility.yul\":7839:8002   */\n    tag_100:\n        /* \"#utility.yul\":7942:7995   */\n      tag_196\n        /* \"#utility.yul\":7989:7994   */\n      dup2\n        /* \"#utility.yul\":7942:7995   */\n      tag_99\n      jump\t// in\n    tag_196:\n        /* \"#utility.yul\":7937:7940   */\n      dup3\n        /* \"#utility.yul\":7930:7996   */\n      mstore\n        /* \"#utility.yul\":7839:8002   */\n      pop\n      pop\n      jump\t// out\n        /* \"#utility.yul\":8008:8262   */\n    tag_27:\n        /* \"#utility.yul\":8117:8121   */\n      0x00\n        /* \"#utility.yul\":8155:8157   */\n      0x20\n        /* \"#utility.yul\":8144:8153   */\n      dup3\n        /* \"#utility.yul\":8140:8158   */\n      add\n        /* \"#utility.yul\":8132:8158   */\n      swap1\n      pop\n        /* \"#utility.yul\":8168:8255   */\n      tag_198\n        /* \"#utility.yul\":8252:8253   */\n      0x00\n        /* \"#utility.yul\":8241:8250   */\n      dup4\n        /* \"#utility.yul\":8237:8254   */\n      add\n        /* \"#utility.yul\":8228:8234   */\n      dup5\n        /* \"#utility.yul\":8168:8255   */\n      tag_100\n      jump\t// in\n    tag_198:\n        /* \"#utility.yul\":8008:8262   */\n      swap3\n      swap2\n      pop\n      pop\n      jump\t// out\n        /* \"#utility.yul\":8268:8378   */\n    tag_101:\n        /* \"#utility.yul\":8352:8353   */\n      0x06\n        /* \"#utility.yul\":8345:8350   */\n      dup2\n        /* \"#utility.yul\":8342:8354   */\n      lt\n        /* \"#utility.yul\":8332:8372   */\n      tag_200\n      jumpi\n        /* \"#utility.yul\":8368:8369   */\n      0x00\n        /* \"#utility.yul\":8365:8366   */\n      dup1\n        /* \"#utility.yul\":8358:8370   */\n      revert\n        /* \"#utility.yul\":8332:8372   */\n    tag_200:\n        /* \"#utility.yul\":8268:8378   */\n      pop\n      jump\t// out\n        /* \"#utility.yul\":8384:8545   */\n    tag_102:\n        /* \"#utility.yul\":8441:8446   */\n      0x00\n        /* \"#utility.yul\":8479:8485   */\n      dup2\n        /* \"#utility.yul\":8466:8486   */\n      calldataload\n        /* \"#utility.yul\":8457:8486   */\n      swap1\n      pop\n        /* \"#utility.yul\":8495:8539   */\n      tag_202\n        /* \"#utility.yul\":8533:8538   */\n      dup2\n        /* \"#utility.yul\":8495:8539   */\n      tag_101\n      jump\t// in\n    tag_202:\n        /* \"#utility.yul\":8384:8545   */\n      swap3\n      swap2\n      pop\n      pop\n      jump\t// out\n        /* \"#utility.yul\":8551:9338   */\n    tag_30:\n        /* \"#utility.yul\":8648:8654   */\n      0x00\n        /* \"#utility.yul\":8656:8662   */\n      dup1\n        /* \"#utility.yul\":8664:8670   */\n      0x00\n        /* \"#utility.yul\":8672:8678   */\n      dup1\n        /* \"#utility.yul\":8721:8724   */\n      0x80\n        /* \"#utility.yul\":8709:8718   */\n      dup6\n        /* \"#utility.yul\":8700:8707   */\n      dup8\n        /* \"#utility.yul\":8696:8719   */\n      sub\n        /* \"#utility.yul\":8692:8725   */\n      slt\n        /* \"#utility.yul\":8689:8809   */\n      iszero\n      tag_204\n      jumpi\n        /* \"#utility.yul\":8728:8807   */\n      tag_205\n      tag_77\n      jump\t// in\n    tag_205:\n        /* \"#utility.yul\":8689:8809   */\n    tag_204:\n        /* \"#utility.yul\":8848:8849   */\n      0x00\n        /* \"#utility.yul\":8873:8926   */\n      tag_206\n        /* \"#utility.yul\":8918:8925   */\n      dup8\n        /* \"#utility.yul\":8909:8915   */\n      dup3\n        /* \"#utility.yul\":8898:8907   */\n      dup9\n        /* \"#utility.yul\":8894:8916   */\n      add\n        /* \"#utility.yul\":8873:8926   */\n      tag_81\n      jump\t// in\n    tag_206:\n        /* \"#utility.yul\":8863:8926   */\n      swap5\n      pop\n        /* \"#utility.yul\":8819:8936   */\n      pop\n        /* \"#utility.yul\":8975:8977   */\n      0x20\n        /* \"#utility.yul\":9001:9065   */\n      tag_207\n        /* \"#utility.yul\":9057:9064   */\n      dup8\n        /* \"#utility.yul\":9048:9054   */\n      dup3\n        /* \"#utility.yul\":9037:9046   */\n      dup9\n        /* \"#utility.yul\":9033:9055   */\n      add\n        /* \"#utility.yul\":9001:9065   */\n      tag_102\n      jump\t// in\n    tag_207:\n        /* \"#utility.yul\":8991:9065   */\n      swap4\n      pop\n        /* \"#utility.yul\":8946:9075   */\n      pop\n        /* \"#utility.yul\":9114:9116   */\n      0x40\n        /* \"#utility.yul\":9140:9193   */\n      tag_208\n        /* \"#utility.yul\":9185:9192   */\n      dup8\n        /* \"#utility.yul\":9176:9182   */\n      dup3\n        /* \"#utility.yul\":9165:9174   */\n      dup9\n        /* \"#utility.yul\":9161:9183   */\n      add\n        /* \"#utility.yul\":9140:9193   */\n      tag_81\n      jump\t// in\n    tag_208:\n        /* \"#utility.yul\":9130:9193   */\n      swap3\n      pop\n        /* \"#utility.yul\":9085:9203   */\n      pop\n        /* \"#utility.yul\":9242:9244   */\n      0x60\n        /* \"#utility.yul\":9268:9321   */\n      tag_209\n        /* \"#utility.yul\":9313:9320   */\n      dup8\n        /* \"#utility.yul\":9304:9310   */\n      dup3\n        /* \"#utility.yul\":9293:9302   */\n      dup9\n        /* \"#utility.yul\":9289:9311   */\n      add\n        /* \"#utility.yul\":9268:9321   */\n      tag_81\n      jump\t// in\n    tag_209:\n        /* \"#utility.yul\":9258:9321   */\n      swap2\n      pop\n        /* \"#utility.yul\":9213:9331   */\n      pop\n        /* \"#utility.yul\":8551:9338   */\n      swap3\n      swap6\n      swap2\n      swap5\n      pop\n      swap3\n      pop\n      jump\t// out\n        /* \"#utility.yul\":9344:9566   */\n    tag_36:\n        /* \"#utility.yul\":9437:9441   */\n      0x00\n        /* \"#utility.yul\":9475:9477   */\n      0x20\n        /* \"#utility.yul\":9464:9473   */\n      dup3\n        /* \"#utility.yul\":9460:9478   */\n      add\n        /* \"#utility.yul\":9452:9478   */\n      swap1\n      pop\n        /* \"#utility.yul\":9488:9559   */\n      tag_211\n        /* \"#utility.yul\":9556:9557   */\n      0x00\n        /* \"#utility.yul\":9545:9554   */\n      dup4\n        /* \"#utility.yul\":9541:9558   */\n      add\n        /* \"#utility.yul\":9532:9538   */\n      dup5\n        /* \"#utility.yul\":9488:9559   */\n      tag_89\n      jump\t// in\n    tag_211:\n        /* \"#utility.yul\":9344:9566   */\n      swap3\n      swap2\n      pop\n      pop\n      jump\t// out\n        /* \"#utility.yul\":9572:9662   */\n    tag_103:\n        /* \"#utility.yul\":9606:9613   */\n      0x00\n        /* \"#utility.yul\":9649:9654   */\n      dup2\n        /* \"#utility.yul\":9642:9655   */\n      iszero\n        /* \"#utility.yul\":9635:9656   */\n      iszero\n        /* \"#utility.yul\":9624:9656   */\n      swap1\n      pop\n        /* \"#utility.yul\":9572:9662   */\n      swap2\n      swap1\n      pop\n      jump\t// out\n        /* \"#utility.yul\":9668:9784   */\n    tag_104:\n        /* \"#utility.yul\":9738:9759   */\n      tag_214\n        /* \"#utility.yul\":9753:9758   */\n      dup2\n        /* \"#utility.yul\":9738:9759   */\n      tag_103\n      jump\t// in\n    tag_214:\n        /* \"#utility.yul\":9731:9736   */\n      dup2\n        /* \"#utility.yul\":9728:9760   */\n      eq\n        /* \"#utility.yul\":9718:9778   */\n      tag_215\n      jumpi\n        /* \"#utility.yul\":9774:9775   */\n      0x00\n        /* \"#utility.yul\":9771:9772   */\n      dup1\n        /* \"#utility.yul\":9764:9776   */\n      revert\n        /* \"#utility.yul\":9718:9778   */\n    tag_215:\n        /* \"#utility.yul\":9668:9784   */\n      pop\n      jump\t// out\n        /* \"#utility.yul\":9790:9927   */\n    tag_105:\n        /* \"#utility.yul\":9844:9849   */\n      0x00\n        /* \"#utility.yul\":9875:9881   */\n      dup2\n        /* \"#utility.yul\":9869:9882   */\n      mload\n        /* \"#utility.yul\":9860:9882   */\n      swap1\n      pop\n        /* \"#utility.yul\":9891:9921   */\n      tag_217\n        /* \"#utility.yul\":9915:9920   */\n      dup2\n        /* \"#utility.yul\":9891:9921   */\n      tag_104\n      jump\t// in\n    tag_217:\n        /* \"#utility.yul\":9790:9927   */\n      swap3\n      swap2\n      pop\n      pop\n      jump\t// out\n        /* \"#utility.yul\":9933:10278   */\n    tag_40:\n        /* \"#utility.yul\":10000:10006   */\n      0x00\n        /* \"#utility.yul\":10049:10051   */\n      0x20\n        /* \"#utility.yul\":10037:10046   */\n      dup3\n        /* \"#utility.yul\":10028:10035   */\n      dup5\n        /* \"#utility.yul\":10024:10047   */\n      sub\n        /* \"#utility.yul\":10020:10052   */\n      slt\n        /* \"#utility.yul\":10017:10136   */\n      iszero\n      tag_219\n      jumpi\n        /* \"#utility.yul\":10055:10134   */\n      tag_220\n      tag_77\n      jump\t// in\n    tag_220:\n        /* \"#utility.yul\":10017:10136   */\n    tag_219:\n        /* \"#utility.yul\":10175:10176   */\n      0x00\n        /* \"#utility.yul\":10200:10261   */\n      tag_221\n        /* \"#utility.yul\":10253:10260   */\n      dup5\n        /* \"#utility.yul\":10244:10250   */\n      dup3\n        /* \"#utility.yul\":10233:10242   */\n      dup6\n        /* \"#utility.yul\":10229:10251   */\n      add\n        /* \"#utility.yul\":10200:10261   */\n      tag_105\n      jump\t// in\n    tag_221:\n        /* \"#utility.yul\":10190:10261   */\n      swap2\n      pop\n        /* \"#utility.yul\":10146:10271   */\n      pop\n        /* \"#utility.yul\":9933:10278   */\n      swap3\n      swap2\n      pop\n      pop\n      jump\t// out\n        /* \"#utility.yul\":10284:10453   */\n    tag_106:\n        /* \"#utility.yul\":10368:10379   */\n      0x00\n        /* \"#utility.yul\":10402:10408   */\n      dup3\n        /* \"#utility.yul\":10397:10400   */\n      dup3\n        /* \"#utility.yul\":10390:10409   */\n      mstore\n        /* \"#utility.yul\":10442:10446   */\n      0x20\n        /* \"#utility.yul\":10437:10440   */\n      dup3\n        /* \"#utility.yul\":10433:10447   */\n      add\n        /* \"#utility.yul\":10418:10447   */\n      swap1\n      pop\n        /* \"#utility.yul\":10284:10453   */\n      swap3\n      swap2\n      pop\n      pop\n      jump\t// out\n        /* \"#utility.yul\":10459:10639   */\n    tag_107:\n        /* \"#utility.yul\":10599:10631   */\n      0x55736572206e6f74207265676973746572656420746f2073797374656d210000\n        /* \"#utility.yul\":10595:10596   */\n      0x00\n        /* \"#utility.yul\":10587:10593   */\n      dup3\n        /* \"#utility.yul\":10583:10597   */\n      add\n        /* \"#utility.yul\":10576:10632   */\n      mstore\n        /* \"#utility.yul\":10459:10639   */\n      pop\n      jump\t// out\n        /* \"#utility.yul\":10645:11011   */\n    tag_108:\n        /* \"#utility.yul\":10787:10790   */\n      0x00\n        /* \"#utility.yul\":10808:10875   */\n      tag_225\n        /* \"#utility.yul\":10872:10874   */\n      0x1e\n        /* \"#utility.yul\":10867:10870   */\n      dup4\n        /* \"#utility.yul\":10808:10875   */\n      tag_106\n      jump\t// in\n    tag_225:\n        /* \"#utility.yul\":10801:10875   */\n      swap2\n      pop\n        /* \"#utility.yul\":10884:10977   */\n      tag_226\n        /* \"#utility.yul\":10973:10976   */\n      dup3\n        /* \"#utility.yul\":10884:10977   */\n      tag_107\n      jump\t// in\n    tag_226:\n        /* \"#utility.yul\":11002:11004   */\n      0x20\n        /* \"#utility.yul\":10997:11000   */\n      dup3\n        /* \"#utility.yul\":10993:11005   */\n      add\n        /* \"#utility.yul\":10986:11005   */\n      swap1\n      pop\n        /* \"#utility.yul\":10645:11011   */\n      swap2\n      swap1\n      pop\n      jump\t// out\n        /* \"#utility.yul\":11017:11436   */\n    tag_43:\n        /* \"#utility.yul\":11183:11187   */\n      0x00\n        /* \"#utility.yul\":11221:11223   */\n      0x20\n        /* \"#utility.yul\":11210:11219   */\n      dup3\n        /* \"#utility.yul\":11206:11224   */\n      add\n        /* \"#utility.yul\":11198:11224   */\n      swap1\n      pop\n        /* \"#utility.yul\":11270:11279   */\n      dup2\n        /* \"#utility.yul\":11264:11268   */\n      dup2\n        /* \"#utility.yul\":11260:11280   */\n      sub\n        /* \"#utility.yul\":11256:11257   */\n      0x00\n        /* \"#utility.yul\":11245:11254   */\n      dup4\n        /* \"#utility.yul\":11241:11258   */\n      add\n        /* \"#utility.yul\":11234:11281   */\n      mstore\n        /* \"#utility.yul\":11298:11429   */\n      tag_228\n        /* \"#utility.yul\":11424:11428   */\n      dup2\n        /* \"#utility.yul\":11298:11429   */\n      tag_108\n      jump\t// in\n    tag_228:\n        /* \"#utility.yul\":11290:11429   */\n      swap1\n      pop\n        /* \"#utility.yul\":11017:11436   */\n      swap2\n      swap1\n      pop\n      jump\t// out\n        /* \"#utility.yul\":11442:11672   */\n    tag_109:\n        /* \"#utility.yul\":11582:11616   */\n      0x50617469656e742f6e65772d6f776e6572206e6f742072656769737465726564\n        /* \"#utility.yul\":11578:11579   */\n      0x00\n        /* \"#utility.yul\":11570:11576   */\n      dup3\n        /* \"#utility.yul\":11566:11580   */\n      add\n        /* \"#utility.yul\":11559:11617   */\n      mstore\n        /* \"#utility.yul\":11651:11664   */\n      0x20746f2073797374656d21000000000000000000000000000000000000000000\n        /* \"#utility.yul\":11646:11648   */\n      0x20\n        /* \"#utility.yul\":11638:11644   */\n      dup3\n        /* \"#utility.yul\":11634:11649   */\n      add\n        /* \"#utility.yul\":11627:11665   */\n      mstore\n        /* \"#utility.yul\":11442:11672   */\n      pop\n      jump\t// out\n        /* \"#utility.yul\":11678:12044   */\n    tag_110:\n        /* \"#utility.yul\":11820:11823   */\n      0x00\n        /* \"#utility.yul\":11841:11908   */\n      tag_231\n        /* \"#utility.yul\":11905:11907   */\n      0x2b\n        /* \"#utility.yul\":11900:11903   */\n      dup4\n        /* \"#utility.yul\":11841:11908   */\n      tag_106\n      jump\t// in\n    tag_231:\n        /* \"#utility.yul\":11834:11908   */\n      swap2\n      pop\n        /* \"#utility.yul\":11917:12010   */\n      tag_232\n        /* \"#utility.yul\":12006:12009   */\n      dup3\n        /* \"#utility.yul\":11917:12010   */\n      tag_109\n      jump\t// in\n    tag_232:\n        /* \"#utility.yul\":12035:12037   */\n      0x40\n        /* \"#utility.yul\":12030:12033   */\n      dup3\n        /* \"#utility.yul\":12026:12038   */\n      add\n        /* \"#utility.yul\":12019:12038   */\n      swap1\n      pop\n        /* \"#utility.yul\":11678:12044   */\n      swap2\n      swap1\n      pop\n      jump\t// out\n        /* \"#utility.yul\":12050:12469   */\n    tag_59:\n        /* \"#utility.yul\":12216:12220   */\n      0x00\n        /* \"#utility.yul\":12254:12256   */\n      0x20\n        /* \"#utility.yul\":12243:12252   */\n      dup3\n        /* \"#utility.yul\":12239:12257   */\n      add\n        /* \"#utility.yul\":12231:12257   */\n      swap1\n      pop\n        /* \"#utility.yul\":12303:12312   */\n      dup2\n        /* \"#utility.yul\":12297:12301   */\n      dup2\n        /* \"#utility.yul\":12293:12313   */\n      sub\n        /* \"#utility.yul\":12289:12290   */\n      0x00\n        /* \"#utility.yul\":12278:12287   */\n      dup4\n        /* \"#utility.yul\":12274:12291   */\n      add\n        /* \"#utility.yul\":12267:12314   */\n      mstore\n        /* \"#utility.yul\":12331:12462   */\n      tag_234\n        /* \"#utility.yul\":12457:12461   */\n      dup2\n        /* \"#utility.yul\":12331:12462   */\n      tag_110\n      jump\t// in\n    tag_234:\n        /* \"#utility.yul\":12323:12462   */\n      swap1\n      pop\n        /* \"#utility.yul\":12050:12469   */\n      swap2\n      swap1\n      pop\n      jump\t// out\n        /* \"#utility.yul\":12475:12640   */\n    tag_111:\n        /* \"#utility.yul\":12615:12632   */\n      0x4e657720646174612061646465642e0000000000000000000000000000000000\n        /* \"#utility.yul\":12611:12612   */\n      0x00\n        /* \"#utility.yul\":12603:12609   */\n      dup3\n        /* \"#utility.yul\":12599:12613   */\n      add\n        /* \"#utility.yul\":12592:12633   */\n      mstore\n        /* \"#utility.yul\":12475:12640   */\n      pop\n      jump\t// out\n        /* \"#utility.yul\":12646:13012   */\n    tag_112:\n        /* \"#utility.yul\":12788:12791   */\n      0x00\n        /* \"#utility.yul\":12809:12876   */\n      tag_237\n        /* \"#utility.yul\":12873:12875   */\n      0x0f\n        /* \"#utility.yul\":12868:12871   */\n      dup4\n        /* \"#utility.yul\":12809:12876   */\n      tag_106\n      jump\t// in\n    tag_237:\n        /* \"#utility.yul\":12802:12876   */\n      swap2\n      pop\n        /* \"#utility.yul\":12885:12978   */\n      tag_238\n        /* \"#utility.yul\":12974:12977   */\n      dup3\n        /* \"#utility.yul\":12885:12978   */\n      tag_111\n      jump\t// in\n    tag_238:\n        /* \"#utility.yul\":13003:13005   */\n      0x20\n        /* \"#utility.yul\":12998:13001   */\n      dup3\n        /* \"#utility.yul\":12994:13006   */\n      add\n        /* \"#utility.yul\":12987:13006   */\n      swap1\n      pop\n        /* \"#utility.yul\":12646:13012   */\n      swap2\n      swap1\n      pop\n      jump\t// out\n        /* \"#utility.yul\":13018:13547   */\n    tag_66:\n        /* \"#utility.yul\":13212:13216   */\n      0x00\n        /* \"#utility.yul\":13250:13252   */\n      0x40\n        /* \"#utility.yul\":13239:13248   */\n      dup3\n        /* \"#utility.yul\":13235:13253   */\n      add\n        /* \"#utility.yul\":13227:13253   */\n      swap1\n      pop\n        /* \"#utility.yul\":13263:13334   */\n      tag_240\n        /* \"#utility.yul\":13331:13332   */\n      0x00\n        /* \"#utility.yul\":13320:13329   */\n      dup4\n        /* \"#utility.yul\":13316:13333   */\n      add\n        /* \"#utility.yul\":13307:13313   */\n      dup5\n        /* \"#utility.yul\":13263:13334   */\n      tag_89\n      jump\t// in\n    tag_240:\n        /* \"#utility.yul\":13381:13390   */\n      dup2\n        /* \"#utility.yul\":13375:13379   */\n      dup2\n        /* \"#utility.yul\":13371:13391   */\n      sub\n        /* \"#utility.yul\":13366:13368   */\n      0x20\n        /* \"#utility.yul\":13355:13364   */\n      dup4\n        /* \"#utility.yul\":13351:13369   */\n      add\n        /* \"#utility.yul\":13344:13392   */\n      mstore\n        /* \"#utility.yul\":13409:13540   */\n      tag_241\n        /* \"#utility.yul\":13535:13539   */\n      dup2\n        /* \"#utility.yul\":13409:13540   */\n      tag_112\n      jump\t// in\n    tag_241:\n        /* \"#utility.yul\":13401:13540   */\n      swap1\n      pop\n        /* \"#utility.yul\":13018:13547   */\n      swap3\n      swap2\n      pop\n      pop\n      jump\t// out\n\n    auxdata: 0xa26469706673582212202b3e798324c43618ad3eb65364abc1e1211ee597de9f8e255d133df699868bc664736f6c634300080a0033\n}\n",
    "bytecode": {
      "linkReferences": {},
      "object": "608060405234801561001057600080fd5b50604051610d42380380610d428339818101604052810190610032919061011d565b816000806101000a81548173ffffffffffffffffffffffffffffffffffffffff021916908373ffffffffffffffffffffffffffffffffffffffff16021790555080600160006101000a81548173ffffffffffffffffffffffffffffffffffffffff021916908373ffffffffffffffffffffffffffffffffffffffff160217905550505061015d565b600080fd5b600073ffffffffffffffffffffffffffffffffffffffff82169050919050565b60006100ea826100bf565b9050919050565b6100fa816100df565b811461010557600080fd5b50565b600081519050610117816100f1565b92915050565b60008060408385031215610134576101336100ba565b5b600061014285828601610108565b925050602061015385828601610108565b9150509250929050565b610bd68061016c6000396000f3fe608060405234801561001057600080fd5b50600436106100575760003560e01c80631d7555791461005c5780632cb734061461007a57806365375a04146100ac5780637b103999146100dc578063d18f403d146100fa575b600080fd5b610064610116565b60405161007191906105e8565b60405180910390f35b610094600480360381019061008f9190610674565b61013c565b6040516100a39392919061073a565b60405180910390f35b6100c660048036038101906100c19190610771565b610190565b6040516100d391906108ad565b60405180910390f35b6100e461032a565b6040516100f191906108f0565b60405180910390f35b610114600480360381019061010f9190610930565b61034e565b005b600160009054906101000a900473ffffffffffffffffffffffffffffffffffffffff1681565b6002602052816000526040600020818154811061015857600080fd5b9060005260206000209060030201600091509150508060000160009054906101000a900460ff16908060010154908060020154905083565b606060008054906101000a900473ffffffffffffffffffffffffffffffffffffffff1673ffffffffffffffffffffffffffffffffffffffff16630b2551c2836040518263ffffffff1660e01b81526004016101eb9190610997565b602060405180830381865afa158015610208573d6000803e3d6000fd5b505050506040513d601f19601f8201168201806040525081019061022c91906109ea565b61026b576040517f08c379a000000000000000000000000000000000000000000000000000000000815260040161026290610a74565b60405180910390fd5b60026000838152602001908152602001600020805480602002602001604051908101604052809291908181526020016000905b8282101561031f57838290600052602060002090600302016040518060600160405290816000820160009054906101000a900460ff1660058111156102e6576102e56106b4565b5b60058111156102f8576102f76106b4565b5b8152602001600182015481526020016002820154815250508152602001906001019061029e565b505050509050919050565b60008054906101000a900473ffffffffffffffffffffffffffffffffffffffff1681565b60008054906101000a900473ffffffffffffffffffffffffffffffffffffffff1673ffffffffffffffffffffffffffffffffffffffff16630b2551c2856040518263ffffffff1660e01b81526004016103a79190610997565b602060405180830381865afa1580156103c4573d6000803e3d6000fd5b505050506040513d601f19601f820116820180604052508101906103e891906109ea565b610427576040517f08c379a000000000000000000000000000000000000000000000000000000000815260040161041e90610b06565b60405180910390fd5b600260008581526020019081526020016000206040518060600160405280856005811115610458576104576106b4565b5b815260200184815260200183815250908060018154018082558091505060019003906000526020600020906003020160009091909190915060008201518160000160006101000a81548160ff021916908360058111156104bb576104ba6106b4565b5b021790555060208201518160010155604082015181600201555050600160009054906101000a900473ffffffffffffffffffffffffffffffffffffffff1673ffffffffffffffffffffffffffffffffffffffff1663a2cf0c56856040518263ffffffff1660e01b81526004016105319190610b72565b600060405180830381600087803b15801561054b57600080fd5b505af115801561055f573d6000803e3d6000fd5b5050505050505050565b600073ffffffffffffffffffffffffffffffffffffffff82169050919050565b6000819050919050565b60006105ae6105a96105a484610569565b610589565b610569565b9050919050565b60006105c082610593565b9050919050565b60006105d2826105b5565b9050919050565b6105e2816105c7565b82525050565b60006020820190506105fd60008301846105d9565b92915050565b600080fd5b6000819050919050565b61061b81610608565b811461062657600080fd5b50565b60008135905061063881610612565b92915050565b6000819050919050565b6106518161063e565b811461065c57600080fd5b50565b60008135905061066e81610648565b92915050565b6000806040838503121561068b5761068a610603565b5b600061069985828601610629565b92505060206106aa8582860161065f565b9150509250929050565b7f4e487b7100000000000000000000000000000000000000000000000000000000600052602160045260246000fd5b600681106106f4576106f36106b4565b5b50565b6000819050610705826106e3565b919050565b6000610715826106f7565b9050919050565b6107258161070a565b82525050565b61073481610608565b82525050565b600060608201905061074f600083018661071c565b61075c602083018561072b565b610769604083018461072b565b949350505050565b60006020828403121561078757610786610603565b5b600061079584828501610629565b91505092915050565b600081519050919050565b600082825260208201905092915050565b6000819050602082019050919050565b6107d38161070a565b82525050565b6107e281610608565b82525050565b6060820160008201516107fe60008501826107ca565b50602082015161081160208501826107d9565b50604082015161082460408501826107d9565b50505050565b600061083683836107e8565b60608301905092915050565b6000602082019050919050565b600061085a8261079e565b61086481856107a9565b935061086f836107ba565b8060005b838110156108a0578151610887888261082a565b975061089283610842565b925050600181019050610873565b5085935050505092915050565b600060208201905081810360008301526108c7818461084f565b905092915050565b60006108da826105b5565b9050919050565b6108ea816108cf565b82525050565b600060208201905061090560008301846108e1565b92915050565b6006811061091857600080fd5b50565b60008135905061092a8161090b565b92915050565b6000806000806080858703121561094a57610949610603565b5b600061095887828801610629565b94505060206109698782880161091b565b935050604061097a87828801610629565b925050606061098b87828801610629565b91505092959194509250565b60006020820190506109ac600083018461072b565b92915050565b60008115159050919050565b6109c7816109b2565b81146109d257600080fd5b50565b6000815190506109e4816109be565b92915050565b600060208284031215610a00576109ff610603565b5b6000610a0e848285016109d5565b91505092915050565b600082825260208201905092915050565b7f55736572206e6f74207265676973746572656420746f2073797374656d210000600082015250565b6000610a5e601e83610a17565b9150610a6982610a28565b602082019050919050565b60006020820190508181036000830152610a8d81610a51565b9050919050565b7f50617469656e742f6e65772d6f776e6572206e6f74207265676973746572656460008201527f20746f2073797374656d21000000000000000000000000000000000000000000602082015250565b6000610af0602b83610a17565b9150610afb82610a94565b604082019050919050565b60006020820190508181036000830152610b1f81610ae3565b9050919050565b7f4e657720646174612061646465642e0000000000000000000000000000000000600082015250565b6000610b5c600f83610a17565b9150610b6782610b26565b602082019050919050565b6000604082019050610b87600083018461072b565b8181036020830152610b9881610b4f565b90509291505056fea26469706673582212202b3e798324c43618ad3eb65364abc1e1211ee597de9f8e255d133df699868bc664736f6c634300080a0033",
      "opcodes": "PUSH1 0x80 PUSH1 0x40 MSTORE CALLVALUE DUP1 ISZERO PUSH2 0x10 JUMPI PUSH1 0x0 DUP1 REVERT JUMPDEST POP PUSH1 0x40 MLOAD PUSH2 0xD42 CODESIZE SUB DUP1 PUSH2 0xD42 DUP4 CODECOPY DUP2 DUP2 ADD PUSH1 0x40 MSTORE DUP2 ADD SWAP1 PUSH2 0x32 SWAP2 SWAP1 PUSH2 0x11D JUMP JUMPDEST DUP2 PUSH1 0x0 DUP1 PUSH2 0x100 EXP DUP2 SLOAD DUP2 PUSH20 0xFFFFFFFFFFFFFFFFFFFFFFFFFFFFFFFFFFFFFFFF MUL NOT AND SWAP1 DUP4 PUSH20 0xFFFFFFFFFFFFFFFFFFFFFFFFFFFFFFFFFFFFFFFF AND MUL OR SWAP1 SSTORE POP DUP1 PUSH1 0x1 PUSH1 0x0 PUSH2 0x100 EXP DUP2 SLOAD DUP2 PUSH20 0xFFFFFFFFFFFFFFFFFFFFFFFFFFFFFFFFFFFFFFFF MUL NOT AND SWAP1 DUP4 PUSH20 0xFFFFFFFFFFFFFFFFFFFFFFFFFFFFFFFFFFFFFFFF AND MUL OR SWAP1 SSTORE POP POP POP PUSH2 0x15D JUMP JUMPDEST PUSH1 0x0 DUP1 REVERT JUMPDEST PUSH1 0x0 PUSH20 0xFFFFFFFFFFFFFFFFFFFFFFFFFFFFFFFFFFFFFFFF DUP3 AND SWAP1 POP SWAP2 SWAP1 POP JUMP JUMPDEST PUSH1 0x0 PUSH2 0xEA DUP3 PUSH2 0xBF JUMP JUMPDEST SWAP1 POP SWAP2 SWAP1 POP JUMP JUMPDEST PUSH2 0xFA DUP2 PUSH2 0xDF JUMP JUMPDEST DUP2 EQ PUSH2 0x105 JUMPI PUSH1 0x0 DUP1 REVERT JUMPDEST POP JUMP JUMPDEST PUSH1 0x0 DUP2 MLOAD SWAP1 POP PUSH2 0x117 DUP2 PUSH2 0xF1 JUMP JUMPDEST SWAP3 SWAP2 POP POP JUMP JUMPDEST PUSH1 0x0 DUP1 PUSH1 0x40 DUP4 DUP6 SUB SLT ISZERO PUSH2 0x134 JUMPI PUSH2 0x133 PUSH2 0xBA JUMP JUMPDEST JUMPDEST PUSH1 0x0 PUSH2 0x142 DUP6 DUP3 DUP7 ADD PUSH2 0x108 JUMP JUMPDEST SWAP3 POP POP PUSH1 0x20 PUSH2 0x153 DUP6 DUP3 DUP7 ADD PUSH2 0x108 JUMP JUMPDEST SWAP2 POP POP SWAP3 POP SWAP3 SWAP1 POP JUMP JUMPDEST PUSH2 0xBD6 DUP1 PUSH2 0x16C PUSH1 0x0 CODECOPY PUSH1 0x0 RETURN INVALID PUSH1 0x80 PUSH1 0x40 MSTORE CALLVALUE DUP1 ISZERO PUSH2 0x10 JUMPI PUSH1 0x0 DUP1 REVERT JUMPDEST POP PUSH1 0x4 CALLDATASIZE LT PUSH2 0x57 JUMPI PUSH1 0x0 CALLDATALOAD PUSH1 0xE0 SHR DUP1 PUSH4 0x1D755579 EQ PUSH2 0x5C JUMPI DUP1 PUSH4 0x2CB73406 EQ PUSH2 0x7A JUMPI DUP1 PUSH4 0x65375A04 EQ PUSH2 0xAC JUMPI DUP1 PUSH4 0x7B103999 EQ PUSH2 0xDC JUMPI DUP1 PUSH4 0xD18F403D EQ PUSH2 0xFA JUMPI JUMPDEST PUSH1 0x0 DUP1 REVERT JUMPDEST PUSH2 0x64 PUSH2 0x116 JUMP JUMPDEST PUSH1 0x40 MLOAD PUSH2 0x71 SWAP2 SWAP1 PUSH2 0x5E8 JUMP JUMPDEST PUSH1 0x40 MLOAD DUP1 SWAP2 SUB SWAP1 RETURN JUMPDEST PUSH2 0x94 PUSH1 0x4 DUP1 CALLDATASIZE SUB DUP2 ADD SWAP1 PUSH2 0x8F SWAP2 SWAP1 PUSH2 0x674 JUMP JUMPDEST PUSH2 0x13C JUMP JUMPDEST PUSH1 0x40 MLOAD PUSH2 0xA3 SWAP4 SWAP3 SWAP2 SWAP1 PUSH2 0x73A JUMP JUMPDEST PUSH1 0x40 MLOAD DUP1 SWAP2 SUB SWAP1 RETURN JUMPDEST PUSH2 0xC6 PUSH1 0x4 DUP1 CALLDATASIZE SUB DUP2 ADD SWAP1 PUSH2 0xC1 SWAP2 SWAP1 PUSH2 0x771 JUMP JUMPDEST PUSH2 0x190 JUMP JUMPDEST PUSH1 0x40 MLOAD PUSH2 0xD3 SWAP2 SWAP1 PUSH2 0x8AD JUMP JUMPDEST PUSH1 0x40 MLOAD DUP1 SWAP2 SUB SWAP1 RETURN JUMPDEST PUSH2 0xE4 PUSH2 0x32A JUMP JUMPDEST PUSH1 0x40 MLOAD PUSH2 0xF1 SWAP2 SWAP1 PUSH2 0x8F0 JUMP JUMPDEST PUSH1 0x40 MLOAD DUP1 SWAP2 SUB SWAP1 RETURN JUMPDEST PUSH2 0x114 PUSH1 0x4 DUP1 CALLDATASIZE SUB DUP2 ADD SWAP1 PUSH2 0x10F SWAP2 SWAP1 PUSH2 0x930 JUMP JUMPDEST PUSH2 0x34E JUMP JUMPDEST STOP JUMPDEST PUSH1 0x1 PUSH1 0x0 SWAP1 SLOAD SWAP1 PUSH2 0x100 EXP SWAP1 DIV PUSH20 0xFFFFFFFFFFFFFFFFFFFFFFFFFFFFFFFFFFFFFFFF AND DUP2 JUMP JUMPDEST PUSH1 0x2 PUSH1 0x20 MSTORE DUP2 PUSH1 0x0 MSTORE PUSH1 0x40 PUSH1 0x0 KECCAK256 DUP2 DUP2 SLOAD DUP2 LT PUSH2 0x158 JUMPI PUSH1 0x0 DUP1 REVERT JUMPDEST SWAP1 PUSH1 0x0 MSTORE PUSH1 0x20 PUSH1 0x0 KECCAK256 SWAP1 PUSH1 0x3 MUL ADD PUSH1 0x0 SWAP2 POP SWAP2 POP POP DUP1 PUSH1 0x0 ADD PUSH1 0x0 SWAP1 SLOAD SWAP1 PUSH2 0x100 EXP SWAP1 DIV PUSH1 0xFF AND SWAP1 DUP1 PUSH1 0x1 ADD SLOAD SWAP1 DUP1 PUSH1 0x2 ADD SLOAD SWAP1 POP DUP4 JUMP JUMPDEST PUSH1 0x60 PUSH1 0x0 DUP1 SLOAD SWAP1 PUSH2 0x100 EXP SWAP1 DIV PUSH20 0xFFFFFFFFFFFFFFFFFFFFFFFFFFFFFFFFFFFFFFFF AND PUSH20 0xFFFFFFFFFFFFFFFFFFFFFFFFFFFFFFFFFFFFFFFF AND PUSH4 0xB2551C2 DUP4 PUSH1 0x40 MLOAD DUP3 PUSH4 0xFFFFFFFF AND PUSH1 0xE0 SHL DUP2 MSTORE PUSH1 0x4 ADD PUSH2 0x1EB SWAP2 SWAP1 PUSH2 0x997 JUMP JUMPDEST PUSH1 0x20 PUSH1 0x40 MLOAD DUP1 DUP4 SUB DUP2 DUP7 GAS STATICCALL ISZERO DUP1 ISZERO PUSH2 0x208 JUMPI RETURNDATASIZE PUSH1 0x0 DUP1 RETURNDATACOPY RETURNDATASIZE PUSH1 0x0 REVERT JUMPDEST POP POP POP POP PUSH1 0x40 MLOAD RETURNDATASIZE PUSH1 0x1F NOT PUSH1 0x1F DUP3 ADD AND DUP3 ADD DUP1 PUSH1 0x40 MSTORE POP DUP2 ADD SWAP1 PUSH2 0x22C SWAP2 SWAP1 PUSH2 0x9EA JUMP JUMPDEST PUSH2 0x26B JUMPI PUSH1 0x40 MLOAD PUSH32 0x8C379A000000000000000000000000000000000000000000000000000000000 DUP2 MSTORE PUSH1 0x4 ADD PUSH2 0x262 SWAP1 PUSH2 0xA74 JUMP JUMPDEST PUSH1 0x40 MLOAD DUP1 SWAP2 SUB SWAP1 REVERT JUMPDEST PUSH1 0x2 PUSH1 0x0 DUP4 DUP2 MSTORE PUSH1 0x20 ADD SWAP1 DUP2 MSTORE PUSH1 0x20 ADD PUSH1 0x0 KECCAK256 DUP1 SLOAD DUP1 PUSH1 0x20 MUL PUSH1 0x20 ADD PUSH1 0x40 MLOAD SWAP1 DUP2 ADD PUSH1 0x40 MSTORE DUP1 SWAP3 SWAP2 SWAP1 DUP2 DUP2 MSTORE PUSH1 0x20 ADD PUSH1 0x0 SWAP1 JUMPDEST DUP3 DUP3 LT ISZERO PUSH2 0x31F JUMPI DUP4 DUP3 SWAP1 PUSH1 0x0 MSTORE PUSH1 0x20 PUSH1 0x0 KECCAK256 SWAP1 PUSH1 0x3 MUL ADD PUSH1 0x40 MLOAD DUP1 PUSH1 0x60 ADD PUSH1 0x40 MSTORE SWAP1 DUP2 PUSH1 0x0 DUP3 ADD PUSH1 0x0 SWAP1 SLOAD SWAP1 PUSH2 0x100 EXP SWAP1 DIV PUSH1 0xFF AND PUSH1 0x5 DUP2 GT ISZERO PUSH2 0x2E6 JUMPI PUSH2 0x2E5 PUSH2 0x6B4 JUMP JUMPDEST JUMPDEST PUSH1 0x5 DUP2 GT ISZERO PUSH2 0x2F8 JUMPI PUSH2 0x2F7 PUSH2 0x6B4 JUMP JUMPDEST JUMPDEST DUP2 MSTORE PUSH1 0x20 ADD PUSH1 0x1 DUP3 ADD SLOAD DUP2 MSTORE PUSH1 0x20 ADD PUSH1 0x2 DUP3 ADD SLOAD DUP2 MSTORE POP POP DUP2 MSTORE PUSH1 0x20 ADD SWAP1 PUSH1 0x1 ADD SWAP1 PUSH2 0x29E JUMP JUMPDEST POP POP POP POP SWAP1 POP SWAP2 SWAP1 POP JUMP JUMPDEST PUSH1 0x0 DUP1 SLOAD SWAP1 PUSH2 0x100 EXP SWAP1 DIV PUSH20 0xFFFFFFFFFFFFFFFFFFFFFFFFFFFFFFFFFFFFFFFF AND DUP2 JUMP JUMPDEST PUSH1 0x0 DUP1 SLOAD SWAP1 PUSH2 0x100 EXP SWAP1 DIV PUSH20 0xFFFFFFFFFFFFFFFFFFFFFFFFFFFFFFFFFFFFFFFF AND PUSH20 0xFFFFFFFFFFFFFFFFFFFFFFFFFFFFFFFFFFFFFFFF AND PUSH4 0xB2551C2 DUP6 PUSH1 0x40 MLOAD DUP3 PUSH4 0xFFFFFFFF AND PUSH1 0xE0 SHL DUP2 MSTORE PUSH1 0x4 ADD PUSH2 0x3A7 SWAP2 SWAP1 PUSH2 0x997 JUMP JUMPDEST PUSH1 0x20 PUSH1 0x40 MLOAD DUP1 DUP4 SUB DUP2 DUP7 GAS STATICCALL ISZERO DUP1 ISZERO PUSH2 0x3C4 JUMPI RETURNDATASIZE PUSH1 0x0 DUP1 RETURNDATACOPY RETURNDATASIZE PUSH1 0x0 REVERT JUMPDEST POP POP POP POP PUSH1 0x40 MLOAD RETURNDATASIZE PUSH1 0x1F NOT PUSH1 0x1F DUP3 ADD AND DUP3 ADD DUP1 PUSH1 0x40 MSTORE POP DUP2 ADD SWAP1 PUSH2 0x3E8 SWAP2 SWAP1 PUSH2 0x9EA JUMP JUMPDEST PUSH2 0x427 JUMPI PUSH1 0x40 MLOAD PUSH32 0x8C379A000000000000000000000000000000000000000000000000000000000 DUP2 MSTORE PUSH1 0x4 ADD PUSH2 0x41E SWAP1 PUSH2 0xB06 JUMP JUMPDEST PUSH1 0x40 MLOAD DUP1 SWAP2 SUB SWAP1 REVERT JUMPDEST PUSH1 0x2 PUSH1 0x0 DUP6 DUP2 MSTORE PUSH1 0x20 ADD SWAP1 DUP2 MSTORE PUSH1 0x20 ADD PUSH1 0x0 KECCAK256 PUSH1 0x40 MLOAD DUP1 PUSH1 0x60 ADD PUSH1 0x40 MSTORE DUP1 DUP6 PUSH1 0x5 DUP2 GT ISZERO PUSH2 0x458 JUMPI PUSH2 0x457 PUSH2 0x6B4 JUMP JUMPDEST JUMPDEST DUP2 MSTORE PUSH1 0x20 ADD DUP5 DUP2 MSTORE PUSH1 0x20 ADD DUP4 DUP2 MSTORE POP SWAP1 DUP1 PUSH1 0x1 DUP2 SLOAD ADD DUP1 DUP3 SSTORE DUP1 SWAP2 POP POP PUSH1 0x1 SWAP1 SUB SWAP1 PUSH1 0x0 MSTORE PUSH1 0x20 PUSH1 0x0 KECCAK256 SWAP1 PUSH1 0x3 MUL ADD PUSH1 0x0 SWAP1 SWAP2 SWAP1 SWAP2 SWAP1 SWAP2 POP PUSH1 0x0 DUP3 ADD MLOAD DUP2 PUSH1 0x0 ADD PUSH1 0x0 PUSH2 0x100 EXP DUP2 SLOAD DUP2 PUSH1 0xFF MUL NOT AND SWAP1 DUP4 PUSH1 0x5 DUP2 GT ISZERO PUSH2 0x4BB JUMPI PUSH2 0x4BA PUSH2 0x6B4 JUMP JUMPDEST JUMPDEST MUL OR SWAP1 SSTORE POP PUSH1 0x20 DUP3 ADD MLOAD DUP2 PUSH1 0x1 ADD SSTORE PUSH1 0x40 DUP3 ADD MLOAD DUP2 PUSH1 0x2 ADD SSTORE POP POP PUSH1 0x1 PUSH1 0x0 SWAP1 SLOAD SWAP1 PUSH2 0x100 EXP SWAP1 DIV PUSH20 0xFFFFFFFFFFFFFFFFFFFFFFFFFFFFFFFFFFFFFFFF AND PUSH20 0xFFFFFFFFFFFFFFFFFFFFFFFFFFFFFFFFFFFFFFFF AND PUSH4 0xA2CF0C56 DUP6 PUSH1 0x40 MLOAD DUP3 PUSH4 0xFFFFFFFF AND PUSH1 0xE0 SHL DUP2 MSTORE PUSH1 0x4 ADD PUSH2 0x531 SWAP2 SWAP1 PUSH2 0xB72 JUMP JUMPDEST PUSH1 0x0 PUSH1 0x40 MLOAD DUP1 DUP4 SUB DUP2 PUSH1 0x0 DUP8 DUP1 EXTCODESIZE ISZERO DUP1 ISZERO PUSH2 0x54B JUMPI PUSH1 0x0 DUP1 REVERT JUMPDEST POP GAS CALL ISZERO DUP1 ISZERO PUSH2 0x55F JUMPI RETURNDATASIZE PUSH1 0x0 DUP1 RETURNDATACOPY RETURNDATASIZE PUSH1 0x0 REVERT JUMPDEST POP POP POP POP POP POP POP POP JUMP JUMPDEST PUSH1 0x0 PUSH20 0xFFFFFFFFFFFFFFFFFFFFFFFFFFFFFFFFFFFFFFFF DUP3 AND SWAP1 POP SWAP2 SWAP1 POP JUMP JUMPDEST PUSH1 0x0 DUP2 SWAP1 POP SWAP2 SWAP1 POP JUMP JUMPDEST PUSH1 0x0 PUSH2 0x5AE PUSH2 0x5A9 PUSH2 0x5A4 DUP5 PUSH2 0x569 JUMP JUMPDEST PUSH2 0x589 JUMP JUMPDEST PUSH2 0x569 JUMP JUMPDEST SWAP1 POP SWAP2 SWAP1 POP JUMP JUMPDEST PUSH1 0x0 PUSH2 0x5C0 DUP3 PUSH2 0x593 JUMP JUMPDEST SWAP1 POP SWAP2 SWAP1 POP JUMP JUMPDEST PUSH1 0x0 PUSH2 0x5D2 DUP3 PUSH2 0x5B5 JUMP JUMPDEST SWAP1 POP SWAP2 SWAP1 POP JUMP JUMPDEST PUSH2 0x5E2 DUP2 PUSH2 0x5C7 JUMP JUMPDEST DUP3 MSTORE POP POP JUMP JUMPDEST PUSH1 0x0 PUSH1 0x20 DUP3 ADD SWAP1 POP PUSH2 0x5FD PUSH1 0x0 DUP4 ADD DUP5 PUSH2 0x5D9 JUMP JUMPDEST SWAP3 SWAP2 POP POP JUMP JUMPDEST PUSH1 0x0 DUP1 REVERT JUMPDEST PUSH1 0x0 DUP2 SWAP1 POP SWAP2 SWAP1 POP JUMP JUMPDEST PUSH2 0x61B DUP2 PUSH2 0x608 JUMP JUMPDEST DUP2 EQ PUSH2 0x626 JUMPI PUSH1 0x0 DUP1 REVERT JUMPDEST POP JUMP JUMPDEST PUSH1 0x0 DUP2 CALLDATALOAD SWAP1 POP PUSH2 0x638 DUP2 PUSH2 0x612 JUMP JUMPDEST SWAP3 SWAP2 POP POP JUMP JUMPDEST PUSH1 0x0 DUP2 SWAP1 POP SWAP2 SWAP1 POP JUMP JUMPDEST PUSH2 0x651 DUP2 PUSH2 0x63E JUMP JUMPDEST DUP2 EQ PUSH2 0x65C JUMPI PUSH1 0x0 DUP1 REVERT JUMPDEST POP JUMP JUMPDEST PUSH1 0x0 DUP2 CALLDATALOAD SWAP1 POP PUSH2 0x66E DUP2 PUSH2 0x648 JUMP JUMPDEST SWAP3 SWAP2 POP POP JUMP JUMPDEST PUSH1 0x0 DUP1 PUSH1 0x40 DUP4 DUP6 SUB SLT ISZERO PUSH2 0x68B JUMPI PUSH2 0x68A PUSH2 0x603 JUMP JUMPDEST JUMPDEST PUSH1 0x0 PUSH2 0x699 DUP6 DUP3 DUP7 ADD PUSH2 0x629 JUMP JUMPDEST SWAP3 POP POP PUSH1 0x20 PUSH2 0x6AA DUP6 DUP3 DUP7 ADD PUSH2 0x65F JUMP JUMPDEST SWAP2 POP POP SWAP3 POP SWAP3 SWAP1 POP JUMP JUMPDEST PUSH32 0x4E487B7100000000000000000000000000000000000000000000000000000000 PUSH1 0x0 MSTORE PUSH1 0x21 PUSH1 0x4 MSTORE PUSH1 0x24 PUSH1 0x0 REVERT JUMPDEST PUSH1 0x6 DUP2 LT PUSH2 0x6F4 JUMPI PUSH2 0x6F3 PUSH2 0x6B4 JUMP JUMPDEST JUMPDEST POP JUMP JUMPDEST PUSH1 0x0 DUP2 SWAP1 POP PUSH2 0x705 DUP3 PUSH2 0x6E3 JUMP JUMPDEST SWAP2 SWAP1 POP JUMP JUMPDEST PUSH1 0x0 PUSH2 0x715 DUP3 PUSH2 0x6F7 JUMP JUMPDEST SWAP1 POP SWAP2 SWAP1 POP JUMP JUMPDEST PUSH2 0x725 DUP2 PUSH2 0x70A JUMP JUMPDEST DUP3 MSTORE POP POP JUMP JUMPDEST PUSH2 0x734 DUP2 PUSH2 0x608 JUMP JUMPDEST DUP3 MSTORE POP POP JUMP JUMPDEST PUSH1 0x0 PUSH1 0x60 DUP3 ADD SWAP1 POP PUSH2 0x74F PUSH1 0x0 DUP4 ADD DUP7 PUSH2 0x71C JUMP JUMPDEST PUSH2 0x75C PUSH1 0x20 DUP4 ADD DUP6 PUSH2 0x72B JUMP JUMPDEST PUSH2 0x769 PUSH1 0x40 DUP4 ADD DUP5 PUSH2 0x72B JUMP JUMPDEST SWAP5 SWAP4 POP POP POP POP JUMP JUMPDEST PUSH1 0x0 PUSH1 0x20 DUP3 DUP5 SUB SLT ISZERO PUSH2 0x787 JUMPI PUSH2 0x786 PUSH2 0x603 JUMP JUMPDEST JUMPDEST PUSH1 0x0 PUSH2 0x795 DUP5 DUP3 DUP6 ADD PUSH2 0x629 JUMP JUMPDEST SWAP2 POP POP SWAP3 SWAP2 POP POP JUMP JUMPDEST PUSH1 0x0 DUP2 MLOAD SWAP1 POP SWAP2 SWAP1 POP JUMP JUMPDEST PUSH1 0x0 DUP3 DUP3 MSTORE PUSH1 0x20 DUP3 ADD SWAP1 POP SWAP3 SWAP2 POP POP JUMP JUMPDEST PUSH1 0x0 DUP2 SWAP1 POP PUSH1 0x20 DUP3 ADD SWAP1 POP SWAP2 SWAP1 POP JUMP JUMPDEST PUSH2 0x7D3 DUP2 PUSH2 0x70A JUMP JUMPDEST DUP3 MSTORE POP POP JUMP JUMPDEST PUSH2 0x7E2 DUP2 PUSH2 0x608 JUMP JUMPDEST DUP3 MSTORE POP POP JUMP JUMPDEST PUSH1 0x60 DUP3 ADD PUSH1 0x0 DUP3 ADD MLOAD PUSH2 0x7FE PUSH1 0x0 DUP6 ADD DUP3 PUSH2 0x7CA JUMP JUMPDEST POP PUSH1 0x20 DUP3 ADD MLOAD PUSH2 0x811 PUSH1 0x20 DUP6 ADD DUP3 PUSH2 0x7D9 JUMP JUMPDEST POP PUSH1 0x40 DUP3 ADD MLOAD PUSH2 0x824 PUSH1 0x40 DUP6 ADD DUP3 PUSH2 0x7D9 JUMP JUMPDEST POP POP POP POP JUMP JUMPDEST PUSH1 0x0 PUSH2 0x836 DUP4 DUP4 PUSH2 0x7E8 JUMP JUMPDEST PUSH1 0x60 DUP4 ADD SWAP1 POP SWAP3 SWAP2 POP POP JUMP JUMPDEST PUSH1 0x0 PUSH1 0x20 DUP3 ADD SWAP1 POP SWAP2 SWAP1 POP JUMP JUMPDEST PUSH1 0x0 PUSH2 0x85A DUP3 PUSH2 0x79E JUMP JUMPDEST PUSH2 0x864 DUP2 DUP6 PUSH2 0x7A9 JUMP JUMPDEST SWAP4 POP PUSH2 0x86F DUP4 PUSH2 0x7BA JUMP JUMPDEST DUP1 PUSH1 0x0 JUMPDEST DUP4 DUP2 LT ISZERO PUSH2 0x8A0 JUMPI DUP2 MLOAD PUSH2 0x887 DUP9 DUP3 PUSH2 0x82A JUMP JUMPDEST SWAP8 POP PUSH2 0x892 DUP4 PUSH2 0x842 JUMP JUMPDEST SWAP3 POP POP PUSH1 0x1 DUP2 ADD SWAP1 POP PUSH2 0x873 JUMP JUMPDEST POP DUP6 SWAP4 POP POP POP POP SWAP3 SWAP2 POP POP JUMP JUMPDEST PUSH1 0x0 PUSH1 0x20 DUP3 ADD SWAP1 POP DUP2 DUP2 SUB PUSH1 0x0 DUP4 ADD MSTORE PUSH2 0x8C7 DUP2 DUP5 PUSH2 0x84F JUMP JUMPDEST SWAP1 POP SWAP3 SWAP2 POP POP JUMP JUMPDEST PUSH1 0x0 PUSH2 0x8DA DUP3 PUSH2 0x5B5 JUMP JUMPDEST SWAP1 POP SWAP2 SWAP1 POP JUMP JUMPDEST PUSH2 0x8EA DUP2 PUSH2 0x8CF JUMP JUMPDEST DUP3 MSTORE POP POP JUMP JUMPDEST PUSH1 0x0 PUSH1 0x20 DUP3 ADD SWAP1 POP PUSH2 0x905 PUSH1 0x0 DUP4 ADD DUP5 PUSH2 0x8E1 JUMP JUMPDEST SWAP3 SWAP2 POP POP JUMP JUMPDEST PUSH1 0x6 DUP2 LT PUSH2 0x918 JUMPI PUSH1 0x0 DUP1 REVERT JUMPDEST POP JUMP JUMPDEST PUSH1 0x0 DUP2 CALLDATALOAD SWAP1 POP PUSH2 0x92A DUP2 PUSH2 0x90B JUMP JUMPDEST SWAP3 SWAP2 POP POP JUMP JUMPDEST PUSH1 0x0 DUP1 PUSH1 0x0 DUP1 PUSH1 0x80 DUP6 DUP8 SUB SLT ISZERO PUSH2 0x94A JUMPI PUSH2 0x949 PUSH2 0x603 JUMP JUMPDEST JUMPDEST PUSH1 0x0 PUSH2 0x958 DUP8 DUP3 DUP9 ADD PUSH2 0x629 JUMP JUMPDEST SWAP5 POP POP PUSH1 0x20 PUSH2 0x969 DUP8 DUP3 DUP9 ADD PUSH2 0x91B JUMP JUMPDEST SWAP4 POP POP PUSH1 0x40 PUSH2 0x97A DUP8 DUP3 DUP9 ADD PUSH2 0x629 JUMP JUMPDEST SWAP3 POP POP PUSH1 0x60 PUSH2 0x98B DUP8 DUP3 DUP9 ADD PUSH2 0x629 JUMP JUMPDEST SWAP2 POP POP SWAP3 SWAP6 SWAP2 SWAP5 POP SWAP3 POP JUMP JUMPDEST PUSH1 0x0 PUSH1 0x20 DUP3 ADD SWAP1 POP PUSH2 0x9AC PUSH1 0x0 DUP4 ADD DUP5 PUSH2 0x72B JUMP JUMPDEST SWAP3 SWAP2 POP POP JUMP JUMPDEST PUSH1 0x0 DUP2 ISZERO ISZERO SWAP1 POP SWAP2 SWAP1 POP JUMP JUMPDEST PUSH2 0x9C7 DUP2 PUSH2 0x9B2 JUMP JUMPDEST DUP2 EQ PUSH2 0x9D2 JUMPI PUSH1 0x0 DUP1 REVERT JUMPDEST POP JUMP JUMPDEST PUSH1 0x0 DUP2 MLOAD SWAP1 POP PUSH2 0x9E4 DUP2 PUSH2 0x9BE JUMP JUMPDEST SWAP3 SWAP2 POP POP JUMP JUMPDEST PUSH1 0x0 PUSH1 0x20 DUP3 DUP5 SUB SLT ISZERO PUSH2 0xA00 JUMPI PUSH2 0x9FF PUSH2 0x603 JUMP JUMPDEST JUMPDEST PUSH1 0x0 PUSH2 0xA0E DUP5 DUP3 DUP6 ADD PUSH2 0x9D5 JUMP JUMPDEST SWAP2 POP POP SWAP3 SWAP2 POP POP JUMP JUMPDEST PUSH1 0x0 DUP3 DUP3 MSTORE PUSH1 0x20 DUP3 ADD SWAP1 POP SWAP3 SWAP2 POP POP JUMP JUMPDEST PUSH32 0x55736572206E6F74207265676973746572656420746F2073797374656D210000 PUSH1 0x0 DUP3 ADD MSTORE POP JUMP JUMPDEST PUSH1 0x0 PUSH2 0xA5E PUSH1 0x1E DUP4 PUSH2 0xA17 JUMP JUMPDEST SWAP2 POP PUSH2 0xA69 DUP3 PUSH2 0xA28 JUMP JUMPDEST PUSH1 0x20 DUP3 ADD SWAP1 POP SWAP2 SWAP1 POP JUMP JUMPDEST PUSH1 0x0 PUSH1 0x20 DUP3 ADD SWAP1 POP DUP2 DUP2 SUB PUSH1 0x0 DUP4 ADD MSTORE PUSH2 0xA8D DUP2 PUSH2 0xA51 JUMP JUMPDEST SWAP1 POP SWAP2 SWAP1 POP JUMP JUMPDEST PUSH32 0x50617469656E742F6E65772D6F776E6572206E6F742072656769737465726564 PUSH1 0x0 DUP3 ADD MSTORE PUSH32 0x20746F2073797374656D21000000000000000000000000000000000000000000 PUSH1 0x20 DUP3 ADD MSTORE POP JUMP JUMPDEST PUSH1 0x0 PUSH2 0xAF0 PUSH1 0x2B DUP4 PUSH2 0xA17 JUMP JUMPDEST SWAP2 POP PUSH2 0xAFB DUP3 PUSH2 0xA94 JUMP JUMPDEST PUSH1 0x40 DUP3 ADD SWAP1 POP SWAP2 SWAP1 POP JUMP JUMPDEST PUSH1 0x0 PUSH1 0x20 DUP3 ADD SWAP1 POP DUP2 DUP2 SUB PUSH1 0x0 DUP4 ADD MSTORE PUSH2 0xB1F DUP2 PUSH2 0xAE3 JUMP JUMPDEST SWAP1 POP SWAP2 SWAP1 POP JUMP JUMPDEST PUSH32 0x4E657720646174612061646465642E0000000000000000000000000000000000 PUSH1 0x0 DUP3 ADD MSTORE POP JUMP JUMPDEST PUSH1 0x0 PUSH2 0xB5C PUSH1 0xF DUP4 PUSH2 0xA17 JUMP JUMPDEST SWAP2 POP PUSH2 0xB67 DUP3 PUSH2 0xB26 JUMP JUMPDEST PUSH1 0x20 DUP3 ADD SWAP1 POP SWAP2 SWAP1 POP JUMP JUMPDEST PUSH1 0x0 PUSH1 0x40 DUP3 ADD SWAP1 POP PUSH2 0xB87 PUSH1 0x0 DUP4 ADD DUP5 PUSH2 0x72B JUMP JUMPDEST DUP2 DUP2 SUB PUSH1 0x20 DUP4 ADD MSTORE PUSH2 0xB98 DUP2 PUSH2 0xB4F JUMP JUMPDEST SWAP1 POP SWAP3 SWAP2 POP POP JUMP INVALID LOG2 PUSH5 0x6970667358 0x22 SLT KECCAK256 0x2B RETURNDATACOPY PUSH26 0x8324C43618AD3EB65364ABC1E1211EE597DE9F8E255D133DF699 DUP7 DUP12 0xC6 PUSH5 0x736F6C6343 STOP ADDMOD EXP STOP CALLER "
    },
    "gasEstimates": {
      "creation": {
        "codeDepositCost": "606000",
        "executionCost": "infinite",
        "totalCost": "infinite"
      },
      "external": {
        "Data(bytes32,uint256)": "infinite",
        "addEHRdata(bytes32,uint8,bytes32,bytes32)": "infinite",
        "notificationManager()": "infinite",
        "registry()": "infinite",
        "searchData(bytes32)": "infinite"
      }
    },
    "methodIdentifiers": {
      "Data(bytes32,uint256)": "2cb73406",
      "addEHRdata(bytes32,uint8,bytes32,bytes32)": "d18f403d",
      "notificationManager()": "1d755579",
      "registry()": "7b103999",
      "searchData(bytes32)": "65375a04"
    }
  },
  "storageLayout": {
    "storage": [
      {
        "astId": 65,
        "contract": "metadata.sol:Metadata",
        "label": "registry",
        "offset": 0,
        "slot": "0",
        "type": "t_contract(Registry)529"
      },
      {
        "astId": 68,
        "contract": "metadata.sol:Metadata",
        "label": "notificationManager",
        "offset": 0,
        "slot": "1",
        "type": "t_contract(NotificationManager)58"
      },
      {
        "astId": 89,
        "contract": "metadata.sol:Metadata",
        "label": "Data",
        "offset": 0,
        "slot": "2",
        "type": "t_mapping(t_bytes32,t_array(t_struct(EHRData)83_storage)dyn_storage)"
      }
    ],
    "types": {
      "t_array(t_struct(EHRData)83_storage)dyn_storage": {
        "base": "t_struct(EHRData)83_storage",
        "encoding": "dynamic_array",
        "label": "struct Metadata.EHRData[]",
        "numberOfBytes": "32"
      },
      "t_bytes32": {
        "encoding": "inplace",
        "label": "bytes32",
        "numberOfBytes": "32"
      },
      "t_contract(NotificationManager)58": {
        "encoding": "inplace",
        "label": "contract NotificationManager",
        "numberOfBytes": "20"
      },
      "t_contract(Registry)529": {
        "encoding": "inplace",
        "label": "contract Registry",
        "numberOfBytes": "20"
      },
      "t_enum(DataType)75": {
        "encoding": "inplace",
        "label": "enum Metadata.DataType",
        "numberOfBytes": "1"
      },
      "t_mapping(t_bytes32,t_array(t_struct(EHRData)83_storage)dyn_storage)": {
        "encoding": "mapping",
        "key": "t_bytes32",
        "label": "mapping(bytes32 => struct Metadata.EHRData[])",
        "numberOfBytes": "32",
        "value": "t_array(t_struct(EHRData)83_storage)dyn_storage"
      },
      "t_struct(EHRData)83_storage": {
        "encoding": "inplace",
        "label": "struct Metadata.EHRData",
        "members": [
          {
            "astId": 78,
            "contract": "metadata.sol:Metadata",
            "label": "dataType",
            "offset": 0,
            "slot": "0",
            "type": "t_enum(DataType)75"
          },
          {
            "astId": 80,
            "contract": "metadata.sol:Metadata",
            "label": "HI",
            "offset": 0,
            "slot": "1",
            "type": "t_bytes32"
          },
          {
            "astId": 82,
            "contract": "metadata.sol:Metadata",
            "label": "encKey",
            "offset": 0,
            "slot": "2",
            "type": "t_bytes32"
          }
        ],
        "numberOfBytes": "96"
      }
    }
  },
  "userdoc": {
    "kind": "user",
    "methods": {},
    "version": 1
  }
}