{
  "abi": [
    {
      "inputs": [
        {
          "internalType": "address",
          "name": "_registryAddress",
          "type": "address"
        },
        {
          "internalType": "address",
          "name": "_notificationManagerAddress",
          "type": "address"
        },
        {
          "internalType": "address",
          "name": "_metadataAddress",
          "type": "address"
        }
      ],
      "stateMutability": "nonpayable",
      "type": "constructor"
    },
    {
      "inputs": [
        {
          "internalType": "bytes32",
          "name": "requesterKey",
          "type": "bytes32"
        },
        {
          "internalType": "bytes32",
          "name": "granterKey",
          "type": "bytes32"
        },
        {
          "internalType": "bytes32",
          "name": "newEncKey",
          "type": "bytes32"
        }
      ],
      "name": "approvePermission",
      "outputs": [],
      "stateMutability": "nonpayable",
      "type": "function"
    },
    {
      "inputs": [],
      "name": "metadata",
      "outputs": [
        {
          "internalType": "contract Metadata",
          "name": "",
          "type": "address"
        }
      ],
      "stateMutability": "view",
      "type": "function"
    },
    {
      "inputs": [],
      "name": "notificationManager",
      "outputs": [
        {
          "internalType": "contract NotificationManager",
          "name": "",
          "type": "address"
        }
      ],
      "stateMutability": "view",
      "type": "function"
    },
    {
      "inputs": [],
      "name": "registry",
      "outputs": [
        {
          "internalType": "contract Registry",
          "name": "",
          "type": "address"
        }
      ],
      "stateMutability": "view",
      "type": "function"
    },
    {
      "inputs": [
        {
          "internalType": "bytes32",
          "name": "requesterKey",
          "type": "bytes32"
        },
        {
          "internalType": "bytes32",
          "name": "granterKey",
          "type": "bytes32"
        }
      ],
      "name": "requestPermission",
      "outputs": [],
      "stateMutability": "nonpayable",
      "type": "function"
    }
  ],
  "devdoc": {
    "kind": "dev",
    "methods": {},
    "version": 1
  },
  "evm": {
    "assembly": "    /* \"permission.sol\":151:2229  contract Permission {... */\n  mstore(0x40, 0x80)\n    /* \"permission.sol\":295:609  constructor(address _registryAddress, address _notificationManagerAddress, address _metadataAddress) {... */\n  callvalue\n  dup1\n  iszero\n  tag_1\n  jumpi\n  0x00\n  dup1\n  revert\ntag_1:\n  pop\n  mload(0x40)\n  sub(codesize, bytecodeSize)\n  dup1\n  bytecodeSize\n  dup4\n  codecopy\n  dup2\n  dup2\n  add\n  0x40\n  mstore\n  dup2\n  add\n  swap1\n  tag_2\n  swap2\n  swap1\n  tag_3\n  jump\t// in\ntag_2:\n    /* \"permission.sol\":427:443  _registryAddress */\n  dup3\n    /* \"permission.sol\":407:415  registry */\n  0x00\n  dup1\n    /* \"permission.sol\":407:444  registry = Registry(_registryAddress) */\n  0x0100\n  exp\n  dup2\n  sload\n  dup2\n  0xffffffffffffffffffffffffffffffffffffffff\n  mul\n  not\n  and\n  swap1\n  dup4\n  0xffffffffffffffffffffffffffffffffffffffff\n  and\n  mul\n  or\n  swap1\n  sstore\n  pop\n    /* \"permission.sol\":497:524  _notificationManagerAddress */\n  dup2\n    /* \"permission.sol\":455:474  notificationManager */\n  0x01\n  0x00\n    /* \"permission.sol\":455:525  notificationManager = NotificationManager(_notificationManagerAddress) */\n  0x0100\n  exp\n  dup2\n  sload\n  dup2\n  0xffffffffffffffffffffffffffffffffffffffff\n  mul\n  not\n  and\n  swap1\n  dup4\n  0xffffffffffffffffffffffffffffffffffffffff\n  and\n  mul\n  or\n  swap1\n  sstore\n  pop\n    /* \"permission.sol\":556:572  _metadataAddress */\n  dup1\n    /* \"permission.sol\":536:544  metadata */\n  0x02\n  0x00\n    /* \"permission.sol\":536:573  metadata = Metadata(_metadataAddress) */\n  0x0100\n  exp\n  dup2\n  sload\n  dup2\n  0xffffffffffffffffffffffffffffffffffffffff\n  mul\n  not\n  and\n  swap1\n  dup4\n  0xffffffffffffffffffffffffffffffffffffffff\n  and\n  mul\n  or\n  swap1\n  sstore\n  pop\n    /* \"permission.sol\":295:609  constructor(address _registryAddress, address _notificationManagerAddress, address _metadataAddress) {... */\n  pop\n  pop\n  pop\n    /* \"permission.sol\":151:2229  contract Permission {... */\n  jump(tag_6)\n    /* \"#utility.yul\":88:205   */\ntag_8:\n    /* \"#utility.yul\":197:198   */\n  0x00\n    /* \"#utility.yul\":194:195   */\n  dup1\n    /* \"#utility.yul\":187:199   */\n  revert\n    /* \"#utility.yul\":334:460   */\ntag_10:\n    /* \"#utility.yul\":371:378   */\n  0x00\n    /* \"#utility.yul\":411:453   */\n  0xffffffffffffffffffffffffffffffffffffffff\n    /* \"#utility.yul\":404:409   */\n  dup3\n    /* \"#utility.yul\":400:454   */\n  and\n    /* \"#utility.yul\":389:454   */\n  swap1\n  pop\n    /* \"#utility.yul\":334:460   */\n  swap2\n  swap1\n  pop\n  jump\t// out\n    /* \"#utility.yul\":466:562   */\ntag_11:\n    /* \"#utility.yul\":503:510   */\n  0x00\n    /* \"#utility.yul\":532:556   */\n  tag_20\n    /* \"#utility.yul\":550:555   */\n  dup3\n    /* \"#utility.yul\":532:556   */\n  tag_10\n  jump\t// in\ntag_20:\n    /* \"#utility.yul\":521:556   */\n  swap1\n  pop\n    /* \"#utility.yul\":466:562   */\n  swap2\n  swap1\n  pop\n  jump\t// out\n    /* \"#utility.yul\":568:690   */\ntag_12:\n    /* \"#utility.yul\":641:665   */\n  tag_22\n    /* \"#utility.yul\":659:664   */\n  dup2\n    /* \"#utility.yul\":641:665   */\n  tag_11\n  jump\t// in\ntag_22:\n    /* \"#utility.yul\":634:639   */\n  dup2\n    /* \"#utility.yul\":631:666   */\n  eq\n    /* \"#utility.yul\":621:684   */\n  tag_23\n  jumpi\n    /* \"#utility.yul\":680:681   */\n  0x00\n    /* \"#utility.yul\":677:678   */\n  dup1\n    /* \"#utility.yul\":670:682   */\n  revert\n    /* \"#utility.yul\":621:684   */\ntag_23:\n    /* \"#utility.yul\":568:690   */\n  pop\n  jump\t// out\n    /* \"#utility.yul\":696:839   */\ntag_13:\n    /* \"#utility.yul\":753:758   */\n  0x00\n    /* \"#utility.yul\":784:790   */\n  dup2\n    /* \"#utility.yul\":778:791   */\n  mload\n    /* \"#utility.yul\":769:791   */\n  swap1\n  pop\n    /* \"#utility.yul\":800:833   */\n  tag_25\n    /* \"#utility.yul\":827:832   */\n  dup2\n    /* \"#utility.yul\":800:833   */\n  tag_12\n  jump\t// in\ntag_25:\n    /* \"#utility.yul\":696:839   */\n  swap3\n  swap2\n  pop\n  pop\n  jump\t// out\n    /* \"#utility.yul\":845:1508   */\ntag_3:\n    /* \"#utility.yul\":933:939   */\n  0x00\n    /* \"#utility.yul\":941:947   */\n  dup1\n    /* \"#utility.yul\":949:955   */\n  0x00\n    /* \"#utility.yul\":998:1000   */\n  0x60\n    /* \"#utility.yul\":986:995   */\n  dup5\n    /* \"#utility.yul\":977:984   */\n  dup7\n    /* \"#utility.yul\":973:996   */\n  sub\n    /* \"#utility.yul\":969:1001   */\n  slt\n    /* \"#utility.yul\":966:1085   */\n  iszero\n  tag_27\n  jumpi\n    /* \"#utility.yul\":1004:1083   */\n  tag_28\n  tag_8\n  jump\t// in\ntag_28:\n    /* \"#utility.yul\":966:1085   */\ntag_27:\n    /* \"#utility.yul\":1124:1125   */\n  0x00\n    /* \"#utility.yul\":1149:1213   */\n  tag_29\n    /* \"#utility.yul\":1205:1212   */\n  dup7\n    /* \"#utility.yul\":1196:1202   */\n  dup3\n    /* \"#utility.yul\":1185:1194   */\n  dup8\n    /* \"#utility.yul\":1181:1203   */\n  add\n    /* \"#utility.yul\":1149:1213   */\n  tag_13\n  jump\t// in\ntag_29:\n    /* \"#utility.yul\":1139:1213   */\n  swap4\n  pop\n    /* \"#utility.yul\":1095:1223   */\n  pop\n    /* \"#utility.yul\":1262:1264   */\n  0x20\n    /* \"#utility.yul\":1288:1352   */\n  tag_30\n    /* \"#utility.yul\":1344:1351   */\n  dup7\n    /* \"#utility.yul\":1335:1341   */\n  dup3\n    /* \"#utility.yul\":1324:1333   */\n  dup8\n    /* \"#utility.yul\":1320:1342   */\n  add\n    /* \"#utility.yul\":1288:1352   */\n  tag_13\n  jump\t// in\ntag_30:\n    /* \"#utility.yul\":1278:1352   */\n  swap3\n  pop\n    /* \"#utility.yul\":1233:1362   */\n  pop\n    /* \"#utility.yul\":1401:1403   */\n  0x40\n    /* \"#utility.yul\":1427:1491   */\n  tag_31\n    /* \"#utility.yul\":1483:1490   */\n  dup7\n    /* \"#utility.yul\":1474:1480   */\n  dup3\n    /* \"#utility.yul\":1463:1472   */\n  dup8\n    /* \"#utility.yul\":1459:1481   */\n  add\n    /* \"#utility.yul\":1427:1491   */\n  tag_13\n  jump\t// in\ntag_31:\n    /* \"#utility.yul\":1417:1491   */\n  swap2\n  pop\n    /* \"#utility.yul\":1372:1501   */\n  pop\n    /* \"#utility.yul\":845:1508   */\n  swap3\n  pop\n  swap3\n  pop\n  swap3\n  jump\t// out\n    /* \"permission.sol\":151:2229  contract Permission {... */\ntag_6:\n  dataSize(sub_0)\n  dup1\n  dataOffset(sub_0)\n  0x00\n  codecopy\n  0x00\n  return\nstop\n\nsub_0: assembly {\n        /* \"permission.sol\":151:2229  contract Permission {... */\n      mstore(0x40, 0x80)\n      callvalue\n      dup1\n      iszero\n      tag_1\n      jumpi\n      0x00\n      dup1\n      revert\n    tag_1:\n      pop\n      jumpi(tag_2, lt(calldatasize, 0x04))\n      shr(0xe0, calldataload(0x00))\n      dup1\n      0x1d755579\n      eq\n      tag_3\n      jumpi\n      dup1\n      0x2f371271\n      eq\n      tag_4\n      jumpi\n      dup1\n      0x392f37e9\n      eq\n      tag_5\n      jumpi\n      dup1\n      0x6938323a\n      eq\n      tag_6\n      jumpi\n      dup1\n      0x7b103999\n      eq\n      tag_7\n      jumpi\n    tag_2:\n      0x00\n      dup1\n      revert\n        /* \"permission.sol\":209:255  NotificationManager public notificationManager */\n    tag_3:\n      tag_8\n      tag_9\n      jump\t// in\n    tag_8:\n      mload(0x40)\n      tag_10\n      swap2\n      swap1\n      tag_11\n      jump\t// in\n    tag_10:\n      mload(0x40)\n      dup1\n      swap2\n      sub\n      swap1\n      return\n        /* \"permission.sol\":969:1883  function approvePermission(... */\n    tag_4:\n      tag_12\n      0x04\n      dup1\n      calldatasize\n      sub\n      dup2\n      add\n      swap1\n      tag_13\n      swap2\n      swap1\n      tag_14\n      jump\t// in\n    tag_13:\n      tag_15\n      jump\t// in\n    tag_12:\n      stop\n        /* \"permission.sol\":262:286  Metadata public metadata */\n    tag_5:\n      tag_16\n      tag_17\n      jump\t// in\n    tag_16:\n      mload(0x40)\n      tag_18\n      swap2\n      swap1\n      tag_19\n      jump\t// in\n    tag_18:\n      mload(0x40)\n      dup1\n      swap2\n      sub\n      swap1\n      return\n        /* \"permission.sol\":617:961  function requestPermission(bytes32 requesterKey, bytes32 granterKey) public {... */\n    tag_6:\n      tag_20\n      0x04\n      dup1\n      calldatasize\n      sub\n      dup2\n      add\n      swap1\n      tag_21\n      swap2\n      swap1\n      tag_22\n      jump\t// in\n    tag_21:\n      tag_23\n      jump\t// in\n    tag_20:\n      stop\n        /* \"permission.sol\":178:202  Registry public registry */\n    tag_7:\n      tag_24\n      tag_25\n      jump\t// in\n    tag_24:\n      mload(0x40)\n      tag_26\n      swap2\n      swap1\n      tag_27\n      jump\t// in\n    tag_26:\n      mload(0x40)\n      dup1\n      swap2\n      sub\n      swap1\n      return\n        /* \"permission.sol\":209:255  NotificationManager public notificationManager */\n    tag_9:\n      0x01\n      0x00\n      swap1\n      sload\n      swap1\n      0x0100\n      exp\n      swap1\n      div\n      0xffffffffffffffffffffffffffffffffffffffff\n      and\n      dup2\n      jump\t// out\n        /* \"permission.sol\":969:1883  function approvePermission(... */\n    tag_15:\n        /* \"permission.sol\":1143:1151  registry */\n      0x00\n      dup1\n      sload\n      swap1\n      0x0100\n      exp\n      swap1\n      div\n      0xffffffffffffffffffffffffffffffffffffffff\n      and\n        /* \"permission.sol\":1143:1161  registry.checkUser */\n      0xffffffffffffffffffffffffffffffffffffffff\n      and\n      0x0b2551c2\n        /* \"permission.sol\":1162:1172  granterKey */\n      dup4\n        /* \"permission.sol\":1143:1173  registry.checkUser(granterKey) */\n      mload(0x40)\n      dup3\n      0xffffffff\n      and\n      0xe0\n      shl\n      dup2\n      mstore\n      0x04\n      add\n      tag_29\n      swap2\n      swap1\n      tag_30\n      jump\t// in\n    tag_29:\n      0x20\n      mload(0x40)\n      dup1\n      dup4\n      sub\n      dup2\n      dup7\n      gas\n      staticcall\n      iszero\n      dup1\n      iszero\n      tag_32\n      jumpi\n      returndatasize\n      0x00\n      dup1\n      returndatacopy\n      revert(0x00, returndatasize)\n    tag_32:\n      pop\n      pop\n      pop\n      pop\n      mload(0x40)\n      returndatasize\n      not(0x1f)\n      0x1f\n      dup3\n      add\n      and\n      dup3\n      add\n      dup1\n      0x40\n      mstore\n      pop\n      dup2\n      add\n      swap1\n      tag_33\n      swap2\n      swap1\n      tag_34\n      jump\t// in\n    tag_33:\n        /* \"permission.sol\":1135:1201  require(registry.checkUser(granterKey), \"Granter not registered!\") */\n      tag_35\n      jumpi\n      mload(0x40)\n      0x08c379a000000000000000000000000000000000000000000000000000000000\n      dup2\n      mstore\n      0x04\n      add\n      tag_36\n      swap1\n      tag_37\n      jump\t// in\n    tag_36:\n      mload(0x40)\n      dup1\n      swap2\n      sub\n      swap1\n      revert\n    tag_35:\n        /* \"permission.sol\":1220:1228  registry */\n      0x00\n      dup1\n      sload\n      swap1\n      0x0100\n      exp\n      swap1\n      div\n      0xffffffffffffffffffffffffffffffffffffffff\n      and\n        /* \"permission.sol\":1220:1238  registry.checkUser */\n      0xffffffffffffffffffffffffffffffffffffffff\n      and\n      0x0b2551c2\n        /* \"permission.sol\":1239:1251  requesterKey */\n      dup5\n        /* \"permission.sol\":1220:1252  registry.checkUser(requesterKey) */\n      mload(0x40)\n      dup3\n      0xffffffff\n      and\n      0xe0\n      shl\n      dup2\n      mstore\n      0x04\n      add\n      tag_38\n      swap2\n      swap1\n      tag_30\n      jump\t// in\n    tag_38:\n      0x20\n      mload(0x40)\n      dup1\n      dup4\n      sub\n      dup2\n      dup7\n      gas\n      staticcall\n      iszero\n      dup1\n      iszero\n      tag_40\n      jumpi\n      returndatasize\n      0x00\n      dup1\n      returndatacopy\n      revert(0x00, returndatasize)\n    tag_40:\n      pop\n      pop\n      pop\n      pop\n      mload(0x40)\n      returndatasize\n      not(0x1f)\n      0x1f\n      dup3\n      add\n      and\n      dup3\n      add\n      dup1\n      0x40\n      mstore\n      pop\n      dup2\n      add\n      swap1\n      tag_41\n      swap2\n      swap1\n      tag_34\n      jump\t// in\n    tag_41:\n        /* \"permission.sol\":1212:1282  require(registry.checkUser(requesterKey), \"Requester not registered!\") */\n      tag_42\n      jumpi\n      mload(0x40)\n      0x08c379a000000000000000000000000000000000000000000000000000000000\n      dup2\n      mstore\n      0x04\n      add\n      tag_43\n      swap1\n      tag_44\n      jump\t// in\n    tag_43:\n      mload(0x40)\n      dup1\n      swap2\n      sub\n      swap1\n      revert\n    tag_42:\n        /* \"permission.sol\":1340:1377  Metadata.EHRData[] memory granterData */\n      0x00\n        /* \"permission.sol\":1380:1388  metadata */\n      0x02\n      0x00\n      swap1\n      sload\n      swap1\n      0x0100\n      exp\n      swap1\n      div\n      0xffffffffffffffffffffffffffffffffffffffff\n      and\n        /* \"permission.sol\":1380:1399  metadata.searchData */\n      0xffffffffffffffffffffffffffffffffffffffff\n      and\n      0x65375a04\n        /* \"permission.sol\":1400:1410  granterKey */\n      dup5\n        /* \"permission.sol\":1380:1411  metadata.searchData(granterKey) */\n      mload(0x40)\n      dup3\n      0xffffffff\n      and\n      0xe0\n      shl\n      dup2\n      mstore\n      0x04\n      add\n      tag_45\n      swap2\n      swap1\n      tag_30\n      jump\t// in\n    tag_45:\n      0x00\n      mload(0x40)\n      dup1\n      dup4\n      sub\n      dup2\n      dup7\n      gas\n      staticcall\n      iszero\n      dup1\n      iszero\n      tag_47\n      jumpi\n      returndatasize\n      0x00\n      dup1\n      returndatacopy\n      revert(0x00, returndatasize)\n    tag_47:\n      pop\n      pop\n      pop\n      pop\n      mload(0x40)\n      returndatasize\n      0x00\n      dup3\n      returndatacopy\n      returndatasize\n      not(0x1f)\n      0x1f\n      dup3\n      add\n      and\n      dup3\n      add\n      dup1\n      0x40\n      mstore\n      pop\n      dup2\n      add\n      swap1\n      tag_48\n      swap2\n      swap1\n      tag_49\n      jump\t// in\n    tag_48:\n        /* \"permission.sol\":1340:1411  Metadata.EHRData[] memory granterData = metadata.searchData(granterKey) */\n      swap1\n      pop\n        /* \"permission.sol\":1429:1435  uint i */\n      0x00\n        /* \"permission.sol\":1424:1775  for (uint i = 0; i < granterData.length; i++) {... */\n    tag_50:\n        /* \"permission.sol\":1445:1456  granterData */\n      dup2\n        /* \"permission.sol\":1445:1463  granterData.length */\n      mload\n        /* \"permission.sol\":1441:1442  i */\n      dup2\n        /* \"permission.sol\":1441:1463  i < granterData.length */\n      lt\n        /* \"permission.sol\":1424:1775  for (uint i = 0; i < granterData.length; i++) {... */\n      iszero\n      tag_51\n      jumpi\n        /* \"permission.sol\":1556:1564  metadata */\n      0x02\n      0x00\n      swap1\n      sload\n      swap1\n      0x0100\n      exp\n      swap1\n      div\n      0xffffffffffffffffffffffffffffffffffffffff\n      and\n        /* \"permission.sol\":1556:1575  metadata.addEHRdata */\n      0xffffffffffffffffffffffffffffffffffffffff\n      and\n      0xd18f403d\n        /* \"permission.sol\":1594:1606  requesterKey */\n      dup7\n        /* \"permission.sol\":1625:1636  granterData */\n      dup5\n        /* \"permission.sol\":1637:1638  i */\n      dup5\n        /* \"permission.sol\":1625:1639  granterData[i] */\n      dup2\n      mload\n      dup2\n      lt\n      tag_53\n      jumpi\n      tag_54\n      tag_55\n      jump\t// in\n    tag_54:\n    tag_53:\n      0x20\n      mul\n      0x20\n      add\n      add\n      mload\n        /* \"permission.sol\":1625:1648  granterData[i].dataType */\n      0x00\n      add\n      mload\n        /* \"permission.sol\":1667:1678  granterData */\n      dup6\n        /* \"permission.sol\":1679:1680  i */\n      dup6\n        /* \"permission.sol\":1667:1681  granterData[i] */\n      dup2\n      mload\n      dup2\n      lt\n      tag_56\n      jumpi\n      tag_57\n      tag_55\n      jump\t// in\n    tag_57:\n    tag_56:\n      0x20\n      mul\n      0x20\n      add\n      add\n      mload\n        /* \"permission.sol\":1667:1684  granterData[i].HI */\n      0x20\n      add\n      mload\n        /* \"permission.sol\":1703:1712  newEncKey */\n      dup8\n        /* \"permission.sol\":1556:1763  metadata.addEHRdata(... */\n      mload(0x40)\n      dup6\n      0xffffffff\n      and\n      0xe0\n      shl\n      dup2\n      mstore\n      0x04\n      add\n      tag_58\n      swap5\n      swap4\n      swap3\n      swap2\n      swap1\n      tag_59\n      jump\t// in\n    tag_58:\n      0x00\n      mload(0x40)\n      dup1\n      dup4\n      sub\n      dup2\n      0x00\n      dup8\n      dup1\n      extcodesize\n      iszero\n      dup1\n      iszero\n      tag_60\n      jumpi\n      0x00\n      dup1\n      revert\n    tag_60:\n      pop\n      gas\n      call\n      iszero\n      dup1\n      iszero\n      tag_62\n      jumpi\n      returndatasize\n      0x00\n      dup1\n      returndatacopy\n      revert(0x00, returndatasize)\n    tag_62:\n      pop\n      pop\n      pop\n      pop\n        /* \"permission.sol\":1465:1468  i++ */\n      dup1\n      dup1\n      tag_63\n      swap1\n      tag_64\n      jump\t// in\n    tag_63:\n      swap2\n      pop\n      pop\n        /* \"permission.sol\":1424:1775  for (uint i = 0; i < granterData.length; i++) {... */\n      jump(tag_50)\n    tag_51:\n      pop\n        /* \"permission.sol\":1787:1806  notificationManager */\n      0x01\n      0x00\n      swap1\n      sload\n      swap1\n      0x0100\n      exp\n      swap1\n      div\n      0xffffffffffffffffffffffffffffffffffffffff\n      and\n        /* \"permission.sol\":1787:1822  notificationManager.addNotification */\n      0xffffffffffffffffffffffffffffffffffffffff\n      and\n      0xa2cf0c56\n        /* \"permission.sol\":1823:1835  requesterKey */\n      dup6\n        /* \"permission.sol\":1787:1875  notificationManager.addNotification(requesterKey, \"Permission granted. New data added.\") */\n      mload(0x40)\n      dup3\n      0xffffffff\n      and\n      0xe0\n      shl\n      dup2\n      mstore\n      0x04\n      add\n      tag_65\n      swap2\n      swap1\n      tag_66\n      jump\t// in\n    tag_65:\n      0x00\n      mload(0x40)\n      dup1\n      dup4\n      sub\n      dup2\n      0x00\n      dup8\n      dup1\n      extcodesize\n      iszero\n      dup1\n      iszero\n      tag_67\n      jumpi\n      0x00\n      dup1\n      revert\n    tag_67:\n      pop\n      gas\n      call\n      iszero\n      dup1\n      iszero\n      tag_69\n      jumpi\n      returndatasize\n      0x00\n      dup1\n      returndatacopy\n      revert(0x00, returndatasize)\n    tag_69:\n      pop\n      pop\n      pop\n      pop\n        /* \"permission.sol\":1124:1883  {... */\n      pop\n        /* \"permission.sol\":969:1883  function approvePermission(... */\n      pop\n      pop\n      pop\n      jump\t// out\n        /* \"permission.sol\":262:286  Metadata public metadata */\n    tag_17:\n      0x02\n      0x00\n      swap1\n      sload\n      swap1\n      0x0100\n      exp\n      swap1\n      div\n      0xffffffffffffffffffffffffffffffffffffffff\n      and\n      dup2\n      jump\t// out\n        /* \"permission.sol\":617:961  function requestPermission(bytes32 requesterKey, bytes32 granterKey) public {... */\n    tag_23:\n        /* \"permission.sol\":712:720  registry */\n      0x00\n      dup1\n      sload\n      swap1\n      0x0100\n      exp\n      swap1\n      div\n      0xffffffffffffffffffffffffffffffffffffffff\n      and\n        /* \"permission.sol\":712:730  registry.checkUser */\n      0xffffffffffffffffffffffffffffffffffffffff\n      and\n      0x0b2551c2\n        /* \"permission.sol\":731:743  requesterKey */\n      dup4\n        /* \"permission.sol\":712:744  registry.checkUser(requesterKey) */\n      mload(0x40)\n      dup3\n      0xffffffff\n      and\n      0xe0\n      shl\n      dup2\n      mstore\n      0x04\n      add\n      tag_71\n      swap2\n      swap1\n      tag_30\n      jump\t// in\n    tag_71:\n      0x20\n      mload(0x40)\n      dup1\n      dup4\n      sub\n      dup2\n      dup7\n      gas\n      staticcall\n      iszero\n      dup1\n      iszero\n      tag_73\n      jumpi\n      returndatasize\n      0x00\n      dup1\n      returndatacopy\n      revert(0x00, returndatasize)\n    tag_73:\n      pop\n      pop\n      pop\n      pop\n      mload(0x40)\n      returndatasize\n      not(0x1f)\n      0x1f\n      dup3\n      add\n      and\n      dup3\n      add\n      dup1\n      0x40\n      mstore\n      pop\n      dup2\n      add\n      swap1\n      tag_74\n      swap2\n      swap1\n      tag_34\n      jump\t// in\n    tag_74:\n        /* \"permission.sol\":704:774  require(registry.checkUser(requesterKey), \"Requester not registered!\") */\n      tag_75\n      jumpi\n      mload(0x40)\n      0x08c379a000000000000000000000000000000000000000000000000000000000\n      dup2\n      mstore\n      0x04\n      add\n      tag_76\n      swap1\n      tag_44\n      jump\t// in\n    tag_76:\n      mload(0x40)\n      dup1\n      swap2\n      sub\n      swap1\n      revert\n    tag_75:\n        /* \"permission.sol\":785:804  notificationManager */\n      0x01\n      0x00\n      swap1\n      sload\n      swap1\n      0x0100\n      exp\n      swap1\n      div\n      0xffffffffffffffffffffffffffffffffffffffff\n      and\n        /* \"permission.sol\":785:820  notificationManager.addNotification */\n      0xffffffffffffffffffffffffffffffffffffffff\n      and\n      0xa2cf0c56\n        /* \"permission.sol\":821:831  granterKey */\n      dup3\n        /* \"permission.sol\":833:862  bytes32ToString(requesterKey) */\n      tag_77\n        /* \"permission.sol\":849:861  requesterKey */\n      dup6\n        /* \"permission.sol\":833:848  bytes32ToString */\n      tag_78\n        /* \"permission.sol\":833:862  bytes32ToString(requesterKey) */\n      jump\t// in\n    tag_77:\n        /* \"permission.sol\":785:863  notificationManager.addNotification(granterKey, bytes32ToString(requesterKey)) */\n      mload(0x40)\n      dup4\n      0xffffffff\n      and\n      0xe0\n      shl\n      dup2\n      mstore\n      0x04\n      add\n      tag_79\n      swap3\n      swap2\n      swap1\n      tag_80\n      jump\t// in\n    tag_79:\n      0x00\n      mload(0x40)\n      dup1\n      dup4\n      sub\n      dup2\n      0x00\n      dup8\n      dup1\n      extcodesize\n      iszero\n      dup1\n      iszero\n      tag_81\n      jumpi\n      0x00\n      dup1\n      revert\n    tag_81:\n      pop\n      gas\n      call\n      iszero\n      dup1\n      iszero\n      tag_83\n      jumpi\n      returndatasize\n      0x00\n      dup1\n      returndatacopy\n      revert(0x00, returndatasize)\n    tag_83:\n      pop\n      pop\n      pop\n      pop\n        /* \"permission.sol\":874:893  notificationManager */\n      0x01\n      0x00\n      swap1\n      sload\n      swap1\n      0x0100\n      exp\n      swap1\n      div\n      0xffffffffffffffffffffffffffffffffffffffff\n      and\n        /* \"permission.sol\":874:909  notificationManager.addNotification */\n      0xffffffffffffffffffffffffffffffffffffffff\n      and\n      0xa2cf0c56\n        /* \"permission.sol\":910:920  granterKey */\n      dup3\n        /* \"permission.sol\":874:953  notificationManager.addNotification(granterKey, \"New permission request from:\") */\n      mload(0x40)\n      dup3\n      0xffffffff\n      and\n      0xe0\n      shl\n      dup2\n      mstore\n      0x04\n      add\n      tag_84\n      swap2\n      swap1\n      tag_85\n      jump\t// in\n    tag_84:\n      0x00\n      mload(0x40)\n      dup1\n      dup4\n      sub\n      dup2\n      0x00\n      dup8\n      dup1\n      extcodesize\n      iszero\n      dup1\n      iszero\n      tag_86\n      jumpi\n      0x00\n      dup1\n      revert\n    tag_86:\n      pop\n      gas\n      call\n      iszero\n      dup1\n      iszero\n      tag_88\n      jumpi\n      returndatasize\n      0x00\n      dup1\n      returndatacopy\n      revert(0x00, returndatasize)\n    tag_88:\n      pop\n      pop\n      pop\n      pop\n        /* \"permission.sol\":617:961  function requestPermission(bytes32 requesterKey, bytes32 granterKey) public {... */\n      pop\n      pop\n      jump\t// out\n        /* \"permission.sol\":178:202  Registry public registry */\n    tag_25:\n      0x00\n      dup1\n      sload\n      swap1\n      0x0100\n      exp\n      swap1\n      div\n      0xffffffffffffffffffffffffffffffffffffffff\n      and\n      dup2\n      jump\t// out\n        /* \"permission.sol\":1889:2224  function bytes32ToString(bytes32 _bytes32) internal pure returns (string memory) {... */\n    tag_78:\n        /* \"permission.sol\":1955:1968  string memory */\n      0x60\n        /* \"permission.sol\":1977:1984  uint8 i */\n      0x00\n        /* \"permission.sol\":1995:2052  while (i < 32 && _bytes32[i] != 0) {... */\n    tag_90:\n        /* \"permission.sol\":2006:2008  32 */\n      0x20\n        /* \"permission.sol\":2002:2003  i */\n      dup2\n        /* \"permission.sol\":2002:2008  i < 32 */\n      0xff\n      and\n      lt\n        /* \"permission.sol\":2002:2028  i < 32 && _bytes32[i] != 0 */\n      dup1\n      iszero\n      tag_92\n      jumpi\n      pop\n        /* \"permission.sol\":2027:2028  0 */\n      0x00\n        /* \"permission.sol\":2012:2028  _bytes32[i] != 0 */\n      0xf8\n      shl\n        /* \"permission.sol\":2012:2020  _bytes32 */\n      dup4\n        /* \"permission.sol\":2021:2022  i */\n      dup3\n        /* \"permission.sol\":2012:2023  _bytes32[i] */\n      0xff\n      and\n      0x20\n      dup2\n      lt\n      tag_93\n      jumpi\n      tag_94\n      tag_55\n      jump\t// in\n    tag_94:\n    tag_93:\n      byte\n      0xf8\n      shl\n        /* \"permission.sol\":2012:2028  _bytes32[i] != 0 */\n      not(0xffffffffffffffffffffffffffffffffffffffffffffffffffffffffffffff)\n      and\n      eq\n      iszero\n        /* \"permission.sol\":2002:2028  i < 32 && _bytes32[i] != 0 */\n    tag_92:\n        /* \"permission.sol\":1995:2052  while (i < 32 && _bytes32[i] != 0) {... */\n      iszero\n      tag_91\n      jumpi\n        /* \"permission.sol\":2041:2044  i++ */\n      dup1\n      dup1\n      tag_95\n      swap1\n      tag_96\n      jump\t// in\n    tag_95:\n      swap2\n      pop\n      pop\n        /* \"permission.sol\":1995:2052  while (i < 32 && _bytes32[i] != 0) {... */\n      jump(tag_90)\n    tag_91:\n        /* \"permission.sol\":2058:2081  bytes memory bytesArray */\n      0x00\n        /* \"permission.sol\":2094:2095  i */\n      dup2\n        /* \"permission.sol\":2084:2096  new bytes(i) */\n      0xff\n      and\n      0xffffffffffffffff\n      dup2\n      gt\n      iszero\n      tag_97\n      jumpi\n      tag_98\n      tag_99\n      jump\t// in\n    tag_98:\n    tag_97:\n      mload(0x40)\n      swap1\n      dup1\n      dup3\n      mstore\n      dup1\n      0x1f\n      add\n      not(0x1f)\n      and\n      0x20\n      add\n      dup3\n      add\n      0x40\n      mstore\n      dup1\n      iszero\n      tag_100\n      jumpi\n      dup2\n      0x20\n      add\n      0x01\n      dup3\n      mul\n      dup1\n      calldatasize\n      dup4\n      calldatacopy\n      dup1\n      dup3\n      add\n      swap2\n      pop\n      pop\n      swap1\n      pop\n    tag_100:\n      pop\n        /* \"permission.sol\":2058:2096  bytes memory bytesArray = new bytes(i) */\n      swap1\n      pop\n        /* \"permission.sol\":2112:2113  0 */\n      0x00\n        /* \"permission.sol\":2108:2113  i = 0 */\n      swap2\n      pop\n        /* \"permission.sol\":2103:2189  for (i = 0; i < bytesArray.length; i++) {... */\n    tag_101:\n        /* \"permission.sol\":2119:2129  bytesArray */\n      dup1\n        /* \"permission.sol\":2119:2136  bytesArray.length */\n      mload\n        /* \"permission.sol\":2115:2116  i */\n      dup3\n        /* \"permission.sol\":2115:2136  i < bytesArray.length */\n      0xff\n      and\n      lt\n        /* \"permission.sol\":2103:2189  for (i = 0; i < bytesArray.length; i++) {... */\n      iszero\n      tag_102\n      jumpi\n        /* \"permission.sol\":2170:2178  _bytes32 */\n      dup4\n        /* \"permission.sol\":2179:2180  i */\n      dup3\n        /* \"permission.sol\":2170:2181  _bytes32[i] */\n      0xff\n      and\n      0x20\n      dup2\n      lt\n      tag_104\n      jumpi\n      tag_105\n      tag_55\n      jump\t// in\n    tag_105:\n    tag_104:\n      byte\n      0xf8\n      shl\n        /* \"permission.sol\":2154:2164  bytesArray */\n      dup2\n        /* \"permission.sol\":2165:2166  i */\n      dup4\n        /* \"permission.sol\":2154:2167  bytesArray[i] */\n      0xff\n      and\n      dup2\n      mload\n      dup2\n      lt\n      tag_106\n      jumpi\n      tag_107\n      tag_55\n      jump\t// in\n    tag_107:\n    tag_106:\n      0x20\n      add\n      add\n        /* \"permission.sol\":2154:2181  bytesArray[i] = _bytes32[i] */\n      swap1\n      not(0xffffffffffffffffffffffffffffffffffffffffffffffffffffffffffffff)\n      and\n      swap1\n      dup2\n      0x00\n      byte\n      swap1\n      mstore8\n      pop\n        /* \"permission.sol\":2138:2141  i++ */\n      dup2\n      dup1\n      tag_108\n      swap1\n      tag_96\n      jump\t// in\n    tag_108:\n      swap3\n      pop\n      pop\n        /* \"permission.sol\":2103:2189  for (i = 0; i < bytesArray.length; i++) {... */\n      jump(tag_101)\n    tag_102:\n        /* \"permission.sol\":2209:2219  bytesArray */\n      dup1\n        /* \"permission.sol\":2195:2220  return string(bytesArray) */\n      swap3\n      pop\n      pop\n      pop\n        /* \"permission.sol\":1889:2224  function bytes32ToString(bytes32 _bytes32) internal pure returns (string memory) {... */\n      swap2\n      swap1\n      pop\n      jump\t// out\n        /* \"#utility.yul\":7:133   */\n    tag_109:\n        /* \"#utility.yul\":44:51   */\n      0x00\n        /* \"#utility.yul\":84:126   */\n      0xffffffffffffffffffffffffffffffffffffffff\n        /* \"#utility.yul\":77:82   */\n      dup3\n        /* \"#utility.yul\":73:127   */\n      and\n        /* \"#utility.yul\":62:127   */\n      swap1\n      pop\n        /* \"#utility.yul\":7:133   */\n      swap2\n      swap1\n      pop\n      jump\t// out\n        /* \"#utility.yul\":139:199   */\n    tag_110:\n        /* \"#utility.yul\":167:170   */\n      0x00\n        /* \"#utility.yul\":188:193   */\n      dup2\n        /* \"#utility.yul\":181:193   */\n      swap1\n      pop\n        /* \"#utility.yul\":139:199   */\n      swap2\n      swap1\n      pop\n      jump\t// out\n        /* \"#utility.yul\":205:347   */\n    tag_111:\n        /* \"#utility.yul\":255:264   */\n      0x00\n        /* \"#utility.yul\":288:341   */\n      tag_167\n        /* \"#utility.yul\":306:340   */\n      tag_168\n        /* \"#utility.yul\":315:339   */\n      tag_169\n        /* \"#utility.yul\":333:338   */\n      dup5\n        /* \"#utility.yul\":315:339   */\n      tag_109\n      jump\t// in\n    tag_169:\n        /* \"#utility.yul\":306:340   */\n      tag_110\n      jump\t// in\n    tag_168:\n        /* \"#utility.yul\":288:341   */\n      tag_109\n      jump\t// in\n    tag_167:\n        /* \"#utility.yul\":275:341   */\n      swap1\n      pop\n        /* \"#utility.yul\":205:347   */\n      swap2\n      swap1\n      pop\n      jump\t// out\n        /* \"#utility.yul\":353:479   */\n    tag_112:\n        /* \"#utility.yul\":403:412   */\n      0x00\n        /* \"#utility.yul\":436:473   */\n      tag_171\n        /* \"#utility.yul\":467:472   */\n      dup3\n        /* \"#utility.yul\":436:473   */\n      tag_111\n      jump\t// in\n    tag_171:\n        /* \"#utility.yul\":423:473   */\n      swap1\n      pop\n        /* \"#utility.yul\":353:479   */\n      swap2\n      swap1\n      pop\n      jump\t// out\n        /* \"#utility.yul\":485:637   */\n    tag_113:\n        /* \"#utility.yul\":561:570   */\n      0x00\n        /* \"#utility.yul\":594:631   */\n      tag_173\n        /* \"#utility.yul\":625:630   */\n      dup3\n        /* \"#utility.yul\":594:631   */\n      tag_112\n      jump\t// in\n    tag_173:\n        /* \"#utility.yul\":581:631   */\n      swap1\n      pop\n        /* \"#utility.yul\":485:637   */\n      swap2\n      swap1\n      pop\n      jump\t// out\n        /* \"#utility.yul\":643:826   */\n    tag_114:\n        /* \"#utility.yul\":756:819   */\n      tag_175\n        /* \"#utility.yul\":813:818   */\n      dup2\n        /* \"#utility.yul\":756:819   */\n      tag_113\n      jump\t// in\n    tag_175:\n        /* \"#utility.yul\":751:754   */\n      dup3\n        /* \"#utility.yul\":744:820   */\n      mstore\n        /* \"#utility.yul\":643:826   */\n      pop\n      pop\n      jump\t// out\n        /* \"#utility.yul\":832:1106   */\n    tag_11:\n        /* \"#utility.yul\":951:955   */\n      0x00\n        /* \"#utility.yul\":989:991   */\n      0x20\n        /* \"#utility.yul\":978:987   */\n      dup3\n        /* \"#utility.yul\":974:992   */\n      add\n        /* \"#utility.yul\":966:992   */\n      swap1\n      pop\n        /* \"#utility.yul\":1002:1099   */\n      tag_177\n        /* \"#utility.yul\":1096:1097   */\n      0x00\n        /* \"#utility.yul\":1085:1094   */\n      dup4\n        /* \"#utility.yul\":1081:1098   */\n      add\n        /* \"#utility.yul\":1072:1078   */\n      dup5\n        /* \"#utility.yul\":1002:1099   */\n      tag_114\n      jump\t// in\n    tag_177:\n        /* \"#utility.yul\":832:1106   */\n      swap3\n      swap2\n      pop\n      pop\n      jump\t// out\n        /* \"#utility.yul\":1112:1187   */\n    tag_115:\n        /* \"#utility.yul\":1145:1151   */\n      0x00\n        /* \"#utility.yul\":1178:1180   */\n      0x40\n        /* \"#utility.yul\":1172:1181   */\n      mload\n        /* \"#utility.yul\":1162:1181   */\n      swap1\n      pop\n        /* \"#utility.yul\":1112:1187   */\n      swap1\n      jump\t// out\n        /* \"#utility.yul\":1193:1310   */\n    tag_116:\n        /* \"#utility.yul\":1302:1303   */\n      0x00\n        /* \"#utility.yul\":1299:1300   */\n      dup1\n        /* \"#utility.yul\":1292:1304   */\n      revert\n        /* \"#utility.yul\":1316:1433   */\n    tag_117:\n        /* \"#utility.yul\":1425:1426   */\n      0x00\n        /* \"#utility.yul\":1422:1423   */\n      dup1\n        /* \"#utility.yul\":1415:1427   */\n      revert\n        /* \"#utility.yul\":1439:1516   */\n    tag_118:\n        /* \"#utility.yul\":1476:1483   */\n      0x00\n        /* \"#utility.yul\":1505:1510   */\n      dup2\n        /* \"#utility.yul\":1494:1510   */\n      swap1\n      pop\n        /* \"#utility.yul\":1439:1516   */\n      swap2\n      swap1\n      pop\n      jump\t// out\n        /* \"#utility.yul\":1522:1644   */\n    tag_119:\n        /* \"#utility.yul\":1595:1619   */\n      tag_183\n        /* \"#utility.yul\":1613:1618   */\n      dup2\n        /* \"#utility.yul\":1595:1619   */\n      tag_118\n      jump\t// in\n    tag_183:\n        /* \"#utility.yul\":1588:1593   */\n      dup2\n        /* \"#utility.yul\":1585:1620   */\n      eq\n        /* \"#utility.yul\":1575:1638   */\n      tag_184\n      jumpi\n        /* \"#utility.yul\":1634:1635   */\n      0x00\n        /* \"#utility.yul\":1631:1632   */\n      dup1\n        /* \"#utility.yul\":1624:1636   */\n      revert\n        /* \"#utility.yul\":1575:1638   */\n    tag_184:\n        /* \"#utility.yul\":1522:1644   */\n      pop\n      jump\t// out\n        /* \"#utility.yul\":1650:1789   */\n    tag_120:\n        /* \"#utility.yul\":1696:1701   */\n      0x00\n        /* \"#utility.yul\":1734:1740   */\n      dup2\n        /* \"#utility.yul\":1721:1741   */\n      calldataload\n        /* \"#utility.yul\":1712:1741   */\n      swap1\n      pop\n        /* \"#utility.yul\":1750:1783   */\n      tag_186\n        /* \"#utility.yul\":1777:1782   */\n      dup2\n        /* \"#utility.yul\":1750:1783   */\n      tag_119\n      jump\t// in\n    tag_186:\n        /* \"#utility.yul\":1650:1789   */\n      swap3\n      swap2\n      pop\n      pop\n      jump\t// out\n        /* \"#utility.yul\":1795:2414   */\n    tag_14:\n        /* \"#utility.yul\":1872:1878   */\n      0x00\n        /* \"#utility.yul\":1880:1886   */\n      dup1\n        /* \"#utility.yul\":1888:1894   */\n      0x00\n        /* \"#utility.yul\":1937:1939   */\n      0x60\n        /* \"#utility.yul\":1925:1934   */\n      dup5\n        /* \"#utility.yul\":1916:1923   */\n      dup7\n        /* \"#utility.yul\":1912:1935   */\n      sub\n        /* \"#utility.yul\":1908:1940   */\n      slt\n        /* \"#utility.yul\":1905:2024   */\n      iszero\n      tag_188\n      jumpi\n        /* \"#utility.yul\":1943:2022   */\n      tag_189\n      tag_116\n      jump\t// in\n    tag_189:\n        /* \"#utility.yul\":1905:2024   */\n    tag_188:\n        /* \"#utility.yul\":2063:2064   */\n      0x00\n        /* \"#utility.yul\":2088:2141   */\n      tag_190\n        /* \"#utility.yul\":2133:2140   */\n      dup7\n        /* \"#utility.yul\":2124:2130   */\n      dup3\n        /* \"#utility.yul\":2113:2122   */\n      dup8\n        /* \"#utility.yul\":2109:2131   */\n      add\n        /* \"#utility.yul\":2088:2141   */\n      tag_120\n      jump\t// in\n    tag_190:\n        /* \"#utility.yul\":2078:2141   */\n      swap4\n      pop\n        /* \"#utility.yul\":2034:2151   */\n      pop\n        /* \"#utility.yul\":2190:2192   */\n      0x20\n        /* \"#utility.yul\":2216:2269   */\n      tag_191\n        /* \"#utility.yul\":2261:2268   */\n      dup7\n        /* \"#utility.yul\":2252:2258   */\n      dup3\n        /* \"#utility.yul\":2241:2250   */\n      dup8\n        /* \"#utility.yul\":2237:2259   */\n      add\n        /* \"#utility.yul\":2216:2269   */\n      tag_120\n      jump\t// in\n    tag_191:\n        /* \"#utility.yul\":2206:2269   */\n      swap3\n      pop\n        /* \"#utility.yul\":2161:2279   */\n      pop\n        /* \"#utility.yul\":2318:2320   */\n      0x40\n        /* \"#utility.yul\":2344:2397   */\n      tag_192\n        /* \"#utility.yul\":2389:2396   */\n      dup7\n        /* \"#utility.yul\":2380:2386   */\n      dup3\n        /* \"#utility.yul\":2369:2378   */\n      dup8\n        /* \"#utility.yul\":2365:2387   */\n      add\n        /* \"#utility.yul\":2344:2397   */\n      tag_120\n      jump\t// in\n    tag_192:\n        /* \"#utility.yul\":2334:2397   */\n      swap2\n      pop\n        /* \"#utility.yul\":2289:2407   */\n      pop\n        /* \"#utility.yul\":1795:2414   */\n      swap3\n      pop\n      swap3\n      pop\n      swap3\n      jump\t// out\n        /* \"#utility.yul\":2420:2562   */\n    tag_121:\n        /* \"#utility.yul\":2486:2495   */\n      0x00\n        /* \"#utility.yul\":2519:2556   */\n      tag_194\n        /* \"#utility.yul\":2550:2555   */\n      dup3\n        /* \"#utility.yul\":2519:2556   */\n      tag_112\n      jump\t// in\n    tag_194:\n        /* \"#utility.yul\":2506:2556   */\n      swap1\n      pop\n        /* \"#utility.yul\":2420:2562   */\n      swap2\n      swap1\n      pop\n      jump\t// out\n        /* \"#utility.yul\":2568:2731   */\n    tag_122:\n        /* \"#utility.yul\":2671:2724   */\n      tag_196\n        /* \"#utility.yul\":2718:2723   */\n      dup2\n        /* \"#utility.yul\":2671:2724   */\n      tag_121\n      jump\t// in\n    tag_196:\n        /* \"#utility.yul\":2666:2669   */\n      dup3\n        /* \"#utility.yul\":2659:2725   */\n      mstore\n        /* \"#utility.yul\":2568:2731   */\n      pop\n      pop\n      jump\t// out\n        /* \"#utility.yul\":2737:2991   */\n    tag_19:\n        /* \"#utility.yul\":2846:2850   */\n      0x00\n        /* \"#utility.yul\":2884:2886   */\n      0x20\n        /* \"#utility.yul\":2873:2882   */\n      dup3\n        /* \"#utility.yul\":2869:2887   */\n      add\n        /* \"#utility.yul\":2861:2887   */\n      swap1\n      pop\n        /* \"#utility.yul\":2897:2984   */\n      tag_198\n        /* \"#utility.yul\":2981:2982   */\n      0x00\n        /* \"#utility.yul\":2970:2979   */\n      dup4\n        /* \"#utility.yul\":2966:2983   */\n      add\n        /* \"#utility.yul\":2957:2963   */\n      dup5\n        /* \"#utility.yul\":2897:2984   */\n      tag_122\n      jump\t// in\n    tag_198:\n        /* \"#utility.yul\":2737:2991   */\n      swap3\n      swap2\n      pop\n      pop\n      jump\t// out\n        /* \"#utility.yul\":2997:3471   */\n    tag_22:\n        /* \"#utility.yul\":3065:3071   */\n      0x00\n        /* \"#utility.yul\":3073:3079   */\n      dup1\n        /* \"#utility.yul\":3122:3124   */\n      0x40\n        /* \"#utility.yul\":3110:3119   */\n      dup4\n        /* \"#utility.yul\":3101:3108   */\n      dup6\n        /* \"#utility.yul\":3097:3120   */\n      sub\n        /* \"#utility.yul\":3093:3125   */\n      slt\n        /* \"#utility.yul\":3090:3209   */\n      iszero\n      tag_200\n      jumpi\n        /* \"#utility.yul\":3128:3207   */\n      tag_201\n      tag_116\n      jump\t// in\n    tag_201:\n        /* \"#utility.yul\":3090:3209   */\n    tag_200:\n        /* \"#utility.yul\":3248:3249   */\n      0x00\n        /* \"#utility.yul\":3273:3326   */\n      tag_202\n        /* \"#utility.yul\":3318:3325   */\n      dup6\n        /* \"#utility.yul\":3309:3315   */\n      dup3\n        /* \"#utility.yul\":3298:3307   */\n      dup7\n        /* \"#utility.yul\":3294:3316   */\n      add\n        /* \"#utility.yul\":3273:3326   */\n      tag_120\n      jump\t// in\n    tag_202:\n        /* \"#utility.yul\":3263:3326   */\n      swap3\n      pop\n        /* \"#utility.yul\":3219:3336   */\n      pop\n        /* \"#utility.yul\":3375:3377   */\n      0x20\n        /* \"#utility.yul\":3401:3454   */\n      tag_203\n        /* \"#utility.yul\":3446:3453   */\n      dup6\n        /* \"#utility.yul\":3437:3443   */\n      dup3\n        /* \"#utility.yul\":3426:3435   */\n      dup7\n        /* \"#utility.yul\":3422:3444   */\n      add\n        /* \"#utility.yul\":3401:3454   */\n      tag_120\n      jump\t// in\n    tag_203:\n        /* \"#utility.yul\":3391:3454   */\n      swap2\n      pop\n        /* \"#utility.yul\":3346:3464   */\n      pop\n        /* \"#utility.yul\":2997:3471   */\n      swap3\n      pop\n      swap3\n      swap1\n      pop\n      jump\t// out\n        /* \"#utility.yul\":3477:3619   */\n    tag_123:\n        /* \"#utility.yul\":3543:3552   */\n      0x00\n        /* \"#utility.yul\":3576:3613   */\n      tag_205\n        /* \"#utility.yul\":3607:3612   */\n      dup3\n        /* \"#utility.yul\":3576:3613   */\n      tag_112\n      jump\t// in\n    tag_205:\n        /* \"#utility.yul\":3563:3613   */\n      swap1\n      pop\n        /* \"#utility.yul\":3477:3619   */\n      swap2\n      swap1\n      pop\n      jump\t// out\n        /* \"#utility.yul\":3625:3788   */\n    tag_124:\n        /* \"#utility.yul\":3728:3781   */\n      tag_207\n        /* \"#utility.yul\":3775:3780   */\n      dup2\n        /* \"#utility.yul\":3728:3781   */\n      tag_123\n      jump\t// in\n    tag_207:\n        /* \"#utility.yul\":3723:3726   */\n      dup3\n        /* \"#utility.yul\":3716:3782   */\n      mstore\n        /* \"#utility.yul\":3625:3788   */\n      pop\n      pop\n      jump\t// out\n        /* \"#utility.yul\":3794:4048   */\n    tag_27:\n        /* \"#utility.yul\":3903:3907   */\n      0x00\n        /* \"#utility.yul\":3941:3943   */\n      0x20\n        /* \"#utility.yul\":3930:3939   */\n      dup3\n        /* \"#utility.yul\":3926:3944   */\n      add\n        /* \"#utility.yul\":3918:3944   */\n      swap1\n      pop\n        /* \"#utility.yul\":3954:4041   */\n      tag_209\n        /* \"#utility.yul\":4038:4039   */\n      0x00\n        /* \"#utility.yul\":4027:4036   */\n      dup4\n        /* \"#utility.yul\":4023:4040   */\n      add\n        /* \"#utility.yul\":4014:4020   */\n      dup5\n        /* \"#utility.yul\":3954:4041   */\n      tag_124\n      jump\t// in\n    tag_209:\n        /* \"#utility.yul\":3794:4048   */\n      swap3\n      swap2\n      pop\n      pop\n      jump\t// out\n        /* \"#utility.yul\":4054:4172   */\n    tag_125:\n        /* \"#utility.yul\":4141:4165   */\n      tag_211\n        /* \"#utility.yul\":4159:4164   */\n      dup2\n        /* \"#utility.yul\":4141:4165   */\n      tag_118\n      jump\t// in\n    tag_211:\n        /* \"#utility.yul\":4136:4139   */\n      dup3\n        /* \"#utility.yul\":4129:4166   */\n      mstore\n        /* \"#utility.yul\":4054:4172   */\n      pop\n      pop\n      jump\t// out\n        /* \"#utility.yul\":4178:4400   */\n    tag_30:\n        /* \"#utility.yul\":4271:4275   */\n      0x00\n        /* \"#utility.yul\":4309:4311   */\n      0x20\n        /* \"#utility.yul\":4298:4307   */\n      dup3\n        /* \"#utility.yul\":4294:4312   */\n      add\n        /* \"#utility.yul\":4286:4312   */\n      swap1\n      pop\n        /* \"#utility.yul\":4322:4393   */\n      tag_213\n        /* \"#utility.yul\":4390:4391   */\n      0x00\n        /* \"#utility.yul\":4379:4388   */\n      dup4\n        /* \"#utility.yul\":4375:4392   */\n      add\n        /* \"#utility.yul\":4366:4372   */\n      dup5\n        /* \"#utility.yul\":4322:4393   */\n      tag_125\n      jump\t// in\n    tag_213:\n        /* \"#utility.yul\":4178:4400   */\n      swap3\n      swap2\n      pop\n      pop\n      jump\t// out\n        /* \"#utility.yul\":4406:4496   */\n    tag_126:\n        /* \"#utility.yul\":4440:4447   */\n      0x00\n        /* \"#utility.yul\":4483:4488   */\n      dup2\n        /* \"#utility.yul\":4476:4489   */\n      iszero\n        /* \"#utility.yul\":4469:4490   */\n      iszero\n        /* \"#utility.yul\":4458:4490   */\n      swap1\n      pop\n        /* \"#utility.yul\":4406:4496   */\n      swap2\n      swap1\n      pop\n      jump\t// out\n        /* \"#utility.yul\":4502:4618   */\n    tag_127:\n        /* \"#utility.yul\":4572:4593   */\n      tag_216\n        /* \"#utility.yul\":4587:4592   */\n      dup2\n        /* \"#utility.yul\":4572:4593   */\n      tag_126\n      jump\t// in\n    tag_216:\n        /* \"#utility.yul\":4565:4570   */\n      dup2\n        /* \"#utility.yul\":4562:4594   */\n      eq\n        /* \"#utility.yul\":4552:4612   */\n      tag_217\n      jumpi\n        /* \"#utility.yul\":4608:4609   */\n      0x00\n        /* \"#utility.yul\":4605:4606   */\n      dup1\n        /* \"#utility.yul\":4598:4610   */\n      revert\n        /* \"#utility.yul\":4552:4612   */\n    tag_217:\n        /* \"#utility.yul\":4502:4618   */\n      pop\n      jump\t// out\n        /* \"#utility.yul\":4624:4761   */\n    tag_128:\n        /* \"#utility.yul\":4678:4683   */\n      0x00\n        /* \"#utility.yul\":4709:4715   */\n      dup2\n        /* \"#utility.yul\":4703:4716   */\n      mload\n        /* \"#utility.yul\":4694:4716   */\n      swap1\n      pop\n        /* \"#utility.yul\":4725:4755   */\n      tag_219\n        /* \"#utility.yul\":4749:4754   */\n      dup2\n        /* \"#utility.yul\":4725:4755   */\n      tag_127\n      jump\t// in\n    tag_219:\n        /* \"#utility.yul\":4624:4761   */\n      swap3\n      swap2\n      pop\n      pop\n      jump\t// out\n        /* \"#utility.yul\":4767:5112   */\n    tag_34:\n        /* \"#utility.yul\":4834:4840   */\n      0x00\n        /* \"#utility.yul\":4883:4885   */\n      0x20\n        /* \"#utility.yul\":4871:4880   */\n      dup3\n        /* \"#utility.yul\":4862:4869   */\n      dup5\n        /* \"#utility.yul\":4858:4881   */\n      sub\n        /* \"#utility.yul\":4854:4886   */\n      slt\n        /* \"#utility.yul\":4851:4970   */\n      iszero\n      tag_221\n      jumpi\n        /* \"#utility.yul\":4889:4968   */\n      tag_222\n      tag_116\n      jump\t// in\n    tag_222:\n        /* \"#utility.yul\":4851:4970   */\n    tag_221:\n        /* \"#utility.yul\":5009:5010   */\n      0x00\n        /* \"#utility.yul\":5034:5095   */\n      tag_223\n        /* \"#utility.yul\":5087:5094   */\n      dup5\n        /* \"#utility.yul\":5078:5084   */\n      dup3\n        /* \"#utility.yul\":5067:5076   */\n      dup6\n        /* \"#utility.yul\":5063:5085   */\n      add\n        /* \"#utility.yul\":5034:5095   */\n      tag_128\n      jump\t// in\n    tag_223:\n        /* \"#utility.yul\":5024:5095   */\n      swap2\n      pop\n        /* \"#utility.yul\":4980:5105   */\n      pop\n        /* \"#utility.yul\":4767:5112   */\n      swap3\n      swap2\n      pop\n      pop\n      jump\t// out\n        /* \"#utility.yul\":5118:5287   */\n    tag_129:\n        /* \"#utility.yul\":5202:5213   */\n      0x00\n        /* \"#utility.yul\":5236:5242   */\n      dup3\n        /* \"#utility.yul\":5231:5234   */\n      dup3\n        /* \"#utility.yul\":5224:5243   */\n      mstore\n        /* \"#utility.yul\":5276:5280   */\n      0x20\n        /* \"#utility.yul\":5271:5274   */\n      dup3\n        /* \"#utility.yul\":5267:5281   */\n      add\n        /* \"#utility.yul\":5252:5281   */\n      swap1\n      pop\n        /* \"#utility.yul\":5118:5287   */\n      swap3\n      swap2\n      pop\n      pop\n      jump\t// out\n        /* \"#utility.yul\":5293:5466   */\n    tag_130:\n        /* \"#utility.yul\":5433:5458   */\n      0x4772616e746572206e6f74207265676973746572656421000000000000000000\n        /* \"#utility.yul\":5429:5430   */\n      0x00\n        /* \"#utility.yul\":5421:5427   */\n      dup3\n        /* \"#utility.yul\":5417:5431   */\n      add\n        /* \"#utility.yul\":5410:5459   */\n      mstore\n        /* \"#utility.yul\":5293:5466   */\n      pop\n      jump\t// out\n        /* \"#utility.yul\":5472:5838   */\n    tag_131:\n        /* \"#utility.yul\":5614:5617   */\n      0x00\n        /* \"#utility.yul\":5635:5702   */\n      tag_227\n        /* \"#utility.yul\":5699:5701   */\n      0x17\n        /* \"#utility.yul\":5694:5697   */\n      dup4\n        /* \"#utility.yul\":5635:5702   */\n      tag_129\n      jump\t// in\n    tag_227:\n        /* \"#utility.yul\":5628:5702   */\n      swap2\n      pop\n        /* \"#utility.yul\":5711:5804   */\n      tag_228\n        /* \"#utility.yul\":5800:5803   */\n      dup3\n        /* \"#utility.yul\":5711:5804   */\n      tag_130\n      jump\t// in\n    tag_228:\n        /* \"#utility.yul\":5829:5831   */\n      0x20\n        /* \"#utility.yul\":5824:5827   */\n      dup3\n        /* \"#utility.yul\":5820:5832   */\n      add\n        /* \"#utility.yul\":5813:5832   */\n      swap1\n      pop\n        /* \"#utility.yul\":5472:5838   */\n      swap2\n      swap1\n      pop\n      jump\t// out\n        /* \"#utility.yul\":5844:6263   */\n    tag_37:\n        /* \"#utility.yul\":6010:6014   */\n      0x00\n        /* \"#utility.yul\":6048:6050   */\n      0x20\n        /* \"#utility.yul\":6037:6046   */\n      dup3\n        /* \"#utility.yul\":6033:6051   */\n      add\n        /* \"#utility.yul\":6025:6051   */\n      swap1\n      pop\n        /* \"#utility.yul\":6097:6106   */\n      dup2\n        /* \"#utility.yul\":6091:6095   */\n      dup2\n        /* \"#utility.yul\":6087:6107   */\n      sub\n        /* \"#utility.yul\":6083:6084   */\n      0x00\n        /* \"#utility.yul\":6072:6081   */\n      dup4\n        /* \"#utility.yul\":6068:6085   */\n      add\n        /* \"#utility.yul\":6061:6108   */\n      mstore\n        /* \"#utility.yul\":6125:6256   */\n      tag_230\n        /* \"#utility.yul\":6251:6255   */\n      dup2\n        /* \"#utility.yul\":6125:6256   */\n      tag_131\n      jump\t// in\n    tag_230:\n        /* \"#utility.yul\":6117:6256   */\n      swap1\n      pop\n        /* \"#utility.yul\":5844:6263   */\n      swap2\n      swap1\n      pop\n      jump\t// out\n        /* \"#utility.yul\":6269:6444   */\n    tag_132:\n        /* \"#utility.yul\":6409:6436   */\n      0x526571756573746572206e6f7420726567697374657265642100000000000000\n        /* \"#utility.yul\":6405:6406   */\n      0x00\n        /* \"#utility.yul\":6397:6403   */\n      dup3\n        /* \"#utility.yul\":6393:6407   */\n      add\n        /* \"#utility.yul\":6386:6437   */\n      mstore\n        /* \"#utility.yul\":6269:6444   */\n      pop\n      jump\t// out\n        /* \"#utility.yul\":6450:6816   */\n    tag_133:\n        /* \"#utility.yul\":6592:6595   */\n      0x00\n        /* \"#utility.yul\":6613:6680   */\n      tag_233\n        /* \"#utility.yul\":6677:6679   */\n      0x19\n        /* \"#utility.yul\":6672:6675   */\n      dup4\n        /* \"#utility.yul\":6613:6680   */\n      tag_129\n      jump\t// in\n    tag_233:\n        /* \"#utility.yul\":6606:6680   */\n      swap2\n      pop\n        /* \"#utility.yul\":6689:6782   */\n      tag_234\n        /* \"#utility.yul\":6778:6781   */\n      dup3\n        /* \"#utility.yul\":6689:6782   */\n      tag_132\n      jump\t// in\n    tag_234:\n        /* \"#utility.yul\":6807:6809   */\n      0x20\n        /* \"#utility.yul\":6802:6805   */\n      dup3\n        /* \"#utility.yul\":6798:6810   */\n      add\n        /* \"#utility.yul\":6791:6810   */\n      swap1\n      pop\n        /* \"#utility.yul\":6450:6816   */\n      swap2\n      swap1\n      pop\n      jump\t// out\n        /* \"#utility.yul\":6822:7241   */\n    tag_44:\n        /* \"#utility.yul\":6988:6992   */\n      0x00\n        /* \"#utility.yul\":7026:7028   */\n      0x20\n        /* \"#utility.yul\":7015:7024   */\n      dup3\n        /* \"#utility.yul\":7011:7029   */\n      add\n        /* \"#utility.yul\":7003:7029   */\n      swap1\n      pop\n        /* \"#utility.yul\":7075:7084   */\n      dup2\n        /* \"#utility.yul\":7069:7073   */\n      dup2\n        /* \"#utility.yul\":7065:7085   */\n      sub\n        /* \"#utility.yul\":7061:7062   */\n      0x00\n        /* \"#utility.yul\":7050:7059   */\n      dup4\n        /* \"#utility.yul\":7046:7063   */\n      add\n        /* \"#utility.yul\":7039:7086   */\n      mstore\n        /* \"#utility.yul\":7103:7234   */\n      tag_236\n        /* \"#utility.yul\":7229:7233   */\n      dup2\n        /* \"#utility.yul\":7103:7234   */\n      tag_133\n      jump\t// in\n    tag_236:\n        /* \"#utility.yul\":7095:7234   */\n      swap1\n      pop\n        /* \"#utility.yul\":6822:7241   */\n      swap2\n      swap1\n      pop\n      jump\t// out\n        /* \"#utility.yul\":7247:7364   */\n    tag_134:\n        /* \"#utility.yul\":7356:7357   */\n      0x00\n        /* \"#utility.yul\":7353:7354   */\n      dup1\n        /* \"#utility.yul\":7346:7358   */\n      revert\n        /* \"#utility.yul\":7370:7472   */\n    tag_135:\n        /* \"#utility.yul\":7411:7417   */\n      0x00\n        /* \"#utility.yul\":7462:7464   */\n      0x1f\n        /* \"#utility.yul\":7458:7465   */\n      not\n        /* \"#utility.yul\":7453:7455   */\n      0x1f\n        /* \"#utility.yul\":7446:7451   */\n      dup4\n        /* \"#utility.yul\":7442:7456   */\n      add\n        /* \"#utility.yul\":7438:7466   */\n      and\n        /* \"#utility.yul\":7428:7466   */\n      swap1\n      pop\n        /* \"#utility.yul\":7370:7472   */\n      swap2\n      swap1\n      pop\n      jump\t// out\n        /* \"#utility.yul\":7478:7658   */\n    tag_99:\n        /* \"#utility.yul\":7526:7603   */\n      0x4e487b7100000000000000000000000000000000000000000000000000000000\n        /* \"#utility.yul\":7523:7524   */\n      0x00\n        /* \"#utility.yul\":7516:7604   */\n      mstore\n        /* \"#utility.yul\":7623:7627   */\n      0x41\n        /* \"#utility.yul\":7620:7621   */\n      0x04\n        /* \"#utility.yul\":7613:7628   */\n      mstore\n        /* \"#utility.yul\":7647:7651   */\n      0x24\n        /* \"#utility.yul\":7644:7645   */\n      0x00\n        /* \"#utility.yul\":7637:7652   */\n      revert\n        /* \"#utility.yul\":7664:7945   */\n    tag_136:\n        /* \"#utility.yul\":7747:7774   */\n      tag_241\n        /* \"#utility.yul\":7769:7773   */\n      dup3\n        /* \"#utility.yul\":7747:7774   */\n      tag_135\n      jump\t// in\n    tag_241:\n        /* \"#utility.yul\":7739:7745   */\n      dup2\n        /* \"#utility.yul\":7735:7775   */\n      add\n        /* \"#utility.yul\":7877:7883   */\n      dup2\n        /* \"#utility.yul\":7865:7875   */\n      dup2\n        /* \"#utility.yul\":7862:7884   */\n      lt\n        /* \"#utility.yul\":7841:7859   */\n      0xffffffffffffffff\n        /* \"#utility.yul\":7829:7839   */\n      dup3\n        /* \"#utility.yul\":7826:7860   */\n      gt\n        /* \"#utility.yul\":7823:7885   */\n      or\n        /* \"#utility.yul\":7820:7908   */\n      iszero\n      tag_242\n      jumpi\n        /* \"#utility.yul\":7888:7906   */\n      tag_243\n      tag_99\n      jump\t// in\n    tag_243:\n        /* \"#utility.yul\":7820:7908   */\n    tag_242:\n        /* \"#utility.yul\":7928:7938   */\n      dup1\n        /* \"#utility.yul\":7924:7926   */\n      0x40\n        /* \"#utility.yul\":7917:7939   */\n      mstore\n        /* \"#utility.yul\":7707:7945   */\n      pop\n        /* \"#utility.yul\":7664:7945   */\n      pop\n      pop\n      jump\t// out\n        /* \"#utility.yul\":7951:8080   */\n    tag_137:\n        /* \"#utility.yul\":7985:7991   */\n      0x00\n        /* \"#utility.yul\":8012:8032   */\n      tag_245\n      tag_115\n      jump\t// in\n    tag_245:\n        /* \"#utility.yul\":8002:8032   */\n      swap1\n      pop\n        /* \"#utility.yul\":8041:8074   */\n      tag_246\n        /* \"#utility.yul\":8069:8073   */\n      dup3\n        /* \"#utility.yul\":8061:8067   */\n      dup3\n        /* \"#utility.yul\":8041:8074   */\n      tag_136\n      jump\t// in\n    tag_246:\n        /* \"#utility.yul\":7951:8080   */\n      swap2\n      swap1\n      pop\n      jump\t// out\n        /* \"#utility.yul\":8086:8420   */\n    tag_138:\n        /* \"#utility.yul\":8186:8190   */\n      0x00\n        /* \"#utility.yul\":8276:8294   */\n      0xffffffffffffffff\n        /* \"#utility.yul\":8268:8274   */\n      dup3\n        /* \"#utility.yul\":8265:8295   */\n      gt\n        /* \"#utility.yul\":8262:8318   */\n      iszero\n      tag_248\n      jumpi\n        /* \"#utility.yul\":8298:8316   */\n      tag_249\n      tag_99\n      jump\t// in\n    tag_249:\n        /* \"#utility.yul\":8262:8318   */\n    tag_248:\n        /* \"#utility.yul\":8348:8352   */\n      0x20\n        /* \"#utility.yul\":8340:8346   */\n      dup3\n        /* \"#utility.yul\":8336:8353   */\n      mul\n        /* \"#utility.yul\":8328:8353   */\n      swap1\n      pop\n        /* \"#utility.yul\":8408:8412   */\n      0x20\n        /* \"#utility.yul\":8402:8406   */\n      dup2\n        /* \"#utility.yul\":8398:8413   */\n      add\n        /* \"#utility.yul\":8390:8413   */\n      swap1\n      pop\n        /* \"#utility.yul\":8086:8420   */\n      swap2\n      swap1\n      pop\n      jump\t// out\n        /* \"#utility.yul\":8426:8543   */\n    tag_139:\n        /* \"#utility.yul\":8535:8536   */\n      0x00\n        /* \"#utility.yul\":8532:8533   */\n      dup1\n        /* \"#utility.yul\":8525:8537   */\n      revert\n        /* \"#utility.yul\":8549:8666   */\n    tag_140:\n        /* \"#utility.yul\":8658:8659   */\n      0x00\n        /* \"#utility.yul\":8655:8656   */\n      dup1\n        /* \"#utility.yul\":8648:8660   */\n      revert\n        /* \"#utility.yul\":8795:8905   */\n    tag_142:\n        /* \"#utility.yul\":8879:8880   */\n      0x06\n        /* \"#utility.yul\":8872:8877   */\n      dup2\n        /* \"#utility.yul\":8869:8881   */\n      lt\n        /* \"#utility.yul\":8859:8899   */\n      tag_254\n      jumpi\n        /* \"#utility.yul\":8895:8896   */\n      0x00\n        /* \"#utility.yul\":8892:8893   */\n      dup1\n        /* \"#utility.yul\":8885:8897   */\n      revert\n        /* \"#utility.yul\":8859:8899   */\n    tag_254:\n        /* \"#utility.yul\":8795:8905   */\n      pop\n      jump\t// out\n        /* \"#utility.yul\":8911:9076   */\n    tag_143:\n        /* \"#utility.yul\":8979:8984   */\n      0x00\n        /* \"#utility.yul\":9010:9016   */\n      dup2\n        /* \"#utility.yul\":9004:9017   */\n      mload\n        /* \"#utility.yul\":8995:9017   */\n      swap1\n      pop\n        /* \"#utility.yul\":9026:9070   */\n      tag_256\n        /* \"#utility.yul\":9064:9069   */\n      dup2\n        /* \"#utility.yul\":9026:9070   */\n      tag_142\n      jump\t// in\n    tag_256:\n        /* \"#utility.yul\":8911:9076   */\n      swap3\n      swap2\n      pop\n      pop\n      jump\t// out\n        /* \"#utility.yul\":9082:9225   */\n    tag_144:\n        /* \"#utility.yul\":9139:9144   */\n      0x00\n        /* \"#utility.yul\":9170:9176   */\n      dup2\n        /* \"#utility.yul\":9164:9177   */\n      mload\n        /* \"#utility.yul\":9155:9177   */\n      swap1\n      pop\n        /* \"#utility.yul\":9186:9219   */\n      tag_258\n        /* \"#utility.yul\":9213:9218   */\n      dup2\n        /* \"#utility.yul\":9186:9219   */\n      tag_119\n      jump\t// in\n    tag_258:\n        /* \"#utility.yul\":9082:9225   */\n      swap3\n      swap2\n      pop\n      pop\n      jump\t// out\n        /* \"#utility.yul\":9262:10054   */\n    tag_145:\n        /* \"#utility.yul\":9345:9350   */\n      0x00\n        /* \"#utility.yul\":9389:9393   */\n      0x60\n        /* \"#utility.yul\":9377:9386   */\n      dup3\n        /* \"#utility.yul\":9372:9375   */\n      dup5\n        /* \"#utility.yul\":9368:9387   */\n      sub\n        /* \"#utility.yul\":9364:9394   */\n      slt\n        /* \"#utility.yul\":9361:9478   */\n      iszero\n      tag_260\n      jumpi\n        /* \"#utility.yul\":9397:9476   */\n      tag_261\n      tag_140\n      jump\t// in\n    tag_261:\n        /* \"#utility.yul\":9361:9478   */\n    tag_260:\n        /* \"#utility.yul\":9496:9517   */\n      tag_262\n        /* \"#utility.yul\":9512:9516   */\n      0x60\n        /* \"#utility.yul\":9496:9517   */\n      tag_137\n      jump\t// in\n    tag_262:\n        /* \"#utility.yul\":9487:9517   */\n      swap1\n      pop\n        /* \"#utility.yul\":9580:9581   */\n      0x00\n        /* \"#utility.yul\":9620:9691   */\n      tag_263\n        /* \"#utility.yul\":9687:9690   */\n      dup5\n        /* \"#utility.yul\":9678:9684   */\n      dup3\n        /* \"#utility.yul\":9667:9676   */\n      dup6\n        /* \"#utility.yul\":9663:9685   */\n      add\n        /* \"#utility.yul\":9620:9691   */\n      tag_143\n      jump\t// in\n    tag_263:\n        /* \"#utility.yul\":9613:9617   */\n      0x00\n        /* \"#utility.yul\":9606:9611   */\n      dup4\n        /* \"#utility.yul\":9602:9618   */\n      add\n        /* \"#utility.yul\":9595:9692   */\n      mstore\n        /* \"#utility.yul\":9527:9703   */\n      pop\n        /* \"#utility.yul\":9760:9762   */\n      0x20\n        /* \"#utility.yul\":9801:9861   */\n      tag_264\n        /* \"#utility.yul\":9857:9860   */\n      dup5\n        /* \"#utility.yul\":9848:9854   */\n      dup3\n        /* \"#utility.yul\":9837:9846   */\n      dup6\n        /* \"#utility.yul\":9833:9855   */\n      add\n        /* \"#utility.yul\":9801:9861   */\n      tag_144\n      jump\t// in\n    tag_264:\n        /* \"#utility.yul\":9794:9798   */\n      0x20\n        /* \"#utility.yul\":9787:9792   */\n      dup4\n        /* \"#utility.yul\":9783:9799   */\n      add\n        /* \"#utility.yul\":9776:9862   */\n      mstore\n        /* \"#utility.yul\":9713:9873   */\n      pop\n        /* \"#utility.yul\":9934:9936   */\n      0x40\n        /* \"#utility.yul\":9975:10035   */\n      tag_265\n        /* \"#utility.yul\":10031:10034   */\n      dup5\n        /* \"#utility.yul\":10022:10028   */\n      dup3\n        /* \"#utility.yul\":10011:10020   */\n      dup6\n        /* \"#utility.yul\":10007:10029   */\n      add\n        /* \"#utility.yul\":9975:10035   */\n      tag_144\n      jump\t// in\n    tag_265:\n        /* \"#utility.yul\":9968:9972   */\n      0x40\n        /* \"#utility.yul\":9961:9966   */\n      dup4\n        /* \"#utility.yul\":9957:9973   */\n      add\n        /* \"#utility.yul\":9950:10036   */\n      mstore\n        /* \"#utility.yul\":9883:10047   */\n      pop\n        /* \"#utility.yul\":9262:10054   */\n      swap3\n      swap2\n      pop\n      pop\n      jump\t// out\n        /* \"#utility.yul\":10093:10894   */\n    tag_146:\n        /* \"#utility.yul\":10223:10228   */\n      0x00\n        /* \"#utility.yul\":10248:10352   */\n      tag_267\n        /* \"#utility.yul\":10264:10351   */\n      tag_268\n        /* \"#utility.yul\":10344:10350   */\n      dup5\n        /* \"#utility.yul\":10264:10351   */\n      tag_138\n      jump\t// in\n    tag_268:\n        /* \"#utility.yul\":10248:10352   */\n      tag_137\n      jump\t// in\n    tag_267:\n        /* \"#utility.yul\":10239:10352   */\n      swap1\n      pop\n        /* \"#utility.yul\":10372:10377   */\n      dup1\n        /* \"#utility.yul\":10401:10407   */\n      dup4\n        /* \"#utility.yul\":10394:10399   */\n      dup3\n        /* \"#utility.yul\":10387:10408   */\n      mstore\n        /* \"#utility.yul\":10435:10439   */\n      0x20\n        /* \"#utility.yul\":10428:10433   */\n      dup3\n        /* \"#utility.yul\":10424:10440   */\n      add\n        /* \"#utility.yul\":10417:10440   */\n      swap1\n      pop\n        /* \"#utility.yul\":10488:10492   */\n      0x60\n        /* \"#utility.yul\":10480:10486   */\n      dup5\n        /* \"#utility.yul\":10476:10493   */\n      mul\n        /* \"#utility.yul\":10468:10474   */\n      dup4\n        /* \"#utility.yul\":10464:10494   */\n      add\n        /* \"#utility.yul\":10517:10520   */\n      dup6\n        /* \"#utility.yul\":10509:10515   */\n      dup2\n        /* \"#utility.yul\":10506:10521   */\n      gt\n        /* \"#utility.yul\":10503:10625   */\n      iszero\n      tag_269\n      jumpi\n        /* \"#utility.yul\":10536:10615   */\n      tag_270\n      tag_139\n      jump\t// in\n    tag_270:\n        /* \"#utility.yul\":10503:10625   */\n    tag_269:\n        /* \"#utility.yul\":10651:10657   */\n      dup4\n        /* \"#utility.yul\":10634:10888   */\n    tag_271:\n        /* \"#utility.yul\":10668:10674   */\n      dup2\n        /* \"#utility.yul\":10663:10666   */\n      dup2\n        /* \"#utility.yul\":10660:10675   */\n      lt\n        /* \"#utility.yul\":10634:10888   */\n      iszero\n      tag_273\n      jumpi\n        /* \"#utility.yul\":10743:10746   */\n      dup1\n        /* \"#utility.yul\":10772:10843   */\n      tag_274\n        /* \"#utility.yul\":10839:10842   */\n      dup9\n        /* \"#utility.yul\":10827:10837   */\n      dup3\n        /* \"#utility.yul\":10772:10843   */\n      tag_145\n      jump\t// in\n    tag_274:\n        /* \"#utility.yul\":10767:10770   */\n      dup5\n        /* \"#utility.yul\":10760:10844   */\n      mstore\n        /* \"#utility.yul\":10873:10877   */\n      0x20\n        /* \"#utility.yul\":10868:10871   */\n      dup5\n        /* \"#utility.yul\":10864:10878   */\n      add\n        /* \"#utility.yul\":10857:10878   */\n      swap4\n      pop\n        /* \"#utility.yul\":10710:10888   */\n      pop\n        /* \"#utility.yul\":10694:10698   */\n      0x60\n        /* \"#utility.yul\":10689:10692   */\n      dup2\n        /* \"#utility.yul\":10685:10699   */\n      add\n        /* \"#utility.yul\":10678:10699   */\n      swap1\n      pop\n        /* \"#utility.yul\":10634:10888   */\n      jump(tag_271)\n    tag_273:\n        /* \"#utility.yul\":10638:10659   */\n      pop\n        /* \"#utility.yul\":10229:10894   */\n      pop\n      pop\n        /* \"#utility.yul\":10093:10894   */\n      swap4\n      swap3\n      pop\n      pop\n      pop\n      jump\t// out\n        /* \"#utility.yul\":10933:11364   */\n    tag_147:\n        /* \"#utility.yul\":11038:11043   */\n      0x00\n        /* \"#utility.yul\":11087:11090   */\n      dup3\n        /* \"#utility.yul\":11080:11084   */\n      0x1f\n        /* \"#utility.yul\":11072:11078   */\n      dup4\n        /* \"#utility.yul\":11068:11085   */\n      add\n        /* \"#utility.yul\":11064:11091   */\n      slt\n        /* \"#utility.yul\":11054:11176   */\n      tag_276\n      jumpi\n        /* \"#utility.yul\":11095:11174   */\n      tag_277\n      tag_134\n      jump\t// in\n    tag_277:\n        /* \"#utility.yul\":11054:11176   */\n    tag_276:\n        /* \"#utility.yul\":11205:11211   */\n      dup2\n        /* \"#utility.yul\":11199:11212   */\n      mload\n        /* \"#utility.yul\":11230:11358   */\n      tag_278\n        /* \"#utility.yul\":11354:11357   */\n      dup5\n        /* \"#utility.yul\":11346:11352   */\n      dup3\n        /* \"#utility.yul\":11339:11343   */\n      0x20\n        /* \"#utility.yul\":11331:11337   */\n      dup7\n        /* \"#utility.yul\":11327:11344   */\n      add\n        /* \"#utility.yul\":11230:11358   */\n      tag_146\n      jump\t// in\n    tag_278:\n        /* \"#utility.yul\":11221:11358   */\n      swap2\n      pop\n        /* \"#utility.yul\":11044:11364   */\n      pop\n        /* \"#utility.yul\":10933:11364   */\n      swap3\n      swap2\n      pop\n      pop\n      jump\t// out\n        /* \"#utility.yul\":11370:11970   */\n    tag_49:\n        /* \"#utility.yul\":11488:11494   */\n      0x00\n        /* \"#utility.yul\":11537:11539   */\n      0x20\n        /* \"#utility.yul\":11525:11534   */\n      dup3\n        /* \"#utility.yul\":11516:11523   */\n      dup5\n        /* \"#utility.yul\":11512:11535   */\n      sub\n        /* \"#utility.yul\":11508:11540   */\n      slt\n        /* \"#utility.yul\":11505:11624   */\n      iszero\n      tag_280\n      jumpi\n        /* \"#utility.yul\":11543:11622   */\n      tag_281\n      tag_116\n      jump\t// in\n    tag_281:\n        /* \"#utility.yul\":11505:11624   */\n    tag_280:\n        /* \"#utility.yul\":11684:11685   */\n      0x00\n        /* \"#utility.yul\":11673:11682   */\n      dup3\n        /* \"#utility.yul\":11669:11686   */\n      add\n        /* \"#utility.yul\":11663:11687   */\n      mload\n        /* \"#utility.yul\":11714:11732   */\n      0xffffffffffffffff\n        /* \"#utility.yul\":11706:11712   */\n      dup2\n        /* \"#utility.yul\":11703:11733   */\n      gt\n        /* \"#utility.yul\":11700:11817   */\n      iszero\n      tag_282\n      jumpi\n        /* \"#utility.yul\":11736:11815   */\n      tag_283\n      tag_117\n      jump\t// in\n    tag_283:\n        /* \"#utility.yul\":11700:11817   */\n    tag_282:\n        /* \"#utility.yul\":11841:11953   */\n      tag_284\n        /* \"#utility.yul\":11945:11952   */\n      dup5\n        /* \"#utility.yul\":11936:11942   */\n      dup3\n        /* \"#utility.yul\":11925:11934   */\n      dup6\n        /* \"#utility.yul\":11921:11943   */\n      add\n        /* \"#utility.yul\":11841:11953   */\n      tag_147\n      jump\t// in\n    tag_284:\n        /* \"#utility.yul\":11831:11953   */\n      swap2\n      pop\n        /* \"#utility.yul\":11634:11963   */\n      pop\n        /* \"#utility.yul\":11370:11970   */\n      swap3\n      swap2\n      pop\n      pop\n      jump\t// out\n        /* \"#utility.yul\":11976:12156   */\n    tag_55:\n        /* \"#utility.yul\":12024:12101   */\n      0x4e487b7100000000000000000000000000000000000000000000000000000000\n        /* \"#utility.yul\":12021:12022   */\n      0x00\n        /* \"#utility.yul\":12014:12102   */\n      mstore\n        /* \"#utility.yul\":12121:12125   */\n      0x32\n        /* \"#utility.yul\":12118:12119   */\n      0x04\n        /* \"#utility.yul\":12111:12126   */\n      mstore\n        /* \"#utility.yul\":12145:12149   */\n      0x24\n        /* \"#utility.yul\":12142:12143   */\n      0x00\n        /* \"#utility.yul\":12135:12150   */\n      revert\n        /* \"#utility.yul\":12162:12342   */\n    tag_148:\n        /* \"#utility.yul\":12210:12287   */\n      0x4e487b7100000000000000000000000000000000000000000000000000000000\n        /* \"#utility.yul\":12207:12208   */\n      0x00\n        /* \"#utility.yul\":12200:12288   */\n      mstore\n        /* \"#utility.yul\":12307:12311   */\n      0x21\n        /* \"#utility.yul\":12304:12305   */\n      0x04\n        /* \"#utility.yul\":12297:12312   */\n      mstore\n        /* \"#utility.yul\":12331:12335   */\n      0x24\n        /* \"#utility.yul\":12328:12329   */\n      0x00\n        /* \"#utility.yul\":12321:12336   */\n      revert\n        /* \"#utility.yul\":12348:12464   */\n    tag_149:\n        /* \"#utility.yul\":12432:12433   */\n      0x06\n        /* \"#utility.yul\":12425:12430   */\n      dup2\n        /* \"#utility.yul\":12422:12434   */\n      lt\n        /* \"#utility.yul\":12412:12458   */\n      tag_288\n      jumpi\n        /* \"#utility.yul\":12438:12456   */\n      tag_289\n      tag_148\n      jump\t// in\n    tag_289:\n        /* \"#utility.yul\":12412:12458   */\n    tag_288:\n        /* \"#utility.yul\":12348:12464   */\n      pop\n      jump\t// out\n        /* \"#utility.yul\":12470:12603   */\n    tag_150:\n        /* \"#utility.yul\":12518:12525   */\n      0x00\n        /* \"#utility.yul\":12547:12552   */\n      dup2\n        /* \"#utility.yul\":12536:12552   */\n      swap1\n      pop\n        /* \"#utility.yul\":12553:12597   */\n      tag_291\n        /* \"#utility.yul\":12591:12596   */\n      dup3\n        /* \"#utility.yul\":12553:12597   */\n      tag_149\n      jump\t// in\n    tag_291:\n        /* \"#utility.yul\":12470:12603   */\n      swap2\n      swap1\n      pop\n      jump\t// out\n        /* \"#utility.yul\":12609:12742   */\n    tag_151:\n        /* \"#utility.yul\":12668:12677   */\n      0x00\n        /* \"#utility.yul\":12701:12736   */\n      tag_293\n        /* \"#utility.yul\":12730:12735   */\n      dup3\n        /* \"#utility.yul\":12701:12736   */\n      tag_150\n      jump\t// in\n    tag_293:\n        /* \"#utility.yul\":12688:12736   */\n      swap1\n      pop\n        /* \"#utility.yul\":12609:12742   */\n      swap2\n      swap1\n      pop\n      jump\t// out\n        /* \"#utility.yul\":12748:12897   */\n    tag_152:\n        /* \"#utility.yul\":12844:12890   */\n      tag_295\n        /* \"#utility.yul\":12884:12889   */\n      dup2\n        /* \"#utility.yul\":12844:12890   */\n      tag_151\n      jump\t// in\n    tag_295:\n        /* \"#utility.yul\":12839:12842   */\n      dup3\n        /* \"#utility.yul\":12832:12891   */\n      mstore\n        /* \"#utility.yul\":12748:12897   */\n      pop\n      pop\n      jump\t// out\n        /* \"#utility.yul\":12903:13474   */\n    tag_59:\n        /* \"#utility.yul\":13089:13093   */\n      0x00\n        /* \"#utility.yul\":13127:13130   */\n      0x80\n        /* \"#utility.yul\":13116:13125   */\n      dup3\n        /* \"#utility.yul\":13112:13131   */\n      add\n        /* \"#utility.yul\":13104:13131   */\n      swap1\n      pop\n        /* \"#utility.yul\":13141:13212   */\n      tag_297\n        /* \"#utility.yul\":13209:13210   */\n      0x00\n        /* \"#utility.yul\":13198:13207   */\n      dup4\n        /* \"#utility.yul\":13194:13211   */\n      add\n        /* \"#utility.yul\":13185:13191   */\n      dup8\n        /* \"#utility.yul\":13141:13212   */\n      tag_125\n      jump\t// in\n    tag_297:\n        /* \"#utility.yul\":13222:13303   */\n      tag_298\n        /* \"#utility.yul\":13299:13301   */\n      0x20\n        /* \"#utility.yul\":13288:13297   */\n      dup4\n        /* \"#utility.yul\":13284:13302   */\n      add\n        /* \"#utility.yul\":13275:13281   */\n      dup7\n        /* \"#utility.yul\":13222:13303   */\n      tag_152\n      jump\t// in\n    tag_298:\n        /* \"#utility.yul\":13313:13385   */\n      tag_299\n        /* \"#utility.yul\":13381:13383   */\n      0x40\n        /* \"#utility.yul\":13370:13379   */\n      dup4\n        /* \"#utility.yul\":13366:13384   */\n      add\n        /* \"#utility.yul\":13357:13363   */\n      dup6\n        /* \"#utility.yul\":13313:13385   */\n      tag_125\n      jump\t// in\n    tag_299:\n        /* \"#utility.yul\":13395:13467   */\n      tag_300\n        /* \"#utility.yul\":13463:13465   */\n      0x60\n        /* \"#utility.yul\":13452:13461   */\n      dup4\n        /* \"#utility.yul\":13448:13466   */\n      add\n        /* \"#utility.yul\":13439:13445   */\n      dup5\n        /* \"#utility.yul\":13395:13467   */\n      tag_125\n      jump\t// in\n    tag_300:\n        /* \"#utility.yul\":12903:13474   */\n      swap6\n      swap5\n      pop\n      pop\n      pop\n      pop\n      pop\n      jump\t// out\n        /* \"#utility.yul\":13480:13660   */\n    tag_153:\n        /* \"#utility.yul\":13528:13605   */\n      0x4e487b7100000000000000000000000000000000000000000000000000000000\n        /* \"#utility.yul\":13525:13526   */\n      0x00\n        /* \"#utility.yul\":13518:13606   */\n      mstore\n        /* \"#utility.yul\":13625:13629   */\n      0x11\n        /* \"#utility.yul\":13622:13623   */\n      0x04\n        /* \"#utility.yul\":13615:13630   */\n      mstore\n        /* \"#utility.yul\":13649:13653   */\n      0x24\n        /* \"#utility.yul\":13646:13647   */\n      0x00\n        /* \"#utility.yul\":13639:13654   */\n      revert\n        /* \"#utility.yul\":13666:13743   */\n    tag_154:\n        /* \"#utility.yul\":13703:13710   */\n      0x00\n        /* \"#utility.yul\":13732:13737   */\n      dup2\n        /* \"#utility.yul\":13721:13737   */\n      swap1\n      pop\n        /* \"#utility.yul\":13666:13743   */\n      swap2\n      swap1\n      pop\n      jump\t// out\n        /* \"#utility.yul\":13749:13982   */\n    tag_64:\n        /* \"#utility.yul\":13788:13791   */\n      0x00\n        /* \"#utility.yul\":13811:13835   */\n      tag_304\n        /* \"#utility.yul\":13829:13834   */\n      dup3\n        /* \"#utility.yul\":13811:13835   */\n      tag_154\n      jump\t// in\n    tag_304:\n        /* \"#utility.yul\":13802:13835   */\n      swap2\n      pop\n        /* \"#utility.yul\":13857:13923   */\n      0xffffffffffffffffffffffffffffffffffffffffffffffffffffffffffffffff\n        /* \"#utility.yul\":13850:13855   */\n      dup3\n        /* \"#utility.yul\":13847:13924   */\n      eq\n        /* \"#utility.yul\":13844:13947   */\n      iszero\n      tag_305\n      jumpi\n        /* \"#utility.yul\":13927:13945   */\n      tag_306\n      tag_153\n      jump\t// in\n    tag_306:\n        /* \"#utility.yul\":13844:13947   */\n    tag_305:\n        /* \"#utility.yul\":13974:13975   */\n      0x01\n        /* \"#utility.yul\":13967:13972   */\n      dup3\n        /* \"#utility.yul\":13963:13976   */\n      add\n        /* \"#utility.yul\":13956:13976   */\n      swap1\n      pop\n        /* \"#utility.yul\":13749:13982   */\n      swap2\n      swap1\n      pop\n      jump\t// out\n        /* \"#utility.yul\":13988:14210   */\n    tag_155:\n        /* \"#utility.yul\":14128:14162   */\n      0x5065726d697373696f6e206772616e7465642e204e6577206461746120616464\n        /* \"#utility.yul\":14124:14125   */\n      0x00\n        /* \"#utility.yul\":14116:14122   */\n      dup3\n        /* \"#utility.yul\":14112:14126   */\n      add\n        /* \"#utility.yul\":14105:14163   */\n      mstore\n        /* \"#utility.yul\":14197:14202   */\n      0x65642e0000000000000000000000000000000000000000000000000000000000\n        /* \"#utility.yul\":14192:14194   */\n      0x20\n        /* \"#utility.yul\":14184:14190   */\n      dup3\n        /* \"#utility.yul\":14180:14195   */\n      add\n        /* \"#utility.yul\":14173:14203   */\n      mstore\n        /* \"#utility.yul\":13988:14210   */\n      pop\n      jump\t// out\n        /* \"#utility.yul\":14216:14582   */\n    tag_156:\n        /* \"#utility.yul\":14358:14361   */\n      0x00\n        /* \"#utility.yul\":14379:14446   */\n      tag_309\n        /* \"#utility.yul\":14443:14445   */\n      0x23\n        /* \"#utility.yul\":14438:14441   */\n      dup4\n        /* \"#utility.yul\":14379:14446   */\n      tag_129\n      jump\t// in\n    tag_309:\n        /* \"#utility.yul\":14372:14446   */\n      swap2\n      pop\n        /* \"#utility.yul\":14455:14548   */\n      tag_310\n        /* \"#utility.yul\":14544:14547   */\n      dup3\n        /* \"#utility.yul\":14455:14548   */\n      tag_155\n      jump\t// in\n    tag_310:\n        /* \"#utility.yul\":14573:14575   */\n      0x40\n        /* \"#utility.yul\":14568:14571   */\n      dup3\n        /* \"#utility.yul\":14564:14576   */\n      add\n        /* \"#utility.yul\":14557:14576   */\n      swap1\n      pop\n        /* \"#utility.yul\":14216:14582   */\n      swap2\n      swap1\n      pop\n      jump\t// out\n        /* \"#utility.yul\":14588:15117   */\n    tag_66:\n        /* \"#utility.yul\":14782:14786   */\n      0x00\n        /* \"#utility.yul\":14820:14822   */\n      0x40\n        /* \"#utility.yul\":14809:14818   */\n      dup3\n        /* \"#utility.yul\":14805:14823   */\n      add\n        /* \"#utility.yul\":14797:14823   */\n      swap1\n      pop\n        /* \"#utility.yul\":14833:14904   */\n      tag_312\n        /* \"#utility.yul\":14901:14902   */\n      0x00\n        /* \"#utility.yul\":14890:14899   */\n      dup4\n        /* \"#utility.yul\":14886:14903   */\n      add\n        /* \"#utility.yul\":14877:14883   */\n      dup5\n        /* \"#utility.yul\":14833:14904   */\n      tag_125\n      jump\t// in\n    tag_312:\n        /* \"#utility.yul\":14951:14960   */\n      dup2\n        /* \"#utility.yul\":14945:14949   */\n      dup2\n        /* \"#utility.yul\":14941:14961   */\n      sub\n        /* \"#utility.yul\":14936:14938   */\n      0x20\n        /* \"#utility.yul\":14925:14934   */\n      dup4\n        /* \"#utility.yul\":14921:14939   */\n      add\n        /* \"#utility.yul\":14914:14962   */\n      mstore\n        /* \"#utility.yul\":14979:15110   */\n      tag_313\n        /* \"#utility.yul\":15105:15109   */\n      dup2\n        /* \"#utility.yul\":14979:15110   */\n      tag_156\n      jump\t// in\n    tag_313:\n        /* \"#utility.yul\":14971:15110   */\n      swap1\n      pop\n        /* \"#utility.yul\":14588:15117   */\n      swap3\n      swap2\n      pop\n      pop\n      jump\t// out\n        /* \"#utility.yul\":15123:15222   */\n    tag_157:\n        /* \"#utility.yul\":15175:15181   */\n      0x00\n        /* \"#utility.yul\":15209:15214   */\n      dup2\n        /* \"#utility.yul\":15203:15215   */\n      mload\n        /* \"#utility.yul\":15193:15215   */\n      swap1\n      pop\n        /* \"#utility.yul\":15123:15222   */\n      swap2\n      swap1\n      pop\n      jump\t// out\n        /* \"#utility.yul\":15228:15535   */\n    tag_158:\n        /* \"#utility.yul\":15296:15297   */\n      0x00\n        /* \"#utility.yul\":15306:15419   */\n    tag_316:\n        /* \"#utility.yul\":15320:15326   */\n      dup4\n        /* \"#utility.yul\":15317:15318   */\n      dup2\n        /* \"#utility.yul\":15314:15327   */\n      lt\n        /* \"#utility.yul\":15306:15419   */\n      iszero\n      tag_318\n      jumpi\n        /* \"#utility.yul\":15405:15406   */\n      dup1\n        /* \"#utility.yul\":15400:15403   */\n      dup3\n        /* \"#utility.yul\":15396:15407   */\n      add\n        /* \"#utility.yul\":15390:15408   */\n      mload\n        /* \"#utility.yul\":15386:15387   */\n      dup2\n        /* \"#utility.yul\":15381:15384   */\n      dup5\n        /* \"#utility.yul\":15377:15388   */\n      add\n        /* \"#utility.yul\":15370:15409   */\n      mstore\n        /* \"#utility.yul\":15342:15344   */\n      0x20\n        /* \"#utility.yul\":15339:15340   */\n      dup2\n        /* \"#utility.yul\":15335:15345   */\n      add\n        /* \"#utility.yul\":15330:15345   */\n      swap1\n      pop\n        /* \"#utility.yul\":15306:15419   */\n      jump(tag_316)\n    tag_318:\n        /* \"#utility.yul\":15437:15443   */\n      dup4\n        /* \"#utility.yul\":15434:15435   */\n      dup2\n        /* \"#utility.yul\":15431:15444   */\n      gt\n        /* \"#utility.yul\":15428:15529   */\n      iszero\n      tag_319\n      jumpi\n        /* \"#utility.yul\":15517:15518   */\n      0x00\n        /* \"#utility.yul\":15508:15514   */\n      dup5\n        /* \"#utility.yul\":15503:15506   */\n      dup5\n        /* \"#utility.yul\":15499:15515   */\n      add\n        /* \"#utility.yul\":15492:15519   */\n      mstore\n        /* \"#utility.yul\":15428:15529   */\n    tag_319:\n        /* \"#utility.yul\":15277:15535   */\n      pop\n        /* \"#utility.yul\":15228:15535   */\n      pop\n      pop\n      pop\n      jump\t// out\n        /* \"#utility.yul\":15541:15905   */\n    tag_159:\n        /* \"#utility.yul\":15629:15632   */\n      0x00\n        /* \"#utility.yul\":15657:15696   */\n      tag_321\n        /* \"#utility.yul\":15690:15695   */\n      dup3\n        /* \"#utility.yul\":15657:15696   */\n      tag_157\n      jump\t// in\n    tag_321:\n        /* \"#utility.yul\":15712:15783   */\n      tag_322\n        /* \"#utility.yul\":15776:15782   */\n      dup2\n        /* \"#utility.yul\":15771:15774   */\n      dup6\n        /* \"#utility.yul\":15712:15783   */\n      tag_129\n      jump\t// in\n    tag_322:\n        /* \"#utility.yul\":15705:15783   */\n      swap4\n      pop\n        /* \"#utility.yul\":15792:15844   */\n      tag_323\n        /* \"#utility.yul\":15837:15843   */\n      dup2\n        /* \"#utility.yul\":15832:15835   */\n      dup6\n        /* \"#utility.yul\":15825:15829   */\n      0x20\n        /* \"#utility.yul\":15818:15823   */\n      dup7\n        /* \"#utility.yul\":15814:15830   */\n      add\n        /* \"#utility.yul\":15792:15844   */\n      tag_158\n      jump\t// in\n    tag_323:\n        /* \"#utility.yul\":15869:15898   */\n      tag_324\n        /* \"#utility.yul\":15891:15897   */\n      dup2\n        /* \"#utility.yul\":15869:15898   */\n      tag_135\n      jump\t// in\n    tag_324:\n        /* \"#utility.yul\":15864:15867   */\n      dup5\n        /* \"#utility.yul\":15860:15899   */\n      add\n        /* \"#utility.yul\":15853:15899   */\n      swap2\n      pop\n        /* \"#utility.yul\":15633:15905   */\n      pop\n        /* \"#utility.yul\":15541:15905   */\n      swap3\n      swap2\n      pop\n      pop\n      jump\t// out\n        /* \"#utility.yul\":15911:16334   */\n    tag_80:\n        /* \"#utility.yul\":16052:16056   */\n      0x00\n        /* \"#utility.yul\":16090:16092   */\n      0x40\n        /* \"#utility.yul\":16079:16088   */\n      dup3\n        /* \"#utility.yul\":16075:16093   */\n      add\n        /* \"#utility.yul\":16067:16093   */\n      swap1\n      pop\n        /* \"#utility.yul\":16103:16174   */\n      tag_326\n        /* \"#utility.yul\":16171:16172   */\n      0x00\n        /* \"#utility.yul\":16160:16169   */\n      dup4\n        /* \"#utility.yul\":16156:16173   */\n      add\n        /* \"#utility.yul\":16147:16153   */\n      dup6\n        /* \"#utility.yul\":16103:16174   */\n      tag_125\n      jump\t// in\n    tag_326:\n        /* \"#utility.yul\":16221:16230   */\n      dup2\n        /* \"#utility.yul\":16215:16219   */\n      dup2\n        /* \"#utility.yul\":16211:16231   */\n      sub\n        /* \"#utility.yul\":16206:16208   */\n      0x20\n        /* \"#utility.yul\":16195:16204   */\n      dup4\n        /* \"#utility.yul\":16191:16209   */\n      add\n        /* \"#utility.yul\":16184:16232   */\n      mstore\n        /* \"#utility.yul\":16249:16327   */\n      tag_327\n        /* \"#utility.yul\":16322:16326   */\n      dup2\n        /* \"#utility.yul\":16313:16319   */\n      dup5\n        /* \"#utility.yul\":16249:16327   */\n      tag_159\n      jump\t// in\n    tag_327:\n        /* \"#utility.yul\":16241:16327   */\n      swap1\n      pop\n        /* \"#utility.yul\":15911:16334   */\n      swap4\n      swap3\n      pop\n      pop\n      pop\n      jump\t// out\n        /* \"#utility.yul\":16340:16518   */\n    tag_160:\n        /* \"#utility.yul\":16480:16510   */\n      0x4e6577207065726d697373696f6e20726571756573742066726f6d3a00000000\n        /* \"#utility.yul\":16476:16477   */\n      0x00\n        /* \"#utility.yul\":16468:16474   */\n      dup3\n        /* \"#utility.yul\":16464:16478   */\n      add\n        /* \"#utility.yul\":16457:16511   */\n      mstore\n        /* \"#utility.yul\":16340:16518   */\n      pop\n      jump\t// out\n        /* \"#utility.yul\":16524:16890   */\n    tag_161:\n        /* \"#utility.yul\":16666:16669   */\n      0x00\n        /* \"#utility.yul\":16687:16754   */\n      tag_330\n        /* \"#utility.yul\":16751:16753   */\n      0x1c\n        /* \"#utility.yul\":16746:16749   */\n      dup4\n        /* \"#utility.yul\":16687:16754   */\n      tag_129\n      jump\t// in\n    tag_330:\n        /* \"#utility.yul\":16680:16754   */\n      swap2\n      pop\n        /* \"#utility.yul\":16763:16856   */\n      tag_331\n        /* \"#utility.yul\":16852:16855   */\n      dup3\n        /* \"#utility.yul\":16763:16856   */\n      tag_160\n      jump\t// in\n    tag_331:\n        /* \"#utility.yul\":16881:16883   */\n      0x20\n        /* \"#utility.yul\":16876:16879   */\n      dup3\n        /* \"#utility.yul\":16872:16884   */\n      add\n        /* \"#utility.yul\":16865:16884   */\n      swap1\n      pop\n        /* \"#utility.yul\":16524:16890   */\n      swap2\n      swap1\n      pop\n      jump\t// out\n        /* \"#utility.yul\":16896:17425   */\n    tag_85:\n        /* \"#utility.yul\":17090:17094   */\n      0x00\n        /* \"#utility.yul\":17128:17130   */\n      0x40\n        /* \"#utility.yul\":17117:17126   */\n      dup3\n        /* \"#utility.yul\":17113:17131   */\n      add\n        /* \"#utility.yul\":17105:17131   */\n      swap1\n      pop\n        /* \"#utility.yul\":17141:17212   */\n      tag_333\n        /* \"#utility.yul\":17209:17210   */\n      0x00\n        /* \"#utility.yul\":17198:17207   */\n      dup4\n        /* \"#utility.yul\":17194:17211   */\n      add\n        /* \"#utility.yul\":17185:17191   */\n      dup5\n        /* \"#utility.yul\":17141:17212   */\n      tag_125\n      jump\t// in\n    tag_333:\n        /* \"#utility.yul\":17259:17268   */\n      dup2\n        /* \"#utility.yul\":17253:17257   */\n      dup2\n        /* \"#utility.yul\":17249:17269   */\n      sub\n        /* \"#utility.yul\":17244:17246   */\n      0x20\n        /* \"#utility.yul\":17233:17242   */\n      dup4\n        /* \"#utility.yul\":17229:17247   */\n      add\n        /* \"#utility.yul\":17222:17270   */\n      mstore\n        /* \"#utility.yul\":17287:17418   */\n      tag_334\n        /* \"#utility.yul\":17413:17417   */\n      dup2\n        /* \"#utility.yul\":17287:17418   */\n      tag_161\n      jump\t// in\n    tag_334:\n        /* \"#utility.yul\":17279:17418   */\n      swap1\n      pop\n        /* \"#utility.yul\":16896:17425   */\n      swap3\n      swap2\n      pop\n      pop\n      jump\t// out\n        /* \"#utility.yul\":17431:17517   */\n    tag_162:\n        /* \"#utility.yul\":17466:17473   */\n      0x00\n        /* \"#utility.yul\":17506:17510   */\n      0xff\n        /* \"#utility.yul\":17499:17504   */\n      dup3\n        /* \"#utility.yul\":17495:17511   */\n      and\n        /* \"#utility.yul\":17484:17511   */\n      swap1\n      pop\n        /* \"#utility.yul\":17431:17517   */\n      swap2\n      swap1\n      pop\n      jump\t// out\n        /* \"#utility.yul\":17523:17690   */\n    tag_96:\n        /* \"#utility.yul\":17560:17563   */\n      0x00\n        /* \"#utility.yul\":17583:17605   */\n      tag_337\n        /* \"#utility.yul\":17599:17604   */\n      dup3\n        /* \"#utility.yul\":17583:17605   */\n      tag_162\n      jump\t// in\n    tag_337:\n        /* \"#utility.yul\":17574:17605   */\n      swap2\n      pop\n        /* \"#utility.yul\":17627:17631   */\n      0xff\n        /* \"#utility.yul\":17620:17625   */\n      dup3\n        /* \"#utility.yul\":17617:17632   */\n      eq\n        /* \"#utility.yul\":17614:17655   */\n      iszero\n      tag_338\n      jumpi\n        /* \"#utility.yul\":17635:17653   */\n      tag_339\n      tag_153\n      jump\t// in\n    tag_339:\n        /* \"#utility.yul\":17614:17655   */\n    tag_338:\n        /* \"#utility.yul\":17682:17683   */\n      0x01\n        /* \"#utility.yul\":17675:17680   */\n      dup3\n        /* \"#utility.yul\":17671:17684   */\n      add\n        /* \"#utility.yul\":17664:17684   */\n      swap1\n      pop\n        /* \"#utility.yul\":17523:17690   */\n      swap2\n      swap1\n      pop\n      jump\t// out\n\n    auxdata: 0xa264697066735822122083313a469ac3d701eb7a1309cfb4534efce1183e4e13d62be660ca564aa212a464736f6c634300080a0033\n}\n",
    "bytecode": {
      "linkReferences": {},
      "object": "60806040523480156200001157600080fd5b50604051620013a7380380620013a783398181016040528101906200003791906200016c565b826000806101000a81548173ffffffffffffffffffffffffffffffffffffffff021916908373ffffffffffffffffffffffffffffffffffffffff16021790555081600160006101000a81548173ffffffffffffffffffffffffffffffffffffffff021916908373ffffffffffffffffffffffffffffffffffffffff16021790555080600260006101000a81548173ffffffffffffffffffffffffffffffffffffffff021916908373ffffffffffffffffffffffffffffffffffffffff160217905550505050620001c8565b600080fd5b600073ffffffffffffffffffffffffffffffffffffffff82169050919050565b6000620001348262000107565b9050919050565b620001468162000127565b81146200015257600080fd5b50565b60008151905062000166816200013b565b92915050565b60008060006060848603121562000188576200018762000102565b5b6000620001988682870162000155565b9350506020620001ab8682870162000155565b9250506040620001be8682870162000155565b9150509250925092565b6111cf80620001d86000396000f3fe608060405234801561001057600080fd5b50600436106100575760003560e01c80631d7555791461005c5780632f3712711461007a578063392f37e9146100965780636938323a146100b45780637b103999146100d0575b600080fd5b6100646100ee565b6040516100719190610907565b60405180910390f35b610094600480360381019061008f919061096c565b610114565b005b61009e6104ed565b6040516100ab91906109e0565b60405180910390f35b6100ce60048036038101906100c991906109fb565b610513565b005b6100d8610714565b6040516100e59190610a5c565b60405180910390f35b600160009054906101000a900473ffffffffffffffffffffffffffffffffffffffff1681565b60008054906101000a900473ffffffffffffffffffffffffffffffffffffffff1673ffffffffffffffffffffffffffffffffffffffff16630b2551c2836040518263ffffffff1660e01b815260040161016d9190610a86565b602060405180830381865afa15801561018a573d6000803e3d6000fd5b505050506040513d601f19601f820116820180604052508101906101ae9190610ad9565b6101ed576040517f08c379a00000000000000000000000000000000000000000000000000000000081526004016101e490610b63565b60405180910390fd5b60008054906101000a900473ffffffffffffffffffffffffffffffffffffffff1673ffffffffffffffffffffffffffffffffffffffff16630b2551c2846040518263ffffffff1660e01b81526004016102469190610a86565b602060405180830381865afa158015610263573d6000803e3d6000fd5b505050506040513d601f19601f820116820180604052508101906102879190610ad9565b6102c6576040517f08c379a00000000000000000000000000000000000000000000000000000000081526004016102bd90610bcf565b60405180910390fd5b6000600260009054906101000a900473ffffffffffffffffffffffffffffffffffffffff1673ffffffffffffffffffffffffffffffffffffffff166365375a04846040518263ffffffff1660e01b81526004016103239190610a86565b600060405180830381865afa158015610340573d6000803e3d6000fd5b505050506040513d6000823e3d601f19601f820116820180604052508101906103699190610deb565b905060005b815181101561045957600260009054906101000a900473ffffffffffffffffffffffffffffffffffffffff1673ffffffffffffffffffffffffffffffffffffffff1663d18f403d868484815181106103c9576103c8610e34565b5b6020026020010151600001518585815181106103e8576103e7610e34565b5b602002602001015160200151876040518563ffffffff1660e01b81526004016104149493929190610eda565b600060405180830381600087803b15801561042e57600080fd5b505af1158015610442573d6000803e3d6000fd5b50505050808061045190610f58565b91505061036e565b50600160009054906101000a900473ffffffffffffffffffffffffffffffffffffffff1673ffffffffffffffffffffffffffffffffffffffff1663a2cf0c56856040518263ffffffff1660e01b81526004016104b59190611013565b600060405180830381600087803b1580156104cf57600080fd5b505af11580156104e3573d6000803e3d6000fd5b5050505050505050565b600260009054906101000a900473ffffffffffffffffffffffffffffffffffffffff1681565b60008054906101000a900473ffffffffffffffffffffffffffffffffffffffff1673ffffffffffffffffffffffffffffffffffffffff16630b2551c2836040518263ffffffff1660e01b815260040161056c9190610a86565b602060405180830381865afa158015610589573d6000803e3d6000fd5b505050506040513d601f19601f820116820180604052508101906105ad9190610ad9565b6105ec576040517f08c379a00000000000000000000000000000000000000000000000000000000081526004016105e390610bcf565b60405180910390fd5b600160009054906101000a900473ffffffffffffffffffffffffffffffffffffffff1673ffffffffffffffffffffffffffffffffffffffff1663a2cf0c568261063485610738565b6040518363ffffffff1660e01b81526004016106519291906110b8565b600060405180830381600087803b15801561066b57600080fd5b505af115801561067f573d6000803e3d6000fd5b50505050600160009054906101000a900473ffffffffffffffffffffffffffffffffffffffff1673ffffffffffffffffffffffffffffffffffffffff1663a2cf0c56826040518263ffffffff1660e01b81526004016106de9190611134565b600060405180830381600087803b1580156106f857600080fd5b505af115801561070c573d6000803e3d6000fd5b505050505050565b60008054906101000a900473ffffffffffffffffffffffffffffffffffffffff1681565b606060005b60208160ff1610801561078f5750600060f81b838260ff166020811061076657610765610e34565b5b1a60f81b7effffffffffffffffffffffffffffffffffffffffffffffffffffffffffffff191614155b156107a757808061079f9061116f565b91505061073d565b60008160ff1667ffffffffffffffff8111156107c6576107c5610c05565b5b6040519080825280601f01601f1916602001820160405280156107f85781602001600182028036833780820191505090505b509050600091505b80518260ff16101561087e57838260ff166020811061082257610821610e34565b5b1a60f81b818360ff168151811061083c5761083b610e34565b5b60200101907effffffffffffffffffffffffffffffffffffffffffffffffffffffffffffff1916908160001a90535081806108769061116f565b925050610800565b8092505050919050565b600073ffffffffffffffffffffffffffffffffffffffff82169050919050565b6000819050919050565b60006108cd6108c86108c384610888565b6108a8565b610888565b9050919050565b60006108df826108b2565b9050919050565b60006108f1826108d4565b9050919050565b610901816108e6565b82525050565b600060208201905061091c60008301846108f8565b92915050565b6000604051905090565b600080fd5b600080fd5b6000819050919050565b61094981610936565b811461095457600080fd5b50565b60008135905061096681610940565b92915050565b6000806000606084860312156109855761098461092c565b5b600061099386828701610957565b93505060206109a486828701610957565b92505060406109b586828701610957565b9150509250925092565b60006109ca826108d4565b9050919050565b6109da816109bf565b82525050565b60006020820190506109f560008301846109d1565b92915050565b60008060408385031215610a1257610a1161092c565b5b6000610a2085828601610957565b9250506020610a3185828601610957565b9150509250929050565b6000610a46826108d4565b9050919050565b610a5681610a3b565b82525050565b6000602082019050610a716000830184610a4d565b92915050565b610a8081610936565b82525050565b6000602082019050610a9b6000830184610a77565b92915050565b60008115159050919050565b610ab681610aa1565b8114610ac157600080fd5b50565b600081519050610ad381610aad565b92915050565b600060208284031215610aef57610aee61092c565b5b6000610afd84828501610ac4565b91505092915050565b600082825260208201905092915050565b7f4772616e746572206e6f74207265676973746572656421000000000000000000600082015250565b6000610b4d601783610b06565b9150610b5882610b17565b602082019050919050565b60006020820190508181036000830152610b7c81610b40565b9050919050565b7f526571756573746572206e6f7420726567697374657265642100000000000000600082015250565b6000610bb9601983610b06565b9150610bc482610b83565b602082019050919050565b60006020820190508181036000830152610be881610bac565b9050919050565b600080fd5b6000601f19601f8301169050919050565b7f4e487b7100000000000000000000000000000000000000000000000000000000600052604160045260246000fd5b610c3d82610bf4565b810181811067ffffffffffffffff82111715610c5c57610c5b610c05565b5b80604052505050565b6000610c6f610922565b9050610c7b8282610c34565b919050565b600067ffffffffffffffff821115610c9b57610c9a610c05565b5b602082029050602081019050919050565b600080fd5b600080fd5b60068110610cc357600080fd5b50565b600081519050610cd581610cb6565b92915050565b600081519050610cea81610940565b92915050565b600060608284031215610d0657610d05610cb1565b5b610d106060610c65565b90506000610d2084828501610cc6565b6000830152506020610d3484828501610cdb565b6020830152506040610d4884828501610cdb565b60408301525092915050565b6000610d67610d6284610c80565b610c65565b90508083825260208201905060608402830185811115610d8a57610d89610cac565b5b835b81811015610db35780610d9f8882610cf0565b845260208401935050606081019050610d8c565b5050509392505050565b600082601f830112610dd257610dd1610bef565b5b8151610de2848260208601610d54565b91505092915050565b600060208284031215610e0157610e0061092c565b5b600082015167ffffffffffffffff811115610e1f57610e1e610931565b5b610e2b84828501610dbd565b91505092915050565b7f4e487b7100000000000000000000000000000000000000000000000000000000600052603260045260246000fd5b7f4e487b7100000000000000000000000000000000000000000000000000000000600052602160045260246000fd5b60068110610ea357610ea2610e63565b5b50565b6000819050610eb482610e92565b919050565b6000610ec482610ea6565b9050919050565b610ed481610eb9565b82525050565b6000608082019050610eef6000830187610a77565b610efc6020830186610ecb565b610f096040830185610a77565b610f166060830184610a77565b95945050505050565b7f4e487b7100000000000000000000000000000000000000000000000000000000600052601160045260246000fd5b6000819050919050565b6000610f6382610f4e565b91507fffffffffffffffffffffffffffffffffffffffffffffffffffffffffffffffff821415610f9657610f95610f1f565b5b600182019050919050565b7f5065726d697373696f6e206772616e7465642e204e657720646174612061646460008201527f65642e0000000000000000000000000000000000000000000000000000000000602082015250565b6000610ffd602383610b06565b915061100882610fa1565b604082019050919050565b60006040820190506110286000830184610a77565b818103602083015261103981610ff0565b905092915050565b600081519050919050565b60005b8381101561106a57808201518184015260208101905061104f565b83811115611079576000848401525b50505050565b600061108a82611041565b6110948185610b06565b93506110a481856020860161104c565b6110ad81610bf4565b840191505092915050565b60006040820190506110cd6000830185610a77565b81810360208301526110df818461107f565b90509392505050565b7f4e6577207065726d697373696f6e20726571756573742066726f6d3a00000000600082015250565b600061111e601c83610b06565b9150611129826110e8565b602082019050919050565b60006040820190506111496000830184610a77565b818103602083015261115a81611111565b905092915050565b600060ff82169050919050565b600061117a82611162565b915060ff82141561118e5761118d610f1f565b5b60018201905091905056fea264697066735822122083313a469ac3d701eb7a1309cfb4534efce1183e4e13d62be660ca564aa212a464736f6c634300080a0033",
      "opcodes": "PUSH1 0x80 PUSH1 0x40 MSTORE CALLVALUE DUP1 ISZERO PUSH3 0x11 JUMPI PUSH1 0x0 DUP1 REVERT JUMPDEST POP PUSH1 0x40 MLOAD PUSH3 0x13A7 CODESIZE SUB DUP1 PUSH3 0x13A7 DUP4 CODECOPY DUP2 DUP2 ADD PUSH1 0x40 MSTORE DUP2 ADD SWAP1 PUSH3 0x37 SWAP2 SWAP1 PUSH3 0x16C JUMP JUMPDEST DUP3 PUSH1 0x0 DUP1 PUSH2 0x100 EXP DUP2 SLOAD DUP2 PUSH20 0xFFFFFFFFFFFFFFFFFFFFFFFFFFFFFFFFFFFFFFFF MUL NOT AND SWAP1 DUP4 PUSH20 0xFFFFFFFFFFFFFFFFFFFFFFFFFFFFFFFFFFFFFFFF AND MUL OR SWAP1 SSTORE POP DUP2 PUSH1 0x1 PUSH1 0x0 PUSH2 0x100 EXP DUP2 SLOAD DUP2 PUSH20 0xFFFFFFFFFFFFFFFFFFFFFFFFFFFFFFFFFFFFFFFF MUL NOT AND SWAP1 DUP4 PUSH20 0xFFFFFFFFFFFFFFFFFFFFFFFFFFFFFFFFFFFFFFFF AND MUL OR SWAP1 SSTORE POP DUP1 PUSH1 0x2 PUSH1 0x0 PUSH2 0x100 EXP DUP2 SLOAD DUP2 PUSH20 0xFFFFFFFFFFFFFFFFFFFFFFFFFFFFFFFFFFFFFFFF MUL NOT AND SWAP1 DUP4 PUSH20 0xFFFFFFFFFFFFFFFFFFFFFFFFFFFFFFFFFFFFFFFF AND MUL OR SWAP1 SSTORE POP POP POP POP PUSH3 0x1C8 JUMP JUMPDEST PUSH1 0x0 DUP1 REVERT JUMPDEST PUSH1 0x0 PUSH20 0xFFFFFFFFFFFFFFFFFFFFFFFFFFFFFFFFFFFFFFFF DUP3 AND SWAP1 POP SWAP2 SWAP1 POP JUMP JUMPDEST PUSH1 0x0 PUSH3 0x134 DUP3 PUSH3 0x107 JUMP JUMPDEST SWAP1 POP SWAP2 SWAP1 POP JUMP JUMPDEST PUSH3 0x146 DUP2 PUSH3 0x127 JUMP JUMPDEST DUP2 EQ PUSH3 0x152 JUMPI PUSH1 0x0 DUP1 REVERT JUMPDEST POP JUMP JUMPDEST PUSH1 0x0 DUP2 MLOAD SWAP1 POP PUSH3 0x166 DUP2 PUSH3 0x13B JUMP JUMPDEST SWAP3 SWAP2 POP POP JUMP JUMPDEST PUSH1 0x0 DUP1 PUSH1 0x0 PUSH1 0x60 DUP5 DUP7 SUB SLT ISZERO PUSH3 0x188 JUMPI PUSH3 0x187 PUSH3 0x102 JUMP JUMPDEST JUMPDEST PUSH1 0x0 PUSH3 0x198 DUP7 DUP3 DUP8 ADD PUSH3 0x155 JUMP JUMPDEST SWAP4 POP POP PUSH1 0x20 PUSH3 0x1AB DUP7 DUP3 DUP8 ADD PUSH3 0x155 JUMP JUMPDEST SWAP3 POP POP PUSH1 0x40 PUSH3 0x1BE DUP7 DUP3 DUP8 ADD PUSH3 0x155 JUMP JUMPDEST SWAP2 POP POP SWAP3 POP SWAP3 POP SWAP3 JUMP JUMPDEST PUSH2 0x11CF DUP1 PUSH3 0x1D8 PUSH1 0x0 CODECOPY PUSH1 0x0 RETURN INVALID PUSH1 0x80 PUSH1 0x40 MSTORE CALLVALUE DUP1 ISZERO PUSH2 0x10 JUMPI PUSH1 0x0 DUP1 REVERT JUMPDEST POP PUSH1 0x4 CALLDATASIZE LT PUSH2 0x57 JUMPI PUSH1 0x0 CALLDATALOAD PUSH1 0xE0 SHR DUP1 PUSH4 0x1D755579 EQ PUSH2 0x5C JUMPI DUP1 PUSH4 0x2F371271 EQ PUSH2 0x7A JUMPI DUP1 PUSH4 0x392F37E9 EQ PUSH2 0x96 JUMPI DUP1 PUSH4 0x6938323A EQ PUSH2 0xB4 JUMPI DUP1 PUSH4 0x7B103999 EQ PUSH2 0xD0 JUMPI JUMPDEST PUSH1 0x0 DUP1 REVERT JUMPDEST PUSH2 0x64 PUSH2 0xEE JUMP JUMPDEST PUSH1 0x40 MLOAD PUSH2 0x71 SWAP2 SWAP1 PUSH2 0x907 JUMP JUMPDEST PUSH1 0x40 MLOAD DUP1 SWAP2 SUB SWAP1 RETURN JUMPDEST PUSH2 0x94 PUSH1 0x4 DUP1 CALLDATASIZE SUB DUP2 ADD SWAP1 PUSH2 0x8F SWAP2 SWAP1 PUSH2 0x96C JUMP JUMPDEST PUSH2 0x114 JUMP JUMPDEST STOP JUMPDEST PUSH2 0x9E PUSH2 0x4ED JUMP JUMPDEST PUSH1 0x40 MLOAD PUSH2 0xAB SWAP2 SWAP1 PUSH2 0x9E0 JUMP JUMPDEST PUSH1 0x40 MLOAD DUP1 SWAP2 SUB SWAP1 RETURN JUMPDEST PUSH2 0xCE PUSH1 0x4 DUP1 CALLDATASIZE SUB DUP2 ADD SWAP1 PUSH2 0xC9 SWAP2 SWAP1 PUSH2 0x9FB JUMP JUMPDEST PUSH2 0x513 JUMP JUMPDEST STOP JUMPDEST PUSH2 0xD8 PUSH2 0x714 JUMP JUMPDEST PUSH1 0x40 MLOAD PUSH2 0xE5 SWAP2 SWAP1 PUSH2 0xA5C JUMP JUMPDEST PUSH1 0x40 MLOAD DUP1 SWAP2 SUB SWAP1 RETURN JUMPDEST PUSH1 0x1 PUSH1 0x0 SWAP1 SLOAD SWAP1 PUSH2 0x100 EXP SWAP1 DIV PUSH20 0xFFFFFFFFFFFFFFFFFFFFFFFFFFFFFFFFFFFFFFFF AND DUP2 JUMP JUMPDEST PUSH1 0x0 DUP1 SLOAD SWAP1 PUSH2 0x100 EXP SWAP1 DIV PUSH20 0xFFFFFFFFFFFFFFFFFFFFFFFFFFFFFFFFFFFFFFFF AND PUSH20 0xFFFFFFFFFFFFFFFFFFFFFFFFFFFFFFFFFFFFFFFF AND PUSH4 0xB2551C2 DUP4 PUSH1 0x40 MLOAD DUP3 PUSH4 0xFFFFFFFF AND PUSH1 0xE0 SHL DUP2 MSTORE PUSH1 0x4 ADD PUSH2 0x16D SWAP2 SWAP1 PUSH2 0xA86 JUMP JUMPDEST PUSH1 0x20 PUSH1 0x40 MLOAD DUP1 DUP4 SUB DUP2 DUP7 GAS STATICCALL ISZERO DUP1 ISZERO PUSH2 0x18A JUMPI RETURNDATASIZE PUSH1 0x0 DUP1 RETURNDATACOPY RETURNDATASIZE PUSH1 0x0 REVERT JUMPDEST POP POP POP POP PUSH1 0x40 MLOAD RETURNDATASIZE PUSH1 0x1F NOT PUSH1 0x1F DUP3 ADD AND DUP3 ADD DUP1 PUSH1 0x40 MSTORE POP DUP2 ADD SWAP1 PUSH2 0x1AE SWAP2 SWAP1 PUSH2 0xAD9 JUMP JUMPDEST PUSH2 0x1ED JUMPI PUSH1 0x40 MLOAD PUSH32 0x8C379A000000000000000000000000000000000000000000000000000000000 DUP2 MSTORE PUSH1 0x4 ADD PUSH2 0x1E4 SWAP1 PUSH2 0xB63 JUMP JUMPDEST PUSH1 0x40 MLOAD DUP1 SWAP2 SUB SWAP1 REVERT JUMPDEST PUSH1 0x0 DUP1 SLOAD SWAP1 PUSH2 0x100 EXP SWAP1 DIV PUSH20 0xFFFFFFFFFFFFFFFFFFFFFFFFFFFFFFFFFFFFFFFF AND PUSH20 0xFFFFFFFFFFFFFFFFFFFFFFFFFFFFFFFFFFFFFFFF AND PUSH4 0xB2551C2 DUP5 PUSH1 0x40 MLOAD DUP3 PUSH4 0xFFFFFFFF AND PUSH1 0xE0 SHL DUP2 MSTORE PUSH1 0x4 ADD PUSH2 0x246 SWAP2 SWAP1 PUSH2 0xA86 JUMP JUMPDEST PUSH1 0x20 PUSH1 0x40 MLOAD DUP1 DUP4 SUB DUP2 DUP7 GAS STATICCALL ISZERO DUP1 ISZERO PUSH2 0x263 JUMPI RETURNDATASIZE PUSH1 0x0 DUP1 RETURNDATACOPY RETURNDATASIZE PUSH1 0x0 REVERT JUMPDEST POP POP POP POP PUSH1 0x40 MLOAD RETURNDATASIZE PUSH1 0x1F NOT PUSH1 0x1F DUP3 ADD AND DUP3 ADD DUP1 PUSH1 0x40 MSTORE POP DUP2 ADD SWAP1 PUSH2 0x287 SWAP2 SWAP1 PUSH2 0xAD9 JUMP JUMPDEST PUSH2 0x2C6 JUMPI PUSH1 0x40 MLOAD PUSH32 0x8C379A000000000000000000000000000000000000000000000000000000000 DUP2 MSTORE PUSH1 0x4 ADD PUSH2 0x2BD SWAP1 PUSH2 0xBCF JUMP JUMPDEST PUSH1 0x40 MLOAD DUP1 SWAP2 SUB SWAP1 REVERT JUMPDEST PUSH1 0x0 PUSH1 0x2 PUSH1 0x0 SWAP1 SLOAD SWAP1 PUSH2 0x100 EXP SWAP1 DIV PUSH20 0xFFFFFFFFFFFFFFFFFFFFFFFFFFFFFFFFFFFFFFFF AND PUSH20 0xFFFFFFFFFFFFFFFFFFFFFFFFFFFFFFFFFFFFFFFF AND PUSH4 0x65375A04 DUP5 PUSH1 0x40 MLOAD DUP3 PUSH4 0xFFFFFFFF AND PUSH1 0xE0 SHL DUP2 MSTORE PUSH1 0x4 ADD PUSH2 0x323 SWAP2 SWAP1 PUSH2 0xA86 JUMP JUMPDEST PUSH1 0x0 PUSH1 0x40 MLOAD DUP1 DUP4 SUB DUP2 DUP7 GAS STATICCALL ISZERO DUP1 ISZERO PUSH2 0x340 JUMPI RETURNDATASIZE PUSH1 0x0 DUP1 RETURNDATACOPY RETURNDATASIZE PUSH1 0x0 REVERT JUMPDEST POP POP POP POP PUSH1 0x40 MLOAD RETURNDATASIZE PUSH1 0x0 DUP3 RETURNDATACOPY RETURNDATASIZE PUSH1 0x1F NOT PUSH1 0x1F DUP3 ADD AND DUP3 ADD DUP1 PUSH1 0x40 MSTORE POP DUP2 ADD SWAP1 PUSH2 0x369 SWAP2 SWAP1 PUSH2 0xDEB JUMP JUMPDEST SWAP1 POP PUSH1 0x0 JUMPDEST DUP2 MLOAD DUP2 LT ISZERO PUSH2 0x459 JUMPI PUSH1 0x2 PUSH1 0x0 SWAP1 SLOAD SWAP1 PUSH2 0x100 EXP SWAP1 DIV PUSH20 0xFFFFFFFFFFFFFFFFFFFFFFFFFFFFFFFFFFFFFFFF AND PUSH20 0xFFFFFFFFFFFFFFFFFFFFFFFFFFFFFFFFFFFFFFFF AND PUSH4 0xD18F403D DUP7 DUP5 DUP5 DUP2 MLOAD DUP2 LT PUSH2 0x3C9 JUMPI PUSH2 0x3C8 PUSH2 0xE34 JUMP JUMPDEST JUMPDEST PUSH1 0x20 MUL PUSH1 0x20 ADD ADD MLOAD PUSH1 0x0 ADD MLOAD DUP6 DUP6 DUP2 MLOAD DUP2 LT PUSH2 0x3E8 JUMPI PUSH2 0x3E7 PUSH2 0xE34 JUMP JUMPDEST JUMPDEST PUSH1 0x20 MUL PUSH1 0x20 ADD ADD MLOAD PUSH1 0x20 ADD MLOAD DUP8 PUSH1 0x40 MLOAD DUP6 PUSH4 0xFFFFFFFF AND PUSH1 0xE0 SHL DUP2 MSTORE PUSH1 0x4 ADD PUSH2 0x414 SWAP5 SWAP4 SWAP3 SWAP2 SWAP1 PUSH2 0xEDA JUMP JUMPDEST PUSH1 0x0 PUSH1 0x40 MLOAD DUP1 DUP4 SUB DUP2 PUSH1 0x0 DUP8 DUP1 EXTCODESIZE ISZERO DUP1 ISZERO PUSH2 0x42E JUMPI PUSH1 0x0 DUP1 REVERT JUMPDEST POP GAS CALL ISZERO DUP1 ISZERO PUSH2 0x442 JUMPI RETURNDATASIZE PUSH1 0x0 DUP1 RETURNDATACOPY RETURNDATASIZE PUSH1 0x0 REVERT JUMPDEST POP POP POP POP DUP1 DUP1 PUSH2 0x451 SWAP1 PUSH2 0xF58 JUMP JUMPDEST SWAP2 POP POP PUSH2 0x36E JUMP JUMPDEST POP PUSH1 0x1 PUSH1 0x0 SWAP1 SLOAD SWAP1 PUSH2 0x100 EXP SWAP1 DIV PUSH20 0xFFFFFFFFFFFFFFFFFFFFFFFFFFFFFFFFFFFFFFFF AND PUSH20 0xFFFFFFFFFFFFFFFFFFFFFFFFFFFFFFFFFFFFFFFF AND PUSH4 0xA2CF0C56 DUP6 PUSH1 0x40 MLOAD DUP3 PUSH4 0xFFFFFFFF AND PUSH1 0xE0 SHL DUP2 MSTORE PUSH1 0x4 ADD PUSH2 0x4B5 SWAP2 SWAP1 PUSH2 0x1013 JUMP JUMPDEST PUSH1 0x0 PUSH1 0x40 MLOAD DUP1 DUP4 SUB DUP2 PUSH1 0x0 DUP8 DUP1 EXTCODESIZE ISZERO DUP1 ISZERO PUSH2 0x4CF JUMPI PUSH1 0x0 DUP1 REVERT JUMPDEST POP GAS CALL ISZERO DUP1 ISZERO PUSH2 0x4E3 JUMPI RETURNDATASIZE PUSH1 0x0 DUP1 RETURNDATACOPY RETURNDATASIZE PUSH1 0x0 REVERT JUMPDEST POP POP POP POP POP POP POP POP JUMP JUMPDEST PUSH1 0x2 PUSH1 0x0 SWAP1 SLOAD SWAP1 PUSH2 0x100 EXP SWAP1 DIV PUSH20 0xFFFFFFFFFFFFFFFFFFFFFFFFFFFFFFFFFFFFFFFF AND DUP2 JUMP JUMPDEST PUSH1 0x0 DUP1 SLOAD SWAP1 PUSH2 0x100 EXP SWAP1 DIV PUSH20 0xFFFFFFFFFFFFFFFFFFFFFFFFFFFFFFFFFFFFFFFF AND PUSH20 0xFFFFFFFFFFFFFFFFFFFFFFFFFFFFFFFFFFFFFFFF AND PUSH4 0xB2551C2 DUP4 PUSH1 0x40 MLOAD DUP3 PUSH4 0xFFFFFFFF AND PUSH1 0xE0 SHL DUP2 MSTORE PUSH1 0x4 ADD PUSH2 0x56C SWAP2 SWAP1 PUSH2 0xA86 JUMP JUMPDEST PUSH1 0x20 PUSH1 0x40 MLOAD DUP1 DUP4 SUB DUP2 DUP7 GAS STATICCALL ISZERO DUP1 ISZERO PUSH2 0x589 JUMPI RETURNDATASIZE PUSH1 0x0 DUP1 RETURNDATACOPY RETURNDATASIZE PUSH1 0x0 REVERT JUMPDEST POP POP POP POP PUSH1 0x40 MLOAD RETURNDATASIZE PUSH1 0x1F NOT PUSH1 0x1F DUP3 ADD AND DUP3 ADD DUP1 PUSH1 0x40 MSTORE POP DUP2 ADD SWAP1 PUSH2 0x5AD SWAP2 SWAP1 PUSH2 0xAD9 JUMP JUMPDEST PUSH2 0x5EC JUMPI PUSH1 0x40 MLOAD PUSH32 0x8C379A000000000000000000000000000000000000000000000000000000000 DUP2 MSTORE PUSH1 0x4 ADD PUSH2 0x5E3 SWAP1 PUSH2 0xBCF JUMP JUMPDEST PUSH1 0x40 MLOAD DUP1 SWAP2 SUB SWAP1 REVERT JUMPDEST PUSH1 0x1 PUSH1 0x0 SWAP1 SLOAD SWAP1 PUSH2 0x100 EXP SWAP1 DIV PUSH20 0xFFFFFFFFFFFFFFFFFFFFFFFFFFFFFFFFFFFFFFFF AND PUSH20 0xFFFFFFFFFFFFFFFFFFFFFFFFFFFFFFFFFFFFFFFF AND PUSH4 0xA2CF0C56 DUP3 PUSH2 0x634 DUP6 PUSH2 0x738 JUMP JUMPDEST PUSH1 0x40 MLOAD DUP4 PUSH4 0xFFFFFFFF AND PUSH1 0xE0 SHL DUP2 MSTORE PUSH1 0x4 ADD PUSH2 0x651 SWAP3 SWAP2 SWAP1 PUSH2 0x10B8 JUMP JUMPDEST PUSH1 0x0 PUSH1 0x40 MLOAD DUP1 DUP4 SUB DUP2 PUSH1 0x0 DUP8 DUP1 EXTCODESIZE ISZERO DUP1 ISZERO PUSH2 0x66B JUMPI PUSH1 0x0 DUP1 REVERT JUMPDEST POP GAS CALL ISZERO DUP1 ISZERO PUSH2 0x67F JUMPI RETURNDATASIZE PUSH1 0x0 DUP1 RETURNDATACOPY RETURNDATASIZE PUSH1 0x0 REVERT JUMPDEST POP POP POP POP PUSH1 0x1 PUSH1 0x0 SWAP1 SLOAD SWAP1 PUSH2 0x100 EXP SWAP1 DIV PUSH20 0xFFFFFFFFFFFFFFFFFFFFFFFFFFFFFFFFFFFFFFFF AND PUSH20 0xFFFFFFFFFFFFFFFFFFFFFFFFFFFFFFFFFFFFFFFF AND PUSH4 0xA2CF0C56 DUP3 PUSH1 0x40 MLOAD DUP3 PUSH4 0xFFFFFFFF AND PUSH1 0xE0 SHL DUP2 MSTORE PUSH1 0x4 ADD PUSH2 0x6DE SWAP2 SWAP1 PUSH2 0x1134 JUMP JUMPDEST PUSH1 0x0 PUSH1 0x40 MLOAD DUP1 DUP4 SUB DUP2 PUSH1 0x0 DUP8 DUP1 EXTCODESIZE ISZERO DUP1 ISZERO PUSH2 0x6F8 JUMPI PUSH1 0x0 DUP1 REVERT JUMPDEST POP GAS CALL ISZERO DUP1 ISZERO PUSH2 0x70C JUMPI RETURNDATASIZE PUSH1 0x0 DUP1 RETURNDATACOPY RETURNDATASIZE PUSH1 0x0 REVERT JUMPDEST POP POP POP POP POP POP JUMP JUMPDEST PUSH1 0x0 DUP1 SLOAD SWAP1 PUSH2 0x100 EXP SWAP1 DIV PUSH20 0xFFFFFFFFFFFFFFFFFFFFFFFFFFFFFFFFFFFFFFFF AND DUP2 JUMP JUMPDEST PUSH1 0x60 PUSH1 0x0 JUMPDEST PUSH1 0x20 DUP2 PUSH1 0xFF AND LT DUP1 ISZERO PUSH2 0x78F JUMPI POP PUSH1 0x0 PUSH1 0xF8 SHL DUP4 DUP3 PUSH1 0xFF AND PUSH1 0x20 DUP2 LT PUSH2 0x766 JUMPI PUSH2 0x765 PUSH2 0xE34 JUMP JUMPDEST JUMPDEST BYTE PUSH1 0xF8 SHL PUSH31 0xFFFFFFFFFFFFFFFFFFFFFFFFFFFFFFFFFFFFFFFFFFFFFFFFFFFFFFFFFFFFFF NOT AND EQ ISZERO JUMPDEST ISZERO PUSH2 0x7A7 JUMPI DUP1 DUP1 PUSH2 0x79F SWAP1 PUSH2 0x116F JUMP JUMPDEST SWAP2 POP POP PUSH2 0x73D JUMP JUMPDEST PUSH1 0x0 DUP2 PUSH1 0xFF AND PUSH8 0xFFFFFFFFFFFFFFFF DUP2 GT ISZERO PUSH2 0x7C6 JUMPI PUSH2 0x7C5 PUSH2 0xC05 JUMP JUMPDEST JUMPDEST PUSH1 0x40 MLOAD SWAP1 DUP1 DUP3 MSTORE DUP1 PUSH1 0x1F ADD PUSH1 0x1F NOT AND PUSH1 0x20 ADD DUP3 ADD PUSH1 0x40 MSTORE DUP1 ISZERO PUSH2 0x7F8 JUMPI DUP2 PUSH1 0x20 ADD PUSH1 0x1 DUP3 MUL DUP1 CALLDATASIZE DUP4 CALLDATACOPY DUP1 DUP3 ADD SWAP2 POP POP SWAP1 POP JUMPDEST POP SWAP1 POP PUSH1 0x0 SWAP2 POP JUMPDEST DUP1 MLOAD DUP3 PUSH1 0xFF AND LT ISZERO PUSH2 0x87E JUMPI DUP4 DUP3 PUSH1 0xFF AND PUSH1 0x20 DUP2 LT PUSH2 0x822 JUMPI PUSH2 0x821 PUSH2 0xE34 JUMP JUMPDEST JUMPDEST BYTE PUSH1 0xF8 SHL DUP2 DUP4 PUSH1 0xFF AND DUP2 MLOAD DUP2 LT PUSH2 0x83C JUMPI PUSH2 0x83B PUSH2 0xE34 JUMP JUMPDEST JUMPDEST PUSH1 0x20 ADD ADD SWAP1 PUSH31 0xFFFFFFFFFFFFFFFFFFFFFFFFFFFFFFFFFFFFFFFFFFFFFFFFFFFFFFFFFFFFFF NOT AND SWAP1 DUP2 PUSH1 0x0 BYTE SWAP1 MSTORE8 POP DUP2 DUP1 PUSH2 0x876 SWAP1 PUSH2 0x116F JUMP JUMPDEST SWAP3 POP POP PUSH2 0x800 JUMP JUMPDEST DUP1 SWAP3 POP POP POP SWAP2 SWAP1 POP JUMP JUMPDEST PUSH1 0x0 PUSH20 0xFFFFFFFFFFFFFFFFFFFFFFFFFFFFFFFFFFFFFFFF DUP3 AND SWAP1 POP SWAP2 SWAP1 POP JUMP JUMPDEST PUSH1 0x0 DUP2 SWAP1 POP SWAP2 SWAP1 POP JUMP JUMPDEST PUSH1 0x0 PUSH2 0x8CD PUSH2 0x8C8 PUSH2 0x8C3 DUP5 PUSH2 0x888 JUMP JUMPDEST PUSH2 0x8A8 JUMP JUMPDEST PUSH2 0x888 JUMP JUMPDEST SWAP1 POP SWAP2 SWAP1 POP JUMP JUMPDEST PUSH1 0x0 PUSH2 0x8DF DUP3 PUSH2 0x8B2 JUMP JUMPDEST SWAP1 POP SWAP2 SWAP1 POP JUMP JUMPDEST PUSH1 0x0 PUSH2 0x8F1 DUP3 PUSH2 0x8D4 JUMP JUMPDEST SWAP1 POP SWAP2 SWAP1 POP JUMP JUMPDEST PUSH2 0x901 DUP2 PUSH2 0x8E6 JUMP JUMPDEST DUP3 MSTORE POP POP JUMP JUMPDEST PUSH1 0x0 PUSH1 0x20 DUP3 ADD SWAP1 POP PUSH2 0x91C PUSH1 0x0 DUP4 ADD DUP5 PUSH2 0x8F8 JUMP JUMPDEST SWAP3 SWAP2 POP POP JUMP JUMPDEST PUSH1 0x0 PUSH1 0x40 MLOAD SWAP1 POP SWAP1 JUMP JUMPDEST PUSH1 0x0 DUP1 REVERT JUMPDEST PUSH1 0x0 DUP1 REVERT JUMPDEST PUSH1 0x0 DUP2 SWAP1 POP SWAP2 SWAP1 POP JUMP JUMPDEST PUSH2 0x949 DUP2 PUSH2 0x936 JUMP JUMPDEST DUP2 EQ PUSH2 0x954 JUMPI PUSH1 0x0 DUP1 REVERT JUMPDEST POP JUMP JUMPDEST PUSH1 0x0 DUP2 CALLDATALOAD SWAP1 POP PUSH2 0x966 DUP2 PUSH2 0x940 JUMP JUMPDEST SWAP3 SWAP2 POP POP JUMP JUMPDEST PUSH1 0x0 DUP1 PUSH1 0x0 PUSH1 0x60 DUP5 DUP7 SUB SLT ISZERO PUSH2 0x985 JUMPI PUSH2 0x984 PUSH2 0x92C JUMP JUMPDEST JUMPDEST PUSH1 0x0 PUSH2 0x993 DUP7 DUP3 DUP8 ADD PUSH2 0x957 JUMP JUMPDEST SWAP4 POP POP PUSH1 0x20 PUSH2 0x9A4 DUP7 DUP3 DUP8 ADD PUSH2 0x957 JUMP JUMPDEST SWAP3 POP POP PUSH1 0x40 PUSH2 0x9B5 DUP7 DUP3 DUP8 ADD PUSH2 0x957 JUMP JUMPDEST SWAP2 POP POP SWAP3 POP SWAP3 POP SWAP3 JUMP JUMPDEST PUSH1 0x0 PUSH2 0x9CA DUP3 PUSH2 0x8D4 JUMP JUMPDEST SWAP1 POP SWAP2 SWAP1 POP JUMP JUMPDEST PUSH2 0x9DA DUP2 PUSH2 0x9BF JUMP JUMPDEST DUP3 MSTORE POP POP JUMP JUMPDEST PUSH1 0x0 PUSH1 0x20 DUP3 ADD SWAP1 POP PUSH2 0x9F5 PUSH1 0x0 DUP4 ADD DUP5 PUSH2 0x9D1 JUMP JUMPDEST SWAP3 SWAP2 POP POP JUMP JUMPDEST PUSH1 0x0 DUP1 PUSH1 0x40 DUP4 DUP6 SUB SLT ISZERO PUSH2 0xA12 JUMPI PUSH2 0xA11 PUSH2 0x92C JUMP JUMPDEST JUMPDEST PUSH1 0x0 PUSH2 0xA20 DUP6 DUP3 DUP7 ADD PUSH2 0x957 JUMP JUMPDEST SWAP3 POP POP PUSH1 0x20 PUSH2 0xA31 DUP6 DUP3 DUP7 ADD PUSH2 0x957 JUMP JUMPDEST SWAP2 POP POP SWAP3 POP SWAP3 SWAP1 POP JUMP JUMPDEST PUSH1 0x0 PUSH2 0xA46 DUP3 PUSH2 0x8D4 JUMP JUMPDEST SWAP1 POP SWAP2 SWAP1 POP JUMP JUMPDEST PUSH2 0xA56 DUP2 PUSH2 0xA3B JUMP JUMPDEST DUP3 MSTORE POP POP JUMP JUMPDEST PUSH1 0x0 PUSH1 0x20 DUP3 ADD SWAP1 POP PUSH2 0xA71 PUSH1 0x0 DUP4 ADD DUP5 PUSH2 0xA4D JUMP JUMPDEST SWAP3 SWAP2 POP POP JUMP JUMPDEST PUSH2 0xA80 DUP2 PUSH2 0x936 JUMP JUMPDEST DUP3 MSTORE POP POP JUMP JUMPDEST PUSH1 0x0 PUSH1 0x20 DUP3 ADD SWAP1 POP PUSH2 0xA9B PUSH1 0x0 DUP4 ADD DUP5 PUSH2 0xA77 JUMP JUMPDEST SWAP3 SWAP2 POP POP JUMP JUMPDEST PUSH1 0x0 DUP2 ISZERO ISZERO SWAP1 POP SWAP2 SWAP1 POP JUMP JUMPDEST PUSH2 0xAB6 DUP2 PUSH2 0xAA1 JUMP JUMPDEST DUP2 EQ PUSH2 0xAC1 JUMPI PUSH1 0x0 DUP1 REVERT JUMPDEST POP JUMP JUMPDEST PUSH1 0x0 DUP2 MLOAD SWAP1 POP PUSH2 0xAD3 DUP2 PUSH2 0xAAD JUMP JUMPDEST SWAP3 SWAP2 POP POP JUMP JUMPDEST PUSH1 0x0 PUSH1 0x20 DUP3 DUP5 SUB SLT ISZERO PUSH2 0xAEF JUMPI PUSH2 0xAEE PUSH2 0x92C JUMP JUMPDEST JUMPDEST PUSH1 0x0 PUSH2 0xAFD DUP5 DUP3 DUP6 ADD PUSH2 0xAC4 JUMP JUMPDEST SWAP2 POP POP SWAP3 SWAP2 POP POP JUMP JUMPDEST PUSH1 0x0 DUP3 DUP3 MSTORE PUSH1 0x20 DUP3 ADD SWAP1 POP SWAP3 SWAP2 POP POP JUMP JUMPDEST PUSH32 0x4772616E746572206E6F74207265676973746572656421000000000000000000 PUSH1 0x0 DUP3 ADD MSTORE POP JUMP JUMPDEST PUSH1 0x0 PUSH2 0xB4D PUSH1 0x17 DUP4 PUSH2 0xB06 JUMP JUMPDEST SWAP2 POP PUSH2 0xB58 DUP3 PUSH2 0xB17 JUMP JUMPDEST PUSH1 0x20 DUP3 ADD SWAP1 POP SWAP2 SWAP1 POP JUMP JUMPDEST PUSH1 0x0 PUSH1 0x20 DUP3 ADD SWAP1 POP DUP2 DUP2 SUB PUSH1 0x0 DUP4 ADD MSTORE PUSH2 0xB7C DUP2 PUSH2 0xB40 JUMP JUMPDEST SWAP1 POP SWAP2 SWAP1 POP JUMP JUMPDEST PUSH32 0x526571756573746572206E6F7420726567697374657265642100000000000000 PUSH1 0x0 DUP3 ADD MSTORE POP JUMP JUMPDEST PUSH1 0x0 PUSH2 0xBB9 PUSH1 0x19 DUP4 PUSH2 0xB06 JUMP JUMPDEST SWAP2 POP PUSH2 0xBC4 DUP3 PUSH2 0xB83 JUMP JUMPDEST PUSH1 0x20 DUP3 ADD SWAP1 POP SWAP2 SWAP1 POP JUMP JUMPDEST PUSH1 0x0 PUSH1 0x20 DUP3 ADD SWAP1 POP DUP2 DUP2 SUB PUSH1 0x0 DUP4 ADD MSTORE PUSH2 0xBE8 DUP2 PUSH2 0xBAC JUMP JUMPDEST SWAP1 POP SWAP2 SWAP1 POP JUMP JUMPDEST PUSH1 0x0 DUP1 REVERT JUMPDEST PUSH1 0x0 PUSH1 0x1F NOT PUSH1 0x1F DUP4 ADD AND SWAP1 POP SWAP2 SWAP1 POP JUMP JUMPDEST PUSH32 0x4E487B7100000000000000000000000000000000000000000000000000000000 PUSH1 0x0 MSTORE PUSH1 0x41 PUSH1 0x4 MSTORE PUSH1 0x24 PUSH1 0x0 REVERT JUMPDEST PUSH2 0xC3D DUP3 PUSH2 0xBF4 JUMP JUMPDEST DUP2 ADD DUP2 DUP2 LT PUSH8 0xFFFFFFFFFFFFFFFF DUP3 GT OR ISZERO PUSH2 0xC5C JUMPI PUSH2 0xC5B PUSH2 0xC05 JUMP JUMPDEST JUMPDEST DUP1 PUSH1 0x40 MSTORE POP POP POP JUMP JUMPDEST PUSH1 0x0 PUSH2 0xC6F PUSH2 0x922 JUMP JUMPDEST SWAP1 POP PUSH2 0xC7B DUP3 DUP3 PUSH2 0xC34 JUMP JUMPDEST SWAP2 SWAP1 POP JUMP JUMPDEST PUSH1 0x0 PUSH8 0xFFFFFFFFFFFFFFFF DUP3 GT ISZERO PUSH2 0xC9B JUMPI PUSH2 0xC9A PUSH2 0xC05 JUMP JUMPDEST JUMPDEST PUSH1 0x20 DUP3 MUL SWAP1 POP PUSH1 0x20 DUP2 ADD SWAP1 POP SWAP2 SWAP1 POP JUMP JUMPDEST PUSH1 0x0 DUP1 REVERT JUMPDEST PUSH1 0x0 DUP1 REVERT JUMPDEST PUSH1 0x6 DUP2 LT PUSH2 0xCC3 JUMPI PUSH1 0x0 DUP1 REVERT JUMPDEST POP JUMP JUMPDEST PUSH1 0x0 DUP2 MLOAD SWAP1 POP PUSH2 0xCD5 DUP2 PUSH2 0xCB6 JUMP JUMPDEST SWAP3 SWAP2 POP POP JUMP JUMPDEST PUSH1 0x0 DUP2 MLOAD SWAP1 POP PUSH2 0xCEA DUP2 PUSH2 0x940 JUMP JUMPDEST SWAP3 SWAP2 POP POP JUMP JUMPDEST PUSH1 0x0 PUSH1 0x60 DUP3 DUP5 SUB SLT ISZERO PUSH2 0xD06 JUMPI PUSH2 0xD05 PUSH2 0xCB1 JUMP JUMPDEST JUMPDEST PUSH2 0xD10 PUSH1 0x60 PUSH2 0xC65 JUMP JUMPDEST SWAP1 POP PUSH1 0x0 PUSH2 0xD20 DUP5 DUP3 DUP6 ADD PUSH2 0xCC6 JUMP JUMPDEST PUSH1 0x0 DUP4 ADD MSTORE POP PUSH1 0x20 PUSH2 0xD34 DUP5 DUP3 DUP6 ADD PUSH2 0xCDB JUMP JUMPDEST PUSH1 0x20 DUP4 ADD MSTORE POP PUSH1 0x40 PUSH2 0xD48 DUP5 DUP3 DUP6 ADD PUSH2 0xCDB JUMP JUMPDEST PUSH1 0x40 DUP4 ADD MSTORE POP SWAP3 SWAP2 POP POP JUMP JUMPDEST PUSH1 0x0 PUSH2 0xD67 PUSH2 0xD62 DUP5 PUSH2 0xC80 JUMP JUMPDEST PUSH2 0xC65 JUMP JUMPDEST SWAP1 POP DUP1 DUP4 DUP3 MSTORE PUSH1 0x20 DUP3 ADD SWAP1 POP PUSH1 0x60 DUP5 MUL DUP4 ADD DUP6 DUP2 GT ISZERO PUSH2 0xD8A JUMPI PUSH2 0xD89 PUSH2 0xCAC JUMP JUMPDEST JUMPDEST DUP4 JUMPDEST DUP2 DUP2 LT ISZERO PUSH2 0xDB3 JUMPI DUP1 PUSH2 0xD9F DUP9 DUP3 PUSH2 0xCF0 JUMP JUMPDEST DUP5 MSTORE PUSH1 0x20 DUP5 ADD SWAP4 POP POP PUSH1 0x60 DUP2 ADD SWAP1 POP PUSH2 0xD8C JUMP JUMPDEST POP POP POP SWAP4 SWAP3 POP POP POP JUMP JUMPDEST PUSH1 0x0 DUP3 PUSH1 0x1F DUP4 ADD SLT PUSH2 0xDD2 JUMPI PUSH2 0xDD1 PUSH2 0xBEF JUMP JUMPDEST JUMPDEST DUP2 MLOAD PUSH2 0xDE2 DUP5 DUP3 PUSH1 0x20 DUP7 ADD PUSH2 0xD54 JUMP JUMPDEST SWAP2 POP POP SWAP3 SWAP2 POP POP JUMP JUMPDEST PUSH1 0x0 PUSH1 0x20 DUP3 DUP5 SUB SLT ISZERO PUSH2 0xE01 JUMPI PUSH2 0xE00 PUSH2 0x92C JUMP JUMPDEST JUMPDEST PUSH1 0x0 DUP3 ADD MLOAD PUSH8 0xFFFFFFFFFFFFFFFF DUP2 GT ISZERO PUSH2 0xE1F JUMPI PUSH2 0xE1E PUSH2 0x931 JUMP JUMPDEST JUMPDEST PUSH2 0xE2B DUP5 DUP3 DUP6 ADD PUSH2 0xDBD JUMP JUMPDEST SWAP2 POP POP SWAP3 SWAP2 POP POP JUMP JUMPDEST PUSH32 0x4E487B7100000000000000000000000000000000000000000000000000000000 PUSH1 0x0 MSTORE PUSH1 0x32 PUSH1 0x4 MSTORE PUSH1 0x24 PUSH1 0x0 REVERT JUMPDEST PUSH32 0x4E487B7100000000000000000000000000000000000000000000000000000000 PUSH1 0x0 MSTORE PUSH1 0x21 PUSH1 0x4 MSTORE PUSH1 0x24 PUSH1 0x0 REVERT JUMPDEST PUSH1 0x6 DUP2 LT PUSH2 0xEA3 JUMPI PUSH2 0xEA2 PUSH2 0xE63 JUMP JUMPDEST JUMPDEST POP JUMP JUMPDEST PUSH1 0x0 DUP2 SWAP1 POP PUSH2 0xEB4 DUP3 PUSH2 0xE92 JUMP JUMPDEST SWAP2 SWAP1 POP JUMP JUMPDEST PUSH1 0x0 PUSH2 0xEC4 DUP3 PUSH2 0xEA6 JUMP JUMPDEST SWAP1 POP SWAP2 SWAP1 POP JUMP JUMPDEST PUSH2 0xED4 DUP2 PUSH2 0xEB9 JUMP JUMPDEST DUP3 MSTORE POP POP JUMP JUMPDEST PUSH1 0x0 PUSH1 0x80 DUP3 ADD SWAP1 POP PUSH2 0xEEF PUSH1 0x0 DUP4 ADD DUP8 PUSH2 0xA77 JUMP JUMPDEST PUSH2 0xEFC PUSH1 0x20 DUP4 ADD DUP7 PUSH2 0xECB JUMP JUMPDEST PUSH2 0xF09 PUSH1 0x40 DUP4 ADD DUP6 PUSH2 0xA77 JUMP JUMPDEST PUSH2 0xF16 PUSH1 0x60 DUP4 ADD DUP5 PUSH2 0xA77 JUMP JUMPDEST SWAP6 SWAP5 POP POP POP POP POP JUMP JUMPDEST PUSH32 0x4E487B7100000000000000000000000000000000000000000000000000000000 PUSH1 0x0 MSTORE PUSH1 0x11 PUSH1 0x4 MSTORE PUSH1 0x24 PUSH1 0x0 REVERT JUMPDEST PUSH1 0x0 DUP2 SWAP1 POP SWAP2 SWAP1 POP JUMP JUMPDEST PUSH1 0x0 PUSH2 0xF63 DUP3 PUSH2 0xF4E JUMP JUMPDEST SWAP2 POP PUSH32 0xFFFFFFFFFFFFFFFFFFFFFFFFFFFFFFFFFFFFFFFFFFFFFFFFFFFFFFFFFFFFFFFF DUP3 EQ ISZERO PUSH2 0xF96 JUMPI PUSH2 0xF95 PUSH2 0xF1F JUMP JUMPDEST JUMPDEST PUSH1 0x1 DUP3 ADD SWAP1 POP SWAP2 SWAP1 POP JUMP JUMPDEST PUSH32 0x5065726D697373696F6E206772616E7465642E204E6577206461746120616464 PUSH1 0x0 DUP3 ADD MSTORE PUSH32 0x65642E0000000000000000000000000000000000000000000000000000000000 PUSH1 0x20 DUP3 ADD MSTORE POP JUMP JUMPDEST PUSH1 0x0 PUSH2 0xFFD PUSH1 0x23 DUP4 PUSH2 0xB06 JUMP JUMPDEST SWAP2 POP PUSH2 0x1008 DUP3 PUSH2 0xFA1 JUMP JUMPDEST PUSH1 0x40 DUP3 ADD SWAP1 POP SWAP2 SWAP1 POP JUMP JUMPDEST PUSH1 0x0 PUSH1 0x40 DUP3 ADD SWAP1 POP PUSH2 0x1028 PUSH1 0x0 DUP4 ADD DUP5 PUSH2 0xA77 JUMP JUMPDEST DUP2 DUP2 SUB PUSH1 0x20 DUP4 ADD MSTORE PUSH2 0x1039 DUP2 PUSH2 0xFF0 JUMP JUMPDEST SWAP1 POP SWAP3 SWAP2 POP POP JUMP JUMPDEST PUSH1 0x0 DUP2 MLOAD SWAP1 POP SWAP2 SWAP1 POP JUMP JUMPDEST PUSH1 0x0 JUMPDEST DUP4 DUP2 LT ISZERO PUSH2 0x106A JUMPI DUP1 DUP3 ADD MLOAD DUP2 DUP5 ADD MSTORE PUSH1 0x20 DUP2 ADD SWAP1 POP PUSH2 0x104F JUMP JUMPDEST DUP4 DUP2 GT ISZERO PUSH2 0x1079 JUMPI PUSH1 0x0 DUP5 DUP5 ADD MSTORE JUMPDEST POP POP POP POP JUMP JUMPDEST PUSH1 0x0 PUSH2 0x108A DUP3 PUSH2 0x1041 JUMP JUMPDEST PUSH2 0x1094 DUP2 DUP6 PUSH2 0xB06 JUMP JUMPDEST SWAP4 POP PUSH2 0x10A4 DUP2 DUP6 PUSH1 0x20 DUP7 ADD PUSH2 0x104C JUMP JUMPDEST PUSH2 0x10AD DUP2 PUSH2 0xBF4 JUMP JUMPDEST DUP5 ADD SWAP2 POP POP SWAP3 SWAP2 POP POP JUMP JUMPDEST PUSH1 0x0 PUSH1 0x40 DUP3 ADD SWAP1 POP PUSH2 0x10CD PUSH1 0x0 DUP4 ADD DUP6 PUSH2 0xA77 JUMP JUMPDEST DUP2 DUP2 SUB PUSH1 0x20 DUP4 ADD MSTORE PUSH2 0x10DF DUP2 DUP5 PUSH2 0x107F JUMP JUMPDEST SWAP1 POP SWAP4 SWAP3 POP POP POP JUMP JUMPDEST PUSH32 0x4E6577207065726D697373696F6E20726571756573742066726F6D3A00000000 PUSH1 0x0 DUP3 ADD MSTORE POP JUMP JUMPDEST PUSH1 0x0 PUSH2 0x111E PUSH1 0x1C DUP4 PUSH2 0xB06 JUMP JUMPDEST SWAP2 POP PUSH2 0x1129 DUP3 PUSH2 0x10E8 JUMP JUMPDEST PUSH1 0x20 DUP3 ADD SWAP1 POP SWAP2 SWAP1 POP JUMP JUMPDEST PUSH1 0x0 PUSH1 0x40 DUP3 ADD SWAP1 POP PUSH2 0x1149 PUSH1 0x0 DUP4 ADD DUP5 PUSH2 0xA77 JUMP JUMPDEST DUP2 DUP2 SUB PUSH1 0x20 DUP4 ADD MSTORE PUSH2 0x115A DUP2 PUSH2 0x1111 JUMP JUMPDEST SWAP1 POP SWAP3 SWAP2 POP POP JUMP JUMPDEST PUSH1 0x0 PUSH1 0xFF DUP3 AND SWAP1 POP SWAP2 SWAP1 POP JUMP JUMPDEST PUSH1 0x0 PUSH2 0x117A DUP3 PUSH2 0x1162 JUMP JUMPDEST SWAP2 POP PUSH1 0xFF DUP3 EQ ISZERO PUSH2 0x118E JUMPI PUSH2 0x118D PUSH2 0xF1F JUMP JUMPDEST JUMPDEST PUSH1 0x1 DUP3 ADD SWAP1 POP SWAP2 SWAP1 POP JUMP INVALID LOG2 PUSH5 0x6970667358 0x22 SLT KECCAK256 DUP4 BALANCE GASPRICE CHAINID SWAP11 0xC3 0xD7 ADD 0xEB PUSH27 0x1309CFB4534EFCE1183E4E13D62BE660CA564AA212A464736F6C63 NUMBER STOP ADDMOD EXP STOP CALLER "
    },
    "gasEstimates": {
      "creation": {
        "codeDepositCost": "911800",
        "executionCost": "infinite",
        "totalCost": "infinite"
      },
      "external": {
        "approvePermission(bytes32,bytes32,bytes32)": "infinite",
        "metadata()": "infinite",
        "notificationManager()": "infinite",
        "registry()": "infinite",
        "requestPermission(bytes32,bytes32)": "infinite"
      },
      "internal": {
        "bytes32ToString(bytes32)": "infinite"
      }
    },
    "methodIdentifiers": {
      "approvePermission(bytes32,bytes32,bytes32)": "2f371271",
      "metadata()": "392f37e9",
      "notificationManager()": "1d755579",
      "registry()": "7b103999",
      "requestPermission(bytes32,bytes32)": "6938323a"
    }
  },
  "storageLayout": {
    "storage": [
      {
        "astId": 179,
        "contract": "permission.sol:Permission",
        "label": "registry",
        "offset": 0,
        "slot": "0",
        "type": "t_contract(Registry)529"
      },
      {
        "astId": 182,
        "contract": "permission.sol:Permission",
        "label": "notificationManager",
        "offset": 0,
        "slot": "1",
        "type": "t_contract(NotificationManager)58"
      },
      {
        "astId": 185,
        "contract": "permission.sol:Permission",
        "label": "metadata",
        "offset": 0,
        "slot": "2",
        "type": "t_contract(Metadata)171"
      }
    ],
    "types": {
      "t_contract(Metadata)171": {
        "encoding": "inplace",
        "label": "contract Metadata",
        "numberOfBytes": "20"
      },
      "t_contract(NotificationManager)58": {
        "encoding": "inplace",
        "label": "contract NotificationManager",
        "numberOfBytes": "20"
      },
      "t_contract(Registry)529": {
        "encoding": "inplace",
        "label": "contract Registry",
        "numberOfBytes": "20"
      }
    }
  },
  "userdoc": {
    "kind": "user",
    "methods": {},
    "version": 1
  }
}