{
  "abi": [
    {
      "anonymous": false,
      "inputs": [
        {
          "indexed": true,
          "internalType": "bytes32",
          "name": "key",
          "type": "bytes32"
        },
        {
          "indexed": true,
          "internalType": "address",
          "name": "owner",
          "type": "address"
        },
        {
          "indexed": false,
          "internalType": "enum Registry.Role",
          "name": "role",
          "type": "uint8"
        }
      ],
      "name": "UserRegistered",
      "type": "event"
    },
    {
      "inputs": [
        {
          "internalType": "bytes32",
          "name": "pub_key",
          "type": "bytes32"
        }
      ],
      "name": "checkUser",
      "outputs": [
        {
          "internalType": "bool",
          "name": "",
          "type": "bool"
        }
      ],
      "stateMutability": "view",
      "type": "function"
    },
    {
      "inputs": [
        {
          "internalType": "bytes32",
          "name": "pub_key",
          "type": "bytes32"
        }
      ],
      "name": "getOwner",
      "outputs": [
        {
          "internalType": "address",
          "name": "",
          "type": "address"
        }
      ],
      "stateMutability": "view",
      "type": "function"
    },
    {
      "inputs": [
        {
          "internalType": "bytes32",
          "name": "pub_key",
          "type": "bytes32"
        }
      ],
      "name": "getUserRole",
      "outputs": [
        {
          "internalType": "enum Registry.Role",
          "name": "",
          "type": "uint8"
        }
      ],
      "stateMutability": "view",
      "type": "function"
    },
    {
      "inputs": [
        {
          "internalType": "bytes32",
          "name": "",
          "type": "bytes32"
        }
      ],
      "name": "ownerOf",
      "outputs": [
        {
          "internalType": "address",
          "name": "",
          "type": "address"
        }
      ],
      "stateMutability": "view",
      "type": "function"
    },
    {
      "inputs": [
        {
          "internalType": "bytes32",
          "name": "_key",
          "type": "bytes32"
        },
        {
          "internalType": "string",
          "name": "_role",
          "type": "string"
        }
      ],
      "name": "registerUser",
      "outputs": [],
      "stateMutability": "nonpayable",
      "type": "function"
    },
    {
      "inputs": [
        {
          "internalType": "bytes32",
          "name": "",
          "type": "bytes32"
        }
      ],
      "name": "users",
      "outputs": [
        {
          "internalType": "enum Registry.Role",
          "name": "role",
          "type": "uint8"
        },
        {
          "internalType": "bool",
          "name": "isRegistered",
          "type": "bool"
        }
      ],
      "stateMutability": "view",
      "type": "function"
    }
  ],
  "devdoc": {
    "kind": "dev",
    "methods": {},
    "version": 1
  },
  "evm": {
    "assembly": "    /* \"registry.sol\":60:1761  contract Registry {... */\n  mstore(0x40, 0x80)\n  callvalue\n  dup1\n  iszero\n  tag_1\n  jumpi\n  0x00\n  dup1\n  revert\ntag_1:\n  pop\n  dataSize(sub_0)\n  dup1\n  dataOffset(sub_0)\n  0x00\n  codecopy\n  0x00\n  return\nstop\n\nsub_0: assembly {\n        /* \"registry.sol\":60:1761  contract Registry {... */\n      mstore(0x40, 0x80)\n      callvalue\n      dup1\n      iszero\n      tag_1\n      jumpi\n      0x00\n      dup1\n      revert\n    tag_1:\n      pop\n      jumpi(tag_2, lt(calldatasize, 0x04))\n      shr(0xe0, calldataload(0x00))\n      dup1\n      0x0b2551c2\n      eq\n      tag_3\n      jumpi\n      dup1\n      0x4a54315c\n      eq\n      tag_4\n      jumpi\n      dup1\n      0x7dd56411\n      eq\n      tag_5\n      jumpi\n      dup1\n      0xa95ceb64\n      eq\n      tag_6\n      jumpi\n      dup1\n      0xcea6ab98\n      eq\n      tag_7\n      jumpi\n      dup1\n      0xdeb931a2\n      eq\n      tag_8\n      jumpi\n    tag_2:\n      0x00\n      dup1\n      revert\n        /* \"registry.sol\":439:555  function checkUser(bytes32 pub_key) public view returns (bool) {... */\n    tag_3:\n      tag_9\n      0x04\n      dup1\n      calldatasize\n      sub\n      dup2\n      add\n      swap1\n      tag_10\n      swap2\n      swap1\n      tag_11\n      jump\t// in\n    tag_10:\n      tag_12\n      jump\t// in\n    tag_9:\n      mload(0x40)\n      tag_13\n      swap2\n      swap1\n      tag_14\n      jump\t// in\n    tag_13:\n      mload(0x40)\n      dup1\n      swap2\n      sub\n      swap1\n      return\n        /* \"registry.sol\":563:1455  function registerUser(bytes32 _key, string memory _role) public {... */\n    tag_4:\n      tag_15\n      0x04\n      dup1\n      calldatasize\n      sub\n      dup2\n      add\n      swap1\n      tag_16\n      swap2\n      swap1\n      tag_17\n      jump\t// in\n    tag_16:\n      tag_18\n      jump\t// in\n    tag_15:\n      stop\n        /* \"registry.sol\":271:313  mapping(bytes32 => address) public ownerOf */\n    tag_5:\n      tag_19\n      0x04\n      dup1\n      calldatasize\n      sub\n      dup2\n      add\n      swap1\n      tag_20\n      swap2\n      swap1\n      tag_11\n      jump\t// in\n    tag_20:\n      tag_21\n      jump\t// in\n    tag_19:\n      mload(0x40)\n      tag_22\n      swap2\n      swap1\n      tag_23\n      jump\t// in\n    tag_22:\n      mload(0x40)\n      dup1\n      swap2\n      sub\n      swap1\n      return\n        /* \"registry.sol\":1463:1643  function getUserRole(bytes32 pub_key) public view returns (Role) {... */\n    tag_6:\n      tag_24\n      0x04\n      dup1\n      calldatasize\n      sub\n      dup2\n      add\n      swap1\n      tag_25\n      swap2\n      swap1\n      tag_11\n      jump\t// in\n    tag_25:\n      tag_26\n      jump\t// in\n    tag_24:\n      mload(0x40)\n      tag_27\n      swap2\n      swap1\n      tag_28\n      jump\t// in\n    tag_27:\n      mload(0x40)\n      dup1\n      swap2\n      sub\n      swap1\n      return\n        /* \"registry.sol\":227:264  mapping(bytes32 => User) public users */\n    tag_7:\n      tag_29\n      0x04\n      dup1\n      calldatasize\n      sub\n      dup2\n      add\n      swap1\n      tag_30\n      swap2\n      swap1\n      tag_11\n      jump\t// in\n    tag_30:\n      tag_31\n      jump\t// in\n    tag_29:\n      mload(0x40)\n      tag_32\n      swap3\n      swap2\n      swap1\n      tag_33\n      jump\t// in\n    tag_32:\n      mload(0x40)\n      dup1\n      swap2\n      sub\n      swap1\n      return\n        /* \"registry.sol\":1651:1758  function getOwner(bytes32 pub_key) public view returns (address) {... */\n    tag_8:\n      tag_34\n      0x04\n      dup1\n      calldatasize\n      sub\n      dup2\n      add\n      swap1\n      tag_35\n      swap2\n      swap1\n      tag_11\n      jump\t// in\n    tag_35:\n      tag_36\n      jump\t// in\n    tag_34:\n      mload(0x40)\n      tag_37\n      swap2\n      swap1\n      tag_23\n      jump\t// in\n    tag_37:\n      mload(0x40)\n      dup1\n      swap2\n      sub\n      swap1\n      return\n        /* \"registry.sol\":439:555  function checkUser(bytes32 pub_key) public view returns (bool) {... */\n    tag_12:\n        /* \"registry.sol\":496:500  bool */\n      0x00\n        /* \"registry.sol\":520:525  users */\n      dup1\n        /* \"registry.sol\":520:534  users[pub_key] */\n      0x00\n        /* \"registry.sol\":526:533  pub_key */\n      dup4\n        /* \"registry.sol\":520:534  users[pub_key] */\n      dup2\n      mstore\n      0x20\n      add\n      swap1\n      dup2\n      mstore\n      0x20\n      add\n      0x00\n      keccak256\n        /* \"registry.sol\":520:547  users[pub_key].isRegistered */\n      0x00\n      add\n      0x01\n      swap1\n      sload\n      swap1\n      0x0100\n      exp\n      swap1\n      div\n      0xff\n      and\n        /* \"registry.sol\":513:547  return users[pub_key].isRegistered */\n      swap1\n      pop\n        /* \"registry.sol\":439:555  function checkUser(bytes32 pub_key) public view returns (bool) {... */\n      swap2\n      swap1\n      pop\n      jump\t// out\n        /* \"registry.sol\":563:1455  function registerUser(bytes32 _key, string memory _role) public {... */\n    tag_18:\n        /* \"registry.sol\":647:662  checkUser(_key) */\n      tag_40\n        /* \"registry.sol\":657:661  _key */\n      dup3\n        /* \"registry.sol\":647:656  checkUser */\n      tag_12\n        /* \"registry.sol\":647:662  checkUser(_key) */\n      jump\t// in\n    tag_40:\n        /* \"registry.sol\":646:662  !checkUser(_key) */\n      iszero\n        /* \"registry.sol\":638:691  require(!checkUser(_key), \"User already registered!\") */\n      tag_41\n      jumpi\n      mload(0x40)\n      0x08c379a000000000000000000000000000000000000000000000000000000000\n      dup2\n      mstore\n      0x04\n      add\n      tag_42\n      swap1\n      tag_43\n      jump\t// in\n    tag_42:\n      mload(0x40)\n      dup1\n      swap2\n      sub\n      swap1\n      revert\n    tag_41:\n        /* \"registry.sol\":704:720  bytes32 roleHash */\n      0x00\n        /* \"registry.sol\":750:755  _role */\n      dup2\n        /* \"registry.sol\":733:756  abi.encodePacked(_role) */\n      add(0x20, mload(0x40))\n      tag_44\n      swap2\n      swap1\n      tag_45\n      jump\t// in\n    tag_44:\n      mload(0x40)\n      0x20\n      dup2\n      dup4\n      sub\n      sub\n      dup2\n      mstore\n      swap1\n      0x40\n      mstore\n        /* \"registry.sol\":723:757  keccak256(abi.encodePacked(_role)) */\n      dup1\n      mload\n      swap1\n      0x20\n      add\n      keccak256\n        /* \"registry.sol\":704:757  bytes32 roleHash = keccak256(abi.encodePacked(_role)) */\n      swap1\n      pop\n        /* \"registry.sol\":768:777  Role role */\n      0x00\n        /* \"registry.sol\":814:841  abi.encodePacked(\"Patient\") */\n      add(0x20, mload(0x40))\n      tag_46\n      swap1\n      tag_47\n      jump\t// in\n    tag_46:\n      mload(0x40)\n      0x20\n      dup2\n      dup4\n      sub\n      sub\n      dup2\n      mstore\n      swap1\n      0x40\n      mstore\n        /* \"registry.sol\":804:842  keccak256(abi.encodePacked(\"Patient\")) */\n      dup1\n      mload\n      swap1\n      0x20\n      add\n      keccak256\n        /* \"registry.sol\":792:800  roleHash */\n      dup3\n        /* \"registry.sol\":792:842  roleHash == keccak256(abi.encodePacked(\"Patient\")) */\n      eq\n        /* \"registry.sol\":788:1290  if (roleHash == keccak256(abi.encodePacked(\"Patient\"))) {... */\n      iszero\n      tag_48\n      jumpi\n        /* \"registry.sol\":866:878  Role.Patient */\n      0x00\n        /* \"registry.sol\":859:878  role = Role.Patient */\n      swap1\n      pop\n        /* \"registry.sol\":788:1290  if (roleHash == keccak256(abi.encodePacked(\"Patient\"))) {... */\n      jump(tag_49)\n    tag_48:\n        /* \"registry.sol\":922:954  abi.encodePacked(\"CareProvider\") */\n      add(0x20, mload(0x40))\n      tag_50\n      swap1\n      tag_51\n      jump\t// in\n    tag_50:\n      mload(0x40)\n      0x20\n      dup2\n      dup4\n      sub\n      sub\n      dup2\n      mstore\n      swap1\n      0x40\n      mstore\n        /* \"registry.sol\":912:955  keccak256(abi.encodePacked(\"CareProvider\")) */\n      dup1\n      mload\n      swap1\n      0x20\n      add\n      keccak256\n        /* \"registry.sol\":900:908  roleHash */\n      dup3\n        /* \"registry.sol\":900:955  roleHash == keccak256(abi.encodePacked(\"CareProvider\")) */\n      eq\n        /* \"registry.sol\":896:1290  if (roleHash == keccak256(abi.encodePacked(\"CareProvider\"))) {... */\n      iszero\n      tag_52\n      jumpi\n        /* \"registry.sol\":979:996  Role.CareProvider */\n      0x01\n        /* \"registry.sol\":972:996  role = Role.CareProvider */\n      swap1\n      pop\n        /* \"registry.sol\":896:1290  if (roleHash == keccak256(abi.encodePacked(\"CareProvider\"))) {... */\n      jump(tag_53)\n    tag_52:\n        /* \"registry.sol\":1040:1070  abi.encodePacked(\"Researcher\") */\n      add(0x20, mload(0x40))\n      tag_54\n      swap1\n      tag_55\n      jump\t// in\n    tag_54:\n      mload(0x40)\n      0x20\n      dup2\n      dup4\n      sub\n      sub\n      dup2\n      mstore\n      swap1\n      0x40\n      mstore\n        /* \"registry.sol\":1030:1071  keccak256(abi.encodePacked(\"Researcher\")) */\n      dup1\n      mload\n      swap1\n      0x20\n      add\n      keccak256\n        /* \"registry.sol\":1018:1026  roleHash */\n      dup3\n        /* \"registry.sol\":1018:1071  roleHash == keccak256(abi.encodePacked(\"Researcher\")) */\n      eq\n        /* \"registry.sol\":1014:1290  if (roleHash == keccak256(abi.encodePacked(\"Researcher\"))) {... */\n      iszero\n      tag_56\n      jumpi\n        /* \"registry.sol\":1095:1110  Role.Researcher */\n      0x02\n        /* \"registry.sol\":1088:1110  role = Role.Researcher */\n      swap1\n      pop\n        /* \"registry.sol\":1014:1290  if (roleHash == keccak256(abi.encodePacked(\"Researcher\"))) {... */\n      jump(tag_57)\n    tag_56:\n        /* \"registry.sol\":1154:1183  abi.encodePacked(\"Regulator\") */\n      add(0x20, mload(0x40))\n      tag_58\n      swap1\n      tag_59\n      jump\t// in\n    tag_58:\n      mload(0x40)\n      0x20\n      dup2\n      dup4\n      sub\n      sub\n      dup2\n      mstore\n      swap1\n      0x40\n      mstore\n        /* \"registry.sol\":1144:1184  keccak256(abi.encodePacked(\"Regulator\")) */\n      dup1\n      mload\n      swap1\n      0x20\n      add\n      keccak256\n        /* \"registry.sol\":1132:1140  roleHash */\n      dup3\n        /* \"registry.sol\":1132:1184  roleHash == keccak256(abi.encodePacked(\"Regulator\")) */\n      eq\n        /* \"registry.sol\":1128:1290  if (roleHash == keccak256(abi.encodePacked(\"Regulator\"))) {... */\n      iszero\n      tag_60\n      jumpi\n        /* \"registry.sol\":1208:1222  Role.Regulator */\n      0x03\n        /* \"registry.sol\":1201:1222  role = Role.Regulator */\n      swap1\n      pop\n        /* \"registry.sol\":1128:1290  if (roleHash == keccak256(abi.encodePacked(\"Regulator\"))) {... */\n      jump(tag_61)\n    tag_60:\n        /* \"registry.sol\":1255:1278  revert(\"Invalid role!\") */\n      mload(0x40)\n      0x08c379a000000000000000000000000000000000000000000000000000000000\n      dup2\n      mstore\n      0x04\n      add\n      tag_62\n      swap1\n      tag_63\n      jump\t// in\n    tag_62:\n      mload(0x40)\n      dup1\n      swap2\n      sub\n      swap1\n      revert\n        /* \"registry.sol\":1128:1290  if (roleHash == keccak256(abi.encodePacked(\"Regulator\"))) {... */\n    tag_61:\n        /* \"registry.sol\":1014:1290  if (roleHash == keccak256(abi.encodePacked(\"Researcher\"))) {... */\n    tag_57:\n        /* \"registry.sol\":896:1290  if (roleHash == keccak256(abi.encodePacked(\"CareProvider\"))) {... */\n    tag_53:\n        /* \"registry.sol\":788:1290  if (roleHash == keccak256(abi.encodePacked(\"Patient\"))) {... */\n    tag_49:\n        /* \"registry.sol\":1316:1356  User({ role: role, isRegistered: true }) */\n      mload(0x40)\n      dup1\n      0x40\n      add\n      0x40\n      mstore\n      dup1\n        /* \"registry.sol\":1329:1333  role */\n      dup3\n        /* \"registry.sol\":1316:1356  User({ role: role, isRegistered: true }) */\n      0x03\n      dup2\n      gt\n      iszero\n      tag_64\n      jumpi\n      tag_65\n      tag_66\n      jump\t// in\n    tag_65:\n    tag_64:\n      dup2\n      mstore\n      0x20\n      add\n        /* \"registry.sol\":1349:1353  true */\n      0x01\n        /* \"registry.sol\":1316:1356  User({ role: role, isRegistered: true }) */\n      iszero\n      iszero\n      dup2\n      mstore\n      pop\n        /* \"registry.sol\":1302:1307  users */\n      0x00\n        /* \"registry.sol\":1302:1313  users[_key] */\n      dup1\n        /* \"registry.sol\":1308:1312  _key */\n      dup7\n        /* \"registry.sol\":1302:1313  users[_key] */\n      dup2\n      mstore\n      0x20\n      add\n      swap1\n      dup2\n      mstore\n      0x20\n      add\n      0x00\n      keccak256\n        /* \"registry.sol\":1302:1356  users[_key] = User({ role: role, isRegistered: true }) */\n      0x00\n      dup3\n      add\n      mload\n      dup2\n      0x00\n      add\n      exp(0x0100, 0x00)\n      dup2\n      sload\n      dup2\n      0xff\n      mul\n      not\n      and\n      swap1\n      dup4\n      0x03\n      dup2\n      gt\n      iszero\n      tag_67\n      jumpi\n      tag_68\n      tag_66\n      jump\t// in\n    tag_68:\n    tag_67:\n      mul\n      or\n      swap1\n      sstore\n      pop\n      0x20\n      dup3\n      add\n      mload\n      dup2\n      0x00\n      add\n      exp(0x0100, 0x01)\n      dup2\n      sload\n      dup2\n      0xff\n      mul\n      not\n      and\n      swap1\n      dup4\n      iszero\n      iszero\n      mul\n      or\n      swap1\n      sstore\n      pop\n      swap1\n      pop\n      pop\n        /* \"registry.sol\":1383:1393  msg.sender */\n      caller\n        /* \"registry.sol\":1367:1374  ownerOf */\n      0x01\n        /* \"registry.sol\":1367:1380  ownerOf[_key] */\n      0x00\n        /* \"registry.sol\":1375:1379  _key */\n      dup7\n        /* \"registry.sol\":1367:1380  ownerOf[_key] */\n      dup2\n      mstore\n      0x20\n      add\n      swap1\n      dup2\n      mstore\n      0x20\n      add\n      0x00\n      keccak256\n      0x00\n        /* \"registry.sol\":1367:1393  ownerOf[_key] = msg.sender */\n      0x0100\n      exp\n      dup2\n      sload\n      dup2\n      0xffffffffffffffffffffffffffffffffffffffff\n      mul\n      not\n      and\n      swap1\n      dup4\n      0xffffffffffffffffffffffffffffffffffffffff\n      and\n      mul\n      or\n      swap1\n      sstore\n      pop\n        /* \"registry.sol\":1430:1440  msg.sender */\n      caller\n        /* \"registry.sol\":1409:1447  UserRegistered(_key, msg.sender, role) */\n      0xffffffffffffffffffffffffffffffffffffffff\n      and\n        /* \"registry.sol\":1424:1428  _key */\n      dup5\n        /* \"registry.sol\":1409:1447  UserRegistered(_key, msg.sender, role) */\n      0xd6d56ea8761c75b250e8945e72b16e25a0b7ffdfe55ed47968dde85c1d79679b\n        /* \"registry.sol\":1442:1446  role */\n      dup4\n        /* \"registry.sol\":1409:1447  UserRegistered(_key, msg.sender, role) */\n      mload(0x40)\n      tag_69\n      swap2\n      swap1\n      tag_28\n      jump\t// in\n    tag_69:\n      mload(0x40)\n      dup1\n      swap2\n      sub\n      swap1\n      log3\n        /* \"registry.sol\":627:1455  {... */\n      pop\n      pop\n        /* \"registry.sol\":563:1455  function registerUser(bytes32 _key, string memory _role) public {... */\n      pop\n      pop\n      jump\t// out\n        /* \"registry.sol\":271:313  mapping(bytes32 => address) public ownerOf */\n    tag_21:\n      mstore(0x20, 0x01)\n      dup1\n      0x00\n      mstore\n      keccak256(0x00, 0x40)\n      0x00\n      swap2\n      pop\n      sload\n      swap1\n      0x0100\n      exp\n      swap1\n      div\n      0xffffffffffffffffffffffffffffffffffffffff\n      and\n      dup2\n      jump\t// out\n        /* \"registry.sol\":1463:1643  function getUserRole(bytes32 pub_key) public view returns (Role) {... */\n    tag_26:\n        /* \"registry.sol\":1522:1526  Role */\n      0x00\n        /* \"registry.sol\":1547:1552  users */\n      dup1\n        /* \"registry.sol\":1547:1561  users[pub_key] */\n      0x00\n        /* \"registry.sol\":1553:1560  pub_key */\n      dup4\n        /* \"registry.sol\":1547:1561  users[pub_key] */\n      dup2\n      mstore\n      0x20\n      add\n      swap1\n      dup2\n      mstore\n      0x20\n      add\n      0x00\n      keccak256\n        /* \"registry.sol\":1547:1574  users[pub_key].isRegistered */\n      0x00\n      add\n      0x01\n      swap1\n      sload\n      swap1\n      0x0100\n      exp\n      swap1\n      div\n      0xff\n      and\n        /* \"registry.sol\":1539:1598  require(users[pub_key].isRegistered, \"User not registered\") */\n      tag_71\n      jumpi\n      mload(0x40)\n      0x08c379a000000000000000000000000000000000000000000000000000000000\n      dup2\n      mstore\n      0x04\n      add\n      tag_72\n      swap1\n      tag_73\n      jump\t// in\n    tag_72:\n      mload(0x40)\n      dup1\n      swap2\n      sub\n      swap1\n      revert\n    tag_71:\n        /* \"registry.sol\":1616:1621  users */\n      0x00\n        /* \"registry.sol\":1616:1630  users[pub_key] */\n      dup1\n        /* \"registry.sol\":1622:1629  pub_key */\n      dup4\n        /* \"registry.sol\":1616:1630  users[pub_key] */\n      dup2\n      mstore\n      0x20\n      add\n      swap1\n      dup2\n      mstore\n      0x20\n      add\n      0x00\n      keccak256\n        /* \"registry.sol\":1616:1635  users[pub_key].role */\n      0x00\n      add\n      0x00\n      swap1\n      sload\n      swap1\n      0x0100\n      exp\n      swap1\n      div\n      0xff\n      and\n        /* \"registry.sol\":1609:1635  return users[pub_key].role */\n      swap1\n      pop\n        /* \"registry.sol\":1463:1643  function getUserRole(bytes32 pub_key) public view returns (Role) {... */\n      swap2\n      swap1\n      pop\n      jump\t// out\n        /* \"registry.sol\":227:264  mapping(bytes32 => User) public users */\n    tag_31:\n      mstore(0x20, 0x00)\n      dup1\n      0x00\n      mstore\n      keccak256(0x00, 0x40)\n      0x00\n      swap2\n      pop\n      swap1\n      pop\n      dup1\n      0x00\n      add\n      0x00\n      swap1\n      sload\n      swap1\n      0x0100\n      exp\n      swap1\n      div\n      0xff\n      and\n      swap1\n      dup1\n      0x00\n      add\n      0x01\n      swap1\n      sload\n      swap1\n      0x0100\n      exp\n      swap1\n      div\n      0xff\n      and\n      swap1\n      pop\n      dup3\n      jump\t// out\n        /* \"registry.sol\":1651:1758  function getOwner(bytes32 pub_key) public view returns (address) {... */\n    tag_36:\n        /* \"registry.sol\":1707:1714  address */\n      0x00\n        /* \"registry.sol\":1734:1741  ownerOf */\n      0x01\n        /* \"registry.sol\":1734:1750  ownerOf[pub_key] */\n      0x00\n        /* \"registry.sol\":1742:1749  pub_key */\n      dup4\n        /* \"registry.sol\":1734:1750  ownerOf[pub_key] */\n      dup2\n      mstore\n      0x20\n      add\n      swap1\n      dup2\n      mstore\n      0x20\n      add\n      0x00\n      keccak256\n      0x00\n      swap1\n      sload\n      swap1\n      0x0100\n      exp\n      swap1\n      div\n      0xffffffffffffffffffffffffffffffffffffffff\n      and\n        /* \"registry.sol\":1727:1750  return ownerOf[pub_key] */\n      swap1\n      pop\n        /* \"registry.sol\":1651:1758  function getOwner(bytes32 pub_key) public view returns (address) {... */\n      swap2\n      swap1\n      pop\n      jump\t// out\n        /* \"#utility.yul\":7:82   */\n    tag_75:\n        /* \"#utility.yul\":40:46   */\n      0x00\n        /* \"#utility.yul\":73:75   */\n      0x40\n        /* \"#utility.yul\":67:76   */\n      mload\n        /* \"#utility.yul\":57:76   */\n      swap1\n      pop\n        /* \"#utility.yul\":7:82   */\n      swap1\n      jump\t// out\n        /* \"#utility.yul\":88:205   */\n    tag_76:\n        /* \"#utility.yul\":197:198   */\n      0x00\n        /* \"#utility.yul\":194:195   */\n      dup1\n        /* \"#utility.yul\":187:199   */\n      revert\n        /* \"#utility.yul\":211:328   */\n    tag_77:\n        /* \"#utility.yul\":320:321   */\n      0x00\n        /* \"#utility.yul\":317:318   */\n      dup1\n        /* \"#utility.yul\":310:322   */\n      revert\n        /* \"#utility.yul\":334:411   */\n    tag_78:\n        /* \"#utility.yul\":371:378   */\n      0x00\n        /* \"#utility.yul\":400:405   */\n      dup2\n        /* \"#utility.yul\":389:405   */\n      swap1\n      pop\n        /* \"#utility.yul\":334:411   */\n      swap2\n      swap1\n      pop\n      jump\t// out\n        /* \"#utility.yul\":417:539   */\n    tag_79:\n        /* \"#utility.yul\":490:514   */\n      tag_125\n        /* \"#utility.yul\":508:513   */\n      dup2\n        /* \"#utility.yul\":490:514   */\n      tag_78\n      jump\t// in\n    tag_125:\n        /* \"#utility.yul\":483:488   */\n      dup2\n        /* \"#utility.yul\":480:515   */\n      eq\n        /* \"#utility.yul\":470:533   */\n      tag_126\n      jumpi\n        /* \"#utility.yul\":529:530   */\n      0x00\n        /* \"#utility.yul\":526:527   */\n      dup1\n        /* \"#utility.yul\":519:531   */\n      revert\n        /* \"#utility.yul\":470:533   */\n    tag_126:\n        /* \"#utility.yul\":417:539   */\n      pop\n      jump\t// out\n        /* \"#utility.yul\":545:684   */\n    tag_80:\n        /* \"#utility.yul\":591:596   */\n      0x00\n        /* \"#utility.yul\":629:635   */\n      dup2\n        /* \"#utility.yul\":616:636   */\n      calldataload\n        /* \"#utility.yul\":607:636   */\n      swap1\n      pop\n        /* \"#utility.yul\":645:678   */\n      tag_128\n        /* \"#utility.yul\":672:677   */\n      dup2\n        /* \"#utility.yul\":645:678   */\n      tag_79\n      jump\t// in\n    tag_128:\n        /* \"#utility.yul\":545:684   */\n      swap3\n      swap2\n      pop\n      pop\n      jump\t// out\n        /* \"#utility.yul\":690:1019   */\n    tag_11:\n        /* \"#utility.yul\":749:755   */\n      0x00\n        /* \"#utility.yul\":798:800   */\n      0x20\n        /* \"#utility.yul\":786:795   */\n      dup3\n        /* \"#utility.yul\":777:784   */\n      dup5\n        /* \"#utility.yul\":773:796   */\n      sub\n        /* \"#utility.yul\":769:801   */\n      slt\n        /* \"#utility.yul\":766:885   */\n      iszero\n      tag_130\n      jumpi\n        /* \"#utility.yul\":804:883   */\n      tag_131\n      tag_76\n      jump\t// in\n    tag_131:\n        /* \"#utility.yul\":766:885   */\n    tag_130:\n        /* \"#utility.yul\":924:925   */\n      0x00\n        /* \"#utility.yul\":949:1002   */\n      tag_132\n        /* \"#utility.yul\":994:1001   */\n      dup5\n        /* \"#utility.yul\":985:991   */\n      dup3\n        /* \"#utility.yul\":974:983   */\n      dup6\n        /* \"#utility.yul\":970:992   */\n      add\n        /* \"#utility.yul\":949:1002   */\n      tag_80\n      jump\t// in\n    tag_132:\n        /* \"#utility.yul\":939:1002   */\n      swap2\n      pop\n        /* \"#utility.yul\":895:1012   */\n      pop\n        /* \"#utility.yul\":690:1019   */\n      swap3\n      swap2\n      pop\n      pop\n      jump\t// out\n        /* \"#utility.yul\":1025:1115   */\n    tag_81:\n        /* \"#utility.yul\":1059:1066   */\n      0x00\n        /* \"#utility.yul\":1102:1107   */\n      dup2\n        /* \"#utility.yul\":1095:1108   */\n      iszero\n        /* \"#utility.yul\":1088:1109   */\n      iszero\n        /* \"#utility.yul\":1077:1109   */\n      swap1\n      pop\n        /* \"#utility.yul\":1025:1115   */\n      swap2\n      swap1\n      pop\n      jump\t// out\n        /* \"#utility.yul\":1121:1230   */\n    tag_82:\n        /* \"#utility.yul\":1202:1223   */\n      tag_135\n        /* \"#utility.yul\":1217:1222   */\n      dup2\n        /* \"#utility.yul\":1202:1223   */\n      tag_81\n      jump\t// in\n    tag_135:\n        /* \"#utility.yul\":1197:1200   */\n      dup3\n        /* \"#utility.yul\":1190:1224   */\n      mstore\n        /* \"#utility.yul\":1121:1230   */\n      pop\n      pop\n      jump\t// out\n        /* \"#utility.yul\":1236:1446   */\n    tag_14:\n        /* \"#utility.yul\":1323:1327   */\n      0x00\n        /* \"#utility.yul\":1361:1363   */\n      0x20\n        /* \"#utility.yul\":1350:1359   */\n      dup3\n        /* \"#utility.yul\":1346:1364   */\n      add\n        /* \"#utility.yul\":1338:1364   */\n      swap1\n      pop\n        /* \"#utility.yul\":1374:1439   */\n      tag_137\n        /* \"#utility.yul\":1436:1437   */\n      0x00\n        /* \"#utility.yul\":1425:1434   */\n      dup4\n        /* \"#utility.yul\":1421:1438   */\n      add\n        /* \"#utility.yul\":1412:1418   */\n      dup5\n        /* \"#utility.yul\":1374:1439   */\n      tag_82\n      jump\t// in\n    tag_137:\n        /* \"#utility.yul\":1236:1446   */\n      swap3\n      swap2\n      pop\n      pop\n      jump\t// out\n        /* \"#utility.yul\":1452:1569   */\n    tag_83:\n        /* \"#utility.yul\":1561:1562   */\n      0x00\n        /* \"#utility.yul\":1558:1559   */\n      dup1\n        /* \"#utility.yul\":1551:1563   */\n      revert\n        /* \"#utility.yul\":1575:1692   */\n    tag_84:\n        /* \"#utility.yul\":1684:1685   */\n      0x00\n        /* \"#utility.yul\":1681:1682   */\n      dup1\n        /* \"#utility.yul\":1674:1686   */\n      revert\n        /* \"#utility.yul\":1698:1800   */\n    tag_85:\n        /* \"#utility.yul\":1739:1745   */\n      0x00\n        /* \"#utility.yul\":1790:1792   */\n      0x1f\n        /* \"#utility.yul\":1786:1793   */\n      not\n        /* \"#utility.yul\":1781:1783   */\n      0x1f\n        /* \"#utility.yul\":1774:1779   */\n      dup4\n        /* \"#utility.yul\":1770:1784   */\n      add\n        /* \"#utility.yul\":1766:1794   */\n      and\n        /* \"#utility.yul\":1756:1794   */\n      swap1\n      pop\n        /* \"#utility.yul\":1698:1800   */\n      swap2\n      swap1\n      pop\n      jump\t// out\n        /* \"#utility.yul\":1806:1986   */\n    tag_86:\n        /* \"#utility.yul\":1854:1931   */\n      0x4e487b7100000000000000000000000000000000000000000000000000000000\n        /* \"#utility.yul\":1851:1852   */\n      0x00\n        /* \"#utility.yul\":1844:1932   */\n      mstore\n        /* \"#utility.yul\":1951:1955   */\n      0x41\n        /* \"#utility.yul\":1948:1949   */\n      0x04\n        /* \"#utility.yul\":1941:1956   */\n      mstore\n        /* \"#utility.yul\":1975:1979   */\n      0x24\n        /* \"#utility.yul\":1972:1973   */\n      0x00\n        /* \"#utility.yul\":1965:1980   */\n      revert\n        /* \"#utility.yul\":1992:2273   */\n    tag_87:\n        /* \"#utility.yul\":2075:2102   */\n      tag_143\n        /* \"#utility.yul\":2097:2101   */\n      dup3\n        /* \"#utility.yul\":2075:2102   */\n      tag_85\n      jump\t// in\n    tag_143:\n        /* \"#utility.yul\":2067:2073   */\n      dup2\n        /* \"#utility.yul\":2063:2103   */\n      add\n        /* \"#utility.yul\":2205:2211   */\n      dup2\n        /* \"#utility.yul\":2193:2203   */\n      dup2\n        /* \"#utility.yul\":2190:2212   */\n      lt\n        /* \"#utility.yul\":2169:2187   */\n      0xffffffffffffffff\n        /* \"#utility.yul\":2157:2167   */\n      dup3\n        /* \"#utility.yul\":2154:2188   */\n      gt\n        /* \"#utility.yul\":2151:2213   */\n      or\n        /* \"#utility.yul\":2148:2236   */\n      iszero\n      tag_144\n      jumpi\n        /* \"#utility.yul\":2216:2234   */\n      tag_145\n      tag_86\n      jump\t// in\n    tag_145:\n        /* \"#utility.yul\":2148:2236   */\n    tag_144:\n        /* \"#utility.yul\":2256:2266   */\n      dup1\n        /* \"#utility.yul\":2252:2254   */\n      0x40\n        /* \"#utility.yul\":2245:2267   */\n      mstore\n        /* \"#utility.yul\":2035:2273   */\n      pop\n        /* \"#utility.yul\":1992:2273   */\n      pop\n      pop\n      jump\t// out\n        /* \"#utility.yul\":2279:2408   */\n    tag_88:\n        /* \"#utility.yul\":2313:2319   */\n      0x00\n        /* \"#utility.yul\":2340:2360   */\n      tag_147\n      tag_75\n      jump\t// in\n    tag_147:\n        /* \"#utility.yul\":2330:2360   */\n      swap1\n      pop\n        /* \"#utility.yul\":2369:2402   */\n      tag_148\n        /* \"#utility.yul\":2397:2401   */\n      dup3\n        /* \"#utility.yul\":2389:2395   */\n      dup3\n        /* \"#utility.yul\":2369:2402   */\n      tag_87\n      jump\t// in\n    tag_148:\n        /* \"#utility.yul\":2279:2408   */\n      swap2\n      swap1\n      pop\n      jump\t// out\n        /* \"#utility.yul\":2414:2722   */\n    tag_89:\n        /* \"#utility.yul\":2476:2480   */\n      0x00\n        /* \"#utility.yul\":2566:2584   */\n      0xffffffffffffffff\n        /* \"#utility.yul\":2558:2564   */\n      dup3\n        /* \"#utility.yul\":2555:2585   */\n      gt\n        /* \"#utility.yul\":2552:2608   */\n      iszero\n      tag_150\n      jumpi\n        /* \"#utility.yul\":2588:2606   */\n      tag_151\n      tag_86\n      jump\t// in\n    tag_151:\n        /* \"#utility.yul\":2552:2608   */\n    tag_150:\n        /* \"#utility.yul\":2626:2655   */\n      tag_152\n        /* \"#utility.yul\":2648:2654   */\n      dup3\n        /* \"#utility.yul\":2626:2655   */\n      tag_85\n      jump\t// in\n    tag_152:\n        /* \"#utility.yul\":2618:2655   */\n      swap1\n      pop\n        /* \"#utility.yul\":2710:2714   */\n      0x20\n        /* \"#utility.yul\":2704:2708   */\n      dup2\n        /* \"#utility.yul\":2700:2715   */\n      add\n        /* \"#utility.yul\":2692:2715   */\n      swap1\n      pop\n        /* \"#utility.yul\":2414:2722   */\n      swap2\n      swap1\n      pop\n      jump\t// out\n        /* \"#utility.yul\":2728:2882   */\n    tag_90:\n        /* \"#utility.yul\":2812:2818   */\n      dup3\n        /* \"#utility.yul\":2807:2810   */\n      dup2\n        /* \"#utility.yul\":2802:2805   */\n      dup4\n        /* \"#utility.yul\":2789:2819   */\n      calldatacopy\n        /* \"#utility.yul\":2874:2875   */\n      0x00\n        /* \"#utility.yul\":2865:2871   */\n      dup4\n        /* \"#utility.yul\":2860:2863   */\n      dup4\n        /* \"#utility.yul\":2856:2872   */\n      add\n        /* \"#utility.yul\":2849:2876   */\n      mstore\n        /* \"#utility.yul\":2728:2882   */\n      pop\n      pop\n      pop\n      jump\t// out\n        /* \"#utility.yul\":2888:3300   */\n    tag_91:\n        /* \"#utility.yul\":2966:2971   */\n      0x00\n        /* \"#utility.yul\":2991:3057   */\n      tag_155\n        /* \"#utility.yul\":3007:3056   */\n      tag_156\n        /* \"#utility.yul\":3049:3055   */\n      dup5\n        /* \"#utility.yul\":3007:3056   */\n      tag_89\n      jump\t// in\n    tag_156:\n        /* \"#utility.yul\":2991:3057   */\n      tag_88\n      jump\t// in\n    tag_155:\n        /* \"#utility.yul\":2982:3057   */\n      swap1\n      pop\n        /* \"#utility.yul\":3080:3086   */\n      dup3\n        /* \"#utility.yul\":3073:3078   */\n      dup2\n        /* \"#utility.yul\":3066:3087   */\n      mstore\n        /* \"#utility.yul\":3118:3122   */\n      0x20\n        /* \"#utility.yul\":3111:3116   */\n      dup2\n        /* \"#utility.yul\":3107:3123   */\n      add\n        /* \"#utility.yul\":3156:3159   */\n      dup5\n        /* \"#utility.yul\":3147:3153   */\n      dup5\n        /* \"#utility.yul\":3142:3145   */\n      dup5\n        /* \"#utility.yul\":3138:3154   */\n      add\n        /* \"#utility.yul\":3135:3160   */\n      gt\n        /* \"#utility.yul\":3132:3244   */\n      iszero\n      tag_157\n      jumpi\n        /* \"#utility.yul\":3163:3242   */\n      tag_158\n      tag_84\n      jump\t// in\n    tag_158:\n        /* \"#utility.yul\":3132:3244   */\n    tag_157:\n        /* \"#utility.yul\":3253:3294   */\n      tag_159\n        /* \"#utility.yul\":3287:3293   */\n      dup5\n        /* \"#utility.yul\":3282:3285   */\n      dup3\n        /* \"#utility.yul\":3277:3280   */\n      dup6\n        /* \"#utility.yul\":3253:3294   */\n      tag_90\n      jump\t// in\n    tag_159:\n        /* \"#utility.yul\":2972:3300   */\n      pop\n        /* \"#utility.yul\":2888:3300   */\n      swap4\n      swap3\n      pop\n      pop\n      pop\n      jump\t// out\n        /* \"#utility.yul\":3320:3660   */\n    tag_92:\n        /* \"#utility.yul\":3376:3381   */\n      0x00\n        /* \"#utility.yul\":3425:3428   */\n      dup3\n        /* \"#utility.yul\":3418:3422   */\n      0x1f\n        /* \"#utility.yul\":3410:3416   */\n      dup4\n        /* \"#utility.yul\":3406:3423   */\n      add\n        /* \"#utility.yul\":3402:3429   */\n      slt\n        /* \"#utility.yul\":3392:3514   */\n      tag_161\n      jumpi\n        /* \"#utility.yul\":3433:3512   */\n      tag_162\n      tag_83\n      jump\t// in\n    tag_162:\n        /* \"#utility.yul\":3392:3514   */\n    tag_161:\n        /* \"#utility.yul\":3550:3556   */\n      dup2\n        /* \"#utility.yul\":3537:3557   */\n      calldataload\n        /* \"#utility.yul\":3575:3654   */\n      tag_163\n        /* \"#utility.yul\":3650:3653   */\n      dup5\n        /* \"#utility.yul\":3642:3648   */\n      dup3\n        /* \"#utility.yul\":3635:3639   */\n      0x20\n        /* \"#utility.yul\":3627:3633   */\n      dup7\n        /* \"#utility.yul\":3623:3640   */\n      add\n        /* \"#utility.yul\":3575:3654   */\n      tag_91\n      jump\t// in\n    tag_163:\n        /* \"#utility.yul\":3566:3654   */\n      swap2\n      pop\n        /* \"#utility.yul\":3382:3660   */\n      pop\n        /* \"#utility.yul\":3320:3660   */\n      swap3\n      swap2\n      pop\n      pop\n      jump\t// out\n        /* \"#utility.yul\":3666:4320   */\n    tag_17:\n        /* \"#utility.yul\":3744:3750   */\n      0x00\n        /* \"#utility.yul\":3752:3758   */\n      dup1\n        /* \"#utility.yul\":3801:3803   */\n      0x40\n        /* \"#utility.yul\":3789:3798   */\n      dup4\n        /* \"#utility.yul\":3780:3787   */\n      dup6\n        /* \"#utility.yul\":3776:3799   */\n      sub\n        /* \"#utility.yul\":3772:3804   */\n      slt\n        /* \"#utility.yul\":3769:3888   */\n      iszero\n      tag_165\n      jumpi\n        /* \"#utility.yul\":3807:3886   */\n      tag_166\n      tag_76\n      jump\t// in\n    tag_166:\n        /* \"#utility.yul\":3769:3888   */\n    tag_165:\n        /* \"#utility.yul\":3927:3928   */\n      0x00\n        /* \"#utility.yul\":3952:4005   */\n      tag_167\n        /* \"#utility.yul\":3997:4004   */\n      dup6\n        /* \"#utility.yul\":3988:3994   */\n      dup3\n        /* \"#utility.yul\":3977:3986   */\n      dup7\n        /* \"#utility.yul\":3973:3995   */\n      add\n        /* \"#utility.yul\":3952:4005   */\n      tag_80\n      jump\t// in\n    tag_167:\n        /* \"#utility.yul\":3942:4005   */\n      swap3\n      pop\n        /* \"#utility.yul\":3898:4015   */\n      pop\n        /* \"#utility.yul\":4082:4084   */\n      0x20\n        /* \"#utility.yul\":4071:4080   */\n      dup4\n        /* \"#utility.yul\":4067:4085   */\n      add\n        /* \"#utility.yul\":4054:4086   */\n      calldataload\n        /* \"#utility.yul\":4113:4131   */\n      0xffffffffffffffff\n        /* \"#utility.yul\":4105:4111   */\n      dup2\n        /* \"#utility.yul\":4102:4132   */\n      gt\n        /* \"#utility.yul\":4099:4216   */\n      iszero\n      tag_168\n      jumpi\n        /* \"#utility.yul\":4135:4214   */\n      tag_169\n      tag_77\n      jump\t// in\n    tag_169:\n        /* \"#utility.yul\":4099:4216   */\n    tag_168:\n        /* \"#utility.yul\":4240:4303   */\n      tag_170\n        /* \"#utility.yul\":4295:4302   */\n      dup6\n        /* \"#utility.yul\":4286:4292   */\n      dup3\n        /* \"#utility.yul\":4275:4284   */\n      dup7\n        /* \"#utility.yul\":4271:4293   */\n      add\n        /* \"#utility.yul\":4240:4303   */\n      tag_92\n      jump\t// in\n    tag_170:\n        /* \"#utility.yul\":4230:4303   */\n      swap2\n      pop\n        /* \"#utility.yul\":4025:4313   */\n      pop\n        /* \"#utility.yul\":3666:4320   */\n      swap3\n      pop\n      swap3\n      swap1\n      pop\n      jump\t// out\n        /* \"#utility.yul\":4326:4452   */\n    tag_93:\n        /* \"#utility.yul\":4363:4370   */\n      0x00\n        /* \"#utility.yul\":4403:4445   */\n      0xffffffffffffffffffffffffffffffffffffffff\n        /* \"#utility.yul\":4396:4401   */\n      dup3\n        /* \"#utility.yul\":4392:4446   */\n      and\n        /* \"#utility.yul\":4381:4446   */\n      swap1\n      pop\n        /* \"#utility.yul\":4326:4452   */\n      swap2\n      swap1\n      pop\n      jump\t// out\n        /* \"#utility.yul\":4458:4554   */\n    tag_94:\n        /* \"#utility.yul\":4495:4502   */\n      0x00\n        /* \"#utility.yul\":4524:4548   */\n      tag_173\n        /* \"#utility.yul\":4542:4547   */\n      dup3\n        /* \"#utility.yul\":4524:4548   */\n      tag_93\n      jump\t// in\n    tag_173:\n        /* \"#utility.yul\":4513:4548   */\n      swap1\n      pop\n        /* \"#utility.yul\":4458:4554   */\n      swap2\n      swap1\n      pop\n      jump\t// out\n        /* \"#utility.yul\":4560:4678   */\n    tag_95:\n        /* \"#utility.yul\":4647:4671   */\n      tag_175\n        /* \"#utility.yul\":4665:4670   */\n      dup2\n        /* \"#utility.yul\":4647:4671   */\n      tag_94\n      jump\t// in\n    tag_175:\n        /* \"#utility.yul\":4642:4645   */\n      dup3\n        /* \"#utility.yul\":4635:4672   */\n      mstore\n        /* \"#utility.yul\":4560:4678   */\n      pop\n      pop\n      jump\t// out\n        /* \"#utility.yul\":4684:4906   */\n    tag_23:\n        /* \"#utility.yul\":4777:4781   */\n      0x00\n        /* \"#utility.yul\":4815:4817   */\n      0x20\n        /* \"#utility.yul\":4804:4813   */\n      dup3\n        /* \"#utility.yul\":4800:4818   */\n      add\n        /* \"#utility.yul\":4792:4818   */\n      swap1\n      pop\n        /* \"#utility.yul\":4828:4899   */\n      tag_177\n        /* \"#utility.yul\":4896:4897   */\n      0x00\n        /* \"#utility.yul\":4885:4894   */\n      dup4\n        /* \"#utility.yul\":4881:4898   */\n      add\n        /* \"#utility.yul\":4872:4878   */\n      dup5\n        /* \"#utility.yul\":4828:4899   */\n      tag_95\n      jump\t// in\n    tag_177:\n        /* \"#utility.yul\":4684:4906   */\n      swap3\n      swap2\n      pop\n      pop\n      jump\t// out\n        /* \"#utility.yul\":4912:5092   */\n    tag_66:\n        /* \"#utility.yul\":4960:5037   */\n      0x4e487b7100000000000000000000000000000000000000000000000000000000\n        /* \"#utility.yul\":4957:4958   */\n      0x00\n        /* \"#utility.yul\":4950:5038   */\n      mstore\n        /* \"#utility.yul\":5057:5061   */\n      0x21\n        /* \"#utility.yul\":5054:5055   */\n      0x04\n        /* \"#utility.yul\":5047:5062   */\n      mstore\n        /* \"#utility.yul\":5081:5085   */\n      0x24\n        /* \"#utility.yul\":5078:5079   */\n      0x00\n        /* \"#utility.yul\":5071:5086   */\n      revert\n        /* \"#utility.yul\":5098:5211   */\n    tag_96:\n        /* \"#utility.yul\":5179:5180   */\n      0x04\n        /* \"#utility.yul\":5172:5177   */\n      dup2\n        /* \"#utility.yul\":5169:5181   */\n      lt\n        /* \"#utility.yul\":5159:5205   */\n      tag_180\n      jumpi\n        /* \"#utility.yul\":5185:5203   */\n      tag_181\n      tag_66\n      jump\t// in\n    tag_181:\n        /* \"#utility.yul\":5159:5205   */\n    tag_180:\n        /* \"#utility.yul\":5098:5211   */\n      pop\n      jump\t// out\n        /* \"#utility.yul\":5217:5344   */\n    tag_97:\n        /* \"#utility.yul\":5262:5269   */\n      0x00\n        /* \"#utility.yul\":5291:5296   */\n      dup2\n        /* \"#utility.yul\":5280:5296   */\n      swap1\n      pop\n        /* \"#utility.yul\":5297:5338   */\n      tag_183\n        /* \"#utility.yul\":5332:5337   */\n      dup3\n        /* \"#utility.yul\":5297:5338   */\n      tag_96\n      jump\t// in\n    tag_183:\n        /* \"#utility.yul\":5217:5344   */\n      swap2\n      swap1\n      pop\n      jump\t// out\n        /* \"#utility.yul\":5350:5477   */\n    tag_98:\n        /* \"#utility.yul\":5406:5415   */\n      0x00\n        /* \"#utility.yul\":5439:5471   */\n      tag_185\n        /* \"#utility.yul\":5465:5470   */\n      dup3\n        /* \"#utility.yul\":5439:5471   */\n      tag_97\n      jump\t// in\n    tag_185:\n        /* \"#utility.yul\":5426:5471   */\n      swap1\n      pop\n        /* \"#utility.yul\":5350:5477   */\n      swap2\n      swap1\n      pop\n      jump\t// out\n        /* \"#utility.yul\":5483:5626   */\n    tag_99:\n        /* \"#utility.yul\":5576:5619   */\n      tag_187\n        /* \"#utility.yul\":5613:5618   */\n      dup2\n        /* \"#utility.yul\":5576:5619   */\n      tag_98\n      jump\t// in\n    tag_187:\n        /* \"#utility.yul\":5571:5574   */\n      dup3\n        /* \"#utility.yul\":5564:5620   */\n      mstore\n        /* \"#utility.yul\":5483:5626   */\n      pop\n      pop\n      jump\t// out\n        /* \"#utility.yul\":5632:5866   */\n    tag_28:\n        /* \"#utility.yul\":5731:5735   */\n      0x00\n        /* \"#utility.yul\":5769:5771   */\n      0x20\n        /* \"#utility.yul\":5758:5767   */\n      dup3\n        /* \"#utility.yul\":5754:5772   */\n      add\n        /* \"#utility.yul\":5746:5772   */\n      swap1\n      pop\n        /* \"#utility.yul\":5782:5859   */\n      tag_189\n        /* \"#utility.yul\":5856:5857   */\n      0x00\n        /* \"#utility.yul\":5845:5854   */\n      dup4\n        /* \"#utility.yul\":5841:5858   */\n      add\n        /* \"#utility.yul\":5832:5838   */\n      dup5\n        /* \"#utility.yul\":5782:5859   */\n      tag_99\n      jump\t// in\n    tag_189:\n        /* \"#utility.yul\":5632:5866   */\n      swap3\n      swap2\n      pop\n      pop\n      jump\t// out\n        /* \"#utility.yul\":5872:6204   */\n    tag_33:\n        /* \"#utility.yul\":5993:5997   */\n      0x00\n        /* \"#utility.yul\":6031:6033   */\n      0x40\n        /* \"#utility.yul\":6020:6029   */\n      dup3\n        /* \"#utility.yul\":6016:6034   */\n      add\n        /* \"#utility.yul\":6008:6034   */\n      swap1\n      pop\n        /* \"#utility.yul\":6044:6121   */\n      tag_191\n        /* \"#utility.yul\":6118:6119   */\n      0x00\n        /* \"#utility.yul\":6107:6116   */\n      dup4\n        /* \"#utility.yul\":6103:6120   */\n      add\n        /* \"#utility.yul\":6094:6100   */\n      dup6\n        /* \"#utility.yul\":6044:6121   */\n      tag_99\n      jump\t// in\n    tag_191:\n        /* \"#utility.yul\":6131:6197   */\n      tag_192\n        /* \"#utility.yul\":6193:6195   */\n      0x20\n        /* \"#utility.yul\":6182:6191   */\n      dup4\n        /* \"#utility.yul\":6178:6196   */\n      add\n        /* \"#utility.yul\":6169:6175   */\n      dup5\n        /* \"#utility.yul\":6131:6197   */\n      tag_82\n      jump\t// in\n    tag_192:\n        /* \"#utility.yul\":5872:6204   */\n      swap4\n      swap3\n      pop\n      pop\n      pop\n      jump\t// out\n        /* \"#utility.yul\":6210:6379   */\n    tag_100:\n        /* \"#utility.yul\":6294:6305   */\n      0x00\n        /* \"#utility.yul\":6328:6334   */\n      dup3\n        /* \"#utility.yul\":6323:6326   */\n      dup3\n        /* \"#utility.yul\":6316:6335   */\n      mstore\n        /* \"#utility.yul\":6368:6372   */\n      0x20\n        /* \"#utility.yul\":6363:6366   */\n      dup3\n        /* \"#utility.yul\":6359:6373   */\n      add\n        /* \"#utility.yul\":6344:6373   */\n      swap1\n      pop\n        /* \"#utility.yul\":6210:6379   */\n      swap3\n      swap2\n      pop\n      pop\n      jump\t// out\n        /* \"#utility.yul\":6385:6559   */\n    tag_101:\n        /* \"#utility.yul\":6525:6551   */\n      0x5573657220616c72656164792072656769737465726564210000000000000000\n        /* \"#utility.yul\":6521:6522   */\n      0x00\n        /* \"#utility.yul\":6513:6519   */\n      dup3\n        /* \"#utility.yul\":6509:6523   */\n      add\n        /* \"#utility.yul\":6502:6552   */\n      mstore\n        /* \"#utility.yul\":6385:6559   */\n      pop\n      jump\t// out\n        /* \"#utility.yul\":6565:6931   */\n    tag_102:\n        /* \"#utility.yul\":6707:6710   */\n      0x00\n        /* \"#utility.yul\":6728:6795   */\n      tag_196\n        /* \"#utility.yul\":6792:6794   */\n      0x18\n        /* \"#utility.yul\":6787:6790   */\n      dup4\n        /* \"#utility.yul\":6728:6795   */\n      tag_100\n      jump\t// in\n    tag_196:\n        /* \"#utility.yul\":6721:6795   */\n      swap2\n      pop\n        /* \"#utility.yul\":6804:6897   */\n      tag_197\n        /* \"#utility.yul\":6893:6896   */\n      dup3\n        /* \"#utility.yul\":6804:6897   */\n      tag_101\n      jump\t// in\n    tag_197:\n        /* \"#utility.yul\":6922:6924   */\n      0x20\n        /* \"#utility.yul\":6917:6920   */\n      dup3\n        /* \"#utility.yul\":6913:6925   */\n      add\n        /* \"#utility.yul\":6906:6925   */\n      swap1\n      pop\n        /* \"#utility.yul\":6565:6931   */\n      swap2\n      swap1\n      pop\n      jump\t// out\n        /* \"#utility.yul\":6937:7356   */\n    tag_43:\n        /* \"#utility.yul\":7103:7107   */\n      0x00\n        /* \"#utility.yul\":7141:7143   */\n      0x20\n        /* \"#utility.yul\":7130:7139   */\n      dup3\n        /* \"#utility.yul\":7126:7144   */\n      add\n        /* \"#utility.yul\":7118:7144   */\n      swap1\n      pop\n        /* \"#utility.yul\":7190:7199   */\n      dup2\n        /* \"#utility.yul\":7184:7188   */\n      dup2\n        /* \"#utility.yul\":7180:7200   */\n      sub\n        /* \"#utility.yul\":7176:7177   */\n      0x00\n        /* \"#utility.yul\":7165:7174   */\n      dup4\n        /* \"#utility.yul\":7161:7178   */\n      add\n        /* \"#utility.yul\":7154:7201   */\n      mstore\n        /* \"#utility.yul\":7218:7349   */\n      tag_199\n        /* \"#utility.yul\":7344:7348   */\n      dup2\n        /* \"#utility.yul\":7218:7349   */\n      tag_102\n      jump\t// in\n    tag_199:\n        /* \"#utility.yul\":7210:7349   */\n      swap1\n      pop\n        /* \"#utility.yul\":6937:7356   */\n      swap2\n      swap1\n      pop\n      jump\t// out\n        /* \"#utility.yul\":7362:7461   */\n    tag_103:\n        /* \"#utility.yul\":7414:7420   */\n      0x00\n        /* \"#utility.yul\":7448:7453   */\n      dup2\n        /* \"#utility.yul\":7442:7454   */\n      mload\n        /* \"#utility.yul\":7432:7454   */\n      swap1\n      pop\n        /* \"#utility.yul\":7362:7461   */\n      swap2\n      swap1\n      pop\n      jump\t// out\n        /* \"#utility.yul\":7467:7615   */\n    tag_104:\n        /* \"#utility.yul\":7569:7580   */\n      0x00\n        /* \"#utility.yul\":7606:7609   */\n      dup2\n        /* \"#utility.yul\":7591:7609   */\n      swap1\n      pop\n        /* \"#utility.yul\":7467:7615   */\n      swap3\n      swap2\n      pop\n      pop\n      jump\t// out\n        /* \"#utility.yul\":7621:7928   */\n    tag_105:\n        /* \"#utility.yul\":7689:7690   */\n      0x00\n        /* \"#utility.yul\":7699:7812   */\n    tag_203:\n        /* \"#utility.yul\":7713:7719   */\n      dup4\n        /* \"#utility.yul\":7710:7711   */\n      dup2\n        /* \"#utility.yul\":7707:7720   */\n      lt\n        /* \"#utility.yul\":7699:7812   */\n      iszero\n      tag_205\n      jumpi\n        /* \"#utility.yul\":7798:7799   */\n      dup1\n        /* \"#utility.yul\":7793:7796   */\n      dup3\n        /* \"#utility.yul\":7789:7800   */\n      add\n        /* \"#utility.yul\":7783:7801   */\n      mload\n        /* \"#utility.yul\":7779:7780   */\n      dup2\n        /* \"#utility.yul\":7774:7777   */\n      dup5\n        /* \"#utility.yul\":7770:7781   */\n      add\n        /* \"#utility.yul\":7763:7802   */\n      mstore\n        /* \"#utility.yul\":7735:7737   */\n      0x20\n        /* \"#utility.yul\":7732:7733   */\n      dup2\n        /* \"#utility.yul\":7728:7738   */\n      add\n        /* \"#utility.yul\":7723:7738   */\n      swap1\n      pop\n        /* \"#utility.yul\":7699:7812   */\n      jump(tag_203)\n    tag_205:\n        /* \"#utility.yul\":7830:7836   */\n      dup4\n        /* \"#utility.yul\":7827:7828   */\n      dup2\n        /* \"#utility.yul\":7824:7837   */\n      gt\n        /* \"#utility.yul\":7821:7922   */\n      iszero\n      tag_206\n      jumpi\n        /* \"#utility.yul\":7910:7911   */\n      0x00\n        /* \"#utility.yul\":7901:7907   */\n      dup5\n        /* \"#utility.yul\":7896:7899   */\n      dup5\n        /* \"#utility.yul\":7892:7908   */\n      add\n        /* \"#utility.yul\":7885:7912   */\n      mstore\n        /* \"#utility.yul\":7821:7922   */\n    tag_206:\n        /* \"#utility.yul\":7670:7928   */\n      pop\n        /* \"#utility.yul\":7621:7928   */\n      pop\n      pop\n      pop\n      jump\t// out\n        /* \"#utility.yul\":7934:8311   */\n    tag_106:\n        /* \"#utility.yul\":8040:8043   */\n      0x00\n        /* \"#utility.yul\":8068:8107   */\n      tag_208\n        /* \"#utility.yul\":8101:8106   */\n      dup3\n        /* \"#utility.yul\":8068:8107   */\n      tag_103\n      jump\t// in\n    tag_208:\n        /* \"#utility.yul\":8123:8212   */\n      tag_209\n        /* \"#utility.yul\":8205:8211   */\n      dup2\n        /* \"#utility.yul\":8200:8203   */\n      dup6\n        /* \"#utility.yul\":8123:8212   */\n      tag_104\n      jump\t// in\n    tag_209:\n        /* \"#utility.yul\":8116:8212   */\n      swap4\n      pop\n        /* \"#utility.yul\":8221:8273   */\n      tag_210\n        /* \"#utility.yul\":8266:8272   */\n      dup2\n        /* \"#utility.yul\":8261:8264   */\n      dup6\n        /* \"#utility.yul\":8254:8258   */\n      0x20\n        /* \"#utility.yul\":8247:8252   */\n      dup7\n        /* \"#utility.yul\":8243:8259   */\n      add\n        /* \"#utility.yul\":8221:8273   */\n      tag_105\n      jump\t// in\n    tag_210:\n        /* \"#utility.yul\":8298:8304   */\n      dup1\n        /* \"#utility.yul\":8293:8296   */\n      dup5\n        /* \"#utility.yul\":8289:8305   */\n      add\n        /* \"#utility.yul\":8282:8305   */\n      swap2\n      pop\n        /* \"#utility.yul\":8044:8311   */\n      pop\n        /* \"#utility.yul\":7934:8311   */\n      swap3\n      swap2\n      pop\n      pop\n      jump\t// out\n        /* \"#utility.yul\":8317:8592   */\n    tag_45:\n        /* \"#utility.yul\":8449:8452   */\n      0x00\n        /* \"#utility.yul\":8471:8566   */\n      tag_212\n        /* \"#utility.yul\":8562:8565   */\n      dup3\n        /* \"#utility.yul\":8553:8559   */\n      dup5\n        /* \"#utility.yul\":8471:8566   */\n      tag_106\n      jump\t// in\n    tag_212:\n        /* \"#utility.yul\":8464:8566   */\n      swap2\n      pop\n        /* \"#utility.yul\":8583:8586   */\n      dup2\n        /* \"#utility.yul\":8576:8586   */\n      swap1\n      pop\n        /* \"#utility.yul\":8317:8592   */\n      swap3\n      swap2\n      pop\n      pop\n      jump\t// out\n        /* \"#utility.yul\":8598:8755   */\n    tag_107:\n        /* \"#utility.yul\":8738:8747   */\n      0x50617469656e7400000000000000000000000000000000000000000000000000\n        /* \"#utility.yul\":8734:8735   */\n      0x00\n        /* \"#utility.yul\":8726:8732   */\n      dup3\n        /* \"#utility.yul\":8722:8736   */\n      add\n        /* \"#utility.yul\":8715:8748   */\n      mstore\n        /* \"#utility.yul\":8598:8755   */\n      pop\n      jump\t// out\n        /* \"#utility.yul\":8761:9161   */\n    tag_108:\n        /* \"#utility.yul\":8921:8924   */\n      0x00\n        /* \"#utility.yul\":8942:9026   */\n      tag_215\n        /* \"#utility.yul\":9024:9025   */\n      0x07\n        /* \"#utility.yul\":9019:9022   */\n      dup4\n        /* \"#utility.yul\":8942:9026   */\n      tag_104\n      jump\t// in\n    tag_215:\n        /* \"#utility.yul\":8935:9026   */\n      swap2\n      pop\n        /* \"#utility.yul\":9035:9128   */\n      tag_216\n        /* \"#utility.yul\":9124:9127   */\n      dup3\n        /* \"#utility.yul\":9035:9128   */\n      tag_107\n      jump\t// in\n    tag_216:\n        /* \"#utility.yul\":9153:9154   */\n      0x07\n        /* \"#utility.yul\":9148:9151   */\n      dup3\n        /* \"#utility.yul\":9144:9155   */\n      add\n        /* \"#utility.yul\":9137:9155   */\n      swap1\n      pop\n        /* \"#utility.yul\":8761:9161   */\n      swap2\n      swap1\n      pop\n      jump\t// out\n        /* \"#utility.yul\":9167:9548   */\n    tag_47:\n        /* \"#utility.yul\":9352:9355   */\n      0x00\n        /* \"#utility.yul\":9374:9522   */\n      tag_218\n        /* \"#utility.yul\":9518:9521   */\n      dup3\n        /* \"#utility.yul\":9374:9522   */\n      tag_108\n      jump\t// in\n    tag_218:\n        /* \"#utility.yul\":9367:9522   */\n      swap2\n      pop\n        /* \"#utility.yul\":9539:9542   */\n      dup2\n        /* \"#utility.yul\":9532:9542   */\n      swap1\n      pop\n        /* \"#utility.yul\":9167:9548   */\n      swap2\n      swap1\n      pop\n      jump\t// out\n        /* \"#utility.yul\":9554:9716   */\n    tag_109:\n        /* \"#utility.yul\":9694:9708   */\n      0x4361726550726f76696465720000000000000000000000000000000000000000\n        /* \"#utility.yul\":9690:9691   */\n      0x00\n        /* \"#utility.yul\":9682:9688   */\n      dup3\n        /* \"#utility.yul\":9678:9692   */\n      add\n        /* \"#utility.yul\":9671:9709   */\n      mstore\n        /* \"#utility.yul\":9554:9716   */\n      pop\n      jump\t// out\n        /* \"#utility.yul\":9722:10124   */\n    tag_110:\n        /* \"#utility.yul\":9882:9885   */\n      0x00\n        /* \"#utility.yul\":9903:9988   */\n      tag_221\n        /* \"#utility.yul\":9985:9987   */\n      0x0c\n        /* \"#utility.yul\":9980:9983   */\n      dup4\n        /* \"#utility.yul\":9903:9988   */\n      tag_104\n      jump\t// in\n    tag_221:\n        /* \"#utility.yul\":9896:9988   */\n      swap2\n      pop\n        /* \"#utility.yul\":9997:10090   */\n      tag_222\n        /* \"#utility.yul\":10086:10089   */\n      dup3\n        /* \"#utility.yul\":9997:10090   */\n      tag_109\n      jump\t// in\n    tag_222:\n        /* \"#utility.yul\":10115:10117   */\n      0x0c\n        /* \"#utility.yul\":10110:10113   */\n      dup3\n        /* \"#utility.yul\":10106:10118   */\n      add\n        /* \"#utility.yul\":10099:10118   */\n      swap1\n      pop\n        /* \"#utility.yul\":9722:10124   */\n      swap2\n      swap1\n      pop\n      jump\t// out\n        /* \"#utility.yul\":10130:10511   */\n    tag_51:\n        /* \"#utility.yul\":10315:10318   */\n      0x00\n        /* \"#utility.yul\":10337:10485   */\n      tag_224\n        /* \"#utility.yul\":10481:10484   */\n      dup3\n        /* \"#utility.yul\":10337:10485   */\n      tag_110\n      jump\t// in\n    tag_224:\n        /* \"#utility.yul\":10330:10485   */\n      swap2\n      pop\n        /* \"#utility.yul\":10502:10505   */\n      dup2\n        /* \"#utility.yul\":10495:10505   */\n      swap1\n      pop\n        /* \"#utility.yul\":10130:10511   */\n      swap2\n      swap1\n      pop\n      jump\t// out\n        /* \"#utility.yul\":10517:10677   */\n    tag_111:\n        /* \"#utility.yul\":10657:10669   */\n      0x5265736561726368657200000000000000000000000000000000000000000000\n        /* \"#utility.yul\":10653:10654   */\n      0x00\n        /* \"#utility.yul\":10645:10651   */\n      dup3\n        /* \"#utility.yul\":10641:10655   */\n      add\n        /* \"#utility.yul\":10634:10670   */\n      mstore\n        /* \"#utility.yul\":10517:10677   */\n      pop\n      jump\t// out\n        /* \"#utility.yul\":10683:11085   */\n    tag_112:\n        /* \"#utility.yul\":10843:10846   */\n      0x00\n        /* \"#utility.yul\":10864:10949   */\n      tag_227\n        /* \"#utility.yul\":10946:10948   */\n      0x0a\n        /* \"#utility.yul\":10941:10944   */\n      dup4\n        /* \"#utility.yul\":10864:10949   */\n      tag_104\n      jump\t// in\n    tag_227:\n        /* \"#utility.yul\":10857:10949   */\n      swap2\n      pop\n        /* \"#utility.yul\":10958:11051   */\n      tag_228\n        /* \"#utility.yul\":11047:11050   */\n      dup3\n        /* \"#utility.yul\":10958:11051   */\n      tag_111\n      jump\t// in\n    tag_228:\n        /* \"#utility.yul\":11076:11078   */\n      0x0a\n        /* \"#utility.yul\":11071:11074   */\n      dup3\n        /* \"#utility.yul\":11067:11079   */\n      add\n        /* \"#utility.yul\":11060:11079   */\n      swap1\n      pop\n        /* \"#utility.yul\":10683:11085   */\n      swap2\n      swap1\n      pop\n      jump\t// out\n        /* \"#utility.yul\":11091:11472   */\n    tag_55:\n        /* \"#utility.yul\":11276:11279   */\n      0x00\n        /* \"#utility.yul\":11298:11446   */\n      tag_230\n        /* \"#utility.yul\":11442:11445   */\n      dup3\n        /* \"#utility.yul\":11298:11446   */\n      tag_112\n      jump\t// in\n    tag_230:\n        /* \"#utility.yul\":11291:11446   */\n      swap2\n      pop\n        /* \"#utility.yul\":11463:11466   */\n      dup2\n        /* \"#utility.yul\":11456:11466   */\n      swap1\n      pop\n        /* \"#utility.yul\":11091:11472   */\n      swap2\n      swap1\n      pop\n      jump\t// out\n        /* \"#utility.yul\":11478:11637   */\n    tag_113:\n        /* \"#utility.yul\":11618:11629   */\n      0x526567756c61746f720000000000000000000000000000000000000000000000\n        /* \"#utility.yul\":11614:11615   */\n      0x00\n        /* \"#utility.yul\":11606:11612   */\n      dup3\n        /* \"#utility.yul\":11602:11616   */\n      add\n        /* \"#utility.yul\":11595:11630   */\n      mstore\n        /* \"#utility.yul\":11478:11637   */\n      pop\n      jump\t// out\n        /* \"#utility.yul\":11643:12043   */\n    tag_114:\n        /* \"#utility.yul\":11803:11806   */\n      0x00\n        /* \"#utility.yul\":11824:11908   */\n      tag_233\n        /* \"#utility.yul\":11906:11907   */\n      0x09\n        /* \"#utility.yul\":11901:11904   */\n      dup4\n        /* \"#utility.yul\":11824:11908   */\n      tag_104\n      jump\t// in\n    tag_233:\n        /* \"#utility.yul\":11817:11908   */\n      swap2\n      pop\n        /* \"#utility.yul\":11917:12010   */\n      tag_234\n        /* \"#utility.yul\":12006:12009   */\n      dup3\n        /* \"#utility.yul\":11917:12010   */\n      tag_113\n      jump\t// in\n    tag_234:\n        /* \"#utility.yul\":12035:12036   */\n      0x09\n        /* \"#utility.yul\":12030:12033   */\n      dup3\n        /* \"#utility.yul\":12026:12037   */\n      add\n        /* \"#utility.yul\":12019:12037   */\n      swap1\n      pop\n        /* \"#utility.yul\":11643:12043   */\n      swap2\n      swap1\n      pop\n      jump\t// out\n        /* \"#utility.yul\":12049:12430   */\n    tag_59:\n        /* \"#utility.yul\":12234:12237   */\n      0x00\n        /* \"#utility.yul\":12256:12404   */\n      tag_236\n        /* \"#utility.yul\":12400:12403   */\n      dup3\n        /* \"#utility.yul\":12256:12404   */\n      tag_114\n      jump\t// in\n    tag_236:\n        /* \"#utility.yul\":12249:12404   */\n      swap2\n      pop\n        /* \"#utility.yul\":12421:12424   */\n      dup2\n        /* \"#utility.yul\":12414:12424   */\n      swap1\n      pop\n        /* \"#utility.yul\":12049:12430   */\n      swap2\n      swap1\n      pop\n      jump\t// out\n        /* \"#utility.yul\":12436:12599   */\n    tag_115:\n        /* \"#utility.yul\":12576:12591   */\n      0x496e76616c696420726f6c652100000000000000000000000000000000000000\n        /* \"#utility.yul\":12572:12573   */\n      0x00\n        /* \"#utility.yul\":12564:12570   */\n      dup3\n        /* \"#utility.yul\":12560:12574   */\n      add\n        /* \"#utility.yul\":12553:12592   */\n      mstore\n        /* \"#utility.yul\":12436:12599   */\n      pop\n      jump\t// out\n        /* \"#utility.yul\":12605:12971   */\n    tag_116:\n        /* \"#utility.yul\":12747:12750   */\n      0x00\n        /* \"#utility.yul\":12768:12835   */\n      tag_239\n        /* \"#utility.yul\":12832:12834   */\n      0x0d\n        /* \"#utility.yul\":12827:12830   */\n      dup4\n        /* \"#utility.yul\":12768:12835   */\n      tag_100\n      jump\t// in\n    tag_239:\n        /* \"#utility.yul\":12761:12835   */\n      swap2\n      pop\n        /* \"#utility.yul\":12844:12937   */\n      tag_240\n        /* \"#utility.yul\":12933:12936   */\n      dup3\n        /* \"#utility.yul\":12844:12937   */\n      tag_115\n      jump\t// in\n    tag_240:\n        /* \"#utility.yul\":12962:12964   */\n      0x20\n        /* \"#utility.yul\":12957:12960   */\n      dup3\n        /* \"#utility.yul\":12953:12965   */\n      add\n        /* \"#utility.yul\":12946:12965   */\n      swap1\n      pop\n        /* \"#utility.yul\":12605:12971   */\n      swap2\n      swap1\n      pop\n      jump\t// out\n        /* \"#utility.yul\":12977:13396   */\n    tag_63:\n        /* \"#utility.yul\":13143:13147   */\n      0x00\n        /* \"#utility.yul\":13181:13183   */\n      0x20\n        /* \"#utility.yul\":13170:13179   */\n      dup3\n        /* \"#utility.yul\":13166:13184   */\n      add\n        /* \"#utility.yul\":13158:13184   */\n      swap1\n      pop\n        /* \"#utility.yul\":13230:13239   */\n      dup2\n        /* \"#utility.yul\":13224:13228   */\n      dup2\n        /* \"#utility.yul\":13220:13240   */\n      sub\n        /* \"#utility.yul\":13216:13217   */\n      0x00\n        /* \"#utility.yul\":13205:13214   */\n      dup4\n        /* \"#utility.yul\":13201:13218   */\n      add\n        /* \"#utility.yul\":13194:13241   */\n      mstore\n        /* \"#utility.yul\":13258:13389   */\n      tag_242\n        /* \"#utility.yul\":13384:13388   */\n      dup2\n        /* \"#utility.yul\":13258:13389   */\n      tag_116\n      jump\t// in\n    tag_242:\n        /* \"#utility.yul\":13250:13389   */\n      swap1\n      pop\n        /* \"#utility.yul\":12977:13396   */\n      swap2\n      swap1\n      pop\n      jump\t// out\n        /* \"#utility.yul\":13402:13571   */\n    tag_117:\n        /* \"#utility.yul\":13542:13563   */\n      0x55736572206e6f74207265676973746572656400000000000000000000000000\n        /* \"#utility.yul\":13538:13539   */\n      0x00\n        /* \"#utility.yul\":13530:13536   */\n      dup3\n        /* \"#utility.yul\":13526:13540   */\n      add\n        /* \"#utility.yul\":13519:13564   */\n      mstore\n        /* \"#utility.yul\":13402:13571   */\n      pop\n      jump\t// out\n        /* \"#utility.yul\":13577:13943   */\n    tag_118:\n        /* \"#utility.yul\":13719:13722   */\n      0x00\n        /* \"#utility.yul\":13740:13807   */\n      tag_245\n        /* \"#utility.yul\":13804:13806   */\n      0x13\n        /* \"#utility.yul\":13799:13802   */\n      dup4\n        /* \"#utility.yul\":13740:13807   */\n      tag_100\n      jump\t// in\n    tag_245:\n        /* \"#utility.yul\":13733:13807   */\n      swap2\n      pop\n        /* \"#utility.yul\":13816:13909   */\n      tag_246\n        /* \"#utility.yul\":13905:13908   */\n      dup3\n        /* \"#utility.yul\":13816:13909   */\n      tag_117\n      jump\t// in\n    tag_246:\n        /* \"#utility.yul\":13934:13936   */\n      0x20\n        /* \"#utility.yul\":13929:13932   */\n      dup3\n        /* \"#utility.yul\":13925:13937   */\n      add\n        /* \"#utility.yul\":13918:13937   */\n      swap1\n      pop\n        /* \"#utility.yul\":13577:13943   */\n      swap2\n      swap1\n      pop\n      jump\t// out\n        /* \"#utility.yul\":13949:14368   */\n    tag_73:\n        /* \"#utility.yul\":14115:14119   */\n      0x00\n        /* \"#utility.yul\":14153:14155   */\n      0x20\n        /* \"#utility.yul\":14142:14151   */\n      dup3\n        /* \"#utility.yul\":14138:14156   */\n      add\n        /* \"#utility.yul\":14130:14156   */\n      swap1\n      pop\n        /* \"#utility.yul\":14202:14211   */\n      dup2\n        /* \"#utility.yul\":14196:14200   */\n      dup2\n        /* \"#utility.yul\":14192:14212   */\n      sub\n        /* \"#utility.yul\":14188:14189   */\n      0x00\n        /* \"#utility.yul\":14177:14186   */\n      dup4\n        /* \"#utility.yul\":14173:14190   */\n      add\n        /* \"#utility.yul\":14166:14213   */\n      mstore\n        /* \"#utility.yul\":14230:14361   */\n      tag_248\n        /* \"#utility.yul\":14356:14360   */\n      dup2\n        /* \"#utility.yul\":14230:14361   */\n      tag_118\n      jump\t// in\n    tag_248:\n        /* \"#utility.yul\":14222:14361   */\n      swap1\n      pop\n        /* \"#utility.yul\":13949:14368   */\n      swap2\n      swap1\n      pop\n      jump\t// out\n\n    auxdata: 0xa2646970667358221220772ce32e0bbdd6bf65c77769de21fe56a0055c18100da53bd7be9a4a3bbfe5a564736f6c634300080a0033\n}\n",
    "bytecode": {
      "linkReferences": {},
      "object": "608060405234801561001057600080fd5b50610ca0806100206000396000f3fe608060405234801561001057600080fd5b50600436106100625760003560e01c80630b2551c2146100675780634a54315c146100975780637dd56411146100b3578063a95ceb64146100e3578063cea6ab9814610113578063deb931a214610144575b600080fd5b610081600480360381019061007c91906105e4565b610174565b60405161008e919061062c565b60405180910390f35b6100b160048036038101906100ac919061078d565b6101a0565b005b6100cd60048036038101906100c891906105e4565b61045e565b6040516100da919061082a565b60405180910390f35b6100fd60048036038101906100f891906105e4565b610491565b60405161010a91906108bc565b60405180910390f35b61012d600480360381019061012891906105e4565b61051f565b60405161013b9291906108d7565b60405180910390f35b61015e600480360381019061015991906105e4565b61055d565b60405161016b919061082a565b60405180910390f35b600080600083815260200190815260200160002060000160019054906101000a900460ff169050919050565b6101a982610174565b156101e9576040517f08c379a00000000000000000000000000000000000000000000000000000000081526004016101e09061095d565b60405180910390fd5b6000816040516020016101fc91906109f7565b604051602081830303815290604052805190602001209050600060405160200161022590610a5a565b6040516020818303038152906040528051906020012082141561024b5760009050610328565b60405160200161025a90610abb565b604051602081830303815290604052805190602001208214156102805760019050610327565b60405160200161028f90610b1c565b604051602081830303815290604052805190602001208214156102b55760029050610326565b6040516020016102c490610b7d565b604051602081830303815290604052805190602001208214156102ea5760039050610325565b6040517f08c379a000000000000000000000000000000000000000000000000000000000815260040161031c90610bde565b60405180910390fd5b5b5b5b604051806040016040528082600381111561034657610345610845565b5b81526020016001151581525060008086815260200190815260200160002060008201518160000160006101000a81548160ff0219169083600381111561038f5761038e610845565b5b021790555060208201518160000160016101000a81548160ff021916908315150217905550905050336001600086815260200190815260200160002060006101000a81548173ffffffffffffffffffffffffffffffffffffffff021916908373ffffffffffffffffffffffffffffffffffffffff1602179055503373ffffffffffffffffffffffffffffffffffffffff16847fd6d56ea8761c75b250e8945e72b16e25a0b7ffdfe55ed47968dde85c1d79679b8360405161045091906108bc565b60405180910390a350505050565b60016020528060005260406000206000915054906101000a900473ffffffffffffffffffffffffffffffffffffffff1681565b600080600083815260200190815260200160002060000160019054906101000a900460ff166104f5576040517f08c379a00000000000000000000000000000000000000000000000000000000081526004016104ec90610c4a565b60405180910390fd5b60008083815260200190815260200160002060000160009054906101000a900460ff169050919050565b60006020528060005260406000206000915090508060000160009054906101000a900460ff16908060000160019054906101000a900460ff16905082565b60006001600083815260200190815260200160002060009054906101000a900473ffffffffffffffffffffffffffffffffffffffff169050919050565b6000604051905090565b600080fd5b600080fd5b6000819050919050565b6105c1816105ae565b81146105cc57600080fd5b50565b6000813590506105de816105b8565b92915050565b6000602082840312156105fa576105f96105a4565b5b6000610608848285016105cf565b91505092915050565b60008115159050919050565b61062681610611565b82525050565b6000602082019050610641600083018461061d565b92915050565b600080fd5b600080fd5b6000601f19601f8301169050919050565b7f4e487b7100000000000000000000000000000000000000000000000000000000600052604160045260246000fd5b61069a82610651565b810181811067ffffffffffffffff821117156106b9576106b8610662565b5b80604052505050565b60006106cc61059a565b90506106d88282610691565b919050565b600067ffffffffffffffff8211156106f8576106f7610662565b5b61070182610651565b9050602081019050919050565b82818337600083830152505050565b600061073061072b846106dd565b6106c2565b90508281526020810184848401111561074c5761074b61064c565b5b61075784828561070e565b509392505050565b600082601f83011261077457610773610647565b5b813561078484826020860161071d565b91505092915050565b600080604083850312156107a4576107a36105a4565b5b60006107b2858286016105cf565b925050602083013567ffffffffffffffff8111156107d3576107d26105a9565b5b6107df8582860161075f565b9150509250929050565b600073ffffffffffffffffffffffffffffffffffffffff82169050919050565b6000610814826107e9565b9050919050565b61082481610809565b82525050565b600060208201905061083f600083018461081b565b92915050565b7f4e487b7100000000000000000000000000000000000000000000000000000000600052602160045260246000fd5b6004811061088557610884610845565b5b50565b600081905061089682610874565b919050565b60006108a682610888565b9050919050565b6108b68161089b565b82525050565b60006020820190506108d160008301846108ad565b92915050565b60006040820190506108ec60008301856108ad565b6108f9602083018461061d565b9392505050565b600082825260208201905092915050565b7f5573657220616c72656164792072656769737465726564210000000000000000600082015250565b6000610947601883610900565b915061095282610911565b602082019050919050565b600060208201905081810360008301526109768161093a565b9050919050565b600081519050919050565b600081905092915050565b60005b838110156109b1578082015181840152602081019050610996565b838111156109c0576000848401525b50505050565b60006109d18261097d565b6109db8185610988565b93506109eb818560208601610993565b80840191505092915050565b6000610a0382846109c6565b915081905092915050565b7f50617469656e7400000000000000000000000000000000000000000000000000600082015250565b6000610a44600783610988565b9150610a4f82610a0e565b600782019050919050565b6000610a6582610a37565b9150819050919050565b7f4361726550726f76696465720000000000000000000000000000000000000000600082015250565b6000610aa5600c83610988565b9150610ab082610a6f565b600c82019050919050565b6000610ac682610a98565b9150819050919050565b7f5265736561726368657200000000000000000000000000000000000000000000600082015250565b6000610b06600a83610988565b9150610b1182610ad0565b600a82019050919050565b6000610b2782610af9565b9150819050919050565b7f526567756c61746f720000000000000000000000000000000000000000000000600082015250565b6000610b67600983610988565b9150610b7282610b31565b600982019050919050565b6000610b8882610b5a565b9150819050919050565b7f496e76616c696420726f6c652100000000000000000000000000000000000000600082015250565b6000610bc8600d83610900565b9150610bd382610b92565b602082019050919050565b60006020820190508181036000830152610bf781610bbb565b9050919050565b7f55736572206e6f74207265676973746572656400000000000000000000000000600082015250565b6000610c34601383610900565b9150610c3f82610bfe565b602082019050919050565b60006020820190508181036000830152610c6381610c27565b905091905056fea2646970667358221220772ce32e0bbdd6bf65c77769de21fe56a0055c18100da53bd7be9a4a3bbfe5a564736f6c634300080a0033",
      "opcodes": "PUSH1 0x80 PUSH1 0x40 MSTORE CALLVALUE DUP1 ISZERO PUSH2 0x10 JUMPI PUSH1 0x0 DUP1 REVERT JUMPDEST POP PUSH2 0xCA0 DUP1 PUSH2 0x20 PUSH1 0x0 CODECOPY PUSH1 0x0 RETURN INVALID PUSH1 0x80 PUSH1 0x40 MSTORE CALLVALUE DUP1 ISZERO PUSH2 0x10 JUMPI PUSH1 0x0 DUP1 REVERT JUMPDEST POP PUSH1 0x4 CALLDATASIZE LT PUSH2 0x62 JUMPI PUSH1 0x0 CALLDATALOAD PUSH1 0xE0 SHR DUP1 PUSH4 0xB2551C2 EQ PUSH2 0x67 JUMPI DUP1 PUSH4 0x4A54315C EQ PUSH2 0x97 JUMPI DUP1 PUSH4 0x7DD56411 EQ PUSH2 0xB3 JUMPI DUP1 PUSH4 0xA95CEB64 EQ PUSH2 0xE3 JUMPI DUP1 PUSH4 0xCEA6AB98 EQ PUSH2 0x113 JUMPI DUP1 PUSH4 0xDEB931A2 EQ PUSH2 0x144 JUMPI JUMPDEST PUSH1 0x0 DUP1 REVERT JUMPDEST PUSH2 0x81 PUSH1 0x4 DUP1 CALLDATASIZE SUB DUP2 ADD SWAP1 PUSH2 0x7C SWAP2 SWAP1 PUSH2 0x5E4 JUMP JUMPDEST PUSH2 0x174 JUMP JUMPDEST PUSH1 0x40 MLOAD PUSH2 0x8E SWAP2 SWAP1 PUSH2 0x62C JUMP JUMPDEST PUSH1 0x40 MLOAD DUP1 SWAP2 SUB SWAP1 RETURN JUMPDEST PUSH2 0xB1 PUSH1 0x4 DUP1 CALLDATASIZE SUB DUP2 ADD SWAP1 PUSH2 0xAC SWAP2 SWAP1 PUSH2 0x78D JUMP JUMPDEST PUSH2 0x1A0 JUMP JUMPDEST STOP JUMPDEST PUSH2 0xCD PUSH1 0x4 DUP1 CALLDATASIZE SUB DUP2 ADD SWAP1 PUSH2 0xC8 SWAP2 SWAP1 PUSH2 0x5E4 JUMP JUMPDEST PUSH2 0x45E JUMP JUMPDEST PUSH1 0x40 MLOAD PUSH2 0xDA SWAP2 SWAP1 PUSH2 0x82A JUMP JUMPDEST PUSH1 0x40 MLOAD DUP1 SWAP2 SUB SWAP1 RETURN JUMPDEST PUSH2 0xFD PUSH1 0x4 DUP1 CALLDATASIZE SUB DUP2 ADD SWAP1 PUSH2 0xF8 SWAP2 SWAP1 PUSH2 0x5E4 JUMP JUMPDEST PUSH2 0x491 JUMP JUMPDEST PUSH1 0x40 MLOAD PUSH2 0x10A SWAP2 SWAP1 PUSH2 0x8BC JUMP JUMPDEST PUSH1 0x40 MLOAD DUP1 SWAP2 SUB SWAP1 RETURN JUMPDEST PUSH2 0x12D PUSH1 0x4 DUP1 CALLDATASIZE SUB DUP2 ADD SWAP1 PUSH2 0x128 SWAP2 SWAP1 PUSH2 0x5E4 JUMP JUMPDEST PUSH2 0x51F JUMP JUMPDEST PUSH1 0x40 MLOAD PUSH2 0x13B SWAP3 SWAP2 SWAP1 PUSH2 0x8D7 JUMP JUMPDEST PUSH1 0x40 MLOAD DUP1 SWAP2 SUB SWAP1 RETURN JUMPDEST PUSH2 0x15E PUSH1 0x4 DUP1 CALLDATASIZE SUB DUP2 ADD SWAP1 PUSH2 0x159 SWAP2 SWAP1 PUSH2 0x5E4 JUMP JUMPDEST PUSH2 0x55D JUMP JUMPDEST PUSH1 0x40 MLOAD PUSH2 0x16B SWAP2 SWAP1 PUSH2 0x82A JUMP JUMPDEST PUSH1 0x40 MLOAD DUP1 SWAP2 SUB SWAP1 RETURN JUMPDEST PUSH1 0x0 DUP1 PUSH1 0x0 DUP4 DUP2 MSTORE PUSH1 0x20 ADD SWAP1 DUP2 MSTORE PUSH1 0x20 ADD PUSH1 0x0 KECCAK256 PUSH1 0x0 ADD PUSH1 0x1 SWAP1 SLOAD SWAP1 PUSH2 0x100 EXP SWAP1 DIV PUSH1 0xFF AND SWAP1 POP SWAP2 SWAP1 POP JUMP JUMPDEST PUSH2 0x1A9 DUP3 PUSH2 0x174 JUMP JUMPDEST ISZERO PUSH2 0x1E9 JUMPI PUSH1 0x40 MLOAD PUSH32 0x8C379A000000000000000000000000000000000000000000000000000000000 DUP2 MSTORE PUSH1 0x4 ADD PUSH2 0x1E0 SWAP1 PUSH2 0x95D JUMP JUMPDEST PUSH1 0x40 MLOAD DUP1 SWAP2 SUB SWAP1 REVERT JUMPDEST PUSH1 0x0 DUP2 PUSH1 0x40 MLOAD PUSH1 0x20 ADD PUSH2 0x1FC SWAP2 SWAP1 PUSH2 0x9F7 JUMP JUMPDEST PUSH1 0x40 MLOAD PUSH1 0x20 DUP2 DUP4 SUB SUB DUP2 MSTORE SWAP1 PUSH1 0x40 MSTORE DUP1 MLOAD SWAP1 PUSH1 0x20 ADD KECCAK256 SWAP1 POP PUSH1 0x0 PUSH1 0x40 MLOAD PUSH1 0x20 ADD PUSH2 0x225 SWAP1 PUSH2 0xA5A JUMP JUMPDEST PUSH1 0x40 MLOAD PUSH1 0x20 DUP2 DUP4 SUB SUB DUP2 MSTORE SWAP1 PUSH1 0x40 MSTORE DUP1 MLOAD SWAP1 PUSH1 0x20 ADD KECCAK256 DUP3 EQ ISZERO PUSH2 0x24B JUMPI PUSH1 0x0 SWAP1 POP PUSH2 0x328 JUMP JUMPDEST PUSH1 0x40 MLOAD PUSH1 0x20 ADD PUSH2 0x25A SWAP1 PUSH2 0xABB JUMP JUMPDEST PUSH1 0x40 MLOAD PUSH1 0x20 DUP2 DUP4 SUB SUB DUP2 MSTORE SWAP1 PUSH1 0x40 MSTORE DUP1 MLOAD SWAP1 PUSH1 0x20 ADD KECCAK256 DUP3 EQ ISZERO PUSH2 0x280 JUMPI PUSH1 0x1 SWAP1 POP PUSH2 0x327 JUMP JUMPDEST PUSH1 0x40 MLOAD PUSH1 0x20 ADD PUSH2 0x28F SWAP1 PUSH2 0xB1C JUMP JUMPDEST PUSH1 0x40 MLOAD PUSH1 0x20 DUP2 DUP4 SUB SUB DUP2 MSTORE SWAP1 PUSH1 0x40 MSTORE DUP1 MLOAD SWAP1 PUSH1 0x20 ADD KECCAK256 DUP3 EQ ISZERO PUSH2 0x2B5 JUMPI PUSH1 0x2 SWAP1 POP PUSH2 0x326 JUMP JUMPDEST PUSH1 0x40 MLOAD PUSH1 0x20 ADD PUSH2 0x2C4 SWAP1 PUSH2 0xB7D JUMP JUMPDEST PUSH1 0x40 MLOAD PUSH1 0x20 DUP2 DUP4 SUB SUB DUP2 MSTORE SWAP1 PUSH1 0x40 MSTORE DUP1 MLOAD SWAP1 PUSH1 0x20 ADD KECCAK256 DUP3 EQ ISZERO PUSH2 0x2EA JUMPI PUSH1 0x3 SWAP1 POP PUSH2 0x325 JUMP JUMPDEST PUSH1 0x40 MLOAD PUSH32 0x8C379A000000000000000000000000000000000000000000000000000000000 DUP2 MSTORE PUSH1 0x4 ADD PUSH2 0x31C SWAP1 PUSH2 0xBDE JUMP JUMPDEST PUSH1 0x40 MLOAD DUP1 SWAP2 SUB SWAP1 REVERT JUMPDEST JUMPDEST JUMPDEST JUMPDEST PUSH1 0x40 MLOAD DUP1 PUSH1 0x40 ADD PUSH1 0x40 MSTORE DUP1 DUP3 PUSH1 0x3 DUP2 GT ISZERO PUSH2 0x346 JUMPI PUSH2 0x345 PUSH2 0x845 JUMP JUMPDEST JUMPDEST DUP2 MSTORE PUSH1 0x20 ADD PUSH1 0x1 ISZERO ISZERO DUP2 MSTORE POP PUSH1 0x0 DUP1 DUP7 DUP2 MSTORE PUSH1 0x20 ADD SWAP1 DUP2 MSTORE PUSH1 0x20 ADD PUSH1 0x0 KECCAK256 PUSH1 0x0 DUP3 ADD MLOAD DUP2 PUSH1 0x0 ADD PUSH1 0x0 PUSH2 0x100 EXP DUP2 SLOAD DUP2 PUSH1 0xFF MUL NOT AND SWAP1 DUP4 PUSH1 0x3 DUP2 GT ISZERO PUSH2 0x38F JUMPI PUSH2 0x38E PUSH2 0x845 JUMP JUMPDEST JUMPDEST MUL OR SWAP1 SSTORE POP PUSH1 0x20 DUP3 ADD MLOAD DUP2 PUSH1 0x0 ADD PUSH1 0x1 PUSH2 0x100 EXP DUP2 SLOAD DUP2 PUSH1 0xFF MUL NOT AND SWAP1 DUP4 ISZERO ISZERO MUL OR SWAP1 SSTORE POP SWAP1 POP POP CALLER PUSH1 0x1 PUSH1 0x0 DUP7 DUP2 MSTORE PUSH1 0x20 ADD SWAP1 DUP2 MSTORE PUSH1 0x20 ADD PUSH1 0x0 KECCAK256 PUSH1 0x0 PUSH2 0x100 EXP DUP2 SLOAD DUP2 PUSH20 0xFFFFFFFFFFFFFFFFFFFFFFFFFFFFFFFFFFFFFFFF MUL NOT AND SWAP1 DUP4 PUSH20 0xFFFFFFFFFFFFFFFFFFFFFFFFFFFFFFFFFFFFFFFF AND MUL OR SWAP1 SSTORE POP CALLER PUSH20 0xFFFFFFFFFFFFFFFFFFFFFFFFFFFFFFFFFFFFFFFF AND DUP5 PUSH32 0xD6D56EA8761C75B250E8945E72B16E25A0B7FFDFE55ED47968DDE85C1D79679B DUP4 PUSH1 0x40 MLOAD PUSH2 0x450 SWAP2 SWAP1 PUSH2 0x8BC JUMP JUMPDEST PUSH1 0x40 MLOAD DUP1 SWAP2 SUB SWAP1 LOG3 POP POP POP POP JUMP JUMPDEST PUSH1 0x1 PUSH1 0x20 MSTORE DUP1 PUSH1 0x0 MSTORE PUSH1 0x40 PUSH1 0x0 KECCAK256 PUSH1 0x0 SWAP2 POP SLOAD SWAP1 PUSH2 0x100 EXP SWAP1 DIV PUSH20 0xFFFFFFFFFFFFFFFFFFFFFFFFFFFFFFFFFFFFFFFF AND DUP2 JUMP JUMPDEST PUSH1 0x0 DUP1 PUSH1 0x0 DUP4 DUP2 MSTORE PUSH1 0x20 ADD SWAP1 DUP2 MSTORE PUSH1 0x20 ADD PUSH1 0x0 KECCAK256 PUSH1 0x0 ADD PUSH1 0x1 SWAP1 SLOAD SWAP1 PUSH2 0x100 EXP SWAP1 DIV PUSH1 0xFF AND PUSH2 0x4F5 JUMPI PUSH1 0x40 MLOAD PUSH32 0x8C379A000000000000000000000000000000000000000000000000000000000 DUP2 MSTORE PUSH1 0x4 ADD PUSH2 0x4EC SWAP1 PUSH2 0xC4A JUMP JUMPDEST PUSH1 0x40 MLOAD DUP1 SWAP2 SUB SWAP1 REVERT JUMPDEST PUSH1 0x0 DUP1 DUP4 DUP2 MSTORE PUSH1 0x20 ADD SWAP1 DUP2 MSTORE PUSH1 0x20 ADD PUSH1 0x0 KECCAK256 PUSH1 0x0 ADD PUSH1 0x0 SWAP1 SLOAD SWAP1 PUSH2 0x100 EXP SWAP1 DIV PUSH1 0xFF AND SWAP1 POP SWAP2 SWAP1 POP JUMP JUMPDEST PUSH1 0x0 PUSH1 0x20 MSTORE DUP1 PUSH1 0x0 MSTORE PUSH1 0x40 PUSH1 0x0 KECCAK256 PUSH1 0x0 SWAP2 POP SWAP1 POP DUP1 PUSH1 0x0 ADD PUSH1 0x0 SWAP1 SLOAD SWAP1 PUSH2 0x100 EXP SWAP1 DIV PUSH1 0xFF AND SWAP1 DUP1 PUSH1 0x0 ADD PUSH1 0x1 SWAP1 SLOAD SWAP1 PUSH2 0x100 EXP SWAP1 DIV PUSH1 0xFF AND SWAP1 POP DUP3 JUMP JUMPDEST PUSH1 0x0 PUSH1 0x1 PUSH1 0x0 DUP4 DUP2 MSTORE PUSH1 0x20 ADD SWAP1 DUP2 MSTORE PUSH1 0x20 ADD PUSH1 0x0 KECCAK256 PUSH1 0x0 SWAP1 SLOAD SWAP1 PUSH2 0x100 EXP SWAP1 DIV PUSH20 0xFFFFFFFFFFFFFFFFFFFFFFFFFFFFFFFFFFFFFFFF AND SWAP1 POP SWAP2 SWAP1 POP JUMP JUMPDEST PUSH1 0x0 PUSH1 0x40 MLOAD SWAP1 POP SWAP1 JUMP JUMPDEST PUSH1 0x0 DUP1 REVERT JUMPDEST PUSH1 0x0 DUP1 REVERT JUMPDEST PUSH1 0x0 DUP2 SWAP1 POP SWAP2 SWAP1 POP JUMP JUMPDEST PUSH2 0x5C1 DUP2 PUSH2 0x5AE JUMP JUMPDEST DUP2 EQ PUSH2 0x5CC JUMPI PUSH1 0x0 DUP1 REVERT JUMPDEST POP JUMP JUMPDEST PUSH1 0x0 DUP2 CALLDATALOAD SWAP1 POP PUSH2 0x5DE DUP2 PUSH2 0x5B8 JUMP JUMPDEST SWAP3 SWAP2 POP POP JUMP JUMPDEST PUSH1 0x0 PUSH1 0x20 DUP3 DUP5 SUB SLT ISZERO PUSH2 0x5FA JUMPI PUSH2 0x5F9 PUSH2 0x5A4 JUMP JUMPDEST JUMPDEST PUSH1 0x0 PUSH2 0x608 DUP5 DUP3 DUP6 ADD PUSH2 0x5CF JUMP JUMPDEST SWAP2 POP POP SWAP3 SWAP2 POP POP JUMP JUMPDEST PUSH1 0x0 DUP2 ISZERO ISZERO SWAP1 POP SWAP2 SWAP1 POP JUMP JUMPDEST PUSH2 0x626 DUP2 PUSH2 0x611 JUMP JUMPDEST DUP3 MSTORE POP POP JUMP JUMPDEST PUSH1 0x0 PUSH1 0x20 DUP3 ADD SWAP1 POP PUSH2 0x641 PUSH1 0x0 DUP4 ADD DUP5 PUSH2 0x61D JUMP JUMPDEST SWAP3 SWAP2 POP POP JUMP JUMPDEST PUSH1 0x0 DUP1 REVERT JUMPDEST PUSH1 0x0 DUP1 REVERT JUMPDEST PUSH1 0x0 PUSH1 0x1F NOT PUSH1 0x1F DUP4 ADD AND SWAP1 POP SWAP2 SWAP1 POP JUMP JUMPDEST PUSH32 0x4E487B7100000000000000000000000000000000000000000000000000000000 PUSH1 0x0 MSTORE PUSH1 0x41 PUSH1 0x4 MSTORE PUSH1 0x24 PUSH1 0x0 REVERT JUMPDEST PUSH2 0x69A DUP3 PUSH2 0x651 JUMP JUMPDEST DUP2 ADD DUP2 DUP2 LT PUSH8 0xFFFFFFFFFFFFFFFF DUP3 GT OR ISZERO PUSH2 0x6B9 JUMPI PUSH2 0x6B8 PUSH2 0x662 JUMP JUMPDEST JUMPDEST DUP1 PUSH1 0x40 MSTORE POP POP POP JUMP JUMPDEST PUSH1 0x0 PUSH2 0x6CC PUSH2 0x59A JUMP JUMPDEST SWAP1 POP PUSH2 0x6D8 DUP3 DUP3 PUSH2 0x691 JUMP JUMPDEST SWAP2 SWAP1 POP JUMP JUMPDEST PUSH1 0x0 PUSH8 0xFFFFFFFFFFFFFFFF DUP3 GT ISZERO PUSH2 0x6F8 JUMPI PUSH2 0x6F7 PUSH2 0x662 JUMP JUMPDEST JUMPDEST PUSH2 0x701 DUP3 PUSH2 0x651 JUMP JUMPDEST SWAP1 POP PUSH1 0x20 DUP2 ADD SWAP1 POP SWAP2 SWAP1 POP JUMP JUMPDEST DUP3 DUP2 DUP4 CALLDATACOPY PUSH1 0x0 DUP4 DUP4 ADD MSTORE POP POP POP JUMP JUMPDEST PUSH1 0x0 PUSH2 0x730 PUSH2 0x72B DUP5 PUSH2 0x6DD JUMP JUMPDEST PUSH2 0x6C2 JUMP JUMPDEST SWAP1 POP DUP3 DUP2 MSTORE PUSH1 0x20 DUP2 ADD DUP5 DUP5 DUP5 ADD GT ISZERO PUSH2 0x74C JUMPI PUSH2 0x74B PUSH2 0x64C JUMP JUMPDEST JUMPDEST PUSH2 0x757 DUP5 DUP3 DUP6 PUSH2 0x70E JUMP JUMPDEST POP SWAP4 SWAP3 POP POP POP JUMP JUMPDEST PUSH1 0x0 DUP3 PUSH1 0x1F DUP4 ADD SLT PUSH2 0x774 JUMPI PUSH2 0x773 PUSH2 0x647 JUMP JUMPDEST JUMPDEST DUP2 CALLDATALOAD PUSH2 0x784 DUP5 DUP3 PUSH1 0x20 DUP7 ADD PUSH2 0x71D JUMP JUMPDEST SWAP2 POP POP SWAP3 SWAP2 POP POP JUMP JUMPDEST PUSH1 0x0 DUP1 PUSH1 0x40 DUP4 DUP6 SUB SLT ISZERO PUSH2 0x7A4 JUMPI PUSH2 0x7A3 PUSH2 0x5A4 JUMP JUMPDEST JUMPDEST PUSH1 0x0 PUSH2 0x7B2 DUP6 DUP3 DUP7 ADD PUSH2 0x5CF JUMP JUMPDEST SWAP3 POP POP PUSH1 0x20 DUP4 ADD CALLDATALOAD PUSH8 0xFFFFFFFFFFFFFFFF DUP2 GT ISZERO PUSH2 0x7D3 JUMPI PUSH2 0x7D2 PUSH2 0x5A9 JUMP JUMPDEST JUMPDEST PUSH2 0x7DF DUP6 DUP3 DUP7 ADD PUSH2 0x75F JUMP JUMPDEST SWAP2 POP POP SWAP3 POP SWAP3 SWAP1 POP JUMP JUMPDEST PUSH1 0x0 PUSH20 0xFFFFFFFFFFFFFFFFFFFFFFFFFFFFFFFFFFFFFFFF DUP3 AND SWAP1 POP SWAP2 SWAP1 POP JUMP JUMPDEST PUSH1 0x0 PUSH2 0x814 DUP3 PUSH2 0x7E9 JUMP JUMPDEST SWAP1 POP SWAP2 SWAP1 POP JUMP JUMPDEST PUSH2 0x824 DUP2 PUSH2 0x809 JUMP JUMPDEST DUP3 MSTORE POP POP JUMP JUMPDEST PUSH1 0x0 PUSH1 0x20 DUP3 ADD SWAP1 POP PUSH2 0x83F PUSH1 0x0 DUP4 ADD DUP5 PUSH2 0x81B JUMP JUMPDEST SWAP3 SWAP2 POP POP JUMP JUMPDEST PUSH32 0x4E487B7100000000000000000000000000000000000000000000000000000000 PUSH1 0x0 MSTORE PUSH1 0x21 PUSH1 0x4 MSTORE PUSH1 0x24 PUSH1 0x0 REVERT JUMPDEST PUSH1 0x4 DUP2 LT PUSH2 0x885 JUMPI PUSH2 0x884 PUSH2 0x845 JUMP JUMPDEST JUMPDEST POP JUMP JUMPDEST PUSH1 0x0 DUP2 SWAP1 POP PUSH2 0x896 DUP3 PUSH2 0x874 JUMP JUMPDEST SWAP2 SWAP1 POP JUMP JUMPDEST PUSH1 0x0 PUSH2 0x8A6 DUP3 PUSH2 0x888 JUMP JUMPDEST SWAP1 POP SWAP2 SWAP1 POP JUMP JUMPDEST PUSH2 0x8B6 DUP2 PUSH2 0x89B JUMP JUMPDEST DUP3 MSTORE POP POP JUMP JUMPDEST PUSH1 0x0 PUSH1 0x20 DUP3 ADD SWAP1 POP PUSH2 0x8D1 PUSH1 0x0 DUP4 ADD DUP5 PUSH2 0x8AD JUMP JUMPDEST SWAP3 SWAP2 POP POP JUMP JUMPDEST PUSH1 0x0 PUSH1 0x40 DUP3 ADD SWAP1 POP PUSH2 0x8EC PUSH1 0x0 DUP4 ADD DUP6 PUSH2 0x8AD JUMP JUMPDEST PUSH2 0x8F9 PUSH1 0x20 DUP4 ADD DUP5 PUSH2 0x61D JUMP JUMPDEST SWAP4 SWAP3 POP POP POP JUMP JUMPDEST PUSH1 0x0 DUP3 DUP3 MSTORE PUSH1 0x20 DUP3 ADD SWAP1 POP SWAP3 SWAP2 POP POP JUMP JUMPDEST PUSH32 0x5573657220616C72656164792072656769737465726564210000000000000000 PUSH1 0x0 DUP3 ADD MSTORE POP JUMP JUMPDEST PUSH1 0x0 PUSH2 0x947 PUSH1 0x18 DUP4 PUSH2 0x900 JUMP JUMPDEST SWAP2 POP PUSH2 0x952 DUP3 PUSH2 0x911 JUMP JUMPDEST PUSH1 0x20 DUP3 ADD SWAP1 POP SWAP2 SWAP1 POP JUMP JUMPDEST PUSH1 0x0 PUSH1 0x20 DUP3 ADD SWAP1 POP DUP2 DUP2 SUB PUSH1 0x0 DUP4 ADD MSTORE PUSH2 0x976 DUP2 PUSH2 0x93A JUMP JUMPDEST SWAP1 POP SWAP2 SWAP1 POP JUMP JUMPDEST PUSH1 0x0 DUP2 MLOAD SWAP1 POP SWAP2 SWAP1 POP JUMP JUMPDEST PUSH1 0x0 DUP2 SWAP1 POP SWAP3 SWAP2 POP POP JUMP JUMPDEST PUSH1 0x0 JUMPDEST DUP4 DUP2 LT ISZERO PUSH2 0x9B1 JUMPI DUP1 DUP3 ADD MLOAD DUP2 DUP5 ADD MSTORE PUSH1 0x20 DUP2 ADD SWAP1 POP PUSH2 0x996 JUMP JUMPDEST DUP4 DUP2 GT ISZERO PUSH2 0x9C0 JUMPI PUSH1 0x0 DUP5 DUP5 ADD MSTORE JUMPDEST POP POP POP POP JUMP JUMPDEST PUSH1 0x0 PUSH2 0x9D1 DUP3 PUSH2 0x97D JUMP JUMPDEST PUSH2 0x9DB DUP2 DUP6 PUSH2 0x988 JUMP JUMPDEST SWAP4 POP PUSH2 0x9EB DUP2 DUP6 PUSH1 0x20 DUP7 ADD PUSH2 0x993 JUMP JUMPDEST DUP1 DUP5 ADD SWAP2 POP POP SWAP3 SWAP2 POP POP JUMP JUMPDEST PUSH1 0x0 PUSH2 0xA03 DUP3 DUP5 PUSH2 0x9C6 JUMP JUMPDEST SWAP2 POP DUP2 SWAP1 POP SWAP3 SWAP2 POP POP JUMP JUMPDEST PUSH32 0x50617469656E7400000000000000000000000000000000000000000000000000 PUSH1 0x0 DUP3 ADD MSTORE POP JUMP JUMPDEST PUSH1 0x0 PUSH2 0xA44 PUSH1 0x7 DUP4 PUSH2 0x988 JUMP JUMPDEST SWAP2 POP PUSH2 0xA4F DUP3 PUSH2 0xA0E JUMP JUMPDEST PUSH1 0x7 DUP3 ADD SWAP1 POP SWAP2 SWAP1 POP JUMP JUMPDEST PUSH1 0x0 PUSH2 0xA65 DUP3 PUSH2 0xA37 JUMP JUMPDEST SWAP2 POP DUP2 SWAP1 POP SWAP2 SWAP1 POP JUMP JUMPDEST PUSH32 0x4361726550726F76696465720000000000000000000000000000000000000000 PUSH1 0x0 DUP3 ADD MSTORE POP JUMP JUMPDEST PUSH1 0x0 PUSH2 0xAA5 PUSH1 0xC DUP4 PUSH2 0x988 JUMP JUMPDEST SWAP2 POP PUSH2 0xAB0 DUP3 PUSH2 0xA6F JUMP JUMPDEST PUSH1 0xC DUP3 ADD SWAP1 POP SWAP2 SWAP1 POP JUMP JUMPDEST PUSH1 0x0 PUSH2 0xAC6 DUP3 PUSH2 0xA98 JUMP JUMPDEST SWAP2 POP DUP2 SWAP1 POP SWAP2 SWAP1 POP JUMP JUMPDEST PUSH32 0x5265736561726368657200000000000000000000000000000000000000000000 PUSH1 0x0 DUP3 ADD MSTORE POP JUMP JUMPDEST PUSH1 0x0 PUSH2 0xB06 PUSH1 0xA DUP4 PUSH2 0x988 JUMP JUMPDEST SWAP2 POP PUSH2 0xB11 DUP3 PUSH2 0xAD0 JUMP JUMPDEST PUSH1 0xA DUP3 ADD SWAP1 POP SWAP2 SWAP1 POP JUMP JUMPDEST PUSH1 0x0 PUSH2 0xB27 DUP3 PUSH2 0xAF9 JUMP JUMPDEST SWAP2 POP DUP2 SWAP1 POP SWAP2 SWAP1 POP JUMP JUMPDEST PUSH32 0x526567756C61746F720000000000000000000000000000000000000000000000 PUSH1 0x0 DUP3 ADD MSTORE POP JUMP JUMPDEST PUSH1 0x0 PUSH2 0xB67 PUSH1 0x9 DUP4 PUSH2 0x988 JUMP JUMPDEST SWAP2 POP PUSH2 0xB72 DUP3 PUSH2 0xB31 JUMP JUMPDEST PUSH1 0x9 DUP3 ADD SWAP1 POP SWAP2 SWAP1 POP JUMP JUMPDEST PUSH1 0x0 PUSH2 0xB88 DUP3 PUSH2 0xB5A JUMP JUMPDEST SWAP2 POP DUP2 SWAP1 POP SWAP2 SWAP1 POP JUMP JUMPDEST PUSH32 0x496E76616C696420726F6C652100000000000000000000000000000000000000 PUSH1 0x0 DUP3 ADD MSTORE POP JUMP JUMPDEST PUSH1 0x0 PUSH2 0xBC8 PUSH1 0xD DUP4 PUSH2 0x900 JUMP JUMPDEST SWAP2 POP PUSH2 0xBD3 DUP3 PUSH2 0xB92 JUMP JUMPDEST PUSH1 0x20 DUP3 ADD SWAP1 POP SWAP2 SWAP1 POP JUMP JUMPDEST PUSH1 0x0 PUSH1 0x20 DUP3 ADD SWAP1 POP DUP2 DUP2 SUB PUSH1 0x0 DUP4 ADD MSTORE PUSH2 0xBF7 DUP2 PUSH2 0xBBB JUMP JUMPDEST SWAP1 POP SWAP2 SWAP1 POP JUMP JUMPDEST PUSH32 0x55736572206E6F74207265676973746572656400000000000000000000000000 PUSH1 0x0 DUP3 ADD MSTORE POP JUMP JUMPDEST PUSH1 0x0 PUSH2 0xC34 PUSH1 0x13 DUP4 PUSH2 0x900 JUMP JUMPDEST SWAP2 POP PUSH2 0xC3F DUP3 PUSH2 0xBFE JUMP JUMPDEST PUSH1 0x20 DUP3 ADD SWAP1 POP SWAP2 SWAP1 POP JUMP JUMPDEST PUSH1 0x0 PUSH1 0x20 DUP3 ADD SWAP1 POP DUP2 DUP2 SUB PUSH1 0x0 DUP4 ADD MSTORE PUSH2 0xC63 DUP2 PUSH2 0xC27 JUMP JUMPDEST SWAP1 POP SWAP2 SWAP1 POP JUMP INVALID LOG2 PUSH5 0x6970667358 0x22 SLT KECCAK256 PUSH24 0x2CE32E0BBDD6BF65C77769DE21FE56A0055C18100DA53BD7 0xBE SWAP11 0x4A EXTCODESIZE 0xBF 0xE5 0xA5 PUSH5 0x736F6C6343 STOP ADDMOD EXP STOP CALLER "
    },
    "gasEstimates": {
      "creation": {
        "codeDepositCost": "646400",
        "executionCost": "676",
        "totalCost": "647076"
      },
      "external": {
        "checkUser(bytes32)": "2856",
        "getOwner(bytes32)": "2953",
        "getUserRole(bytes32)": "5248",
        "ownerOf(bytes32)": "2861",
        "registerUser(bytes32,string)": "infinite",
        "users(bytes32)": "5280"
      }
    },
    "methodIdentifiers": {
      "checkUser(bytes32)": "0b2551c2",
      "getOwner(bytes32)": "deb931a2",
      "getUserRole(bytes32)": "a95ceb64",
      "ownerOf(bytes32)": "7dd56411",
      "registerUser(bytes32,string)": "4a54315c",
      "users(bytes32)": "cea6ab98"
    }
  },
  "storageLayout": {
    "storage": [
      {
        "astId": 230,
        "contract": "registry.sol:Registry",
        "label": "users",
        "offset": 0,
        "slot": "0",
        "type": "t_mapping(t_bytes32,t_struct(User)225_storage)"
      },
      {
        "astId": 234,
        "contract": "registry.sol:Registry",
        "label": "ownerOf",
        "offset": 0,
        "slot": "1",
        "type": "t_mapping(t_bytes32,t_address)"
      }
    ],
    "types": {
      "t_address": {
        "encoding": "inplace",
        "label": "address",
        "numberOfBytes": "20"
      },
      "t_bool": {
        "encoding": "inplace",
        "label": "bool",
        "numberOfBytes": "1"
      },
      "t_bytes32": {
        "encoding": "inplace",
        "label": "bytes32",
        "numberOfBytes": "32"
      },
      "t_enum(Role)219": {
        "encoding": "inplace",
        "label": "enum Registry.Role",
        "numberOfBytes": "1"
      },
      "t_mapping(t_bytes32,t_address)": {
        "encoding": "mapping",
        "key": "t_bytes32",
        "label": "mapping(bytes32 => address)",
        "numberOfBytes": "32",
        "value": "t_address"
      },
      "t_mapping(t_bytes32,t_struct(User)225_storage)": {
        "encoding": "mapping",
        "key": "t_bytes32",
        "label": "mapping(bytes32 => struct Registry.User)",
        "numberOfBytes": "32",
        "value": "t_struct(User)225_storage"
      },
      "t_struct(User)225_storage": {
        "encoding": "inplace",
        "label": "struct Registry.User",
        "members": [
          {
            "astId": 222,
            "contract": "registry.sol:Registry",
            "label": "role",
            "offset": 0,
            "slot": "0",
            "type": "t_enum(Role)219"
          },
          {
            "astId": 224,
            "contract": "registry.sol:Registry",
            "label": "isRegistered",
            "offset": 1,
            "slot": "0",
            "type": "t_bool"
          }
        ],
        "numberOfBytes": "32"
      }
    }
  },
  "userdoc": {
    "kind": "user",
    "methods": {},
    "version": 1
  }
}